:020000021000EC
:10800000004000204D050200950502009705020082
:108010000000000000000000000000000000000060
:1080200000000000000000000000000099050200B0
:1080300000000000000000009B0502009D050200FA
:108040009F0502009F0502009F0502009F05020098
:108050009F0502000000000015D00100D18C010036
:1080600099E901009F0502009F0502009F0502009B
:108070009F0502009F0502009F0502009F05020068
:108080009F05020041F101009F0502009F050200CB
:1080900035F201009F050200CDFC01009F050200A2
:1080A0009F0502009F050200000000000000000084
:1080B00000000000000000000000000000000000C0
:1080C000164B002B00D1144B9D46402292029A1A67
:1080D000924600218B460F461348144A121A00F0AC
:1080E00067F80F4B002B00D098470E4B002B00D0A9
:1080F00098470020002104000D000D48002802D000
:108100000C4800E000BF00F02DF82000290000F02E
:108110009DFE00F011F8C04600000800004000205D
:108120000000000000000000FC200020DC2E0020E9
:108130000000000000000000084B10B5041C002BDC
:1081400002D0002100E000BF054B1868836A002BB5
:1081500000D09847201C00F033F8C0460000000013
:108160002C1902000E4B70B500251E1C0D4CE41A94
:10817000A410A54204D0AB00F35898470135F8E7A6
:1081800009F0C6FB084B00251E1C084CE41AA4107D
:10819000A54204D0AB00F35898470135F8E770BD0D
:1081A000FC200020FC200020FC200020FC200020DF
:1081B000031C8218934202D019700133FAE770470A
:1081C000FEE7C04670DF704771DF704774DF7047AD
:1081D00076DF704778DF70477ADF70477CDF704763
:1081E0007FDF704782DF7047A7DF7047A8DF7047E7
:1081F000A9DF704760DF70472EDF704732DF7047BE
:1082000033DF70473CDF704748DF70477A2110B595
:10821000041C84B0FF31084A07F06EFC074B019440
:108220000093074B002002930649074A074B01F0D1
:1082300011FB04B010BDC046A81A0200F01A0200DB
:10824000F81A0200B81A0200E01A0200E81A020046
:1082500010B5072812D8354B80001B589F460320C5
:1082600001F00EFE002803D03149324A07F044FCE9
:1082700000203149314A324B01F0ECFA10BD0020A8
:1082800030492E4A2E4B01F0E5FAF7E72C4C00203E
:108290002D492A4A231C01F0DDFA00202B492C4AE3
:1082A000231C01F0D7FA002001F0EAFD002838D1A4
:1082B000FFF7A8FF0028E1D026491E4A07F01CFC62
:1082C000DCE7052001F0DCFD002803D02249194A33
:1082D00007F012FC00202149184A194B01F0BAFAA4
:1082E000CCE7022001F0CCFD002803D01C49114A44
:1082F00007F002FC00201B49104A114B01F0AAFABA
:10830000BCE7042001F0BCFD002803D01649094A4F
:1083100007F0F2FB00201549084A094B01F09AFAD0
:10832000ACE71349034A07F0E7FBC1E73019020045
:1083300067020000A81A0200401B0200201B020076
:10834000F81A0200A41B0200781B0200901B020016
:10835000F01A02007E0400005B020000041B020011
:1083600061020000281B02006D020000601B020079
:108370007A04000010B5041C05F08AFF201C02F0EE
:1083800041FA10BDF0B5041C8F4E85B0838800966D
:1083900002888E4F8E4D8F49019200203A1C029523
:1083A00001F058FA201C04F087F9201C02F048FF65
:1083B0008948211C03F0DAF98848211C02F0B2FF39
:1083C0002288522A00D9D5E085499300CB589F4690
:1083D00000220021002383480088FFF703FF0028C4
:1083E00003D08149814A07F087FB00208049321C75
:1083F0002B1C01F02FFA201C02F098F97D48211C5B
:108400007D4A01F0D9F805B0F0BD764B00211888FF
:1084100000220323FFF7ECFE002800D0C9E0002073
:108420007649321C2B1C01F015FAE4E70020744950
:108430003A1C01F00FFADEE70020724901F00AFA57
:10844000D9E70020704901F005FAD4E70020A2889E
:108450006E4901F0FFF9072001F012FD002800D05D
:10846000ACE0A2885F4B1A8006F0DCFC002800D04C
:108470009AE0009500206649664A674B01F0EAF9E8
:10848000B9E70020654901F0E5F90122554B524258
:108490001A80634B01950093002062495D4A01F008
:1084A000D9F9A8E70020604901F0D4F94D4B00212B
:1084B00018885E4A5E4BFFF793FE00286FD10020BC
:1084C0005C49321C2B1C01F0C5F994E75A4F201C63
:1084D000391C0E3012310A2208F0E4F943425841A7
:1084E000564BC0B21B79DA0738D5002800D16FE7A8
:1084F000391C9A0738D449E0A11D06224F4808F0DC
:10850000E0F900204E49321C2B1C01F0A3F972E760
:1085100004220092023201921A32A25C237A029261
:10852000002048493A1C01F095F9002346498B8008
:1085300002330B702B4B1888FFF758FE002800D130
:1085400059E74249294A07F0D7FA54E7E38800205F
:1085500000933F493A1C01F07DF94CE79A0714D586
:10856000002800D134E700213A4A5B0700D431E704
:10857000394B30E763880092019302950020374918
:108580003A1C331C01F066F935E7002100225B0735
:1085900000D41FE7002800D11CE72F4B1BE7304910
:1085A000124A07F0A9FA8AE72E49104A07F0A4FAFE
:1085B0005FE72D490D4A07F09FFA30E72B490B4A38
:1085C00007F09AFA4DE7C046041C0200FC1B0200AB
:1085D000F81A0200D41B0200FC240020E42500202D
:1085E000501902007C200020FF020000A81A02009F
:1085F000181D0200A424002050240020D81C0200D2
:10860000401D02007C1D0200A01D02000C1C020087
:108610002C1C0200481C0200501C0200581C0200C6
:10862000F01A0200701C0200941C02007C2400203E
:1086300064200020B81C020084240020F0240020C4
:10864000FC1C0200C41D0200E024002029030000DD
:10865000501D0200E0230020F8230020F81D020036
:10866000E2020000CB020000EB020000C1020000A9
:1086700030B5051C85B00C1C002A26D12378152B9B
:108680000CD0212B04D0142B02D0002005B030BD1B
:10869000291C0422204808F014F9F6E704231F4C93
:1086A000281C01A90293039403F00EFF002812D1A5
:1086B0002368DB0717D4281C03F00AFF0028E4D046
:1086C0001749184A07F018FADFE7101C1649154A2F
:1086D00007F012FAD2E7154B9842D6D01449114A46
:1086E00007F00AFAD1E7134B134A18880C21FFF759
:1086F0007BFD0823021C9A43DDD002220F4BC318D6
:108700009343D8D01128D6D00D4B9842D3D00D49E1
:10871000044A07F0F1F9CEE7F8240020A024002055
:108720006A030000A81A020017020000408000003F
:10873000720300007C200020FFFF0000FECFFFFF3F
:10874000013400006503000008B51D4B18881D4B5F
:10875000984217D01321FFF73BFD002825D10020B8
:1087600001F08EFB00281BD102F062FD002804D02E
:10877000E421154A890007F0BFF9FA20400004F00F
:108780006DFD08BDFFF722FD002813D1002001F088
:1087900077FB0028E8D00D490B4A07F0ADF9E3E775
:1087A0000B49094A07F0A8F9DEE70A49064A07F02B
:1087B000A3F9D4E70849044A07F09EF9E6E7C04662
:1087C0007C200020FFFF0000A81A020041030000E7
:1087D00087030000850300003E03000038B5051C38
:1087E0000C1C0A780020044901F034F8281C211CD4
:1087F00006F05CF938BDC046241E0200F8B51E1C08
:1088000002293AD0032925D0012900D0F8BD002043
:10881000002A50D12A4901F01DF8069B002B0AD0EE
:10882000341C284DF71822780020291C013407F049
:108830007FFEBC42F7D1244C211C002007F078FEBB
:10884000311C069A002007F0ABFA211C002007F02B
:108850006FFEDBE70020002A25D11C4900F0FAFF5B
:108860001B481C492022002305F04AFF0028CDD0D8
:1088700019491A4A07F040F9C8E70020002A16D122
:10888000174900F0E7FF069B002B0AD0341C0D4D62
:10889000F71822780020291C013407F049FEBC4259
:1088A000F7D1104CC8E7104900F0D4FFAEE70F49EC
:1088B00000F0D0FFAAE70E4900F0CCFFA6E7C046C3
:1088C000501E02006C1E0200681E0200CC1E020038
:1088D0002C2500205C240020D9030000A81A0200E7
:1088E000901E0200AC1E0200B01E0200741E0200A8
:1088F000341E020038B50C1C151C00200E49221C29
:1089000000F0A8FF00230D48211C03604360836032
:10891000C360036143618361C3612A1C07F0D1FF17
:108920000748202105F0D6FF002803D00549064A54
:1089300007F0E2F838BDC046E81E02005C240020C3
:108940002C250020A3030000A81A0200031CF0B588
:108950000D3B85B0061C072B00D98BE00B250F23A0
:1089600000276D4403AC0020291C2370677006F0BB
:1089700071FA2A78002A00D087E001232178802725
:108980000B43A120A021C000C905BF030F506948B7
:108990000A500120291C237006F05CFA2A78002A6C
:1089A00000D186E00223227880205340A022614932
:1089B000D205C00350500020043950500220291C19
:1089C000237006F047FA2A78002A00D186E00423B3
:1089D000227880205340A0225649D20500045050EE
:1089E0000020043950500320291C237006F032FA6D
:1089F0002A78002A00D186E008232278802053407C
:108A0000A0224C49D2054004505000200439505057
:108A1000113E2370032E0AD8FF23F0216370A02398
:108A2000444ADB05490499500021043A9950424BCD
:108A3000424A1B88934200D172E0211C404800F05A
:108A4000D9FE0823021C041C9A431CD002223D4B71
:108A5000C318934317D0112815D03B4B984212D01E
:108A600000203A4900F0F6FE201C8F21384A07F01A
:108A700043F808E0374B0090019300203649374A0D
:108A8000374B00F0E7FE05B0F0BD012322788020CF
:108A90005340A0222749D205800350500439575033
:108AA0000120291C237006F0D5F92A78002A00D06D
:108AB00078E70223217880270B43A120A021C00062
:108AC000C905FF030F501B480A500220291C2370C0
:108AD00006F0C0F92A78002A00D078E7042321782C
:108AE00080270B43A120A021C000C9053F040F50DF
:108AF00010480A500320291C237006F0ABF92A788D
:108B0000002A00D078E70823217880250B43A12094
:108B1000A021C000C9056D040D5006480A5077E732
:108B200000931023002001930E490F4A0F4B00F0D1
:108B300091FEA8E70C0500007C200020FFFF00004C
:108B4000A4240020FECFFFFF01340000FC1E020021
:108B5000A81A0200F81A0200601F0200801F02001B
:108B6000F01A02002C1F0200581F0200FC1B02001A
:108B700010B5041C0E49221C002000F06BFE0823D7
:108B8000221C9A4312D002220A4BE31893430DD0C1
:108B9000112C0BD0084B9C4208D00020074900F054
:108BA00059FE201C0649074A06F0A6FF10BDC04624
:108BB000881F0200FECFFFFF01340000A01F02004B
:108BC0003E040000A81A020010B5037884B0002B00
:108BD00001D004B010BD0D4B041C3B211888FFF7D9
:108BE000F7FA00280BD10A4B01940093094B00209F
:108BF00002930949094A0A4B00F02CFEE9E76E216D
:108C0000084AFF3106F078FFEDE7C0467C200020DF
:108C1000F01A0200F81A0200B01F0200E01A020067
:108C2000E81A0200A81A0200C1210122182008B582
:108C30001A4B89005A501A49585080210020490087
:108C40005850A021C9005A500730FFF7D7FA002822
:108C50001DD107200321FFF7D3FA002811D10720E7
:108C6000FFF7CAFA002804D095210E4A490006F001
:108C700043FF80220021094B52009950FF3A1A60AD
:108C800008BD2821074AFF3106F036FFE7E79221A9
:108C9000044A490006F030FFDBE7C04600700040A0
:108CA00004050000A81A020008B503200549064A79
:108CB00001F090FA002803D0C121044A06F01CFFFD
:108CC00008BDC046CD0C00004D890100A81A020065
:108CD000802208B5314B52009958002900D108BDB7
:108CE00000219950A1220131D2009A58FF205960E9
:108CF00096231040DB005843FE3107F0E1FC4300AF
:108D0000C018274B80B26421984212D9254802F03E
:108D1000D3FB0823021C9A43E1D0234B9842DED0B8
:108D2000224B9842DBD01021214AFF3106F0E4FEAD
:108D3000D5E7204B984213D81F4A90421AD81F4BB0
:108D4000984222D81E4A00219042DFD9181A4300C7
:108D500018181C49400007F0B3FC0630C1B2D5E733
:108D6000194BC839181A3A23584307F0A9FC643044
:108D7000C1B2CBE7A021181A430018184942C0001D
:108D800007F09EFC2A30C1B2C0E71921101A4942EF
:108D900007F096FC1230C1B2B8E7C0460070004040
:108DA000B70B0000E425002004300000013400006F
:108DB000A81A0200540B0000B40A00008809000041
:108DC00034080000ACFEFFFFB80B0000C1210122F7
:108DD000182008B51A4B89005A501A49585080215A
:108DE000002049005850A021C9005A500730FFF711
:108DF00005FA00281DD107200321FFF701FA0028FA
:108E000011D10720FFF7F8F9002804D095210E4A68
:108E1000490006F071FE80220021094B5200995052
:108E2000FF3A1A6008BD2821074AFF3106F064FEA8
:108E3000E7E79221044A490006F05EFEDBE7C04600
:108E40000070004004050000A81A0200F0B55F465B
:108E500056464D464446F0B4A7B007F009F8E74B34
:108E600000200093E649E74AE74B00F0F3FC80233B
:108E7000A3220121DB05D20099508222002052005A
:108E80009850996099580029FCD0822380220021B3
:108E90005B00D205D150DD4B002000930731052245
:108EA000DB4B06F051FCDB4C002803D0DA49221CD6
:108EB00006F022FED94B0121181CD94A994606F02A
:108EC000C7FC002803D0D749221C06F015FEFFF787
:108ED000EBFE0820D4494822002306F0BDFE0028FE
:108EE00004D0C321221C490006F006FE002316AD63
:108EF0001693281C6B6001332B70FFF77BF9002859
:108F000004D0C721221C490006F0F6FD0DAE301C2E
:108F1000FFF75AF9071E00D022E20020311CFFF7AC
:108F200051F9C24806F0BEFE002804D09A21221C46
:108F3000FF3106F0E1FDBE4806F0BEFE002804D079
:108F40009E21221CFF3106F0D7FD08200A21B94AD4
:108F500005F09AFF002803D0CD21221C06F0CCFD9D
:108F6000B54803F0D7FA002803D0B449221C06F014
:108F7000C3FD05F079FA002803D0B149221C06F0A0
:108F8000BBFD301C03F0D8F9002804D08F21221C2F
:108F9000890006F0B1FD5D2300226B44DA701A717E
:108FA0000D236B71063BAB710933EB71A54B291C8B
:108FB000169301232B71A44B181C9A4603F042FA16
:108FC000002803D0A149221C06F096FD0F210122A2
:108FD0003378301C8B43134310220B4013439C49BE
:108FE00011223370FFF7FAF8002804D0D921221C8F
:108FF000490006F081FDC0204000FFF7EBF8002893
:1090000004D0DB21221C490006F076FD50232B8082
:1090100050336B809C3BAB808D33FF33281CEB803F
:10902000FFF7DAF8002804D0E021221C490006F0FE
:1090300063FD88490C2208A807F043FC002316931F
:1090400098462B616B60AB60EB60AB61EB612B62B0
:109050006B62AB62EB6201339B462B700623EB70B5
:10906000033B2B8208AB6B6100207B497B4A0323C7
:1090700000F0F0FB4346F360B3617360B3600D939F
:109080005B463373282333610A3B73615B46337657
:10909000C8231B01F361724B281C33624346002135
:1090A0000093321C6F4B01F0FBF8002804D0F22132
:1090B000221C490006F020FD6B4B03A80D932023D2
:1090C00083801F3BC380694B0393694B191C9B46EC
:1090D00005F074FA002804D0FE21221C890006F055
:1090E0000BFD644B59469846181C2022002305F0BE
:1090F00097FB002803D06049221C06F0FDFC0023EA
:109100000EA9149315930A1C434683CB83C283CBC9
:1091100083C203CB03C20020584900F09BFB584890
:10912000311C00F099FA002803D05649221C06F0A1
:10913000E3FC00232D216A46089309930A930B93BD
:109140000C935218113313706A4601315218137080
:109150006A460231521813706A460C395218103B95
:1091600013706A46083152186333474808A91370D0
:1091700002F006F9002803D04449221C06F0BCFC8A
:1091800040220021281CFFF713F8281C404902F058
:10919000B5F83C210F2001226B5C8343134310225E
:1091A000034013436B5400223D23281CEA5402F071
:1091B00099FB002803D03749221C06F09DFC0023B0
:1091C0000593354B05A94B60344B35488B60012323
:1091D0000B8002F0B5F9002803D03249221C06F0BA
:1091E0008BFC314805F026FD5346187805F028FD24
:1091F00000231693EB602B6158E0C046F81A02007A
:10920000D81F0200501C020000200200DDFA0100FD
:10921000FC200020A81A020056040000DC230020D5
:10922000298C01005B0400000824002085830100D4
:109230007583010034250020F82400203502000049
:109240003902000071860100582400204A02000003
:10925000082002009C1A02001C200200302002009C
:109260008051010051820100F5880100FD87010055
:109270002C2500205C240020FB0300003820020085
:10928000A424002003040000E425002012040000B0
:109290004C2002001B040000DD870100718B0100DF
:1092A000FC2400202504000049870100A0239B0224
:1092B0006B60F0231B03AB6003232B73304B281C24
:1092C0006B61304BAB6101F077FF002804D0FE21C9
:1092D000221C490006F010FC01222B4B1978114387
:1092E000E12211400C221143CD220A401A700722BC
:1092F0005A7009329A70FFF769FD4022234B802192
:109300001A60C123224A09069B00D1504B46E12135
:109310001868C904002206F0CFFA002803D01D49BE
:10932000221C06F0E9FB032001F062F8002803D0BC
:109330001949221C06F0E0FB022000F0A1FD0028E4
:1093400003D01649221C06F0D7FB05F07FFEFEF77E
:109350005BFF0028F9D01249221C06F0CDFBF4E790
:109360009421221CFF3106F0C7FB311C0020FEF7C0
:1093700029FF9621381CFF31221C06F0BDFBD0E5E9
:10938000C98B01000D8201007C24002000E100E077
:109390000060004066040000A1040000A304000077
:1093A0006E040000A0DF7047A2DF7047A6DF7047A1
:1093B00063DF704767DF7047F0B556465F464D463E
:1093C0004446F0B4CB889DB0009313688E1D1B8873
:1093D000041C01934B880D1C0293B37F171C03934D
:1093E0000B1C28331B786D4A0493F38A6C49059350
:1093F0004389069343880793C38800200893694BE9
:1094000000F028FAEB8862899A4200D18DE06288E8
:109410009A4200D18EE0B378062B06D01DB03CBC3A
:1094200090469946A246AB46F0BD00205E4900F04A
:1094300011FA3F6863883A889342EFD1002B00D13C
:10944000A8E09B460EAB9C4600230022984663464C
:109450003D1C0B920D940C93AB886C88D218D2B241
:10946000AE1D0B92002B00D192E00C98474684462B
:10947000211D614482468E427F41A244291CBC4684
:109480004046474652460A318A4247416046391CA7
:109490000143092084469C458041404208425DD0FA
:1094A000514603203143084258D150460B9A1D1FA4
:1094B0009246021C0027AD080135A900AC4699462A
:1094C000351C131C381C0C9F04CD013004C36045AF
:1094D000FAD352464B460B920C9775188B421CD010
:1094E000287881461CA88446A44460464F4640180C
:1094F00038380770481C98420FDA6F780231B94645
:109500001CAFBA46504404194846383C20708B4280
:1095100003DDA878614438390870F5185B46002BE4
:109520002DD02B880B9A9B4696E700201F4900F010
:1095300091F973E7203500201D4900F08BF9328B3B
:10954000291C002006F02CFC1A49002006F0F0FF30
:10955000327EA369201C291C98475FE70B9A0021E3
:1095600094462A1C251C0C9F501884797819445461
:1095700001318B42F8DC62460C970B92CDE70C9BD5
:109580000B9A9C460D9CA369201C6146984745E7B1
:10959000351CC3E70EAB00229C46F4E7FC21020019
:1095A000B021020004220200382202000C22020034
:1095B00024220200C826020070B5151C0A8882B059
:1095C000061C0C1C512A03D81A499300CB589F46FD
:1095D000009200201849194A194B00F03BF902B0DB
:1095E00070BD211C2A1CFFF7E7FEF8E701235B4250
:1095F0008382F4E70020134900F02CF9124B291C58
:109600002B603623AB80A088FFF7D4FE0028E6D07D
:109610009D210E4A06F070FAE1E700200C4900F0A7
:1096200019F9DCE7A28800200A4900F013F9A388A1
:10963000B382D4E758200200C4220200F4220200C0
:10964000041C02005C220200FC250020842202008F
:109650009C2202004C220200F0B54D4644465F4673
:1096600056460123F0B45B42838208C9051C83611E
:109670002023041C1C3597B02022281C994607F093
:1096800020F9574906A8102207F01BF9211C06A84B
:109690001231FFF78DFE002806D017B03CBC904673
:1096A0009946A246AB46F0BDA37C04A98B704D4BF6
:1096B0000130221C0B80FFF775FE0028EDD10F262C
:1096C000B046C1B2B1430E3E31434646314010264A
:1096D000B246564602AA31431170414683B21B0A74
:1096E0008B430E390B4341460B40334353700223E7
:1096F000022193709B46C3B20B43334369463C2619
:1097000014926A4689190F9010901190129013903C
:1097100015900B70A37C03AF9375334B3880938205
:109720004246C3B293430E3A134342461340524655
:1097300013433B705B46BB7005AB0A935B460AAEB6
:109740000C900D900E903381B381231C2088321C25
:109750000A330B97FFF728FE00289ED10222C3B2DE
:10976000134308223C2113436A4652180F9010906D
:109770001190129013901490159013706A46414600
:10978000A37CB0609375194BF0609382C2B28A4398
:109790000E390A4341460A4051460A433A7042464E
:1097A00083B21B0A93430E3A1343424613400B43C2
:1097B0007B705B46BB7005AB0A934B463381B3812C
:1097C0004B46776035612A1C009309492B1C00F039
:1097D00041F82088A31C0FA9321CFFF7E5FD5CE7C8
:1097E000A021020023150000251500002615000009
:1097F000FC2202001E2230B50223051C00208DB081
:109800006A441380089008AC09900130A0700A9255
:1098100068890A78208000920B914978049301911D
:10982000084BA98A039202910593074A074B00202F
:10983000074900F00FF8A88A211CFFF7B7FD0DB00B
:1098400030BDC046F81A0200F4220200501C02008B
:109850002C2302000EB430B5051CC6B049AC08CCB0
:10986000094A019300920292084B06A8084907F0A2
:109870009DF8281C06A905AA059406F0FFFB46B032
:1098800030BC08BC03B01847F81A020030200200B0
:1098900054230200A02210B5064BD205D1588023D4
:1098A0001B041C1CA1208C430B400349C000145016
:1098B000535010BD040500000C050000F0B54446EF
:1098C0005F4656464D46F0B4041C87B011280FD0B1
:1098D000122800D192E0132800D193E0142800D17F
:1098E00094E007B03CBC90469946A246AB46F0BD1A
:1098F00000230025994601296CD0002952D0022965
:10990000EFD1514E514B524FF258524B00209846D6
:109910001B689900CB1800934F493B6806F008FE7E
:109920004A4BF2583B68D21A43461B689900CB1841
:109930009A4225D202AB9C46484B0F249B460023FB
:109940009A46424B644403935346211C4846237075
:1099500005F080FA2378002059462A1C06F0E8FD1D
:109960002378002BBDD0322003F078FC039BF25803
:109970003B68D21A43461B689900CB189A42E3D33E
:109980000020374906F0D4FD6B005D19354B5D1999
:109990006E78002EA5D0344B1B68002BA1D0301C54
:1099A00098479EE73149002006F0C2FD304B186809
:1099B00006F010F82F49021C0020FFF74BFF294A40
:1099C0006B005B19D3182C4A9B78565D9E4200D0E1
:1099D00087E7DEE70020294906F0AAFD214B6F004A
:1099E000984642467B19D65C43445B78002B11D1E4
:1099F0007F194744BA78204B5A55CAE701230125FD
:109A0000994678E702230225994674E70323032544
:109A1000994670E70D4B0C4AD2580D4B1A60144B07
:109A200018680C4B1B689900C918154B1A1C9946ED
:109A300005F042FF021E01D14B461C700020114967
:109A4000FFF708FFD4E7C0460010014004050000FE
:109A50003C26002040260020E824020014250200B5
:109A600030250200582600204826002098240200B5
:109A700044260020D8240200382600204824020072
:109A80003226002088240200F8B5AC4B1B68DB07A7
:109A900000D4F8BDAA4A1478172CFAD8A949A30013
:109AA000CB589F46A022A84BD205D1588023DB0378
:109AB0001C1CA1208C430B40A449C00014505350DF
:109AC000A34B00221868A34B1B689900C91805F026
:109AD000F3FEDEE7A023F021DB0549049B4A995001
:109AE0000021043A9950D4E7A022974BD205D158CF
:109AF0008023DB031C1CA1208C430B409349C00036
:109B000014505350924B00221868924B196805F07C
:109B1000D3FEBEE7A021A120A0230026F025C90581
:109B20005B04C000894C0B50874B0E51CB586D0421
:109B30006B408025AD032B4000D1EBE00D5003239B
:109B40000E5108211370824B00221868814B1B684C
:109B5000594305F0B1FE9CE7A021A120A0230026D7
:109B6000F025C9055B04C000784C0B50764B0E51B4
:109B7000CB586D046B408025AD032B4000D1D1E064
:109B80000D5004230E512821DCE7A023A122E0215F
:109B9000DB05D20049048024995000216B48A403BE
:109BA00019501C50995074E76B4D286805F012FF4E
:109BB00011231C1B00D19EE0002800D09BE0012C4B
:109BC0000DD0C8306421604306F0EAFC614B2D687B
:109BD0001B6800224343281C191C05F06DFEA023BE
:109BE0008021DB05090479E7A023B021DB054904C6
:109BF000A122D20099500021544A995049E7A0214E
:109C0000A120A0230027F026C9055B04C0004F4D0A
:109C10000B504D4B4F51CB58760473408026B60302
:109C200033406DD00E504F51022C00D17FE02821DF
:109C3000147088E7A023A122C021DB05D2004904CB
:109C4000C024995000214148E40319501C509950F8
:109C50001FE7A023A122D021DB05D20049048024E4
:109C6000995000213948E40319501C50995010E7CD
:109C7000A023F021DB054904BAE7A023A122DB05DC
:109C8000D200A02186E7A021A120A0230026F02554
:109C9000C9055B04C0002D4C0B502B4B0E51CB580B
:109CA0006D046B408025AD032B4030D00D500E511C
:109CB00005231370264B00221868264B19684900AB
:109CC00005F0FAFDE5E6A021A120A0230026F0255D
:109CD000C9055B04C0001D4C0B501B4B0E51CB58EB
:109CE0006D046B408025AD032B4018D00D500E51F4
:109CF0000623137006E7A0238021DB05090477E71C
:109D00004E510B50022C15D0042114701BE70D513D
:109D10000B50CDE70D510B500221032312E70D51DB
:109D20000B50E5E70D510B50042104230AE71221E3
:109D3000147008E70221147005E7C046342600209D
:109D40005026002068230200040500000C050000D6
:109D500054260020402600204C260020F0B5444622
:109D60005F4656464D46F0B4041C3B4B3B4A87B019
:109D7000D25800203A49FFF76DFD2378112B0CD003
:109D8000122B5DD0132B5FD0142B61D007B03CBCDD
:109D900090469946A246AB46F0BD002300259B465F
:109DA0002E4E2D4B2F4FF2582F4B002098461B68FC
:109DB0009900CB1800932D493B6806F0B9FB264B60
:109DC000F2583B68D21A43461B689900CB189A4256
:109DD00025D202AB9C46264B0F249A460023994677
:109DE0001D4B644403934B46211C5846237005F0D9
:109DF00031F82378002051462A1C06F099FB23787D
:109E0000002BC3D0322003F029FA039BF2583B68A1
:109E1000D21A43461B689900CB189A42E3D300201C
:109E2000144906F085FB6B005D19134B5D196878CA
:109E30000028ABD0114B1B68002BA7D09847A5E793
:109E4000012301259B46ABE7022302259B46A7E79A
:109E5000032303259B46A3E70405000000100140EF
:109E6000742502003C26002040260020E824020041
:109E70001425020030250200582600204826002024
:109E800070B5CC4B041C1B680020DB0700D470BDF0
:109E9000172CFCD8C84AA300D3589F46A022C74B12
:109EA000D205D1588023DB031C1CA1208C430B401E
:109EB000C349C00014505350C24B00221868C24B13
:109EC0001B689900C91805F0F7FCE0E7A022BB4B1E
:109ED000D205D1588023DB031C1CA1208C430B40EE
:109EE000B749C00014505350B64B00221868B64B07
:109EF000196805F0E1FCCAE7B44D286805F06AFD71
:109F000011231C1B00D130E1002800D02DE1012CD1
:109F10000DD0C8306421604306F042FBAA4B2D6887
:109F20001B6800224343281C191C05F0C5FCA02314
:109F30008021A34ADB05090499500021043A995075
:109F4000A5E7A023F021A122DB054904D200995006
:109F500000219B4A0020995012229D4B1A7096E7CF
:109F6000A023A122E021DB05D200490480249950DE
:109F700000219348A40319501C5099501322944B6C
:109F800000201A7083E7A023F0218D4ADB054904E5
:109F900099500021043A99508D4B00201C7076E7AF
:109FA000A022B021A123D2054904DB00D150002317
:109FB000834900205350864A137068E7A022A121EC
:109FC000A0230026F025D2055B04C9007C4853502D
:109FD0007A4B1650D3586D046B408025AD032B404F
:109FE00000D1D5E055501650022C00D1DDE02821DB
:109FF000774B1C70734B00221868734B1B685943D6
:10A0000005F05AFC43E7A023F0216D4ADB05490423
:10A0100099500021043A9950002038E7A023A1224A
:10A02000D021DB05D20049048024995000216448E6
:10A03000E40319501C5099501422654B00201A70EB
:10A0400025E7A022A121A0230025F024D2055B044E
:10A05000C9005B485350594B1550D35864046340B2
:10A060008024A403234000D18AE0545015500821D5
:10A07000032217E0A022A121A0230025F024D2056D
:10A080005B04C9004E4853504C4B1550D3586404E0
:10A0900063408024A403234000D17FE05450282152
:10A0A000155004224A4B1A70A4E7A023A122A02134
:10A0B000DB05D20049048024995000214048A403C4
:10A0C00019501C5099500722414B00201A70DEE6AF
:10A0D000A023A122C021DB05D2004904C02499504D
:10A0E00000213748E40319501C5099501522384B71
:10A0F00000201A70CBE6A022A121A0230025F02485
:10A10000D2055B04C9002E4853502C4B1550D35830
:10A11000640463408024A403234036D05450155077
:10A1200005222B4B1A70274B00221868264B196802
:10A13000490005F0C1FBAAE6A022A121A023002529
:10A14000F024D2055B04C9001D4853501B4B155029
:10A15000D358640463408024A403234022D0545085
:10A16000155006221A4B1A70BEE6A0238021A122A8
:10A17000DB050904D20099500021114A995086E666
:10A1800014505350022103228CE714505350C7E758
:10A1900015505350022C0AD0042129E71450535073
:10A1A00004217EE714505350DBE7122120E70221FF
:10A1B0001EE7C04634260020C82302000405000024
:10A1C0000C05000054260020402600204C260020CC
:10A1D00050260020224B10B51960224B041C186039
:10A1E000214B1A60830710D5204B214A21481A6061
:10A1F000214A5A60214A9A604A08042104F0B8FDB5
:10A20000002820D0E30703D41CE0C3070ED50020AC
:10A21000A023F022A1210024DB055204C9005A50DA
:10A2200017495C500C315A5000280BD115480021B9
:10A23000154A05F00DFB002804D114480121144AE9
:10A2400005F006FB10BD04F0EDFD0028DAD1114841
:10A250000021114A05F0FCFAE307E5D5D8E7C0462E
:10A2600040260020342600204826002058260020C2
:10A270000D110D0E28240200120E0F130F101410D2
:10A280000C05000054260020899A01004C2600206D
:10A2900095980100442600205D9D010073DF704702
:10A2A000F8B5071C0E20002F00D181E0002A00D154
:10A2B0007EE000243F4804703F48036006983F4B0F
:10A2C00018603F48031C61CA61C361CA61C361CAA7
:10A2D00061C300223B4B1C609C809A713A4B3B4A05
:10A2E0001A603B4A3B489A60046044608460C460E2
:10A2F000046144618461C461046244628462C46232
:10A300003B783A1C0370BB7810328370FB78C370C3
:10A310007B784370031C103330CA30C3031C103ADF
:10A32000083330CA30C3031C0832183330CA30C374
:10A330007B6A002B11D0284B284E43627C6A9E60BA
:10A3400022881A80A5889D80002D06D00023A2684F
:10A35000D25CF2540133AB42F9D1BB6A002B14D06A
:10A360001F4B204E8362BD6A9E60AC889C802A8809
:10A370001A800023002C05D0AA68D25CF254013365
:10A38000A342F9D12C23FA5CC2543B6A002B06D0BD
:10A39000154B03623A6A54885C8012881A807B6885
:10A3A000002B03D0114B43607B68436000F0BEFA82
:10A3B000F8BDC0466C270020A0260020C42600203F
:10A3C000D0260020C826002018270020F4260020D0
:10A3D0004C2700206426002094260020A42600207C
:10A3E0007427002028270020702700201427002031
:10A3F000F0B546464F460024C0B4BC4E89B030701C
:10A4000001A8019404F0B4FA08280CD0002805D162
:10A41000019B002B08D00122B54B1A7009B00CBC6F
:10A4200090469946F0BD0194B24BB34F9946002334
:10A430004A461360938093717B78002B48D035781F
:10A44000012D00D180E0BB78002B00D112E1022D5C
:10A450007AD03B7B002B01D1032D6AD03B7E002BB1
:10A4600000D185E0A54B1B68002B03D0EA1E012A12
:10A4700000D8A0E00022A24B1A70002302AC029385
:10A4800098466360A360E36023616361022D00D19D
:10A49000E1E071D9032D00D1C6E0042D7AD1BB8B48
:10A4A00023823B8C6382974B1A79002A00D1EBE020
:10A4B0003A78002A04D0944A1278002A00D101E1A7
:10A4C0000422924B92481A7006F066FA357861E0E1
:10A4D000BB783578002B42D0022D35D0012DB8D174
:10A4E00002233370BB78002B1DD04B465B78002BCA
:10A4F00000D0CEE04B469B78002B00D0C9E04B4605
:10A50000DB78002B00D0C4E04B461B79002B00D039
:10A51000BFE04B465B79002B00D0BAE04B469B79FD
:10A52000002B00D0B5E0032333703B7B002B00D021
:10A53000A4E0042333703B7E002B36D10023734A02
:10A5400033701370002595E76C4B1B68002B00D10E
:10A55000A1E001216F4A0820117098473578012D3C
:10A560003FD0022DBED03B7B002B00D076E773E7B7
:10A57000042D00D076E7E1E7012D0BD1664806F007
:10A580000BFA4B4663604346638223825F4B257020
:10A590001D703578002D1ED1584B1B68002B02D042
:10A5A0005A4A10789847002038E7544B04251B6816
:10A5B000002B00D15EE73A78002A00D15AE7524AD0
:10A5C0001278002A00D055E701214D4A072011706A
:10A5D0009847357851E7201CFFF760FE0028DBD054
:10A5E0001CE77B78002B00D17AE74B465B78002B89
:10A5F00000D037E74B469B78002B00D032E74B4624
:10A60000DB78002B00D02DE74B461B79002B00D0C8
:10A6100028E74B465B79002B00D023E74B469B791C
:10A62000002B00D15CE71DE7BB8A63823B8A238253
:10A63000344B1A79002A23D03A78002A03D0324AC0
:10A640001278002A2AD00322304B34481A7006F0C0
:10A65000A3F935789EE7304806F09EF94B466360D3
:10A66000012323703B8963827B682382274B1D7003
:10A6700035788FE7022D00D0EBE654E70325F1E6AD
:10A680001A7B002AD8D1DEE71A7B002A00D00FE718
:10A6900016E70225E6E61F4A137060E7E36004232D
:10A6A0001F48023200212272C37000F03FF90028D7
:10A6B00000D0B3E60522154B1A481A7006F06CF963
:10A6C000357867E7E36004231548023200212272DF
:10A6D000C37000F02BF9002800D09FE606220B4B38
:10A6E00011481A7006F058F9357853E76C270020A6
:10A6F0006D270020C8260020D0260020A02600209C
:10A700004827002018270020C3260020802700208B
:10A71000402602004727002088250200E425020089
:10A7200064260020B02502000C26020010B5038824
:10A73000112B20D0192B06D0102B00D010BD8288F1
:10A74000264B1A80FAE78279002AF7D1244B1B782E
:10A75000022B39D02DD9032B20D0042BEED1214C44
:10A760002148227006F018F9204B1B68002BE5D019
:10A7700020789847E2E700221D4B1A70174B828819
:10A780001B889A42DAD10120FFF732FE0028D5D08B
:10A79000184B1B68002BD1D09847CFE7114A1648B9
:10A7A000137006F0F9F80420FFF722FE0028EFD11D
:10A7B000C4E7012BC2D1114806F0EEF80220FFF7E2
:10A7C00017FE0028E4D1B9E70D4806F0E5F80320AC
:10A7D000FFF70EFE0028DBD1B0E7C0467E20002048
:10A7E0006C2700208027002010270200A0260020D0
:10A7F000C3260020C4260020CC26020068260200C2
:10A8000098260200023808B5012803D8094B1A78A7
:10A81000002A00D108BD00221A70074B1878FFF7F4
:10A82000E7FD0028F6D0054B1B68002BF2D09847B7
:10A83000F0E7C0466D2700206C270020C4260020CA
:10A8400072DF704779DF70477DDF704765DF7047E3
:10A85000F0B55F46564644464D46F0B485B09A463C
:10A860000E9B061C98461B788B4601930388171C89
:10A87000002B40D00023994602AB0024DD1C03E0EE
:10A8800033880134A3422CDD7368A1009C46042266
:10A89000614403A806F015F803A8291C0022FFF75D
:10A8A000D5FF002828D12B78BB42E9D14B46002B9D
:10A8B00029D043461A78D3191F2B34DC524403A8FD
:10A8C000291CFFF7C3FF002816D143461A782B78BE
:10A8D0000134D31842461370012399463388A342AA
:10A8E000D2DC4B46002B06D0434651461B78019ADA
:10A8F000013B9B1A8B54002005B03CBC9046994606
:10A90000A246AB46F0BD43461B78DA191D2A0ADC85
:10A9100041469A1C0A70524659460133DBB2D15463
:10A9200043461A78CAE70C20E6E7C046F0B55F4612
:10A930004D46444656460023F0B497B005AD02AAF2
:10A94000041C0F1C2B705373002800D15EE1C378E8
:10A950005B0700D4EFE00378002B00D027E2837878
:10A96000002B00D058E20023E278002A00D0EAE071
:10A970006268002A0FD011781C2B00DD3DE1022215
:10A980000A2006AEF2545A1CD2B2B054DA1C02337A
:10A99000DBB22A70F1542389002B00D058E2238ABD
:10A9A000002B00D0AFE2238B002B00D0C4E2236A3F
:10A9B000002B50D02A780C20911D8A461F2900D9DF
:10A9C000BAE0198805388B46052900D8B4E08C4ECA
:10A9D0006946B446DC446646CE81CE89B446894E8B
:10A9E000B046B44500D8A7E05E88B446052E00D82E
:10A9F000A2E0834E6644CE81B6B2464500D89BE0C5
:10AA0000814EB34504D0B44502D0E34500D993E06C
:10AA1000052006AEB054901CC1B229708946694623
:10AA2000501C8873C0B2844612208046604641465E
:10AA30003154198804328C464946701861460170B9
:10AA40006146090A41705B88D2B2B61833701B0A9E
:10AA5000737053462B70636A9846002B2CD01B7979
:10AA60002A789C460233911CDBB2CB180C201F2B9A
:10AA700062DC634606AE0333B354531CDBB2F330DF
:10AA8000F0544346C9B229701B8871180B70043208
:10AA90001B0A4B70D3B22B70994643469A88002A02
:10AAA0000AD09968002946D0301C484405F009FFB7
:10AAB00043469A884A442A702C23E35C06AE002B56
:10AAC00000D1A4E0A26A002A35D09046013BDBB257
:10AAD00001335A00D3189B004344994616232C781F
:10AAE0009A460DE0301905F0ECFE43469B88E418C9
:10AAF000E4B22C700C239C46E044C84500D186E0AB
:10AB0000434651469B88621C0333D2B23355B1543D
:10AB10004246A31CDBB22B701288F3181A70120A7B
:10AB20005A7043460434E4B22C709A88002AE1D06B
:10AB300099680029D6D1072017B03CBC90469946A9
:10AB4000A246AB46F0BD022106AEF154991CC9B233
:10AB500088460121581CC0B2315441460333DBB250
:10AB60002B70725404E77B780C201D2BE4DC02ABC5
:10AB70009C460E241D23644426306044211C2380FF
:10AB8000FFF762FE0028D7D13B78022B00D182E28A
:10AB90007B78002B03D09BB208221D2B01D9082201
:10ABA00023880EA988464046427002AA527BDBB237
:10ABB0000232591C9B18DBB202AA01705373BA7897
:10ABC000002A00D0F3E1FA789446002A0FD002223E
:10ABD000414601204446CA54591CC9B260546046DB
:10ABE0009A1C0333D2B2DBB202A94B73A0547A6829
:10ABF000002A31D011781C2B20DD0C209CE7C046A8
:10AC00007FF3FFFF7DF30000FFFF00000026002F11
:10AC100000D1D1E1FB78002B00D08CE702AA53735E
:10AC20003B78002B9FD1BB78002B00D09DE17A6848
:10AC30000023002A10D011780EAA90460222404626
:10AC40004446C2540A205A1CD2B2A054DA1C023321
:10AC500002A8DBB24273E1543B89002B00D010E123
:10AC60003B8A002B00D02DE13B8B002B00D0A7E1CD
:10AC70003B6A002B50D002AA527B0C20911D8B46C0
:10AC80001F2900D958E71888824654460720052C0A
:10AC900000D851E7DB4C6946A446D4446446CC81D5
:10ACA000A4B2A446D84CA046A44500D844E75C888A
:10ACB000A446052C00D83FE7D24C6444CC81A4B212
:10ACC000444500D838E7D14CA24504D0A44502D071
:10ACD000E24500D930E70EA8804605204446A0543E
:10ACE000901CC1B202AC6173541C8946E1B21224BB
:10ACF000A44644466046605448461C88404404705C
:10AD0000240A447004325B88D2B2424413701B0A96
:10AD100053705A4602AB5A737C6A002C37D02379A1
:10AD20000C209C4602AB5A7B63460233911CDBB27B
:10AD3000CB181F2B00DDFFE60EAB9846634640465E
:10AD400003338354CBB29C46614602AB5973FF2058
:10AD50004146531CDBB2C8546146238841440B7002
:10AD600004321B0A4B70D3B299464A4602AB5A735F
:10AD7000A288002A0BD0A168002900D1DBE640465A
:10AD8000484405F09EFDA28802AB4A445A732C2326
:10AD9000FB5C002B00D03BE102AB5C7B0EAB98462A
:10ADA00042462978301C231CFFF74AFDC4E663782D
:10ADB0000C201D2B00DDBFE60EAB98461D2342463E
:10ADC000138002AB9C46063060444146FFF73CFDD1
:10ADD000002800D0B0E62378022B00D154E163783C
:10ADE000002B03D09BB208221D2B02D94346082218
:10ADF0001B8806AE72702A78DBB20232591C9B188F
:10AE0000DBB231702B70A278002A00D1ACE50C20A7
:10AE10001B2B00D990E601E00EAB98464046FFF7A9
:10AE200011FD002800D087E6032219212B7806AEF9
:10AE3000F2545A1CD2B2B154424611889A1CD2B272
:10AE4000B61804333170DBB2090A71702B708BE5D0
:10AE50000823984606AEA0440095404602210222EF
:10AE6000331CFFF7F5FC002800D065E6009540464E
:10AE700006211022331CFFF7EBFC002800D05BE614
:10AE80008DE50EAB02AA984694463C1C0D2308346F
:10AE900063440093201C022102224346FFF7D8FCA2
:10AEA000002800D048E602AA94460D23634400938C
:10AEB000201C062110224346FFF7CAFC002800D0C0
:10AEC0003AE6CDE60EAB02AA984694463C1C0D230A
:10AED000103463440093201C032102224346FFF7F1
:10AEE000B7FC002800D027E602AA94460D2363444D
:10AEF0000093201C072110224346FFF7A9FC0028DD
:10AF000000D019E6B0E61023984606AEA04400959E
:10AF1000404603210222331CFFF79AFC002800D090
:10AF20000AE60095404607211022331CFFF790FCEB
:10AF3000002800D000E636E51823984606AEA04467
:10AF40000095404614210222331CFFF781FC0028A3
:10AF500000D0F1E50095404615211022331CFFF783
:10AF600077FC002800D0E7E521E502AB0E249C46E3
:10AF70006444201CFFF766FC002800D0DCE50EAA24
:10AF800090460322414602AB5B7B4046CA541921DE
:10AF90005A1CD2B281549A1C2188D2B242441170F8
:10AFA0000433090A5170DBB202AA53730BE60C207A
:10AFB0001B2B00D9C0E5DCE702AB5C7B0022F0E68E
:10AFC0000EAB02AA984694463C1C0D2318346344E9
:10AFD0000093201C142102224346FFF739FC00286D
:10AFE00000D0A9E502AA94460D2363440093201CD7
:10AFF000152110224346FFF72BFC002800D09BE5CB
:10B0000036E6C0467FF3FFFF7DF30000FFFF000040
:10B01000BF6A002F00D18EE5013BDBB202AA0133EB
:10B02000547B5A00D3189B0099460EAB98461623C2
:10B030009A46B944424641465046BB8803331355AD
:10B04000A31CDBB202AA5373621CD2B288543A88A2
:10B0500043441A700434120A5A70E4B202AB5C73AF
:10B06000BA88002A0CD0B968002900D163E54346AC
:10B07000181905F026FCBB88E418E4B202AB5C7337
:10B080000C374F45D6D18BE643461B8809221D2B32
:10B0900000D8AEE6A3E6238809221D2B00D880E560
:10B0A00076E5C04675DF704776DF70477ADF704718
:10B0B0007BDF704710B5184B82B01888174B984249
:10B0C00014D0174A174C13780133DBB21370217B6D
:10B0D00099420DD200231370237C002B12D1636997
:10B0E000002B03D0002201A80270984702B010BDC7
:10B0F0000D49FFF7D7FF0028F8D0A369002BF5D042
:10B100009847F3E73B21FFF7CFFF0028E7D0A3697B
:10B11000002BE4D09847E2E7B0270020FFFF0000B3
:10B120008C27002090270020B427002030B51C4B2E
:10B130001C4A5B88118883B099420FD852889A4282
:10B140000CD3194B5B69002B03D0012201A80270BC
:10B150009847164C0023237003B030BD134C23785E
:10B16000002B08D0104B5B69002BF3D0002201A804
:10B1700002709847EEE70E4B0B4D1B78002B0CD05E
:10B18000A9680C4B0022186804F096FB0028E1D057
:10B19000AB69002BDED09847DCE76968F1E7C04671
:10B1A00084270020B427002090270020812700203A
:10B1B0008C270020AC270020164938B5021C0B1C38
:10B1C00032CA32C332CA32C312681A600022124B2A
:10B1D00001681A70002916D0104C0832201C05F0A6
:10B1E00070FB201CFFF762FF00280BD101220C4BE3
:10B1F00052421A8000220B4B0B481A7000210B4A56
:10B2000004F026FB38BD0548FFF752FF0028EDD0BB
:10B21000F8E7C0469027002081270020B4270020AF
:10B22000B02700208C270020AC270020B5B00100FB
:10B2300008B5024B186804F0CDFB08BDAC27002010
:10B2400010B50388112B36D022D9122B18D0502BD1
:10B250001DD1224CC288E3899A4218D1C38B022B9C
:10B2600015D11E33C35CDB070FD41D4B186804F0E7
:10B27000B1FB00280BD0A369002B08D0984706E04B
:10B28000811D0822174805F01CFBFFF74FFF10BD7A
:10B29000102BFCD1011C8288134B16311A801148E7
:10B2A000082205F00EFB0022104B1A700B4BDB89B5
:10B2B000002BECD1E9E701220B4B52421A8000220D
:10B2C0000A4B1A70064B186804F084FB0028DED085
:10B2D000024B9B69002BDAD09847D8E790270020D3
:10B2E000AC27002084270020B02700208C270020D6
:10B2F0000B7803704B7843700220704738B5041CFC
:10B30000081C0D1C05F074FB6560208038BDC0462C
:10B31000A0DF7047A2DF7047A3DF7047A4DF70474C
:10B32000A6DF704730B50B8883B0112B23D0502B8C
:10B3300006D0102B01D003B030BD8B884382FAE7D2
:10B34000037D002BF7D0CA8843899A42F3D1CB8B77
:10B35000022BF0D10468002CEDD00B1C21222025FB
:10B360009A5C5B5D120213430122134001A9534012
:10B370000B70A047DFE701235B424382DBE7C04657
:10B38000F0B557464E46C0B40B6893B00360012336
:10B390005B4243820A790F1C037404A902338B7049
:10B3A000424B0275041C021D01200B80FFF7B0FF09
:10B3B0008246002805D0504613B00CBC91469A46F0
:10B3C000F0BD237D002B55D102220BA90B934B60BE
:10B3D0008B60CB600B614B618B6113430B7000235F
:10B3E0004B616A46012368469375314A03AE8282F7
:10B3F000BA7B00203270FA7B72700222B2709146E2
:10B400006A463D7B0332157006AD089009902B818A
:10B41000AB8105A806900A92A088A31D2A1C079656
:10B42000FFF778FF82460028C5D1B96800291FD0F0
:10B430006A46012393751F4B308093823B7C01AF9A
:10B4400033704B46381CB370FFF752FF5346221C33
:10B45000AB60EB6080B205AB2B606E602881A88189
:10B460002F61E0880E32291CFFF756FF8246A2E7C3
:10B47000E081A0E70F250121C2B2AA430A432A4076
:10B48000102502AB2A431A707A7B0BA95A7002224C
:10B490009A700B9048608860C86008614861886154
:10B4A000C0B2104305430D709AE7C0460F18000064
:10B4B000192A00000829000010B588B06B46D97120
:10B4C000037C041C00208B4216D001236A460290A4
:10B4D00013816B462174073302AA608AE1880393C3
:10B4E000FFF71CFF021E07D1638A0E498B4217D05B
:10B4F000217D0830002901D108B010BD04A90492B3
:10B500004A60E288181C0A8001228A706A465289C1
:10B510008A8002AA8A60039ACA60FFF701FFEBE7FC
:10B520000820E9E7FFFF0000A0DF7047A2DF7047B7
:10B53000A5DF7047A6DF7047A8DF704763DF70475D
:10B54000F0B544465F4656464D46F0B4041C95B0EF
:10B550000E20002C17D0002915D04B68002B12D0DC
:10B5600001235B42238010220D1C04A8614905F0D1
:10B57000A8F90A216A46604B04A869441381FFF7C1
:10B58000DDFF002806D015B03CBC90469946A24687
:10B59000AB46F0BD221D013002A9FFF7C5FF002810
:10B5A000F1D16B4634269A7A6946042303AFBA7008
:10B5B000A2710F22034389190D900E900F901090E5
:10B5C0001190129013900B704C4B90463B8083B2BD
:10B5D0001B0A9343012292465246134342461340AC
:10B5E000102291464A4601AE134330807370032304
:10B5F0006A46B3709B4614230A900B900C90938577
:10B60000231CA08808AA083308970996FFF78EFF25
:10B610000028B8D10823C2B213434A463421134349
:10B620006A4652180D900E900F9010901190129043
:10B63000139013704246A3793080BB70304B0A9050
:10B640003B8083B21B0A9343524613434246134046
:10B650004A461343737013236A46B37004330B9046
:10B660000C909385231CA0880DA908AA1033089775
:10B670000996FFF75BFF002800D084E734210223FE
:10B680006A46034352180D900E900F90109011903F
:10B690001290139013704246A3793080BB70194BFF
:10B6A0000A903B80C3B29343524613434246134031
:10B6B0004A46134333705B460222B3706B460B90CD
:10B6C0001A8502229A85231CA0880DA908AA203376
:10B6D000089709960C95FFF729FF002800D052E73C
:10B6E0006B68A362AB68002B00D0E3620122064BBB
:10B6F0001A7048E774270200301500003215000068
:10B700003115000034150000BC27002030B5031CA3
:10B7100087B000280AD00588114C0820A54203D024
:10B72000104C2478002C03D107B030BD0E20FBE76D
:10B730000D4810244170694604708C1D03218270ED
:10B740000022218002A902924A601A8AC8600A80F7
:10B75000012218888A708C60FFF7ECFEE4E7C0468F
:10B76000FFFF0000BC270020C0270020F0B589B0F3
:10B77000002815D0002913D0826A002A10D00B8827
:10B78000112B23D00ED90D1C041C502B0FD0512B84
:10B7900006D18B79022B03D10A89038A9A4219D0E8
:10B7A00009B0F0BD102BFBD18B880380F8E7C98866
:10B7B00003899942F4D1082104AB1970E98B1972FD
:10B7C000291C20310591191C9047E9E701235B42B0
:10B7D0000380E5E78B7A043B022BE1D902230022A8
:10B7E00001AE04AF01923B7033806B4673600088FA
:10B7F000A18A321CFFF79CFE002811D0E36A002BBF
:10B8000000D09847FE232088FF33391CBB80FFF708
:10B8100093FE0028C4D0E36A002BC1D09847BFE74D
:10B820006B461B78DB07EDD5B880391C2088FFF705
:10B8300083FE0028EFD12223E95C082935D8264A67
:10B840008B00D3589F462B8C022B39D924232322DB
:10B85000EB5CAA5C1B021343B3805A42534106338C
:10B860003370201CA36A311C984799E70923F7E736
:10B870000223F5E7012333702A8C9A421AD9291C36
:10B88000233133727160A36A201C311C984787E70B
:10B89000002333702B8C012B18D90123EFE70423ED
:10B8A000DEE70523DCE70323DAE7201C0322FFF7AA
:10B8B0002DFFAEE7201C02210622FFF727FFA8E795
:10B8C000201C08210322FFF721FFA2E7201C0121F1
:10B8D0000622FFF71BFF9CE750270200A0DF7047FE
:10B8E000A2DF7047F0B54F4646460123C0B493B07F
:10B8F00002A98B70D24B041C0B80D24B01201A1C66
:10B900009946FFF7EBFF002800D0CAE02688002EFA
:10B9100000D0CBE02689002E00D0FBE0268A002E46
:10B9200000D029E1268B002E00D057E1268C002E76
:10B9300000D0A7E1268D002E00D0D4E1226B002A92
:10B940003BD001263C25117804AB1970517803AF28
:10B9500059709178655D9970D1780020D97011790E
:10B9600019719268BE70B84E110A3E8001AE3570F2
:10B970003C25AC465A71120CDA71A4440222654689
:10B9800099710BA90B900A7048608860C8600861C3
:10B99000486188616D78B27006AA9060D060083006
:10B9A000757006975660108113614B469081188818
:10B9B000A64BFFF795FF002873D1636B002B37D0A0
:10B9C0001A681E799046002A00D1CBE1002E04D1DE
:10B9D00000206E219E4A04F08FF801203C2504AF20
:10B9E000B8709C48655D388003A805703C25AC465E
:10B9F00000230222A44465460BA90B930A704B60F6
:10BA00008B60CB600B614B618B616D78827006AA95
:10BA10009360D360434613614B464570506018886D
:10BA20008D4B069716819681FFF75AFF002838D173
:10BA3000A36B002B00D187E11A7804A802705A8802
:10BA400001264270120A82709A883C25C270120A3E
:10BA50000271DB88022243711B0A8371002303AF4A
:10BA6000BE707E4E655D0BA93E8001AE0B933570B6
:10BA70000A704B608B60CB600B614B618B613C3417
:10BA80006478B27006AA9360D36007331381938100
:10BA90004B4674700697566010611888704BFFF71C
:10BAA0001FFF13B00CBC90469946F0BD63689846E2
:10BAB000002B00D14AE101203C2504AFB870694851
:10BAC000655D388003A805703C25AC460023022242
:10BAD000A44465460BA90B930A704B608B60CB6046
:10BAE0000B614B618B616D78827006AA9360D360A5
:10BAF000434613614B464570506018885A4B069771
:10BB000016819681FFF7ECFE0028CAD12689002E07
:10BB100000D103E7E3689846002B00D11CE1012027
:10BB20003C2504AFB8705148655D388003A80570A6
:10BB30003C25AC4600230222A44465460BA90B9386
:10BB40000A704B608B60CB600B614B618B616D78D1
:10BB5000827006AA9360D360434613614B464570DA
:10BB600050601888424B069716819681FFF7B8FE01
:10BB7000002800D1D2E694E763699846002B00D1F3
:10BB8000F6E001203C2504AFB8703A48655D388086
:10BB900003A805703C25AC4600230222A444654658
:10BBA0000BA90B930A704B608B60CB600B614B61F0
:10BBB0008B616D78827006AA9360D36043461361EF
:10BBC0004B464570506018882B4B0697168196811E
:10BBD000FFF786FE002800D1A4E662E7E3699846F5
:10BBE000002B00D1CAE001203C2504AFB8702348E7
:10BBF000655D388003A805703C25AC460023022211
:10BC0000A44465460BA90B930A704B608B60CB6014
:10BC10000B614B618B616D78827006AA9360D36073
:10BC2000434613614B46457050601888144B069785
:10BC300016819681FFF754FE002800D176E630E7A2
:10BC40000A18000010280020232A0000D82700200E
:10BC5000842702002A2A0000E8270020502A00003A
:10BC6000F0270020292A0000E0270020242A0000D5
:10BC7000D0270020252A000000280020272A0000C5
:10BC8000F8270020636A9846002B7DD001203C25D0
:10BC900004AFB8704248655D388003A805703C2544
:10BCA000AC4600230222A44465460BA90B930A70FC
:10BCB0004B608B60CB600B614B618B616D788270E8
:10BCC00006AA9360D360434613614B4645705060AB
:10BCD0001888344B069716819681FFF701FE0028DD
:10BCE00000D127E6DDE6E36A9846002B52D001201A
:10BCF0003C2504AFB8702C48655D388003A80570FA
:10BD00003C25AC4600230222A44465460BA90B93B4
:10BD10000A704B608B60CB600B614B618B616D78FF
:10BD2000827006AA9360D360434613614B46457008
:10BD3000506018881D4B069716819681FFF7D0FD3D
:10BD4000002800D1FAE5ACE60020AAE600206D212B
:10BD5000174A03F0D1FEAEE600206D21144A03F02D
:10BD6000CBFEDCE600206D21114A03F0C5FE2DE676
:10BD700000206D210E4A03F0BFFE02E700206D2176
:10BD80000B4A03F0B9FE2EE700206D21084A03F0AC
:10BD9000B3FE7BE700206D21054A03F0ADFEA6E768
:10BDA000262A000008280020282A0000C827002092
:10BDB000842702007FDF704782DF7047A7DF70476C
:10BDC000A9DF7047AADF7047002070470020704746
:10BDD0000020704700207047002070470020704707
:10BDE00000207047F0B55F464D4644465646F0B4D5
:10BDF00087B014236A4653804B78334F5A00D318C8
:10BE00009B00FB18804618896B460D1C9A1C01A9E3
:10BE10000323FFF7D7FF00281DD16B782B4E9B46DD
:10BE20006B465B885A469A465B46DB009C1AA40028
:10BE3000201C0830301801A95246994604F032FD02
:10BE4000002810D15B4602225B005B449B00FF1878
:10BE5000BB7A13402ED0002007B03CBC90469946D8
:10BE6000A246AB46F0BD34196368002B20D1184FB1
:10BE70005A464B469B1A03229B00F2506A7801A94E
:10BE8000D3009B1A52469B00F3185A606878C3008F
:10BE9000181A80000830301804F013FD6978404605
:10BEA000CB00591A890071181C223823B847D2E7F1
:10BEB000084FDDE7341923606360A360E36023610A
:10BEC0006361A361C7E7C046302800207C280020BA
:10BED00001E7010091E70100354AF8B54F46914668
:10BEE00046464946C0B44378071CDA00D21A92008D
:10BEF00089184C68002C0DD058002E4EC1188900AE
:10BF00007118897A4DB2002D46DB002200250024ED
:10BF1000904605E00022002500249046254E58005A
:10BF2000C3189B00F31818894146221C2B1CFFF7ED
:10BF300047FF0B2808D0002814D01F48012D14D02B
:10BF40000CBC90469946F8BD7B7841465A00D31800
:10BF50009B00F3181889221C0123FFF731FF0028EA
:10BF600003D101250020012DEAD17B780C215A0054
:10BF7000D3189B00F6183089104AFFF71FFF0028DE
:10BF8000DED002220E4BC31893430FD008280DD0E9
:10BF900011280BD00020D3E74906B6D4111C083174
:10BFA00088464946C844A4B28D58B9E70248C7E755
:10BFB0007C2800203028002041800000FFFF000086
:10BFC000FECFFFFF021C38B548780C4CC300181A8E
:10BFD00080000D1C2018111C38231C2202F020FCAC
:10BFE000002807D16A78D3009B1A9B00E3185A688F
:10BFF000013200D038BD5860FCE7C0467C280020E4
:10C00000F0B5474680B43F4F90B03C68002C3DD01F
:10C01000169C582C3AD81C1C3B4B161C01936A46A4
:10C0200000231374169B0D1C80460021374802AA7A
:10C030000994089302F038FB002806D1404602A973
:10C04000082204F02FFC002848D001AA9378FF2B87
:10C050001CD0032D2DD02E49611A1B291AD92D4B26
:10C06000E31A1B2B2AD8002353700AAB0993182319
:10C07000212108930A33022D34D069460B7407AB93
:10C080000593101C3B6804A9321C984710B004BCEF
:10C090009046F0BD204C2168002E03D1012098402D
:10C0A0000142F3D0012098408143216022232121C5
:10C0B000E1E7169B582B18D04323DEE71749631A94
:10C0C0001B2BE3D80023022053700133D370144B91
:10C0D0009B7A03400BD032233121CCE701AA907028
:10C0E0000023B6E76B461974C9E72323C5E70B6045
:10C0F0004B608B60CB600B614B618B6132333121C4
:10C10000B9E7C0469C28002000FFFFFF5828002008
:10C110003C28002060280020982800207C2800204F
:10C1200030280020021C38B548780C4CC300181A7F
:10C1300080000D1C2018111C38231C2202F070FBFB
:10C14000002807D16A78D3009B1A9B00E3185A682D
:10C15000013200D038BD5860FCE7C0467C28002082
:10C16000334AF8B54F46914646464946C0B44378EF
:10C17000071CDA00D21A920089184C68002C0DD0E6
:10C1800058002C4EC11889007118897A4DB2002DC3
:10C1900044DB002200250024904605E00022002513
:10C1A00000249046234E5800C3189B00F3181889AA
:10C1B0004146221C2B1CFFF703FE0B280CD0002845
:10C1C00003D1012D13D0002002E0012D0FD01A4819
:10C1D0000CBC90469946F8BD7B7841465A00D3186E
:10C1E0009B00F3181889221C0123FFF7E9FD7B78D7
:10C1F0000C215A00D3189B00F61830890F4AFFF71C
:10C20000DDFD0028DFD002220D4BC3189343DED0A2
:10C210000828DCD01128DAD00020D9E74906B8D4A4
:10C22000111C083188464946C844A4B28D58BBE762
:10C230007C2800203028002041800000FFFF000003
:10C24000FECFFFFFF0B55F464D4644465646F0B47C
:10C2500087B014236A4653804B78334F5A00D31863
:10C260009B00FB18804618896B460D1C9A1C01A97F
:10C270000323FFF7A7FD00281DD16B782B4E9B46AB
:10C280006B465B885A469A465B46DB009C1AA400C4
:10C29000201C0830301801A95246994604F002FBD0
:10C2A000002810D15B4602225B005B449B00FF1814
:10C2B000BB7A13402ED0002007B03CBC9046994674
:10C2C000A246AB46F0BD34196368002B20D1184F4D
:10C2D0005A464B469B1A03229B00F2506A7801A9EA
:10C2E000D3009B1A52469B00F3185A606878C3002B
:10C2F000181A80000830301804F0E3FA69784046D4
:10C30000CB00591A890071181C223823B847D2E78C
:10C31000084FDDE7341923606360A360E3602361A5
:10C320006361A361C7E7C046302800207C28002055
:10C3300001E7010091E70100F0B54F464646C0B461
:10C3400085B0002858D0002301210025061C0120BB
:10C35000324A4942136053729372314A314C90729F
:10C360001181D1721360938095712F4A23601360FD
:10C3700053609360D3601361536193616360A36002
:10C38000E360FF332374A17621836574A574E5749B
:10C3900025756575A575254A136883431360244B7D
:10C3A0006A46197058239380224BD0800093224B09
:10C3B0006846191C984602F001F9071E16D11F4B5A
:10C3C000994601234A4613703378002B1AD1404610
:10C3D000002102AA02F068F900280FD1201C02A94E
:10C3E0001C22002302F01CFA002807D1381C05B0DB
:10C3F0000CBC90469946F0BD114FF7E74B46071C21
:10C400001D70F3E76A466B469188DB8840465943C6
:10C4100089B202F05FFA071CE8E7C0469C280020BA
:10C42000302800203C2800207C280020982800206C
:10C430001428002001C001005828002015280020E1
:10C440000E800000F8B5194B1B78002B01D118485D
:10C45000F8BD00280AD0002908D00B68002B05D0B1
:10C46000144E3768002F03D01348F1E71348EFE765
:10C47000051C301C0C1C08C00531052204F021FAF3
:10C48000012223790421B372337AF0799343022293
:10C490001343DBB28B43337201230343DBB21A43F2
:10C4A000D2B28A43F27100202F70D1E71528002004
:10C4B000088000009C280020048000000E800000FE
:10C4C000004870479180000000487047918000004C
:10C4D00000487047918000000A4B1B78002B01D167
:10C4E0000948704700290BD0002809D00378002B99
:10C4F000F6D1064A1268002AF2D00B700020F0E74D
:10C500000348EEE715280020088000009C28002042
:10C510000E800000002806D0FF2303704370837054
:10C52000C370002070470148FCE7C0460E80000041
:10C5300008B5194B1B78002B01D1184808BD0028FD
:10C540001BD0002919D00378002BF6D1144B1B689F
:10C55000002BF2D08278FF2A11D0D3009B1A114A07
:10C560009B00D3189A7E920714D41033081C07221C
:10C57000191C04F0A6F90020E0E70B48DEE7437839
:10C58000FF2B07D05A00D318084A9B00D3189A7A79
:10C590009207EBD40648D1E7152800200880000058
:10C5A0009C2800203C2800200E800000302800201D
:10C5B00005800000F0B5244B8BB01B78002B02D116
:10C5C00022480BB0F0BD00280DD000290BD0037815
:10C5D000002BF5D11E4B1B68002BF1D08378002B6C
:10C5E00003D01C48EDE71C48EBE71C4EB27EFF2A47
:10C5F000F7D00D1CCB608178194FCA00521A9200F7
:10C60000B2186B61AB6003AB2A616F602B60041CD6
:10C61000817801AA134802F047F80028D1D103A875
:10C6200001A91C221C2302F0FBF80028C9D11C23FD
:10C63000E860A27868615343F61803AB2E616F601F
:10C64000A8602B60BDE7C0461528002008800000C8
:10C650009C280020108000000E8000003C28002054
:10C66000182800205828002010B582B0041C8178BA
:10C670006A460D4802F018F8002812D16078694621
:10C68000C300181A094B800018181C221C2302F042
:10C69000C7F8074B074A9B7A68469B009B58211CAA
:10C6A000984702B010BDC0465828002060280020DE
:10C6B0009C280020E4280200F0B55F4656464D460F
:10C6C0004446FF23F0B4D04A8FB012780393002A77
:10C6D00046D0CE4F3A689046002A41D004AD05AE10
:10C6E0006B70AB70EB70031D73602A2300223381E3
:10C6F0000388041C2A70102B00D141E1FF21C44A99
:10C7000080889146927A0191910708D5C149884263
:10C7100000D12CE149460989814200D127E1113B32
:10C720009BB2412B1CD8BC499B00CB589F4613237E
:10C73000337000239B46281C311C5A46C04733786F
:10C74000122B0DD14B469B7A012B09D04A4601236F
:10C750009372023B1381D372002313609380937111
:10C760000FB03CBC90469946A246AB46F0BDBB7AA2
:10C77000AA4A9B009B58281C9847F1E70223111CEA
:10C7800099430B1C0820494602408B7200D157E1A7
:10C790005BB2002B00DAFBE110234A4693720233AE
:10C7A000337000239B46C6E71323337004234946A6
:10C7B00013438B72C97AFF2900D177E116233370B6
:10C7C000974B181C9C4608300023804660468360C7
:10C7D000404643608360C360036144231A434B4671
:10C7E0009A7200239B468F4B98460022CB00591A21
:10C7F00089008D4B41440B920C910D920893099244
:10C800000A92A0883A1D002108ABFFF7D3FA00284E
:10C81000A6D13B6898468EE74B46DB7AFF2B00D1CA
:10C820006FE1804B804E9846311C42460023FFF753
:10C83000C3FA95E701217B7A04208B437B724B4638
:10C8400082439A7214233370A3798A46002B00D056
:10C850001BE10021E3798B46184200D16BE7019B75
:10C86000FF2B00D167E708231A434B469A72E37AFD
:10C870009B0709D55146019AD3009B1A694A9B0030
:10C88000D3189A7E8A439A764B46DB7AFF2B00D1E7
:10C890004FE74B461B78022B00D1B9E1614B49466B
:10C8A0009846019A0968D3009B1A9B00434419617A
:10C8B000494688889A7E98828879987502208243B2
:10C8C0009A766B4608AC99885848221C01F0ECFE19
:10C8D000002833D16B785A00D3189B004B449B7AC5
:10C8E0005B0600D591E1524B9A46A978201CCB00FB
:10C8F000591A890041441C220023D047002811D135
:10C90000697840304B005B189B004B449A7A824315
:10C910009A72CB00591A8B004349201CC9181C225B
:10C920001C23D0472B78201C5A00D3189B00FB18DF
:10C930009B7A404A9B009B58291C98473B68984625
:10C9400000239B46F7E6A379112B02D1130700D5EC
:10C95000C3E080235B421A434B469A72152333701F
:10C96000BB7A2E4A9B009B58281C9847E6E749460D
:10C97000C97A8A46A9700021697051460191CEE6B4
:10C980000121234B8A4699469B7A194200D1E7E65A
:10C99000494602238B720F336A70337083880722F3
:10C9A0000B81831D191C48469B4603F08AFF237D9B
:10C9B00054461C4000D182E01F4A5B08D45CFF2C27
:10C9C00000D1E3E00394A1B24B464A46DC720A234D
:10C9D0001648937208AAAC7001F066FE0028ADD12B
:10C9E000687808A9C300181A83000F481C22C018D1
:10C9F0001C2301F015FFBB7A104A9B009B5808A826
:10CA0000291C98479AE7C046152800209C2800203A
:10CA100030280020FFFF0000BC270200C4280200CD
:10CA20007C2800203C280020602800205828002076
:10CA300001E70100D428020014280020E4280200A5
:10CA40000199FF2900D1A7E6CB005B1A9B001C1CB3
:10CA5000874F1034FB183C196270A270E27022718B
:10CA60006271A2711A605A609A60DA60FF221A74C9
:10CA70009A76013AFF3A1A8301238B40191C7D48AC
:10CA8000AA7003688B43036086E64B466A46DB7AEE
:10CA900079489380918808AA984601F005FE0028FD
:10CAA00049D0A3799B463B68984644E6704B98462C
:10CAB0009B7EFF2B00D1BEE0704B9B4695E66C48F9
:10CAC00059461030072203F0EDFE00239B46002854
:10CAD00000D030E60394191C76E700236848836091
:10CAE000C3600361436183611633337060231A436B
:10CAF0004B469A7202237A7A13437B7200239B4639
:10CB000019E65B4BE18998461B8B0026994200D0C1
:10CB10008AE64B46DE7208231A434B46281C9A725B
:10CB2000AE70FFF7A1FD4B46DB7AA088FF2B00D14A
:10CB30007AE6544E78E608A8582101F0CBFE00288A
:10CB4000AFD14B4B42469B464346DB009B1A9B00B2
:10CB50001A1C10329446DC44624650709070D070BB
:10CB6000107150719071FF225B441A749A76013AE9
:10CB7000FF3A1A834146186058609860D86053465F
:10CB80008B403C4A1168994311608AE7FF211BE7FB
:10CB90006B4608AC99883848221C01F085FD0028B6
:10CBA00030D16B785A00D3189B004B449B7A5B06BC
:10CBB0003ED4354B9846A978201CCB00591A8B00DF
:10CBC0002B491C22C9180023C04700280ED10C2372
:10CBD0006A78403053434B44997A814399721C23BD
:10CBE0005A432849201C89181A1CC0472B78201C3E
:10CBF0005A00D3189B00FB189B7A244A9B009B5831
:10CC0000291C98473B689846C6E5214B9A466CE636
:10CC1000174B019A98461B48D3009B1A408A9B00E9
:10CC20004344188301201A1C9B7E8343937648E675
:10CC3000174B9846BFE74B461B78022B16D0494648
:10CC400043464A460968196192889A824A4692790F
:10CC50009A75FD2342469376002303AA1370039A24
:10CC60009B46D1B24A46A970D172BEE5FE23F1E7D8
:10CC70003C280020982800205828002043800000ED
:10CC80007C28002060280020C9BD0100D4280200B3
:10CC900091E7010030B5002915D00A78002A02D0AA
:10CCA0000A4B181C30BD0A4B1B68002BF8D0FF2321
:10CCB000084C8B702589FA3B8542F2D14A70E37AA1
:10CCC0008B700023EDE7044BEBE7C04608800000C3
:10CCD0009C280020302800200E800000F0B500289D
:10CCE00020DBFF271B4B03229C463B1C8408C026ED
:10CCF000C0B20240D2009340A4006444B600A559DB
:10CD00009D438B013B409340191C2943A1511F2394
:10CD100018401E3B8340C022181C0E4B52009850F6
:10CD20001860F0BDFF260C4A03249446321C0F23E2
:10CD3000C0B20440E400A2400340083B9B089B00B3
:10CD40006344DD6995438A013240A240111C2943A6
:10CD5000D961DCE700E100E000ED00E070B54E25B0
:10CD6000174C0820635D002B00D070BD201CFF21F4
:10CD7000202228300126FBF71BFA201C7642FF21D7
:10CD8000242240C0FBF714FA4823FF22E654013363
:10CD9000E2540133E6540133E6540133E6540620ED
:10CDA00001330121E654FFF799FF8021C123054A91
:10CDB0009B000906D150012300206355D5E7C046EA
:10CDC000A8280020006000404E23034AD05C431E88
:10CDD0009841C0B27047C046A8280020F0B5474629
:10CDE00080B45A4C9046231828331E7808257F2E8D
:10CDF00003D8281C04BC9046F0BDCD78AC46002D6D
:10CE000043D02268013200D194E004270026731C2D
:10CE10009D006259013240D0B31C9F4233D99D001E
:10CE20006259013239D0F31C9F422CD99D006259BE
:10CE3000013232D0331DBB4225D29D0062590132EE
:10CE40002BD0731D9F421ED99D006259013224D000
:10CE5000B31D9F4217D99D00625901321DD0F31DA9
:10CE60009F4210D99D006259013216D001339F4272
:10CE700009D99D00625901320FD00936B74202D953
:10CE8000636A013307D00425B3E72269013256D023
:10CE90000A270426BBE7092324254246625162463D
:10CEA0002718DEB228373E70002A02D1E318443337
:10CEB00018708B78002B15D1031CA0254A78C1333C
:10CEC000FF3392009B00ED055A51CB78002B15D112
:10CED00076B2A41944340B7822789B011343237053
:10CEE000002586E7A022D2059446E025022783008C
:10CEF0006344ED005A59BA435A51E6E7A22476B288
:10CF0000134BB600F318E4000A781D5911490002CA
:10CF100029401951F82149010840061CC02110047C
:10CF2000021C301C89021D590A4010432843185125
:10CF300000255EE700261E7043462360B9E70425FE
:10CF40001D7043462E1C23612B1CAFE7A828002030
:10CF500000600040FFE0FCFFF0B5264D2C1828349F
:10CF6000227853B2032B18DDEB1844331B789B094E
:10CF7000032B32D0012B39D0C025AD02A023DB0515
:10CF80009C46E02380006044DB00C4581A492140DD
:10CF9000C150C2582A43C250F0BD032AFCD81748DA
:10CFA000A227844601269A006244FF00D0593043EC
:10CFB000D0511A1C604600274032920092B217509E
:10CFC0000029E9D00022A25692005259002AE3D04B
:10CFD000C1229E4092008650DEE7A223A022DB0001
:10CFE000D205D258012383401A42C5D18025AD0213
:10CFF000C4E7C046A8280020FFFFFCFF00600040F7
:10D00000A223A022DB00D205D358C340181C012361
:10D0100018407047F0B544465F4656464D46F0B45A
:10D02000844A83B013680024012B65D0824B1A68B0
:10D03000012A6DD0814B1A68012A00D178E0804B1B
:10D040001A68012A00D183E07E4B00261A68012A63
:10D0500000D18EE023070BD0E30700D593E0A307B0
:10D0600000D5BBE0630700D59DE0230700D5A9E00C
:10D07000002C06DB03B03CBC90469946A246AB466A
:10D08000F0BDC0239846C0239B0200246E4D9946F4
:10D0900005E0032B00D1B0E00134062CEAD0231CBC
:10D0A0004833E95C4BB20133F6D0C9B24346081CA1
:10D0B00098432B1828331B785BB29B00EA58002A50
:10D0C000EAD0A027FF05BC468B09019383009C444E
:10D0D000E0276346FF00DB594F463B40012787406E
:10D0E0001B0C3E42D5D0022BD6D1019B032B00D185
:10D0F0008BE001999047CFE7C121544889004158FE
:10D100000B4293D04C4B14601A680134012A91D120
:10D11000C1224E499200895802220A4200D189E771
:10D1200000211960454B14431A68012A00D086E794
:10D13000C12246499200895804220A4200D17EE762
:10D14000002119603E4B14431A68012A00D07BE786
:10D15000C1223E499200895808220A4200D173E751
:10D1600000211960374B14431A680026012A00D0A9
:10D1700070E71E6080231B061C43A022A223D20559
:10D18000DB00D65866E7A223304ADB00D058D158DE
:10D190002D4DC00489032B68C00E890F9847A30743
:10D1A00000D45FE71AE0A323284ADB00D058D15807
:10D1B000254DC0048903AB68C00E890F984723072B
:10D1C00000D455E7214A224B1F4DD058D158C004F6
:10D1D0008903C00E890FEB68984749E71D4B1B4A2E
:10D1E000194DD058D158C00489036B68C00E890FFF
:10D1F0009847630700D438E7D5E7019B032B00D09D
:10D2000077E780239B029A4602E0C0239B029A465E
:10D21000E0216346C9005B589B465F460E4B3B408E
:10D2200067467B507B5857461F433B1C67467B50E5
:10D230005FE7C046006100400461004008610040B3
:10D240000C6100407C610040A82800200060004084
:10D250001C05000014050000FFFFFCFF82B00190D8
:10D26000019B002B14D0019B0A48013B019301381C
:10D27000C046C046C046C046C046C046C046C0467E
:10D28000C046C046C046C046F1D1019B002BEAD142
:10D2900002B07047E703000029DF704728DF7047BE
:10D2A00030B583B0002806D0112806D108230F4AD4
:10D2B00011680B43136003B030BD021C0C480178A9
:10D2C0008B005B189B00C518281CE9686B694C0033
:10D2D00064182979074DA4002D680C300095064D7F
:10D2E0006459A0470422054B1A70E4E7E82900209E
:10D2F000F8280020F4290020CC290020ED29002066
:10D30000F0B55F464D4644465646F0B45E4F85B094
:10D310003C785E4D012C00D188E0002C00D16DE0FE
:10D32000022C16D0032C0DD1594B1868FFF7B6FF0D
:10D33000021E07D0112800D080E00823554A11684A
:10D340000B43136005B03CBC90469946A246AB46E1
:10D35000F0BD504B99461B6803932B789E00F31841
:10D360009B00EE183369984680235B051969404697
:10D370000904090C9B4603F013F9454B82461860DB
:10D380005B4619694346581EF3880904C018090C06
:10D3900003F006F982454CD00323039C9C434B4683
:10D3A0001C603D4B1B68002B02D10233234262D02C
:10D3B00000223A4B1A703A4B5869431C54D08023D0
:10D3C0005B0519690904090C03F0EAF8031C8022C3
:10D3D0005205106911690004013B000C090458430F
:10D3E000090C03F0DDF8FFF759FF021EAAD011283F
:10D3F00024D108231C434B461C60A3E7294B1C6027
:10D40000294B1C606B78002B9CD02B789A00D3188A
:10D410009B00ED18EA88254B1A602B79032B27D047
:10D42000042B25D0012B00D08CE73B7000F000FCD2
:10D4300088E70123039A9A431443B0E72B789800B6
:10D44000C01880002E18301C184DF3682D685C0041
:10D45000E418317973690095154DA4000C306459B6
:10D46000A04704233B706DE780235B055B69AEE753
:10D4700000F020F866E7094A50461370FFF70EFFE8
:10D48000FFF70EFF5EE7C046ED290020F8280020D8
:10D49000002A0020E8290020FC290020EC29002097
:10D4A00000100010F8290020C4290020F4290020D1
:10D4B000CC290020F0B55F4656464D464446F0B4B0
:10D4C0005B4B5C481A78802791008A1892009B1861
:10D4D000DD681E696A005219920082181489508909
:10D4E0005268604380469044DA881B89141C994630
:10D4F000514B92469B4600235A467F05396983B0BB
:10D5000009044C441360090C301CA41903F0CEF834
:10D51000002924D13B699BB29A4537D044456CD051
:10D52000032D33D0301C3969484489B203F0BEF86A
:10D53000424B890819603969201C0904090C03F061
:10D54000B5F8002932D102223D4B1A70FFF7D8FE00
:10D5500003B03CBC90469946A246AB46F0BD032DB5
:10D5600014D0301C396948440904090C03F09EF8B2
:10D57000324B8908196039694445E4D00904090C23
:10D58000201C03F093F80029DDD00FE080235B0519
:10D590001969301C0904090C03F002F80322294B15
:10D5A0001860274B1A70FFF7ABFED1E780256D0599
:10D5B00029692B696A4699464346D380D08889B247
:10D5C00002F0EEFF6A464B46A6B2D380071CD18814
:10D5D000301C02F0E5FFBFB280B287421DD02C693B
:10D5E0002969301C89B203F061F85B462404240CDD
:10D5F00089B2641AA4081C60A5E74B46002BC5D06D
:10D60000032DC3D0301C3969484489B203F04EF869
:10D610000A4B890819603B6995E7434624041B04BB
:10D620001A0C240C131B5A469B0813608BE7C04648
:10D63000F8280020CC290020C8290020FC2900203F
:10D64000ED290020002A0020F8B546464F46C0B418
:10D650001D4D08AC24886E78A44604240A2E2DD0D3
:10D660002C78A046A419092C00DD0A3C14277C4321
:10D670002C196261221C20710C32B94681C981C209
:10D68000E380634623810024104B01361A786E70C4
:10D69000A24213D142464F465743ED190C4AE9883E
:10D6A00011602A79032A07D0042A05D0012A05D15E
:10D6B0001A70FFF725FE01E0FFF7FCFE201C0CBCF2
:10D6C00090469946F8BDC046F8280020ED29002074
:10D6D000F4290020082170B50C1C244A82B013687C
:10D6E0001C4009D08B431360214B224A1B789B00BE
:10D6F0009B58984702B070BD1F4D2B789800C318F7
:10D700009B00EE18317904292AD0F2687369500021
:10D710008218301C194E920036680C300096184E54
:10D7200096590022B04702202A7893009B189B004C
:10D73000EB181C71DC80D8601C615C611C816B780B
:10D740000132013BD2B26B700A2A06D02A70002245
:10D750000C4B1A70FFF7D4FDCCE700232B70F6E7D3
:10D760000122084B1A70FFF7CBFDC3E7E829002020
:10D77000EC290020F4280200F8280020F4290020D9
:10D78000CC290020ED29002030B5244B83B0586906
:10D79000431C3ED080235B0519690904090C02F083
:10D7A000FFFE041C80235B051869196900041A69CF
:10D7B000000C631E58431A4B09041B68090C92B2F3
:10D7C00092085943FFF768FD021E06D0112806D1C2
:10D7D0000823144A11680B43136003B030BD12498B
:10D7E0000B789800C01880000D18281CEB68297968
:10D7F0005C00E4186B690D4DA4002D680C30009599
:10D800000B4D6459A04704220A4B1A70FFF778FDAC
:10D81000E3E780235B055C69C4E7C04600100010A5
:10D82000002A0020E8290020F8280020F429002000
:10D83000CC290020ED290020802230B55205146942
:10D8400021492404230C0C6883B0013C5C431F4B2A
:10D850005869431C35D011690904090C02F0A0FE77
:10D8600080235B0519691A4B09040138090C4143EF
:10D870001A68201CFFF710FD021E06D0112806D1E1
:10D880000823144A11680B43136003B030BD1249DA
:10D890000B789800C01880000D18281CEB682979B7
:10D8A0005C00E4186B690D4DA4002D680C300095E8
:10D8B0000B4D6459A04704220A4B1A70FFF720FD54
:10D8C000E3E75069CCE7C046002A002000100010B2
:10D8D000FC290020E8290020F8280020F429002055
:10D8E000CC290020ED290020082330B51E4D83B03F
:10D8F0002C68234214D1A30702D501231C432C60BA
:10D9000002221A4B1A701A4B1868FFF7C7FC021E46
:10D9100004D011280DD108231C432C6003B030BD66
:10D920009C43124B134A1B782C609B009B589847D2
:10D93000F4E711490B789800C01880000D18281CD6
:10D94000EB6829795C00E4186B690C4DA4002D6824
:10D950000C3000950A4D6459A0470422094B1A70F7
:10D96000FFF7CEFCDAE7C046E8290020EC290020CA
:10D97000002A0020F4280200F8280020F4290020C2
:10D98000CC290020ED290020F0B58027274C7F0509
:10D99000237839699A00D3189B00E3181A89DD8827
:10D9A0001B69AD18ED18090483B0090C281C02F09E
:10D9B0007DFE1F4B0E1C5869431C35D03969090484
:10D9C000090C02F0EDFD80235B051969013809049B
:10D9D000090C4143174B89191A68281CFFF75CFC96
:10D9E000021E06D0112806D10823134A11680B43E2
:10D9F000136003B0F0BD23789800C018800026188B
:10DA0000301C0E4CF36824685D003179ED187369A1
:10DA100000940B4CAD000C302C59A0470422094B4C
:10DA20001A70FFF76DFCE4E77869CCE7F82800206E
:10DA300000100010C8290020E8290020F429002047
:10DA4000CC290020ED29002030B5154B83B0186893
:10DA5000FFF724FC021E06D0112806D10823114A24
:10DA600011680B43136003B030BD0F490B78980069
:10DA7000C01880000D18281CEB6829795C00E41898
:10DA80006B690A4DA4002D680C300095084D64594F
:10DA9000A0470422074B1A70FFF732FCE3E7C046A9
:10DAA000002A0020E8290020F8280020F42900207E
:10DAB000CC290020ED290020082370B52A4D82B022
:10DAC0002C68234209D09C43284B294A1B782C60A0
:10DAD0009B009B58984702B070BD0122234B1A70DF
