:020000021000EC
:108000000040002021050200690502006B05020006
:108010000000000000000000000000000000000060
:108020000000000000000000000000006D050200DC
:1080300000000000000000006F0502007105020052
:108040007305020073050200730502007305020048
:108050007305020000000000ADD20100118E010086
:10806000A9EC01007305020073050200730502000C
:108070007305020073050200730502007305020018
:1080800073050200ADF201007305020073050200E2
:108090008DF3010073050200D1FC0100730502009D
:1080A00073050200730502000000000000000000DC
:1080B00000000000000000000000000000000000C0
:1080C000164B002B00D1144B9D46402292029A1A67
:1080D000924600218B460F461348144A121A00F0AC
:1080E00067F80F4B002B00D098470E4B002B00D0A9
:1080F00098470020002104000D000D48002802D000
:108100000C4800E000BF00F02DF82000290000F02E
:1081100035FF00F011F8C0460000080000400020C4
:10812000000000000000000000210020882E002038
:108130000000000000000000084B10B50400002BF8
:1081400002D0002100E000BF054B1868836A002BB5
:1081500000D09847200000F033F8C046000000002F
:10816000241902000E4B70B500251E000D4CE41AB8
:10817000A410A54204D0AB00F35898470135F8E7A6
:1081800009F0C2FB084B00251E00084CE41AA4109D
:10819000A54204D0AB00F35898470135F8E770BD0D
:1081A00000210020002100200021002000210020CB
:1081B00003008218934202D019700133FAE7704726
:1081C000FEE7C04670DF704771DF704774DF7047AD
:1081D00076DF704778DF70477ADF70477CDF704763
:1081E0007FDF704782DF7047A7DF7047A8DF7047E7
:1081F000A9DF704760DF70472EDF704732DF7047BE
:1082000033DF70473CDF704748DF7047F0B54446C6
:108210005F4656464D460300F0B40D3B8FB0804696
:10822000072B00D9E9E004AB9C46232700230DADC2
:1082300067443B706B700300FF22113B2A70032BD5
:1082400000D81BE100230A930B93AB4B9A46AB4B30
:108250009B46AB4B099301230D2699460024E0B2BF
:10826000390006F06DFF3B78002B67D00123A34057
:108270002A78A44953405A46DBB22B7005920A9AD9
:10828000002004926A780293534603920193009669
:108290004346099A01F0BCFBA0238021DB05022C98
:1082A00000D1C3E0032C00D1B9E0012C00D179E06A
:1082B000954A890399500021043A99504B46042B62
:1082C00062D10B9B002B0CD00022904BF0201A7037
:1082D000FF236B70A0238C49DB0540045850043900
:1082E0005A503B78002B00D1A2E0894B1A88894B69
:1082F0009A4200D1B7E02900874801F051FB0823DA
:10830000020004009A4312D00222844BC318934304
:108310000DD011280BD0824B984208D08149002003
:1083200001F076FB00220021200007F0F3FB0FB0E4
:108330003CBC90469946A246AB46F0BD5B460593D1
:108340000A9B099A04936B78774903932B78002052
:108350000293534600960193434601F059FBB04502
:1083600027D0A0238021DB05022C44D0032C4ED043
:10837000012C0FD0A1228903D20099500021624A1A
:1083800099504B46042B9CD001239C460136E14476
:10839000013464E7C903A122D200995000215A4A4E
:1083A0009950F1E7C903584A99500021043A99506D
:1083B000EAE7564B1B78984500D180E00B9A002ADB
:1083C000CFD15A4606920A9A584905926A780020F7
:1083D00004922A78039252460292424601920092F7
:1083E000099A01F015FB4246484B80211A70A023E0
:1083F000DB05022CBAD10904CDE7404B0090019374
:108400004B4A4C4B4C49002001F002FB8FE7A12264
:108410004904D200995000213B4A995051E73A4A09
:10842000490499500021043A99504AE70904BAE7EF
:10843000424B434A434CD258434B44491A600020B4
:10844000220001F0E5FA00224149200007F08AFAF3
:1084500040490200002001F0DBFA2D4B1A882D4B19
:108460009A4200D047E76B78099A01932B783A49F2
:1084700000930020534601F0CBFA58E71E4B3749D2
:108480009A461E4B52469B4600930300002001F083
:10849000BFFA1B4B324909931A005B460493012330
:1084A00003936B78002002932B780193534600933B
:1084B000434601F0ADFA01230A930B93CBE60B9BE5
:1084C000002B00D04DE7221D013393402A78254927
:1084D00053405A46DBB22B7006920A9A002005924E
:1084E0006A780393534602934346049201930093A0
:1084F000099A01F08DFA34E7A01A0200C01A0200AE
:10850000CC1A0200F81A02000C050000F524002025
:1085100064200020FFFF000018210020FECFFFFF95
:1085200001340000DC1B02001C1B02006C1B02005B
:10853000401C0200381C0200481C02000405000018
:1085400000100140B024002010210020A01B0200D8
:1085500066260000BC1B02000C1C0200A81A0200C8
:10856000D41A0200401B020010B5040084B000229F
:10857000002107F0CFFA064B01940293054B064AFF
:1085800000930649064B002001F042FA04B010BDEA
:10859000C01A0200381C0200701C0200781C020085
:1085A000681C020010B5072812D8354B80001B58F4
:1085B0009F46032001F084FD002803D00022002103
:1085C00007F0A8FA2F4B304A3049002001F020FA7A
:1085D00010BD2C4B2C4A2E49002001F019FAF7E768
:1085E000284C294A23002B49002001F011FA0020D1
:1085F0002300294A294901F00BFA002001F060FD0F
:10860000002838D1FFF7FEFD0028E1D0002200212C
:1086100007F080FADCE7052001F052FD002803D0C6
:108620000022002107F076FA164B174A1C49002059
:1086300001F0EEF9CCE7022001F042FD002803D062
:108640000022002107F066FA0E4B0F4A1549002060
:1086500001F0DEF9BCE7042001F032FD002803D070
:108660000022002107F056FA064B074A0E49002067
:1086700001F0CEF9ACE70022002107F04BFAC1E788
:1086800028190200C01A0200A01C0200DC1C020013
:10869000401D0200141D0200381C02002C1D0200A7
:1086A000A81C0200C41C0200FC1C020010B52648D5
:1086B0002649274A43581268264C84B09B1AA34285
:1086C0001ED8435824499A1A03912449244B0291F5
:1086D00001921B7800200093224A234B234901F08A
:1086E00097F9234C200007F0B3F900281FD100228E
:1086F0001A49200007F036F9002813D104B010BD44
:10870000154B174C0193237800200093154A164B04
:10871000184901F07DF900231548237007F098F9F6
:108720000028EBD00022002107F0F4F9E6E7002250
:10873000002107F0EFF900220849200007F012F9A4
:108740000028DBD0EEE7C046001001400405000021
:108750001021002065260000C01A020066260000D5
:10876000F5240020781D0200701D0200801D02000B
:10877000B0240020AC1D020010B5040005F0F6FE88
:10878000200002F08FF910BDF0B504008F4D85B0C8
:108790008388029502888E4F8E4E8F490192002069
:1087A0003A00009601F034F9200004F0A5F820000A
:1087B00002F004FE2100894803F0CAF8210088482D
:1087C00002F06CFE2288522A00D9D1E0854993003C
:1087D000CB589F469A0700D4F0E0002100220023E6
:1087E00081480088FFF7FEFC002803D0002200210A
:1087F00007F090F92B0032007C49002001F008F9C5
:10880000200002F0C5F87A4A21007A4800F0BAFF49
:1088100005B0F0BD744B0022188800210323FFF738
:10882000E7FC002800D0C4E02B0032007249002091
:1088300001F0EEF8E4E73A007049002001F0E8F8B2
:10884000DEE76F49002001F0E3F8D9E76D49002029
:1088500001F0DEF8D4E70020A2886B4901F0D8F8D7
:10886000072001F02DFC002800D0A9E0A2885E4B73
:108870001A8006F04DFC002800D095E00095634B6F
:10888000634A6449002001F0C3F8B9E76249002057
:1088900001F0BEF80122544B52421A805F4B019501
:1088A00000935B4A5E49002001F0B2F8A8E75D49F9
:1088B000002001F0ADF84C4B5B4A188800215B4B5F
:1088C000FFF78EFC00286AD12B00320058490020A7
:1088D00001F09EF894E7574F200039000A22123128
:1088E0000E3007F0BDFF544B1B79DA074BD500283B
:1088F00000D06FE739009A074BD400225B0700D401
:108900006DE7002800D06AE74C4B69E7A11D0622FD
:10891000494807F0B4FF2B0032004949002001F01C
:1089200077F86DE72022A25C237A02920622019258
:10893000023A0092434900203A0001F069F800230E
:1089400041498B8002330B70274B1888FFF74EFC90
:10895000002800D154E70022002107F0DBF84FE7A0
:10896000E3883A0000933949002001F051F847E7C5
:10897000638800920193029533003A003449002045
:1089800001F046F83CE79A0718D5002800D024E704
:108990000021304A5B0700D421E7284B20E7002262
:1089A000002107F0B7F88FE70022002107F0B2F8A6
:1089B00064E70022002107F0ADF835E700219CE7CD
:1089C0000022002107F0A6F850E7C046C01A0200B6
:1089D000A01A0200F41D0200CC1D0200F8240020A1
:1089E000982100204819020064200020081F02007E
:1089F0000021002018210020C81E0200301F0200A4
:108A00006C1F0200901F0200FC1D02001C1E0200D1
:108A1000241E02002C1E0200481E0200381C020008
:108A2000601E0200841E02005421002068200020E5
:108A3000A81E02005C21002010220020D02400206B
:108A4000EC1E0200B41F0200E0240020401F0200C0
:108A5000E81F0200B021002030B5050085B00C00F1
:108A6000101E22D12378152B0CD0212B04D0142BCF
:108A700002D0002005B030BD042229001E4807F0B6
:108A8000FEFEF6E704231D4C01A92800029303947F
:108A900003F060FE00280DD12368DB0712D4280004
:108AA00003F05CFE0028E4D007E00022002107F07C
:108AB00031F8D7E7124B9842DBD00022002107F0B3
:108AC00029F8D6E70F4B104A18880C21FFF78CFBCA
:108AD000082302009A43E2D002220C4BC3189343AE
:108AE000DDD01128DBD00A4B9842D8D000220021DB
:108AF00007F010F8D3E7C04614210020F02400202E
:108B00004080000064200020FFFF0000FECFFFFF38
:108B10000134000010B5154B1888154B98421BD036
:108B20001321FFF755FB00281AD1002001F0C8FAE5
:108B300000280CD102F03AFC002803D000220021CA
:108B400006F0E8FFFA20400004F036FA10BD0022DB
:108B5000002106F0DFFFEDE7FFF738FB0028E4D047
:108B60000022002106F0D6FFDFE7C0466420002087
:108B7000FFFF000070B505000C000A7800200449D2
:108B800000F046FF2800210006F018F970BDC0462D
:108B900014200200F8B51E0002293AD0032925D07E
:108BA000012900D0F8BD002A53D12C49002000F043
:108BB0002FFF069B002B0AD03400294DF71822788E
:108BC00029000020013407F09DFCA742F7D1254C75
:108BD0002100002007F096FC3100069A002007F0E3
:108BE000DBF82100002007F08DFCDBE7002A26D10E
:108BF0001D49002000F00CFF002320221B491C48C7
:108C000005F006FF0028CDD00022002106F082FFEB
:108C1000C8E7002A18D11749002000F0F9FE069B8A
:108C2000002B0AD034000E4DF718227829000020BE
:108C3000013407F067FCA742F7D10F4CC8E70F4992
:108C4000002000F0E5FEADE70D49002000F0E0FE59
:108C5000A8E70C49002000F0DBFEA3E7402002005B
:108C60005C20020058200200BC2002007821002075
:108C700008210020802002009C200200A020020089
:108C8000642002002420020070B50D0016000020B0
:108C90000A000C4900F0BCFE0B4C202200212000F1
:108CA000FFF786FA29003200200007F0E8FD2021B6
:108CB000064805F093FF002803D00022002106F0AB
:108CC00029FF70BDD8200200782100200821002053
:108CD00010B5040002000E49002000F099FE0823A0
:108CE00022009A4312D002220A4BE31893430DD07C
:108CF000112C0BD0084B9C4208D00849002000F0F2
:108D000087FE00220021200006F004FF10BDC046AF
:108D1000EC200200FECFFFFF01340000042102001E
:108D200010B5037884B00400002B01D004B010BD4E
:108D30000B4B3B211888FFF74BFA00280BD1094B4E
:108D400001940293084B094A00930949094B0020FA
:108D500000F05EFEEAE70022002106F0DBFEEEE70F
:108D600064200020C01A0200381C0200701C02009F
:108D700014210200681C0200C12101221820194B95
:108D8000890010B55A5018495850802100204900D8
:108D90005850A021C9005A500730FFF72FFA002879
:108DA0001BD103210720FFF72BFA002810D1072041
:108DB000FFF722FA002803D00022002106F0AAFEC5
:108DC00080220021074B52009950FF3A1A6010BDD3
:108DD0000022002106F09EFEE9E70022002106F0B5
:108DE00099FEDEE7007000400405000010B5064A59
:108DF0000649032001F02EFB002803D000220021A9
:108E000006F088FE10BDC0460D820100CD0C0000AA
:108E1000802210B5314B52009958002900D110BD65
:108E200000219950A1220131D2009A58FF205960A7
:108E300096231040DB005843FE3107F025FC430029
:108E4000C018274B80B26421984211D9254802F0FE
:108E500017FC082302009A43E1D0234B9842DED04E
:108E6000224B9842DBD00022002106F053FED6E7C9
:108E70001F4B984213D81F4A90421BD81E4B984252
:108E800023D81E4A00219042E0D9181A430018182E
:108E90001B49400007F0F8FB0630C1B2D6E7194B7A
:108EA000C839181A3A23584307F0EEFB0100643121
:108EB000C9B2CBE7A021181A430018184942C000D4
:108EC00007F0E2FB2A30C1B2C0E71921101A49426B
:108ED00007F0DAFB1230C1B2B8E7C04600700040BC
:108EE000B70B00009821002004300000013400007E
:108EF000540B0000B40A0000880900003408000088
:108F0000ACFEFFFFB80B0000C12101221820194B55
:108F1000890010B55A501849585080210020490046
:108F20005850A021C9005A500730FFF767F90028B0
:108F30001BD103210720FFF763F9002810D1072078
:108F4000FFF75AF9002803D00022002106F0E2FDC5
:108F500080220021074B52009950FF3A1A6010BD41
:108F60000022002106F0D6FDE9E70022002106F0EC
:108F7000D1FDDEE70070004004050000F0B5564664
:108F80005F464D464446F0B4A9B006F067FFE54E93
:108F9000E54BE64AE6490020009600F039FD8023C3
:108FA000A3220121DB05D200995082220020520029
:108FB0009850996099580029FCD082238022002182
:108FC0005B00D205D150DB4BDB49984600203300D3
:108FD000424600F01DFD0023D84A0521002006F07E
:108FE00035FC002803D00022002106F093FDD44A6E
:108FF0000121D44806F09CFC002803D00022002167
:1090000006F088FDD04A0021D04806F091FC0028E7
:1090100003D00022002106F07DFD33004246CC49FA
:10902000002000F0F5FCFFF7E1FE33004246C9499D
:10903000002000F0EDFC00234822C749082006F07C
:109040000DFE002803D00022002106F063FD18ACBD
:10905000082200212000FFF7ABF801232000237035
:10906000FFF7C8F8002803D00022002106F052FDC7
:109070000FAD2800FFF7A8F8071E00D048E229002E
:109080000020FFF79FF8B54806F00EFE002803D039
:109090000022002106F03EFDB14806F00FFE002838
:1090A00003D00022002106F035FD4246AD490020E4
:1090B000330000F0ADFCAC4A0A21082006F056F857
:1090C000002803D00022002106F024FD00203300F8
:1090D0004246A64900F09CFCA54803F061FB00282D
:1090E00003D00022002106F015FD05F049FB002801
:1090F00003D00022002106F00DFD280003F068FADD
:10910000002803D00022002106F004FD02AB9C469B
:109110005D20002105226044FFF74AF80D236371AA
:10912000063BA3710933E371924B2100189301238D
:109130002371914B18009A4603F0CAFA002803D015
:109140000022002106F0E6FC330042468B49002055
:1091500000F05EFC0F2101222B7828008B43134383
:1091600010220B401343864911222B70FFF736F86B
:10917000002803D00022002106F0CCFCC0204000D3
:10918000FFF728F8002803D00022002106F0C2FCD7
:10919000082200212000FFF70BF8502323805033D2
:1091A00063809C3BA3808D33FF332000E380FFF777
:1091B00013F8002803D00022002106F0ABFC330096
:1091C00042467049002000F023FC0AAB18000C2234
:1091D0006D491F00039307F052FB38220021200045
:1091E000FEF7E6FF02232370013B9946A370062396
:1091F000E370033B2382654A0323654900206761CE
:1092000000F006FC242200212800FEF7D1FF4B4687
:109210002B7328232B610A3B6B614B462B76C823AB
:109220001B01EB615B4B2A002B62002300210093A2
:109230002000594B01F0ECFA002803D00022002155
:1092400006F068FC330055490020424600F0E0FB80
:10925000534B05A80F93202383801F3BC380514BA2
:109260000593514B19009B4605F034FB002803D0B1
:109270000022002106F04EFC4C4B20229946594614
:109280000023484605F050FC002803D000220021AE
:1092900006F040FC4B4610AA83CB83C283CB83C22B
:1092A00003CB03C24249002000F0B2FB2900414831
:1092B00000F0B6FA002803D00022002106F02AFCB4
:1092C000039D002114222800FEF772FF11236B7307
:1092D000AB732B74103B2B712900633336482B730F
:1092E00002F00EF9002803D00022002106F012FC43
:1092F000402200212000FEF75BFF3049200002F0F1
:10930000B9F83C210F200122635C834313431022F0
:1093100003401343635400223D232000E25402F033
:10932000D9FB4DE0C01A02003C2102001C1E0200C5
:1093300044210200F41D02006C21020038220020AA
:10934000798D010088230200AD8601008C23020084
:10935000842102009C210200C8210020898701008D
:1093600079870100B421020000240020D0210200EE
:1093700014210020598A0100F4240020EC2102006D
:109380000C22020020220200941A02003C22020059
:109390004422020080510100A585010064220200E0
:1093A000898C0100958B0100082100207821002084
:1093B0008422020018210020982100209822020017
:1093C000002803D00022002106F0A4FB07AD0021F5
:1093D0000C222800FEF7ECFE544B29006B60544B26
:1093E0005448AB6005232B8002F09AF9002803D083
:1093F0000022002106F08EFB4F4805F097FD5346F2
:10940000187805F099FD330042464C49002000F0E1
:10941000FFFA1C2200212000FEF7CAFEA0239B02B7
:109420006360F0231B03A36003232373444B2000DA
:109430006361444BA36101F07DFF002803D000224B
:10944000002106F067FB330042463F49002000F050
:10945000DFFA01223D4B002019781143E12211402F
:109460000C221143CD220A401A7007225A70093289
:109470009A7037493300424600F0CAFAFFF744FDBC
:10948000330042463349002000F0C2FA4022324BFA
:1094900080211A60C123314A09069B00D150002067
:1094A00042462F49330000F0B3FAE1210022C904FB
:1094B0002C4806F057FA002803D00022002106F0BD
:1094C00029FB330042462849002000F0A1FA03207E
:1094D00001F040FA3300040042462449002000F025
:1094E00097FA002C04D000220021200006F012FB85
:1094F000022000F0E5FD002805D105F05DFEFEF735
:1095000083FE0028F9D00022002106F003FBF4E7D7
:109510000022002106F0FEFA29000020FEF752FE8C
:1095200000220021380006F0F5FAACE5758B010049
:10953000D18C0100F8240020158B0100A422020028
:10954000218D010069850100C02202005421002004
:10955000E42202000823020000E100E00060004075
:10956000302302001822002044230200642302005A
:10957000A0DF7047A2DF7047A6DF704763DF704748
:1095800067DF7047F0B556465F464D464446F0B437
:10959000C3889DB0089343888E1D079343890400B8
:1095A0000693F38A0D0005930B0028331B781700F0
:1095B0000493B37F002003934B88029313686A4A95
:1095C0001B880193CB8869490093694B00F020FA0E
:1095D000EB8862899A4200D19EE062889A4200D16B
:1095E0009FE0B378062B06D01DB03CBC9046994650
:1095F000A246AB46F0BD5F49002000F009FA3F6883
:1096000063883A889342EFD10022002B00D1A7E073
:109610009B460EAB9C460023984663463D000B924A
:109620000D940C93AB886C88D218D2B2AE1D0B92FD
:10963000002B00D189E00C9847468446211D6144E7
:1096400082468E427F41A2442900BC46404647469E
:1096500052460A318A424741604639000143092097
:1096600084469C4580414042084244D051460320F4
:10967000314308423FD150460B9A1D1F92460200CB
:109680000027AD080135A900AC4699463500130006
:1096900038000C9F04CD013004C36045FAD3524614
:1096A0004B460B920C9775188B421CD0287881463C
:1096B0001CA88446A44460464F46401838380770BA
:1096C000481C98420FDA6F780231B9461CAFBA468F
:1096D000504404194846383C20708B4203DDA8787A
:1096E000614438390870F5185B46002B2FD02B8861
:1096F0000B9A9B4696E70B9A002194462A00250078
:109700000C9F501884797819445401318B42F8DC4D
:1097100062460C970B92E6E71749002000F078F9B3
:1097200062E720351549002000F072F9328B2900DC
:10973000002006F031FB1249002006F0E3FE327EE5
:10974000A3692900200098474EE73500CCE70C9B21
:109750000B9A9C460D9CA36961462000984743E7FD
:109760000EAB9C46F7E7C046781D0200E8240200D5
:10977000701D020060250200342502004C25020005
:10978000B029020070B515000A8882B006000C00EE
:10979000512A03D81A499300CB589F460092194B7F
:1097A000194A1A49002000F033F902B070BD2A00AE
:1097B0002100FFF7E7FEF8E701235B428382F4E72D
:1097C0001349002000F024F9124B29002B603623A6
:1097D000AB80A088FFF7D4FE0028E6D0002200214D
:1097E00006F098F9E1E70C49002000F011F9DCE7F8
:1097F000A2880A49002000F00BF9A388B382D4E7BD
:1098000090230200F41D0200D4250200DC25020092
:109810008425020028250020AC25020074250200C2
:10982000F0B55F464D46444656460123F0B45B42D0
:10983000838208C907008361202304001C3797B086
:1098400020223800994607F01AF85049102206A83D
:1098500007F015F8210006A81231FFF78FFE002847
:1098600006D017B03CBC90469946A246AB46F0BD28
:10987000A37C04A98B70464B220001300B80FFF7BC
:1098800077FE0028EDD102AD280003220021FEF76B
:109890008FFC11232B701023984611236B700F3B04
:1098A0009B461C2200210FA89A46AB70FEF780FC55
:1098B0005A4643463C2113436A46521813706A467F
:1098C000A37C03AE9375334B0021938230000322B7
:1098D0001495FEF76DFC4246012313433370534643
:1098E0000AAD142200212800B370FEF761FC05AB1D
:1098F0000A9353462B81AB81230020880A332A0028
:109900000FA96E60FFF736FE0028AAD11C220021A5
:109910000FA8FEF74DFC5A4608233C2113436A4624
:10992000521813706A46A37C002193751A4B3000BD
:1099300093820322FEF73CFC01220F231340424690
:109940001343337001220F231340424613437370B5
:109950005346142200212800B370FEF729FC05AB02
:109960000A934B462B81AB814B466E602F613A00C8
:1099700000930A493B00002000F04AF8A31C20880D
:109980002A000FA9FFF7F6FD6BE7C046D8240200B6
:109990002315000025150000261500000C260200E6
:1099A000F0B5474680B41E2702238CB008AC0500F2
:1099B0000E006F4410220021200098463B80FEF7E5
:1099C000F7FB01230E4AA3706B89E6602380A76032
:1099D000059242460492AA8A3378029272780393DF
:1099E00001920093074A084B0849002000F010F844
:1099F000A88A2100FFF7C0FD0CB004BC9046F0BD62
:109A0000C01A0200D42502001C1E02003C260200DF
:109A10000EB430B50500C6B049AC08CC094A019374
:109A200002920092084B094906A806F09DFF05AA7C
:109A300006A92800059406F00BFB46B030BC08BC14
:109A400003B01847C01A02003C220200642602003C
:109A5000A02210B5064BD205D15880231B041C0050
:109A6000A1208C430B400349C0001450535010BD3B
:109A7000040500000C050000F0B544465F4656465C
:109A80004D46F0B4040087B011280FD0122800D141
:109A90009BE0132800D19CE0142800D19DE007B082
:109AA0003CBC90469946A246AB46F0BD002300253B
:109AB0009846012975D0002961D00229EFD1534B76
:109AC000534A9B469A58534B534F1B6800209900AA
:109AD000CB1800933B68514906F014FD5B464C4A95
:109AE0009A583B68D21A4B4B1B689900CB189A4284
:109AF00033D202AB9C464A4B0F249A460023994628
:109B0000434B644403934B4621004046237005F0C9
:109B100017FB23782A005146002006F0F3FC237837
:109B2000002BBCD00026B54206D0F0B2210005F0D3
:109B300007FB2378002BB2D10136042EF3D132205B
:109B400003F03AFA5B46039A9A583B68D21A314BB3
:109B50001B689900CB189A42D5D33249002006F0F1
:109B6000D1FC6B005D19304B5D196E78002E96D0DC
:109B70002E4B1B68002B92D0300098478FE72C4962
:109B8000002006F0BFFC2B4805F062FF264A6B0060
:109B90005B19D318284A9B78565D9E4200D07EE719
:109BA000E4E72649002006F0ADFC1F4B6F00984605
:109BB00042467B19D65C43445B78002B11D17F1958
:109BC0004744BA781C4B5A55D0E7012301259846E3
:109BD0006FE70223022598466BE703230325984687
:109BE00067E70B4B094A1348D2580B4B1A60144BCA
:109BF0009946084B4A461B689900C91805F0B2FE01
:109C00000028DCD14B461C70D9E7C046001001404B
:109C100004050000902500208C250020E02702008C
:109C20000C28020028280200DC25002094250020B2
:109C3000A027020098250020B825002060270200F8
:109C400089250020F8B5C64B1B68DB0700D4F8BD9A
:109C5000C44A1478172CFAD8C349A300CB589F469E
:109C6000A022C24BD205D1588023DB031C00A120C7
:109C70008C430B40BE49C00014505350BD4B0022D2
:109C80001B68BD489900C91805F06CFEDFE7A023EA
:109C9000F021B74ADB05490499500021043A995054
:109CA000D5E7A022B14BD205D1588023DB031C009D
:109CB000A1208C430B40AE49C00014505350AD4B13
:109CC00000221968AC4805F04DFEC0E7AB4BA1205F
:109CD0001968E0235B048B43A0210026F025C90509
:109CE000C000A34C0B50A14B0E51CB586D046B40E0
:109CF0008025AD032B4000D129E10D5003230E51E7
:109D0000082113709B4B00221B689B48594305F0A8
:109D100029FE9CE7994BA1201968E0235B048B4343
:109D2000A0210026F025C905C000914C0B508F4B97
:109D30000E51CB586D046B408025AD032B4000D1F4
:109D400000E10D5004230E512821DAE7A023A122BF
:109D5000E021DB05D2004904802499500021844889
:109D6000A40319501C50995071E7854D280005F047
:109D70006FFE11231C1B00D1C9E0002800D0C6E0F3
:109D800080237E4E1B043360012C10D0C830642128
:109D9000604306F0EFFB774B00221B68434328002B
:109DA000190005F0DFFDF02332685B041340A022A8
:109DB0006F49D2055350A1230021DB00D15046E763
:109DC0006E4BA1211A68F0235B049343A022C900C3
:109DD000D20553500021664BD15038E7674BA12084
:109DE0001968E0235B048B43A0210027F026C905F6
:109DF000C0005F4D0B505D4B4F51CB587604734004
:109E00008026B603334000D190E00E504F512821F8
:109E1000022C79D0147075E7A023A122C021DB05A4
:109E2000D2004904C024995000215148E40319503C
:109E30001C5099500BE7A023A122D021DB05D200B2
:109E400049048024995000214948E40319501C50CA
:109E50009950FCE6A023F021A122DB054904D200A1
:109E600099500021424A9950F1E6E022434B5204B6
:109E70001B68A1219A43A023C900DB0580245A5006
:109E800000223B48A4031A501C505A50DFE63B4BBB
:109E9000A1201968E0235B048B43A0210026F02554
:109EA000C905C000324C0B50304B0E51CB586D04DD
:109EB0006B408025AD032B4041D00D500E51052342
:109EC00013702C4B002219682B48490005F04AFDFD
:109ED000BDE62A4BA1201968E0235B048B43A02137
:109EE0000026F025C905C000214C0B501F4B0E5118
:109EF000CB586D046B408025AD032B402CD00D500A
:109F00000E5106231370DAE616391470FAE6F023C0
:109F10001A4A5B041168A1200B40A021C000C905AA
:109F20000B50002312480B50136090E64E510B501B
:109F30000421022C00D06DE702391470E2E60D51C5
:109F40000B50BCE70D510B5004210423D9E60D51F1
:109F50000B5002210323D4E60D510B50D1E7C0462C
:109F600084250020882500207826020004050000B2
:109F70000C05000090250020602500208025002091
:109F8000BC250020F0B55F4656464D464446F0B429
:109F9000037889B0112B0FD0122B00D172E0132B54
:109FA00000D173E0142B00D174E009B03CBC9046A2
:109FB0009946A246AB46F0BD002303930593374B69
:109FC000374F9B46374B384E9A465B4652469A5817
:109FD0003B6800209900CB1800933368334906F0A2
:109FE00091FA5B4652469A583B689900CB18316803
:109FF000521A934234D904AB9C462D4B0F249946F8
:10A000000023984653460493059B64449A4643466E
:10A0100021000398237005F093F8237852464946AF
:10A02000002006F06FFA2378002BBED00025AA4549
:10A0300006D0E8B2210005F083F82378002BB4D1D4
:10A040000135042DF3D1322002F0B6FF5B46049AAD
:10A050009A583368D21A3B689900CB189A42D6D3E3
:10A060001449002006F04EFA059A53009D18124B31
:10A070005D196878002898D0104B1B68002B94D08D
:10A08000984792E701230393059398E702230393EC
:10A09000059394E703230393059390E70010014091
:10A0A00090250020040500008C250020E0270200F8
:10A0B0000C28020028280200DC250020942500201E
:10A0C00070B5DB4B04001B680020DB0700D470BDBB
:10A0D000172CFCD8D74AA300D3589F46A022D64BB2
:10A0E000D205D1588023DB031C00A1208C430B40F8
:10A0F000D249C00014505350D14B00221B68D148A4
:10A100009900C91805F02EFCE1E7A022CA4BD20540
:10A11000D1588023DB031C00A1208C430B40C7498E
:10A12000C00014505350C64B00221968C54805F0B2
:10A1300019FCCCE7C44D280005F08AFC11231C1B38
:10A1400000D14CE1002800D049E18023BF4E1B0420
:10A150003360012C10D0C8306421604306F00AFA45
:10A16000B74B00221B6843432800190005F0FAFB97
:10A17000F02332685B041340A022B049D20553504B
:10A18000A1230021DB00D150A1E7A023F021A122CF
:10A19000DB054904D20099500021A84A00209950BB
:10A1A0001222AB4B1A7092E7A023A122E021DB051B
:10A1B000D2004904802499500021A048A4031950DA
:10A1C0001C5099501322A24B00201A707FE7A02345
:10A1D000F0219A4ADB05490499500021043A99502C
:10A1E0009B4B00201C7072E7984BA1211A68F0234A
:10A1F0005B049343A022C900D205535000238F492A
:10A2000000205350924A137061E7904BA1211A68C5
:10A21000E0235B049343A0220026F025D205C90069
:10A2200086485350844B1650D3586D046B4080259C
:10A23000AD032B4000D1E9E0555016502821022CE7
:10A2400000D1F2E0824B1C707D4B00221B687D48E0
:10A25000594305F087FB3AE7A023F021774ADB0555
:10A26000490499500021043A99500C22784B00205F
:10A270001A702CE7A023A122D021DB05D2004904CB
:10A280008024995000216D48E40319501C509950C6
:10A2900014226F4B00201A7019E76C4BA1211A6829
:10A2A000E0235B049343A0220025F024D205C900DB
:10A2B00062485350604B1550D35864046340802467
:10A2C000A403234000D199E05450155008210322E3
:10A2D0001AE05E4BA1211A68E0235B049343A0229D
:10A2E0000025F024D205C90054485350524B155054
:10A2F000D358640463408024A403234000D18DE03C
:10A300005450282115500422514B1A709CE7E0222A
:10A310004E4B52041B68A1219A43A023C900DB05C0
:10A3200080245A5000224548A4031A501C505A5009
:10A33000474B07321A700020C9E6A023A122C02192
:10A34000DB05D2004904C024995000213B48E403B6
:10A3500019501C50995015223D4B00201A70B6E63A
:10A360003A4BA1211A68E0235B049343A022002505
:10A37000F024D205C900314853502F4B1550D35803
:10A38000640463408024A40323403CD054501550FF
:10A3900005222F4B2B481A70294B002219684900BF
:10A3A00005F0E0FA93E6294BA1211A68E0235B044B
:10A3B0009343A0220025F024D205C9001F48535022
:10A3C0001D4B1550D358640463408024A4032340DC
:10A3D00028D05450155006221D4B1A70A3E6F023C6
:10A3E0001A4A5B041168A1240B40A021E400C905AE
:10A3F0000B510023114C0B51136068E6145053505D
:10A400000221032280E714505350C1E715505350E6
:10A410000421022C00D015E7023913E714505350E1
:10A42000042170E714505350D5E716390AE7C046A7
:10A4300084250020D8260200040500000C05000039
:10A440009025002060250020BC25002080250020CC
:10A4500088250020224B10B51960224B040018609B
:10A46000214B1A60830710D5204B214A21481A60DE
:10A47000214A5A60214A9A604A08042104F0EEFDFC
:10A48000002820D0E30703D410BD0020E3070DD53A
:10A49000A023F022A1210024DB055204C9005A5058
:10A4A00017495C500C315A500028EDD1154A002153
:10A4B000154805F03DFA0028E6D1144A0121144858
:10A4C00005F036FAE0E704F023FE0028DAD1114A5D
:10A4D0000021114805F02CFAE307D9D4E4E7C0467F
:10A4E000902500208425002094250020DC250020D4
:10A4F0000D110D0E40270200120E0F130F10141035
:10A500000C050000459C01003C270200519A010007
:10A510006C280200859F01003827020073DF704716
:10A52000F0B5AC4E87B0072200213000FDF740FEA9
:10A53000A94D6B78002B64D0A84F3C78012C05D036
:10A54000AB78002B00D1E3E0022C0FD1A44B1B68A9
:10A55000002B00D108E10121A24A08201170984780
:10A560003C78012C00D1D7E0022C55D02B7B002B5E
:10A5700002D1032C00D16FE02B7E002B02D1042CE2
:10A5800000D1F4E0964B1B68002B03D0E21E012A99
:10A5900000D86DE00022944B1A7018220021684602
:10A5A000FDF706FE022C00D189E000D870E0032CF4
:10A5B00000D195E0042C18D16B46AA8B1A822A8C04
:10A5C0005A828A4B1A79002A00D1C4E02A78002ADC
:10A5D00004D0874A1278002A00D1E5E00422854B96
:10A5E00085481A7006F0B6F93C78002C61D17C4B96
:10A5F0001B68002B02D07F4A10789847002007B0D4
:10A60000F0BD764FAB783C78002BAAD0022C9DD0C1
:10A61000012CABD102233B70AB78002B17D07378A1
:10A62000002B00D0A9E0B378002B00D0A5E0F37890
:10A63000002B00D0A1E03379002B00D09DE073798E
:10A64000002B00D099E0B379002B00D095E00323D4
:10A650003B702B7B002B7CD104233B702B7E002B8B
:10A6600000D184E05E4B04241B68002B00D191E7ED
:10A670002A78002A00D18DE75D4A1278002A00D09E
:10A6800088E70121584A0720117098473C7884E7F1
:10A69000012CAAD1594806F05DF96B466A461C7038
:10A6A000002353821382534B01961C703C78002C7C
:10A6B0009DD06846FFF732FF002898D09FE74F48AB
:10A6C00006F048F901236A4613706B462A89019601
:10A6D0005A826A466B681382464B1C703C7884E74A
:10A6E0006B46AA8A5A822A8A1A82404B1A79002A11
:10A6F00036D02A78002A03D03D4A1278002A3ED06C
:10A7000003223C4B3E481A7006F024F93C786CE773
:10A71000022C00D02AE79AE76B78002B00D179E76A
:10A720007378002B00D02DE7B378002B00D029E7F9
:10A73000F378002B00D025E73379002B00D021E7F8
:10A740007379002B00D01DE7B379002B00D161E7AE
:10A7500018E7032416E71A7B002A00D036E73DE706
:10A760001A7B002AC5D1CBE71E4A1370F9E60023F5
:10A77000204A3B70137000240CE7022402E769466C
:10A780000393042302321F480A720021C37000F0B1
:10A7900015FD002800D032E70522164B1A481A7022
:10A7A00006F0D8F83C7820E7694603930423023288
:10A7B00014480A720021C37000F000FD002800D088
:10A7C0001DE706220B4B11481A7006F0C3F83C78BF
:10A7D0000BE7C0465826002060260020F8260020FF
:10A7E0002C260020F9260020D4260020C426002094
:10A7F000532600200C270020282902007028020080
:10A80000CC280200E825002098280200F428020045
:10A81000F8B504000E000E20002C00D17BE0002AC9
:10A8200079D000203C4908703C490B6006993C4BAC
:10A8300019603C490B0023CA23C323CA23C323CA7C
:10A8400023C3072200213848FDF7B2FC374B384AB2
:10A85000384D1A60384A00219A6028003822FDF7E6
:10A86000A7FC237822002B70A3781032AB70E3781A
:10A87000EB7063786B702B00103303CA03C32B009B
:10A88000103A083303CA03C32B000832183303CA33
:10A8900003C3636A002B11D0284B294F6B62616A96
:10A8A0009F600A881A8088889880002806D0002334
:10A8B0008A68D25CFA5401338342F9D1A36A002B2F
:10A8C00014D0204B204FAB62A06A9F608188998092
:10A8D00002881A800023002905D08268D25CFA54CD
:10A8E00001338B42F9D12C23E25CEA54236A002B1A
:10A8F00006D0164B2B62226A5188598012881A8022
:10A900006368002B03D0124B6B6063686B6031008F
:10A91000280000F053FCF8BDF82600202C2600206B
:10A92000542600206026002058260020C42600203F
:10A9300084260020E8250020D8260020202600209C
:10A940003426002000270020A4260020FC2600201A
:10A95000D526002010B500240B4B82B0187001A83A
:10A96000019404F08DF9082809D0002805D1019B35
:10A97000002B05D00122054B1A7002B010BD0194C6
:10A98000FFF7CEFDF9E7C046F8260020302600206C
:10A9900070B5038882B0112B21D0192B07D0102B52
:10A9A00001D002B070BD8288334B1A80F9E78479F8
:10A9B000002CF6D1314E3578022D57D03ED9032DDB
:10A9C00026D0042DEDD12E4D2E482C7005F0C2FF5F
:10A9D0002D4B1B68002BE4D028789847E1E7002432
:10A9E0002A4B1C70244B82881B889A42D9D101259E
:10A9F000224B01A81D70019404F042F908282AD0C6
:10AA000000282DD1019B002B26D0214B1D70C8E7BB
:10AA10001B4B20481D7005F09DFF042301A83370D7
:10AA2000019404F02DF9082815D0002818D1019BB5
:10AA3000002B11D00122164B1A70B2E7012DB0D1B4
:10AA4000154805F087FF022301A83370019404F034
:10AA500017F90828D4D10194FFF762FD0028A0D08F
:10AA60000E4B1B68002B9CD098479AE70C4805F0CA
:10AA700071FF0323D2E7C04680200020F826002083
:10AA80000C270020F82902002C2600205326002045
:10AA900030260020B429020050290200542600204C
:10AAA0008029020030B5023883B0012803D8104C49
:10AAB0002378002B01D103B030BD002501A82570FB
:10AAC000019504F0DDF8082807D000280AD1019B81
:10AAD000002B03D001232370EDE70195FFF720FD44
:10AAE0000028E8D0034B1B68002BE4D09847E2E72E
:10AAF000302600205426002071DF704772DF704737
:10AB000079DF70477DDF704765DF7047F0B55F46DE
:10AB100056464D464446F0B485B09A460EAB80CBBF
:10AB200006001B8800919B463B8801930388002BFD
:10AB300063D00023994602ABDD1C3B0000241700C4
:10AB4000984603E033880134A3422CDD7368A100EA
:10AB50009C460422614403A805F091FE00222900CE
:10AB600003A8FFF7D1FF002829D12B78BB42E9D1F8
:10AB70004B46002B2AD043461A88D3195B453EDC4E
:10AB80005244290003A8FFF7BFFF002817D143460E
:10AB90002A781B880134D318424613800123994632
:10ABA0003388A342D2DC4B464746002B25D03B8856
:10ABB000019A013B9B1A9BB20C20FF2B1AD905B0BE
:10ABC0003CBC90469946A246AB46F0BD43461B8826
:10ABD000DA1902325A4512DC4246013369469BB209
:10ABE000138052460978D15443461A88013292B2F2
:10ABF0001A80C5E71100524653540020DFE70C20AD
:10AC0000DDE7C046F0B55F4656464D464446002354
:10AC1000F0B417881380436B87B006000D00140052
:10AC2000002B00D19CE1022F00D891E11A78022379
:10AC30000B701121238801339BB22380E9542388B0
:10AC400001339BB22380EA54238801339BB22380D3
:10AC5000326B002A00D170E019001231B94200D9DC
:10AC600076E11121E9542388013901339BB2238015
:10AC7000E954238801339BB22380D17BE954238894
:10AC800001339BB22380917BE954238801339BB22B
:10AC90002380517BE954238801339BB22380117BAD
:10ACA000E954238801339BB22380D17AE954238865
:10ACB00001339BB22380917AE954238801339BB2FC
:10ACC0002380517AE954238801339BB22380117A7F
:10ACD000E954238801339BB22380D179E954238836
:10ACE00001339BB223809179E954238801339BB2CD
:10ACF00023805179E954238801339BB22380117951
:10AD0000E954238801339BB22380D178E954238806
:10AD100001339BB223809178E954238801339BB29D
:10AD200023805178E954238801339BB22380127821
:10AD3000EA54238801339BB223802E22B25C002A7E
:10AD400000D00FE12D22B25C002A00D02CE1B278B5
:10AD5000002A00D055E1F278002A14D0D91CB9425B
:10AD600000D9F5E00221E9542388013901339BB26F
:10AD70002380E954238801339BB22380EA5423883B
:10AD800001339BB223807268002A15D0D91CB942C6
:10AD900000D9DDE002211278E9542388083101331B
:10ADA0009BB22380E954238852B201339BB22380A3
:10ADB000EA542388013323803389002B00D09BE1A0
:10ADC000338A002B00D0B1E1338B002B00D0C7E1D8
:10ADD000336A002B4BD022880C20911D9346B94238
:10ADE00000D9B6E0198805388A46052900D8B0E0B0
:10ADF000BB496A468C46D4446146D181D1898C4690
:10AE0000B84988468C4500D8A3E059888C46052966
:10AE100000D89EE0B2496144D18189B2414500D851
:10AE200097E0B1498A4504D08C4502D0E24500D96B
:10AE30008FE005215A46A95422880D31013292B281
:10AE40002280A9542288013292B222801988AA183D
:10AE50001170090A51702288023292B222805988F8
:10AE6000AB181970090A5970238802332380736A5A
:10AE70009846002B30D09A882188131D5B180C202F
:10AE8000BB4266D8931CFE2B63D803326A54FF2260
:10AE9000238801339BB22380EA544246238801333E
:10AEA0009BB223801288EB181A70120A5A7042461D
:10AEB000238802339BB223809288002A0CD041461B
:10AEC00089680538002944D0E81805F0D8FC4346C5
:10AED00022889B88D31823802C23F35C002B00D07E
:10AEE000B0E033780020002B33D032880720012ACD
:10AEF0002FD02288901CB8422AD8012B04D1737815
:10AF000002339B189F4223D3023FBA1A04AF93B275
:10AF10002818390098463B80FFF7F4FD002818D127
:10AF20003378022B00D141E1012B00D1DEE0434612
:10AF30000821FE2B0CD822885E1CAE5422880132D8
:10AF400092B22280A954228801329B18238000E00B
:10AF50000C2007B03CBC90469946A246AB46F0BDDB
:10AF6000002375E6D91C0C20B942F2D80221E9541D
:10AF70002388103001339BB22380E85423880133A7
:10AF80009BB22380022A00D10BE100D804E1032AFE
:10AF900000D109E1042A00D0FCE00322EA5423880E
:10AFA00001339BB22380CDE609330C20BB42D0D8BD
:10AFB00004A8FFF7A1FD0028CBD10822238809218E
:10AFC000EA542388133201339BB22380EA5402AB44
:10AFD0009C462088153A013080B2208061442818B0
:10AFE00005F04DFC238802AA0633127A9BB2238017
:10AFF000002A00D00122EA54238801339BB2238027
:10B00000A5E604330C20BB42A3D804A8FFF778FDC3
:10B0100000289ED103222388EA5423881632013364
:10B020009BB22380EA54238802AA01339BB212897F
:10B030002380EB181A70120A5A70238802339BB2CD
:10B04000238088E6B36A9846002B00D1A2E09B8853
:10B050000233FE2B00D97BE700229146163292463E
:10B060001632208893460CE04B46B26A5B0090464D
:10B070004B449B00984443469B880233FE2B00D9E7
:10B0800066E7524601332B54238801339BB2238059
:10B09000EA544246238801339BB223801288EB187E
:10B0A0001A70120A5A7043462088023080B22080FB
:10B0B0009A88002A0BD0996800296BD0281805F0CF
:10B0C000DEFB434620889B88C01880B220804B4618
:10B0D0000133DBB299465B46F35C4B45C4D800E7CD
:10B0E0007FF3FFFF7DF30000FFFF000073789845BA
:10B0F00000D31DE743461BE708239846B044019759
:10B1000000942B00022202214046FFF7FFFC00289A
:10B1100000D01EE7019700942B0010220621404624
:10B12000FFF7F4FC002800D013E749E61023984607
:10B13000B044019700942B00022203214046FFF700
:10B14000E5FC002800D004E7019700942B001022B2
:10B1500007214046FFF7DAFC002800D0F9E633E685
:10B1600018239846B044019700942B000222142122
:10B170004046FFF7CBFC002800D0EAE60197009498
:10B180002B00102215214046FFF7C0FC002800D0FC
:10B19000DFE61DE60720DCE6012AFBD10022EA54A7
:10B1A000FDE60122EA54FAE6E954F8E63B88092173
:10B1B000984500D3BDE64346BAE6C04630B593B0E5
:10B1C0001F236A460C009380D380002822D0C378C6
:10B1D0005B071CD501AA02A9FFF714FD02AD0028E8
:10B1E00016D1002C19D0E378002B10D16B460AA998
:10B1F0009A1D2000FFF706FD002809D16B469B79B8
:10B200000AAA694628000979FFF778FC00E00720C0
:10B2100013B030BD90800025E3E76B460022DC8050
:10B220000023EEE775DF704776DF70477ADF7047FF
:10B230007BDF704710B5184B82B01888174B9842C7
:10B2400014D0174A174C13780133DBB21370217BEB
:10B2500099420DD200231370237C002B12D1636915
:10B26000002B03D0002201A80270984702B010BD45
:10B270000D49FFF7D7FF0028F8D0A369002BF5D0C0
:10B280009847F3E73B21FFF7CFFF0028E7D0A369FA
:10B29000002BE4D09847E2E758270020FFFF00008A
:10B2A000182700201C2700205C27002030B51B4BEE
:10B2B0001B4A5B88118883B099420FD852889A4202
:10B2C0000CD3184B5B69002B03D0012201A802703C
:10B2D0009847154C0023237003B030BD124C2378DF
:10B2E000002B08D00F4B5B69002BF3D0002201A884
:10B2F00002709847EEE70D4B0A4D1B78002B0BD0E0
:10B30000A96800220A4804F02DFB0028E2D0AB69AE
:10B31000002BDFD09847DDE76968F2E710270020AF
:10B320005C2700201C2700200D2700201827002064
:10B3300038270020164902000B0070B532CA32C30C
:10B3400032CA32C312681A600022124B01681A70A6
:10B35000002916D0104C0832200005F090FA200089
:10B36000FFF764FF00280BD101220C4B52421A80D8
:10B3700000220B4B00211A700A480B4A04F0D8FA3D
:10B3800070BD0548FFF754FF0028EDD0F8E7C04630
:10B390001C2700200D2700205C27002058270020B4
:10B3A00018270020382A020035B2010010B50248E3
:10B3B00004F04EFB10BDC0463827002010B50388AE
:10B3C000112B35D021D9122B17D0502B1CD1214C49
:10B3D000C288E3899A4217D1C38B022B14D11E3342
:10B3E000C35CDB070ED41C4804F032FB00280BD0F2
:10B3F000A369002B08D0984706E0811D0822174852
:10B4000005F03DFAFFF752FF10BD102BFCD10100F3
:10B410008288134B16311A801048082205F02FFA43
:10B420000022104B1A700B4BDB89002BECD1E9E7A3
:10B4300001220B4B52421A8000220A4B06481A7016
:10B4400004F006FB0028DFD0024B9B69002BDBD009
:10B450009847D9E71C270020382700201027002014
:10B4600058270020182700200B7803704B78437072
:10B470000220704770B5040008000D0005F096FA30
:10B480006560208070BDC046A0DF7047A2DF7047B6
:10B49000A3DF7047A4DF7047A6DF704730B583B0E5
:10B4A000002808D0002906D00B88112B23D0502B60
:10B4B00003D0102B1CD003B030BD037D002BFAD07D
:10B4C000CA8843899A42F6D1CB8B022BF3D1046808
:10B4D000002CF0D020221F33CB5C8A5C1B0213436C
:10B4E0000122134001AD53402B702900A047E2E731
:10B4F0008B884382DFE701235B424382DBE7C04660
:10B50000F0B55F4656464D464446F0B4070095B048
:10B510000E000E20002F14D0002912D00B680D3819
:10B520003B6001235B427B820A7906A93B740233AC
:10B530008B70504B3A753A1D0B80FFF7A5FF002822
:10B5400006D015B03CBC90469946A246AB46F0BD2D
:10B550003B7D002B6CD10DAB9A461C2218000021BC
:10B56000FCF726FE53461A78022313435246002066
:10B5700013705346586101239B465A4602AB9A7595
:10B580003D4B05AD02AA9382002103222800FCF75F
:10B590000FFEB37B08AC2B70F37B02AA6B70022307
:10B5A000AB709946337B0021D37020001422FCF746
:10B5B000FFFD07AB08935B462381A38102AB0333F6
:10B5C00023616560BB1DB88822005146FFF75EFF0E
:10B5D0000028B6D1B3689846002B48D0012302AAB0
:10B5E0009375264B0021938228000322FCF7E0FD8F
:10B5F000337C03AE2B704B4641463000AB70FFF7F7
:10B6000033FF8046142200212000FCF7D1FD07AB58
:10B610006A4623604346D380D0883A006560208123
:10B62000A08126610E32F8882100FFF731FF88E7FC
:10B6300004AC032200212000FCF7BAFD10250123F1
:10B640002B432370737B1C22637002239846A370E4
:10B650000DAB9A4618000021FCF7AAFD534642465E
:10B660001B78200013431D4353461D7081E7F8816A
:10B6700067E7C0460F180000192A000008290000DB
:10B6800070B588B06B460400DD1DD971002820D04C
:10B69000027CCBB200209A4219D00822002102A8D5
:10B6A000FCF786FD6A4601231381E188608A02AABD
:10B6B0000395FFF7EFFE002809D12B78658A2374E4
:10B6C000104B08309D4202D0237D002B03D108B0DF
:10B6D00070BD0E20FBE704AE102200213000FCF705
:10B6E00067FDE388310033800123B3706B465B89CB
:10B6F0002800B38002ABB360039BF360FFF7CCFE7E
:10B70000E5E7C046FFFF0000A0DF7047A2DF7047FB
:10B71000A5DF7047A6DF7047A8DF704763DF70477B
:10B72000F0B54D4644465F465646F0B4040095B029
:10B730000D000E20002C16D0002914D04B68002BD1
:10B7400011D001235B4223801022624904A805F036
:10B7500096F80A216A46604B694404A81381FFF7F2
:10B76000DDFF002806D015B03CBC90469946A246A5
:10B77000AB46F0BD221D02A90130FFF7C5FF00282E
:10B78000F1D16B469E7A1C22A67100210DA8FCF710
:10B790000FFD34216A460423521803AF1370BE70A4
:10B7A0004E4B01AE0322002130003B80FCF700FD30
:10B7B0000F239A46102398461123737002239B4649
:10B7C0000123994603231422002108A8B370FCF733
:10B7D000EFFC14236A4693852300A088083308AA47
:10B7E0000DA908970996FFF791FF0028BBD11C22ED
:10B7F00000210DA8FCF7DCFC42460823342113434A
:10B800006A4652181370A3790322BB70344B00218F
:10B8100030003B80FCF7CCFC4A465346134042467E
:10B82000134373705B46DBB213434A460021134354
:10B8300008A81422B370FCF7BBFC17236A46938553
:10B840002300A088103308AA0DA908970996FFF7CE
:10B850005DFF002800D086E71C2200210DA8FCF720
:10B86000A7FC34226B469B185A461A70A379032210
:10B87000BB701C4B002130003B80FCF799FC4A4612
:10B88000534613404246134333705A464B460021F9
:10B89000134308A81422B370FCF78AFC6B460222FB
:10B8A0001A8502229A852300A088203308AA0DA9B0
:10B8B000089709960C95FFF729FF002800D052E75A
:10B8C0006B68A362AB68002B00D0E3620122064BD9
:10B8D0001A7048E7602A0200301500003215000097
:10B8E000311500003415000064270020F0B5040075
:10B8F00087B000280AD00588124B08209D4203D04B
:10B90000114B1B78002B03D107B0F0BD0E20FBE7D5
:10B9100010230E4F02AD3B706B469E1D03237970C2
:10B92000BA700021102228003380FCF741FC238AE2
:10B9300020882B8001232900AB70AE60EF60FFF7F9
:10B94000E9FEE1E7FFFF00006427002068270020F0
:10B95000F0B5474680B4040088B00D00002813D02D
:10B96000002911D0826A002A0ED00B88112B21D019
:10B970000ED9502B11D0512B06D18B79022B03D12C
:10B980000A89038A9A4219D008B004BC9046F0BDD7
:10B99000102BF9D18B880380F6E7C9880389994277
:10B9A000F2D1082304A90B70EB8B20350B724D608C
:10B9B0009047E9E701235B420380E5E78B7A043B8C
:10B9C000022BE1D90223984601AE0822002104AFE0
:10B9D00030003B70FCF7ECFB434633806B46A18A9A
:10B9E000208832007360FFF793FE002811D0E36ACD
:10B9F000002B00D09847FE232088FF333900BB80FE
:10BA0000FFF78AFE0028BFD0E36A002BBCD098471E
:10BA1000BAE76B461B78DB07EDD5B8803900208884
:10BA2000FFF77AFE0028EFD12223E95C082934D8F9
:10BA3000254A8B00D3589F462B8C022B38D92423C0
:10BA40002322EB5CAA5C1B021343B3805A4253418E
:10BA5000063333703100A36A2000984794E7092326
:10BA6000F7E70223F5E7012333702A8C9A4219D9AC
:10BA7000233533727560A36A31002000984783E74D
:10BA8000002333702B8C012B18D90123F0E70423FA
:10BA9000DFE70523DDE70323DBE703222000FFF7D1
:10BAA00025FFAFE7062202212000FFF71FFFA9E7CD
:10BAB000032208212000FFF719FFA3E70622012136
:10BAC0002000FFF713FF9DE73C2A0200A0DF70472C
:10BAD000A2DF7047F0B54D4644465F465646012307
:10BAE000F0B493B002A98B70DC4B80460B80DC4B2A
:10BAF00001201A009946FFF7E9FF002800D0F1E085
:10BB000043461F88002F00D0F3E043461F89002FD3
:10BB100000D02CE143461F8A002F00D062E143464B
:10BB20001F8B002F00D0B5E143461F8C002F00D0A3
:10BB3000EBE143461F8D002F00D021E243461B6BF3
:10BB4000002B45D01A7804AC22701A680021120A22
:10BB500062705A880225A270DA7803AFE2701A790F
:10BB600001AE22719B681A0A63711B0CE3710BAB67
:10BB70009A46A27118001C22FCF71AFB53461D704E
:10BB80000123BB70B74B0322002130003B80FCF740
:10BB90000FFB42463C23D35C0021337043463C33C9
:10BBA0005B78B57006AD142228007370FCF700FBBB
:10BBB00008232B81AB814B462A0018885146AA4B9B
:10BBC00006976E602C61FFF783FF002800D089E0A4
:10BBD00043465B6B002B40D01A681B7992469B460C
:10BBE000002A00D114E25B46002B04D10022002180
:10BBF000002003F08FFF0BAF1C2200213800FCF760
:10BC0000D7FA0123022404AE03ADB370974B03228D
:10BC1000002128003C703380FCF7CAFA42463C23DE
:10BC2000D35C00212B7043463C335B78AC7006AC90
:10BC3000142220006B70FCF7BBFA5B462381A381C2
:10BC4000534623614B46220018883900884B0696DC
:10BC50006560FFF73DFF002844D143469B6B002BF6
:10BC600000D1C7E11A7804AC22705A8800216270B2
:10BC7000120AA2709A880227E270120A2271DB88E7
:10BC80001C2263711B0AA3710BAB9A461800FCF7C8
:10BC90008FFA53461F70012303AE01ADB370754B8D
:10BCA0000322002128003380FCF782FA42463C231D
:10BCB000D35C00212B7043463C335B78AF7006AFFA
:10BCC000142238006B70FCF773FA07233B81BB81A9
:10BCD0004B463A0018885146674B06967D603C619A
:10BCE000FFF7F6FE13B03CBC90469946A246AB4621
:10BCF000F0BD43465B689B46002B00D17CE10BAB5B
:10BD00009A461C2200211800FCF752FA02245346DE
:10BD10001C70012304AE03ADB370584B0322002105
:10BD200028003380FCF744FA42463C23D35C0021D0
:10BD30002B7043463C335B78AC7006AC1422200079
:10BD40006B70FCF735FA5B4623614B46220018887E
:10BD500051464B4B069665602781A781FFF7B8FED9
:10BD60000028BFD143461F89002F00D1D2E64346A9
:10BD7000DB689B46002B00D144E10BAB9A461C22AA
:10BD800000211800FCF714FA022453461C7001230A
:10BD900004AE03ADB3703B4B032200212800338077
:10BDA000FCF706FA42463C23D35C00212B70434645
:10BDB0003C335B78AC7006AC142220006B70FCF74F
:10BDC000F7F95B4623614B462200188851462E4BFB
:10BDD000069665602781A781FFF77AFE002800D1CB
:10BDE00098E67FE743465B699B46002B00D115E14F
:10BDF0000BAB9A461C2200211800FCF7D9F902244B
:10BE000053461C70012304AE03ADB3701F4B0322D5
:10BE1000002128003380FCF7CBF942463C23D35C59
:10BE200000212B7043463C335B78AC7006AC142287
:10BE300020006B70FCF7BCF95B4623614B46220087
:10BE400018885146124B069665602781A781FFF737
:10BE50003FFE002800D162E644E7C0460A18000011
:10BE6000B8270020232A0000802700202A2A00006B
:10BE700090270020502A000098270020292A00003F
:10BE800088270020242A000078270020252A000087
:10BE9000A82700204346DB699B46002B00D1C3E066
:10BEA0000BAB9A461C2200211800FCF781F90224F2
:10BEB00053461C70012304AE03ADB370634B0322E1
:10BEC000002128003380FCF773F942463C23D35C01
:10BED00000212B7043463C335B78AC7006AC1422D7
:10BEE00020006B70FCF764F95B4623614B4622002F
:10BEF00018885146564B069665602781A781FFF743
:10BF0000E7FD002800D10FE6ECE643465B6A9B465E
:10BF1000002B00D18EE00BAB9A461C2200211800AA
:10BF2000FCF746F9022453461C70012304AE03AD0E
:10BF3000B370484B0322002128003380FCF738F906
:10BF400042463C23D35C00212B7043463C335B7854
:10BF5000AC7006AC142220006B70FCF729F95B462C
:10BF600023614B462200188851463B4B069665607C
:10BF70002781A781FFF7ACFD002800D1D9E5B1E604
:10BF80004346DB6A9B46002B5AD00BAB9A461C22D9
:10BF900000211800FCF70CF9022453461C70012301
:10BFA00004AE03ADB3702D4B032200212800338073
:10BFB000FCF7FEF842463C23D35C00212B7043463D
:10BFC0003C335B78AC7006AC142220006B70FCF73D
:10BFD000EFF85B4623614B46220018885146204B00
:10BFE000069665602781A781FFF772FD002800D1C2
:10BFF000A4E577E6002075E600220021002003F08A
:10C0000089FD7CE600220021002003F083FDB4E6D8
:10C0100000220021002003F07DFDE4E50022002144
:10C02000002003F077FDE3E600220021002003F06A
:10C0300071FD35E700220021002003F06BFD6AE767
:10C0400000220021002003F065FD9EE7272A000062
:10C05000A0270020262A0000B0270020282A000060
:10C06000702700207FDF704782DF7047A7DF7047AF
:10C07000A9DF7047AADF7047002070470020704793
:10C0800000207047F0B55F464D4644465646F0B432
:10C0900087B014236A4653804B78314F5A00D31827
:10C0A0006A469B00FB1880460D0018890232032364
:10C0B00001A9FFF7DFFF00281CD16B78294E9B46B2
:10C0C0006B465B885A469A465B46DB009C1AA40086
:10C0D000200008303018524601A9994604F0C0FBF0
:10C0E00000280FD15B465B005B449B00FF18BB7AC6
:10C0F0009B072ED5002007B03CBC90469946A2462F
:10C10000AB46F0BD34196368002B20D1164F5A4658
:10C110004B469B1A03229B00F2506A7801A9D30078
:10C120009B1A52469B00F3185A606878C300181A8D
:10C1300080000830301804F0A2FB69781C22CB0084
:10C14000591A8900711838234046B847D2E7074F7B
:10C15000DDE730191C220021FCF72AF8CAE7C046A7
:10C16000D82700202428002011EA01009DEA0100C0
:10C17000334AF8B54F46914646464946C0B44378DF
:10C180000700DA00D21A920089184C68002C0DD0F2
:10C1900058002C4EC11889007118897A4DB2002DB3
:10C1A0001FDB002200250024904605E00022002528
:10C1B00000249046234E5800C3189B00F31818899A
:10C1C00022002B004146FFF753FF0B2813D0002815
:10C1D00005D1012D1AD00CBC90469946F8BD1A48DD
:10C1E000F7E74906DDD41100083188464946C844BE
:10C1F000A4B28D58E0E77B7841465A00D3189B00E3
:10C20000F318188922000123FFF732FF7B780C21F5
:10C210005A00D3189B00F61830890C4AFFF726FF06
:10C220000028D8D002220A4BC318934305D008280F
:10C2300003D0112801D00020CDE70348CBE7C0464A
:10C2400024280020D827002041800000FFFF0000A4
:10C25000FECFFFFF70B506004A780C4CD3009B1A46
:10C260009B000D00E0181C223823310002F05CFC1A
:10C27000002807D16A78D3009B1A9B00E3185A68FC
:10C28000013200D070BD5860FCE7C0462428002071
:10C29000F0B5474680B43F4C1D00236890B08046FF
:10C2A0000E001700002B3BD0169B582B38D83A4B6A
:10C2B0006A46019300231374169B02AA0021374893
:10C2C0000995089302F078FB002806D1082202A9FC
:10C2D000404604F0C5FA00284AD001AB98469B7846
:10C2E000FF2B1DD0032E2ED02D4AAA1A1B2A1BD994
:10C2F0002C4BEB1A1B2B2BD80023424653700AAB56
:10C3000009931823212208930A33022E35D06A4656
:10C31000137407AB05933A00236804A94046984775
:10C3200010B004BC9046F0BD1F480268002F03D136
:10C33000012199400A42F3D0012199408A430260C9
:10C3400022232122E1E7169B582B19D04323DEE755
:10C3500016482D1A1B2DE3D8002342465370013393
:10C36000D370134B9B7A9B070CD532233122CCE739
:10C3700001AB984698700023B4E76B461A74C8E77F
:10C380002323C4E71C220021FBF712FF32233122B2
:10C39000BBE7C0464428002000FFFFFF0028002024
:10C3A000E42700200828002040280020242800201E
:10C3B000D8270020002070470020704700207047D9
:10C3C0000020704770B506004A780C4CD3009B1AC9
:10C3D0009B000D00E0181C223823310002F0A4FB62
:10C3E000002807D16A78D3009B1A9B00E3185A688B
:10C3F000013200D070BD5860FCE7C0462428002000
:10C40000334AF8B54F46914646464946C0B443784C
:10C410000700DA00D21A920089184C68002C0DD05F
:10C4200058002C4EC11889007118897A4DB2002D20
:10C4300022DB002200250024904605E00022002592
:10C4400000249046234E5800C3189B00F318188907
:10C4500022002B004146FFF70BFE0B2816D00028C8
:10C4600003D0012D1DD01C4802E0012D19D0002061
:10C470000CBC90469946F8BD4906DAD41100083143
:10C4800088464946C844A4B28D58DDE77B784146CA
:10C490005A00D3189B00F318188922000123FFF7D4
:10C4A000E7FD7B780C215A00D3189B00F6183089E1
:10C4B0000A4AFFF7DBFD0028D9D00222084BC31837
:10C4C0009343D0D00828CED01128D0D10248CFE74E
:10C4D00024280020D827002041800000FFFF000012
:10C4E000FECFFFFFF0B55F464D4644465646F0B4DA
:10C4F00087B014236A4653804B78314F5A00D318C3
:10C500006A469B00FB1880460D00188902320323FF
:10C5100001A9FFF7AFFD00281CD16B78294E9B467F
:10C520006B465B885A469A465B46DB009C1AA40021
:10C53000200008303018524601A9994604F090F9BD
:10C5400000280FD15B465B005B449B00FF18BB7A61
:10C550009B072ED5002007B03CBC90469946A246CA
:10C56000AB46F0BD34196368002B20D1164F5A46F4
:10C570004B469B1A03229B00F2506A7801A9D30014
:10C580009B1A52469B00F3185A606878C300181A29
:10C5900080000830301804F072F969781C22CB0052
:10C5A000591A8900711838234046B847D2E7074F17
:10C5B000DDE730191C220021FBF7FAFDCAE7C0466F
:10C5C000D82700202428002011EA01009DEA01005C
:10C5D000F0B5474680B4070084B0002857D0012545
:10C5E00000220126304B31486D421A605A729A720D
:10C5F00086720581C57207320021FBF7D9FD1C2226
:10C6000000212B48FBF7D4FD2A4C062220000021F4
:10C610001130FBF7CDFD102200212000FBF7C8FDF3
:10C62000FF23254A23741368A576B3431360234B75
:10C630006A461D7058232583214D9380214B290084
:10C640006846D680009302F045F9061E16D11E4BAF
:10C6500098460123424613703B78002B19D102AA59
:10C660000021280002F0A8F900280CD100231C2288
:10C6700002A9200002F058FA002804D1300004B0CA
:10C6800004BC9046F0BD43461E700600F6E70F4E10
:10C69000F4E76A466B46D1889B882800594389B2E3
:10C6A00002F09CFA0600E9E744280020D827002081
:10C6B00024280020E427002040280020BC27002058
:10C6C0000028002091C20100BD2700200E8000003C
:10C6D000F8B5194B05001B780C00002B01D1174849
:10C6E000F8BD00280AD0002908D00B68002B05D01F
:10C6F000134E3768002F03D01248F1E71248EFE7D6
:10C700003000053108C0052204F0B9F80122237970
:10C710000421B372337AF079934302221343DBB2DC
:10C720008B43337201230343DBB21A43D2B28A43F1
:10C73000F27100202F70D3E7BD2700200880000091
:10C7400044280020048000000E800000004870474C
:10C7500091800000004870479180000000487047B9
:10C76000918000000A4B1B78002B01D109487047CB
:10C7700000290BD0002809D00378002BF6D1064AF7
:10C780001268002AF2D00B700020F0E70348EEE7B1
:10C79000BD27002008800000442800200E800000F3
:10C7A000002806D0FF23037043708370C3700020FD
:10C7B00070470148FCE7C0460E80000010B51A4BD8
:10C7C0000C001B78002B01D1184810BD002815D093
:10C7D000002913D00378002BF6D1154B1B68002BD2
:10C7E000F2D08178FF2912D0CB00591A114B890061
:10C7F00059188B7E9B0703D50F48E6E70F48E4E7FF
:10C8000010310722200004F03AF80020DDE74378D9
:10C81000FF2BF1D05900CB1809499B00C9188B7A1E
:10C820009B07EED40448D0E7BD2700200880000015
:10C8300044280020E4270020058000000E8000002E
:10C84000D8270020F0B5244B8BB01B7804000D00D6
:10C85000002B02D121480BB0F0BD00280DD00029DB
:10C860000BD00378002BF5D11D4B1B68002BF1D0AA
:10C870008378002B03D01B48EDE71B48EBE71B4EEA
:10C88000B27EFF2AF7D0CB608178194FCA00521AC6
:10C890009200B2186B61AB6003AB2A616F602B60D2
:10C8A000817801AA134802F087F80028D3D11C230D
:10C8B0001C2201A903A802F037F90028CBD1E860B7
:10C8C000A2786861D3009B1A9B00F61803AB2E6117
:10C8D0006F60A8602B60BEE7BD27002008800000C5
:10C8E00044280020108000000E800000E427002073
:10C8F000C027002000280020F0B54D465F46564670
:10C900004446FF23F0B4CE4A8FB01278050003935B
:10C91000002A43D0CB4A904612689146002A3DD067
:10C9200004AC05AE6370A370E370031D73602A232B
:10C930000022338103882270102B00D12DE1C24FD9
:10C940008088BA7A9246FF2293465246920705D5CE
:10C95000BE4A904229D03A89824226D0113B9BB2EE
:10C96000412B1BD8BA4A9B00D3589F4613233370E0
:10C9700000239A46524631002000C8473378122BD4
:10C980000CD1BB7A012B09D00123BB72023B3B8146
:10C99000FB72072200213800FBF70AFC0FB03CBCF9
:10C9A00090469946A246AB46F0BDFA7A9346A270ED
:10C9B00000226270D2E7434601225B7A142193433E
:10C9C00042465372042352469A43BA723170A9798F
:10C9D000002900D078E10020E97982460B42C9D0D5
:10C9E0005B46FF2BC6D008231A43EB7ABA729B072B
:10C9F0000AD55B465A460121DB009B1A954A9B00EB
:10CA0000D3189A7E8A439A76FB7AFF2BB0D03B7874
:10CA1000022B00D144E28F4B5A4699465B46DB001D
:10CA20009B1A39689B004B441961B9889A7E998298
:10CA3000B979997502218A439A766A465B4608ADB0
:10CA4000D380D18884482A0001F0B6FF002833D172
:10CA500063785A00D3189B00FB189B7A5B0600D4BE
:10CA60001BE27E4B9A46A1781C22CB00591A890002
:10CA7000494400232800D047002811D16178403074
:10CA80004B005B189B00FB189A7A82439A72CB008A
:10CA9000591A8B0072491C22C91828001C23D04740
:10CAA000237821005A00D3189B0043449B7A6D4A97
:10CAB0009B009B582800984743461B6899460023D3
:10CAC0009A4657E7AB79112B03D153461B0700D584
:10CAD00060E1802352465B421343BB7215233370DF
:10CAE00043469B7A604A9B009B5820009847E3E7A7
:10CAF00043469B7A5C4A9B009B58200098474DE731
:10CB0000022352469A431300BA725246120700D4C7
:10CB1000B4E05BB2002B00DA7FE11023BB7202337A
:10CB2000337000239A4625E71323524633700423BB
:10CB30001343BB72FB7A9B46FF2B6FD1454B994643
:10CB40009B7EFF2B00D1FFE0484B9A4600235A46BC
:10CB50000B930D9309930A934346D100891A8900D8
:10CB60003F4A49440C910892A8881A1D002108AB3D
:10CB7000FFF778FA002800D010E743461B68994673
:10CB8000F8E6FB7AFF2B00D1AFE0324B34499946EF
:10CB900000234A46FFF768FA00E701212A4F8A4638
:10CBA000BB7A194200D1F9E60223BB720F336270DF
:10CBB0003370838807223B81831D190038009B4610
:10CBC00003F05DFE2B7D55461D4000D1D4E0284A80
:10CBD0005B08D55CFF2D00D11BE10395A9B20A23A8
:10CBE000FD72BB7208AA1C48A57001F0E5FE002882
:10CBF00000D061E7607808A9C300181A83001848BC
:10CC00001C22C0181C2301F08FFF43469B7A194A4F
:10CC10009B009B58210008A898474DE7162316480B
:10CC20001422002108303370FBF7C2FA4423524625
:10CC30001A4300239A46074BBA72994686E7C046C4
:10CC4000BD27002044280020D8270020FFFF000037
:10CC5000702A0200E4270020002800209DEA01003D
:10CC600008280020882B0200782B02004380000057
:10CC7000BC270020982B0200242800205B46FF2BB5
:10CC800000D14AE7914B062298465B46DD00ED1A3B
:10CC90004346AD005819002145441130FBF788FA8E
:10CCA000102200212800FBF783FAFF2358462B743B
:10CCB000AB76FE3B834001228549524208682A83B5
:10CCC00098430860A27028E76A46FB7A8148D380BF
:10CCD000D18808AA994601F06FFE00286FD0AB7981
:10CCE0009A4643461B68994644E6784BEA8999463A
:10CCF0001B8B00219A4200D04AE7082352461A4370
:10CD0000BA72F97208AA73480391A17001F054FE37
:10CD1000002812D160781C22C300181A83006E48C4
:10CD200008A9C0181C2301F0FFFE43469B7A6B4AFA
:10CD30009B009B58210008A89847FB7AA888FF2BE6
:10CD400000D0C0E0002123E73B78022B63D04B46A4
:10CD500039681961BA889A82BA799A75FD234A4668
:10CD60009376002203AB1A70039BDBB29B46A37041
:10CD7000FB7200239A46E9E65448072259461030D0
:10CD800003F06EFD00239A46002800D0F2E50395DB
:10CD9000190024E75248142200210830FBF708FA52
:10CDA00016235246337060231A434346BA725A7AA6
:10CDB000022313434246537200239A46DAE5582170
:10CDC00008A801F00BFF002889D1404B4A469A463B
:10CDD0004B46DB009B1A9B009B465046584406225C
:10CDE0000021DA441130FBF7E3F91022002150460C
:10CDF000FBF7DEF95246FF23494613749376013B55
:10CE0000FF3B138302338B40314A11689943116011
:10CE100065E7FF21E3E6FE23A1E76A465B4608AD2E
:10CE2000D380D1882B482A0001F0C6FD002830D1DC
:10CE300063785A00D3189B00FB189B7A5B063FD59A
:10CE4000284B9946A1781C22CB00591A8B001F4908
:10CE50002800C9180023C84700280ED10C22637887
:10CE600040305A43BA18917A814391721C2253433D
:10CE700019492800C9181300C847237821005A000F
:10CE8000D3189B0043449B7A174A9B009B58280069
:10CE9000984743461B6899463FE6144B9A46E2E59D
:10CEA0000A4B5A4699465B460121DB009B1A0A4A07
:10CEB0009B00528A4B441A839A7E8A439A76BCE539
:10CEC0000B4B9946BEE7044962E6C046E4270020C2
:10CED000402800200028002008280020982B02006D
:10CEE000242800209DEA0100882B020011EA01009D
:10CEF00079C0010030B5002915D00A78002A02D087
:10CF00000A4B180030BD0A4B1B68002BF8D0FF23DA
:10CF1000084C8B702589FA3B8542F2D14A70E37A3E
:10CF20008B700023EDE7044BEBE7C0460880000060
:10CF300044280020D82700200E800000F0B50028EB
:10CF40001EDBFF261A4B37009C4603238208C025B0
:10CF5000C0B20340DB0089019F40314099409200FC
:10CF60006244AD005459BC43214351511F23C02199
:10CF700018401E3B83400E4A490053501360F0BDD9
:10CF8000FF250C4A2E00944603220F23C0B2024014
:10CF9000D20089019640294091400340083B9B08FC
:10CFA0009B006344DC69B4432143D961DEE7C0469A
:10CFB00000E100E000ED00E082B00190019B002B59
:10CFC00014D0019B0A48013B01930138C046C0467A
:10CFD000C046C046C046C046C046C046C046C04621
:10CFE000C046C046F1D1019B002BEAD102B0704788
:10CFF000E703000070B54E25174C0820635D002B39
:10D0000000D070BD20002022FF2128300126FBF730
:10D01000CFF8200076422422FF2140C0FBF7C8F859
:10D020004823FF22E6540133E2540133E65401332E
:10D03000E6540133E654012101330620E654FFF79C
:10D040007DFF8021C123054A9B000906D1500123A1
:10D0500000206355D5E7C0465028002000600040FE
:10D060004E23034AD05C431E9841C0B27047C0466D
:10D0700050280020F0B5474680B45A4C90462318FB
:10D0800028331E7808257F2E03D8280004BC90463C
:10D09000F0BDCD78AC46002D43D02268013200D1DE
:10D0A00093E000260427731C9D006259013240D092
:10D0B000B31C9F4233D99D006259013239D0F31C11
:10D0C0009F422CD99D006259013232D0331D9F42BC
:10D0D00025D99D00625901322BD0731D9F421ED964
:10D0E0009D006259013224D0B31D9F4217D99D0083
:10D0F000625901321DD0F31D9F4210D99D00625923
:10D10000013216D001339F4209D99D006259013284
:10D110000FD00936B74202D9636A013307D004251C
:10D12000B3E72269013256D004260A27BBE7092358
:10D13000242542466251624627185EB228373E7067
:10D14000002A02D1E318443318708B78002B14D1D5
:10D150000300A0254A78C133FF3392009B00ED0500
:10D160005A51CB78002B14D1A41944340B7822786F
:10D170009B0113432370002587E7A022D205944624
:10D18000E025022783006344ED005A59BA435A51FF
:10D19000E7E7154A0B789446A221B6006644C90019
:10D1A0007458124A000222407250F8225201104074
:10D1B0000500C0221804030028009202745813408E
:10D1C00018432043705000255FE700251D7043463B
:10D1D00000262360B9E704251D7043462E00236115
:10D1E0002B00AFE75028002000600040FFE0FCFF6C
:10D1F0000023F0B5254C22182832D356032B18DD16
:10D20000E31844331B789B09032B33D0012B3AD00E
:10D21000C0218902A023DB059C46E02380006044F6
:10D22000DB00C4581A4A2240C250C2580A43C250B6
:10D23000F0BDD8B20328FBD8164DA227AC46012674
:10D2400098006044FF00C5593543C5511800654634
:10D2500000274030800080B247510029E8D0127882
:10D2600052B292001259002AE2D09E40C1239B0084
:10D27000EE50DDE7A223A022DB00D205D258012325
:10D2800083401A42C4D180218902C3E7502800207C
:10D29000FFFFFCFF00600040A222A0210300D2009B
:10D2A000C9058858D840012318407047F0B5574643
:10D2B0004E464546E0B4C64A00241368012B00D10F
:10D2C00003E1C44B1A68012A00D10CE1C24B1A6871
:10D2D000012A00D117E1C14B1A68012A00D122E1CD
:10D2E000BF4B00251A68012A00D12DE123070BD07E
:10D2F000E30700D53EE1A30700D54AE1630700D567
:10D3000055E1230700D529E1002C04DB1CBC904625
:10D310009946A246F0BD4823B24CE1564B1C1ED0A4
:10D32000C9B2C02308009843231828331B785BB286
:10D330009B001E59002E12D0A0230127DB059C461E
:10D34000E023874082006244DB00D35889099B03B5
:10D350009B0F3D4200D1C0E1022B00D1E5E1492302
:10D36000E1564B1C1ED0C9B2C023080098432318B5
:10D3700028331B785BB29B001E59002E12D0A023CD
:10D380000127DB059C46E023874082006244DB00E6
:10D39000D35889099B039B0F3D4200D185E1022BA5
:10D3A00000D1C8E14A23E1564B1C1ED0C9B2C023AC
:10D3B00008009843231828331B785BB29B001E5942
:10D3C000002E12D0A0230127DB059C46E0238740D6
:10D3D00082006244DB00D35889099B039B0F3D42C6
:10D3E00000D11FE1022B00D1ABE14B23E1564B1CD6
:10D3F0001ED0C9B2C02308009843231828331B78D5
:10D400005BB29B001E59002E12D0A0230127DB0522
:10D410009C46E023874082006244DB00D3588909A0
:10D420009B039B0F3D4200D1E4E0022B00D170E151
:10D430004C23E1564B1C1ED0C9B2C02308009843B0
:10D44000231828331B785BB29B001E59002E12D084
:10D45000A0230127DB059C46E0238740820062442D
:10D46000DB00D35889099B039B0F3D4200D104E1A7
:10D47000022B00D153E14D23E1564B1C00D145E76F
:10D48000C9B2C02308009843231828331B785BB225
:10D490009B001E59002E00D138E7A0230124DB0594
:10D4A0009C46E023844082006244DB00D358890913
:10D4B0009B039B0F254200D1CCE0022B00D025E737
:10D4C000032900D143E1B04720E7C1214648890044
:10D4D00041580B4200D1F4E63E4B14601A68013407
:10D4E000012A00D0F2E6C1223F4992008958022267
:10D4F0000A4200D1EAE600211960374B14431A684A
:10D50000012A00D0E7E6C122374992008958042257
:10D510000A4200D1DFE600211960304B14431A683B
:10D52000012A00D0DCE6C1222F4992008958082246
:10D530000A4200D1D4E600211960294B14431A682D
:10D540000025012A00D0D1E61D6080231B061C4364
:10D55000A022A223D205DB00D558C7E6224A234BDE
:10D56000D058D1581F4B8903C004890FC00EDB6807
:10D570009847C9E6A2231C4ADB00D058D158194B62
:10D580008903C0041B68890FC00E9847A30700D405
:10D59000B4E6174B144AD058D158124B8903C00433
:10D5A0005B68890FC00E9847630700D4A9E6A323E0
:10D5B0000D4ADB00D058D1580A4B8903C0049B6840
:10D5C000890FC00E9847230700D49DE6C6E7C046E2
:10D5D0000061004004610040086100400C610040AF
:10D5E0007C61004050280020006000401C050000C5
:10D5F00014050000032B00D01AE7032910D1802363
:10D600009B029C46E023DB009946524FD3581F40B3
:10D610004B46D750D75863463B431F004B46D75025
:10D62000B04705E7032B00D0DFE6032910D18023A4
:10D630009B029C46E023DB009946464FD3581F408F
:10D640004B46D750D75863463B431F004B46D750F5
:10D65000B047CAE6032B00D058E6032900D032E7D2
:10D660008027BF02E023DB00D4583A4D2540D55037
:10D67000D4583C43D450B04748E6032B00D0FAE6D8
:10D68000032910D180239B029C46E023DB009946AE
:10D69000304FD3581F404B46D750D75863463B4373
:10D6A0001F004B46D750B047E5E6032B00D079E684
:10D6B000032910D180239B029C46E023DB0099467E
:10D6C000244FD3581F404B46D750D75863463B434F
:10D6D0001F004B46D750B04764E6032B00D03EE610
:10D6E000032914D180239B029A46E023DB00D758FC
:10D6F0009946B846174FBC46474663461F403B0015
:10D700004F46D351D35957461F434B46D750B04786
:10D7100025E6032984D1C0239B029C4672E7032996
:10D72000C1D1C0239B029C46AFE70329EFD1C023A0
:10D730009B029A46D9E70329CDD1C0239B029C4680
:10D74000BBE7032984D1C0239B029C4672E7C02714
:10D75000BF0287E7FFFFFCFF29DF704728DF704724
:10D76000F0B5564644465F464D46F0B4534E85B03C
:10D770003478012C66D0002C4CD0022C15D0032C10
:10D780000CD14F4B1868FFF7E9FF002806D011288D
:10D7900060D108234B4A11680B43136005B03CBCB1
:10D7A00090469946A246AB46F0BD464B9A461B684A
:10D7B0000393454B99461B789D00ED188023AD00DF
:10D7C0005B0519694D442F690904090C38009B4613
:10D7D00002F0D0FE3A4B804618605B461969E88833
:10D7E000013F0904C019090C02F0C4FE80452CD089
:10D7F0000323039C9C4353461C60344B1B68002B43
:10D8000002D10233234241D00022314B1A7000F082
:10D81000F3FAC3E72F4B1C602F4B1C602A4B5A783E
:10D82000002ABBD01A7891008A1892009B18D988D8
:10D830002A4A1B791160032B25D0042B23D0012BFE
:10D84000ACD1337000F07AFCA8E70123039A9A4325
:10D850001443D0E71C4D2B789C00E3189C002A1938
:10D86000140053691179D2680C345500AA181B4D65
:10D8700092002D6800951A4D555902002000A847C6
:10D88000042333708AE700F02DF887E7104A4046FA
:10D890001370FFF763FF002800D17FE7112804D140
:10D8A00008231C4353461C6078E74B461B789C00BA
:10D8B000E4184B46A4001A19D2E7C0467A29002082
:10D8C0006C29002088290020A02800207C29002025
:10D8D0007B2900208C290020742900208429002025
:10D8E00090290020F0B55F4656464D464446F0B4B8
:10D8F0005B4B5C481A78802691008A1892009B182E
:10D90000DF681D697A00D219920082181489508943
:10D910005268604380469044DA881B891400994617
:10D92000514B92469B4600235A467605316983B097
:10D9300009044C441360090C2800641902F0A0FE8D
:10D9400000295CD133699BB29A4542D0A04500D1F1
:10D9500074E0032F3DD02800316948440904090CC4
:10D9600002F08EFE414B8908196031690904090CE7
:10D97000200002F085FE002925D080256D0529694B
:10D980002B696A4699464346D380D08889B202F013
:10D99000F1FD6A464B46A6B2D3800700D18830001D
:10D9A00002F0E8FDBFB280B287423DD02C69296900
:10D9B000300089B202F064FE5B462404240C89B274
:10D9C000641AA4081C600222294B1A70FFF7C8FED3
:10D9D0000EE080235B05196928000904090C02F098
:10D9E000C9FD0322234B1860214B1A70FFF7B8FEC4
:10D9F00003B03CBC90469946A246AB46F0BD032F0F
:10DA0000E7D02800316948440904090C02F038FEC7
:10DA1000164B890819603169A045A7D10222144B21
:10DA20001A70FFF79DFEE3E7434624041B041B0C1A
:10DA3000240C1C1B5B46A4081C60C4E74B46002B4F
:10DA4000C7D0032FC5D02800316948440904090C08
:10DA500002F016FE054B890819603369B3E7C0462A
:10DA6000A028002090290020702900207C29002077
:10DA70007A2900206C290020082170B50C00244A66
:10DA800082B013681C4009D08B431360214B224A9B
:10DA90001B789B009B58984702B070BD1F4D2B7898
:10DAA0009800C31898002A18117904292AD0100068
:10DAB0005369D2680C305600B218194E920036687D
:10DAC0000096184E96590022B04702212A789300FA
:10DAD0009B189B00EB181C71DC80D9601C615C6199
