:020000021000EC
:1080000000400020E50702002D0802002F080200B2
:108010000000000000000000000000000000000060
:108020000000000000000000000000003108020015
:1080300000000000000000003308020035080200C4
:10804000370802003708020037080200370802002C
:10805000370802000000000055D60100118E010013
:10806000A1EF0100370802003708020037080200BC
:1080700037080200370802003708020037080200FC
:1080800037080200ADF5010037080200370802008A
:108090008DF601003708020061FF01003708020079
:1080A000370802003708020000000000000000004E
:1080B00000000000000000000000000000000000C0
:1080C000164B002B00D1144B9D46402292029A1A67
:1080D000924600218B460F461348144A121A00F0AC
:1080E00067F80F4B002B00D098470E4B002B00D0A9
:1080F00098470020002104000D000D48002802D000
:108100000C4800E000BF00F02DF82000290000F02E
:1081100033FF00F011F8C0460000080000400020C6
:108120000000000000000000002100209C2E002024
:108130000000000000000000084B10B5041C002BDC
:1081400002D0002100E000BF054B1868836A002BB5
:1081500000D09847201C00F033F8C0460000000013
:10816000C41B02000E4B70B500251E1C0D4CE41AFA
:10817000A410A54204D0AB00F35898470135F8E7A6
:1081800009F012FD084B00251E1C084CE41AA4102F
:10819000A54204D0AB00F35898470135F8E770BD0D
:1081A00000210020002100200021002000210020CB
:1081B000031C8218934202D019700133FAE770470A
:1081C000FEE7C04670DF704771DF704774DF7047AD
:1081D00076DF704778DF70477ADF70477CDF704763
:1081E0007FDF704782DF7047A7DF7047A8DF7047E7
:1081F000A9DF704760DF70472EDF704732DF7047BE
:1082000033DF70473CDF704748DF7047F0B54446C6
:108210005F4656464D46031CF0B40D3B8FB080467A
:10822000072B00D9E6E004AB9C46232700230DADC5
:1082300067443B706B70031CFF22113B2A70032BB9
:1082400000D818E100230A930B93AA4B9A46AA4B35
:108250009B46AA4B099301230D2699460024E0B2C0
:10826000391C07F0EDF83B78002B67D00123A340C1
:108270002A78A34953405246DBB22B7001920096F4
:1082800002936B78002003930A9B099A04935B4640
:108290000593434601F0BCFBA0238021DB05022CA3
:1082A00000D1C0E0032C00D1B6E0012C00D179E070
:1082B000944A890399500021043A99504B46042B63
:1082C00062D10B9B002B0CD000228F4BF0201A7038
:1082D000FF236B70A0238B49DB0540045850043901
:1082E0005A503B78002B00D19FE0884B1A88884B6E
:1082F0009A4200D1B4E08748291C01F059FB0823B9
:10830000021C041C9A4312D00222834BC3189343CD
:108310000DD011280BD0814B984208D00020804905
:1083200001F076FB201C0021002207F041FD0FB078
:108330003CBC90469946A246AB46F0BD53460096DB
:1083400001932B78002002936B78764903930A9B64
:10835000099A04935B460593434601F059FB464551
:1083600027D0A0238021DB05022C41D0032C4BD049
:10837000012C0FD0A1228903D20099500021614A1B
:1083800099504B46042B9CD001239C460136E14476
:10839000013464E7C903A122D20099500021594A4F
:1083A0009950F1E7C903574A99500021043A99506E
:1083B000EAE7554B1B78B3427ED00B9A002AD0D106
:1083C00052460096019602922A78574903926A789B
:1083D000002004920A9A05925A460692099A01F0E0
:1083E00017FB494B80211E70A023DB05022CBDD159
:1083F0000904D0E7404B0090019300204B494C4AC0
:108400004C4B01F005FB92E7A1224904D2009950A0
:1084100000213C4A995054E73A4A490499500021B6
:10842000043A99504DE70904BDE7434B434A444C95
:10843000D258444B00201A604349221C01F0E8FA4C
:1084400042490022201C07F0D1FB4149021C0020B8
:1084500001F0DEFA2D4B1A882D4B9A4200D04AE7E4
:108460002B78002000936B783A490193099A534680
:1084700001F0CEFA5BE71F4B00209A461E4B3649AF
:108480009B4600935246434601F0C2FA1B4B002024
:1084900009931A1C534600932B78304901936B784B
:1084A0000293012303935B460493434601F0B0FA21
:1084B00001230A930B93CEE60B9B002B00D050E7D1
:1084C000221D013393401A1C2B7800205340524642
:1084D000DBB22B7002920096019603936B782049D1
:1084E00004930A9B099A05935B460693331C01F09B
:1084F0008FFA36E7581D0200601D0200901D020031
:10850000981D02000C050000F824002064200020C3
:10851000FFFF000034210020FECFFFFF01340000E8
:108520007C1E0200BC1D02000C1E0200D81E0200B0
:10853000F81E0200001F02000405000000100140A8
:108540004424002020210020401E02006626000056
:108550005C1E0200AC1E0200401D02006C1D0200E9
:10856000E01D020010B5041C84B00021002207F0B9
:108570001FFC064B01940093054B00200293054914
:10858000054A064B01F044FA04B010BD001F02007A
:10859000601D0200081F0200301F0200381F020089
:1085A00010B5072812D8354B80001B589F46032072
:1085B00001F086FD002803D00021002207F0F8FB1F
:1085C00000202F492F4A304B01F022FA10BD002025
:1085D0002E492C4A2C4B01F01BFAF7E72A4C0020BD
:1085E0002B49284A231C01F013FA002029492A4A62
:1085F000231C01F00DFA002001F062FD002838D1A3
:10860000FFF700FE0028E1D00021002207F0D0FB98
:10861000DCE7052001F054FD002803D000210022F2
:1086200007F0C6FB00201D49164A174B01F0F0F970
:10863000CCE7022001F044FD002803D000210022F5
:1086400007F0B6FB002016490E4A0F4B01F0E0F987
:10865000BCE7042001F034FD002803D000210022F3
:1086600007F0A6FB00200F49064A074B01F0D0F99E
:10867000ACE70021002207F09BFBC1E7C81B02000A
:108680007C1F02005C1F0200601D0200E01F020050
:10869000B41F0200CC1F0200001F0200401F020096
:1086A000641F02009C1F020010B526482649274A75
:1086B00043581268264C84B09B1AA3421ED84358D4
:1086C00024499A1A244B09780293244B0091019271
:1086D000039300202249234A234B01F099F9234CAC
:1086E000201C07F001FB00281FD1201C1A49002282
:1086F00007F07CFA002813D104B010BD154C0020FF
:1087000023781B490093154B164A0193164B01F031
:108710007FF900231548237007F0E6FA0028EBD014
:108720000021002207F044FBE6E70021002207F0C9
:108730003FFB201C0849002207F058FA0028DBD034
:10874000EEE7C04600100140040500002021002093
:1087500065260000F824002066260000601D020047
:10876000102002003C20020044200200442400208B
:108770004C20020010B5041C06F08CF8201C02F0FE
:1087800083F910BDF0B5041C8F4E85B08388009628
:1087900002888E4F8E4D8F49019200203A1C02951F
:1087A00001F036F9201C04F089FA201C03F042F88D
:1087B0008948211C03F0E0FA8848211C03F0AAF83C
:1087C0002288522A00D9D5E085499300CB589F468C
:1087D00000220021002383480088FFF703FD0028C2
:1087E00003D00021002207F0E3FA00207E49321C6A
:1087F0002B1C01F00DF9201C02F0DAF87B48211C3B
:108800007B4A00F0B9FF05B0F0BD764B0021188817
:1088100000220323FFF7ECFC002800D0C9E0002071
:108820007449321C2B1C01F0F3F8E4E70020724974
:108830003A1C01F0EDF8DEE70020704901F0E8F89D
:10884000D9E700206E4901F0E3F8D4E70020A288C0
:108850006C4901F0DDF8072001F032FC002800D05F
:10886000ACE0A2885F4B1A8006F0D2FD002800D051
:108870009AE0009500206449644A654B01F0C8F80D
:10888000B9E70020634901F0C3F80122554B524279
:108890001A80614B01950093002060495B4A01F00A
:1088A000B7F8A8E700205E4901F0B2F84D4B00216F
:1088B00018885C4A5C4BFFF793FC00286FD10020BE
:1088C0005A49321C2B1C01F0A3F894E7584F201C86
:1088D000391C0E3012310A2208F030F94342584157
:1088E000544BC0B21B79DA0738D5002800D16FE7A6
:1088F000391C9A0738D449E0A11D06224D4808F0DA
:108900002CF900204C49321C2B1C01F081F872E735
:1089100004220092023201921A32A25C237A02925D
:10892000002046493A1C01F073F8002344498B802B
:1089300002330B702B4B1888FFF758FC002800D12E
:1089400059E70021002207F033FA54E7E3880020BA
:1089500000933C493A1C01F05BF84CE79A0714D5A8
:10896000002800D134E70021374A5B0700D431E703
:10897000364B30E76388009201930295002034491A
:108980003A1C331C01F044F835E7002100225B0754
:1089900000D41FE7002800D11CE72C4B1BE7002167
:1089A000002207F005FA8AE70021002207F000FA0A
:1089B0005FE70021002207F0FBF930E700210022E9
:1089C00007F0F6F94DE7C04694200200581D02005A
:1089D000601D02006C200200FC2400200C240020FA
:1089E000E81B020064200020A8210200342100209E
:1089F0001821002068210200D02102000C22020070
:108A0000302202009C200200BC200200D82002007C
:108A1000E0200200E8200200001F02000021020006
:108A2000242102007021002068200020482102003B
:108A300078210020B42400208C210200542202005E
:108A4000C0240020E0210200002100202421002079
:108A50008822020030B5051C85B00C1C002A22D1EA
:108A60002378152B0CD0212B04D0142B02D00020FE
:108A700005B030BD291C04221E4808F06EF8F6E748
:108A800004231D4C281C01A90293039404F01EF832
:108A900000280ED12368DB0713D4281C04F01AF831
:108AA0000028E4D008E0101C0021002207F080F923
:108AB000D6E7124B9842DAD00021002207F078F96D
:108AC000D5E70F4B0F4A18880C21FFF78DFB0823C1
:108AD000021C9A43E1D002220B4BC3189343DCD013
:108AE0001128DAD0094B9842D7D00021002207F094
:108AF0005FF9D2E7D0240020D42400204080000079
:108B000064200020FFFF0000FECFFFFF01340000C3
:108B100008B5154B1888154B98421BD01321FFF749
:108B200057FB00281AD1002001F0CAFA00280CD106
:108B300002F078FE002803D00021002207F038F967
:108B4000FA20400004F00CFC08BD0021002207F0D0
:108B50002FF9EDE7FFF73AFB0028E4D000210022CF
:108B600007F026F9DFE7C04664200020FFFF000081
:108B700038B5051C0C1C0A780020044900F048FF99
:108B8000281C211C06F096FA38BDC046B42202000B
:108B9000F8B51E1C02293AD0032925D0012900D09E
:108BA000F8BD0020002A50D12A4900F031FF069B71
:108BB000002B0AD0341C284DF71822780020291CDD
:108BC000013407F001FEBC42F7D1244C211C0020E7
:108BD00007F0FAFD311C069A002007F029FA211C43
:108BE000002007F0F1FDDBE70020002A25D11C4919
:108BF00000F00EFF1B481C492022002306F084F8D9
:108C00000028CDD00021002207F0D2F8C8E70020CC
:108C1000002A16D1154900F0FBFE069B002B0AD056
:108C2000341C0D4DF71822780020291C013407F060
:108C3000CBFDBC42F7D10E4CC8E70E4900F0E8FE70
:108C4000AEE70D4900F0E4FEAAE70C4900F0E0FEB3
:108C5000A6E7C046E0220200FC220200F822020041
:108C60005C230200AC240020D82400202023020032
:108C70003C2302004023020004230200C42202001D
:108C800038B50C1C151C00200E49221C00F0C0FE3B
:108C900000230D48211C036043608360C3600361AF
:108CA00043618361C3612A1C07F057FF07482021F5
:108CB00006F014F9002803D00021002207F078F80C
:108CC00038BDC04678230200D8240020AC24002000
:108CD00010B5041C0E49221C002000F099FE082348
:108CE000221C9A4312D002220A4BE31893430DD060
:108CF000112C0BD0084B9C4208D00020074900F0F3
:108D000087FE201C0021002207F052F810BDC0464B
:108D10008C230200FECFFFFF01340000A4230200D9
:108D200010B5037884B0002B01D004B010BD0C4BFB
:108D3000041C3B211888FFF74BFA00280BD1094B84
:108D400001940093084B002002930849084A094BFC
:108D500000F05EFEE9E70021002207F029F8EEE7C7
:108D600064200020001F0200601D0200B4230200E6
:108D7000301F0200381F0200C1210122182008B54F
:108D8000184B89005A50184958508021002049003A
:108D90005850A021C9005A500730FFF72FFA002879
:108DA0001BD107200321FFF72BFA002810D1072041
:108DB000FFF722FA002803D00021002206F0F8FF76
:108DC00080220021074B52009950FF3A1A6008BDDB
:108DD0000021002206F0ECFFE9E70021002206F066
:108DE000E7FFDEE7007000400405000008B503203F
:108DF0000549064A01F02EFB002803D0002100227D
:108E000006F0D6FF08BDC046CD0C00000D82010063
:108E1000802208B5304B52009958002900D108BD76
:108E200000219950A1220131D2009A58FF205960A7
:108E300096231040DB005843FE3107F08DFD4300C0
:108E4000C018264B80B26421984211D9244802F000
:108E500033FE0823021C9A43E1D0224B9842DED015
:108E6000214B9842DBD00021002206F0A1FFD6E77B
:108E70001E4B984213D81E4A90421AD81D4B984256
:108E800022D81D4A00219042E0D9181A4300181830
:108E90001A49400007F060FD0630C1B2D6E7184B12
:108EA000C839181A3A23584307F056FD6430C1B246
:108EB000CCE7A021181A430018184942C00007F057
:108EC0004BFD2A30C1B2C1E71921101A494207F0FF
:108ED00043FD1230C1B2B9E700700040B70B00008B
:108EE0000C2400200430000001340000540B00006A
:108EF000B40A00008809000034080000ACFEFFFF3F
:108F0000B80B0000C1210122182008B5184B8900B8
:108F10005A50184958508021002049005850A0212B
:108F2000C9005A500730FFF769F900281BD1072004
:108F30000321FFF765F9002810D10720FFF75CF93E
:108F4000002803D00021002206F032FF80220021F9
:108F5000074B52009950FF3A1A6008BD00210022C9
:108F600006F026FFE9E70021002206F021FFDEE7F8
:108F70000070004004050000F0B544465F465646C8
:108F80004D46F0B4A7B007F0BBF8E64B00200093C5
:108F9000E549E64A9846E64B00F03AFD8023A322D5
:108FA0000121DB05D2009950822200205200985006
:108FB000996099580029FCD08223802200215B000F
:108FC000D205D150DB4B00201A1CDB4999464346A1
:108FD00000F01EFD00200521D84A002306F07AFD8E
:108FE000002803D00021002206F0E2FED44801212F
:108FF000D44A06F0E1FD002803D00021002206F04B
:10900000D7FED1480021D14A06F0D6FD002803D072
:109010000021002206F0CCFE0020CD494A464346FE
:1090200000F0F6FCFFF7E2FE0020CA494A4643463C
:1090300000F0EEFC0820C8494822002306F056FF45
:10904000002803D00021002206F0B2FE002316AC57
:109050001693201C636001332370FFF7CBF80028C0
:1090600003D00021002206F0A3FE0DAD281CFFF75F
:10907000ABF8061E00D044E20020291CFFF7A2F83E
:10908000B64806F059FF002803D00021002206F060
:109090008FFEB34806F05AFF002803D000210022BB
:1090A00006F086FE0020AF494A46434600F0B0FC79
:1090B00008200A21AC4A06F0D9F9002803D0002183
:1090C000002206F075FE0020A8494A46434600F0FB
:1090D0009FFCA74803F020FD002803D000210022B8
:1090E00006F066FE05F0C2FC002803D00021002235
:1090F00006F05EFE281C03F021FC002803D00021AE
:10910000002206F055FE5D2300226B44DA701A71CE
:109110000D236371063BA3710933E371954B211C49
:10912000169301232371944B181C9A4603F08CFC70
:10913000002803D00021002206F03AFE00208F49CB
:109140004A46434600F064FC0F2101222B78281C7C
:109150008B43134310220B401343894911222B7078
:10916000FFF73CF8002803D00021002206F020FE83
:10917000C0204000FFF72EF8002803D00021002275
:1091800006F016FE50232380503363809C3BA3805F
:109190008D33FF33201CE380FFF71EF8002803D037
:1091A0000021002206F004FE4346002075494A468D
:1091B00008AF00F02DFC74490C22381C07F0CDFCE0
:1091C0000026022316962370013B9B46A3700623BC
:1091D0002661E3700020033B6C496D4A6660A6601F
:1091E000E660A661E66126626662A662E6622663C2
:1091F00066632382676100F00BFC5B46EE602B73B5
:1092000028232B610A3B6B615B46AE612B76C8233A
:109210001B01EB615F4B6E602B62AE60201C009601
:1092200000212A1C5C4B0D9601F07AF9002803D02E
:109230000021002206F0BCFD0020584943464A4662
:1092400000F0E6FB564B03A80D93202383801F3BC1
:10925000C380544B0393544B191C9B4605F0B0FC40
:10926000002803D00021002206F0A2FD4F4E5946EF
:10927000301C2022002305F0D7FD002803D0002158
:10928000002206F095FD00230EA9149315930A1CE5
:10929000331C43CB43C243CB43C203CB03C20020A6
:1092A000434900F0B5FB4348291C00F0B3FA0028FD
:1092B00003D00021002206F07BFD00230893FB6011
:1092C0007B603B61BB6011337B73BB733B74103BB2
:1092D0003B7139486333391C3B7302F04DFB002866
:1092E00003D00021002206F063FD40220021201C53
:1092F000FEF75EFF201C314902F0F8FA3C210F20F6
:109300000122635C834313431022034013436354DD
:1093100000223D23201CE25402F0EAFD002853D035
:109320004EE0C046601D0200DC230200E020020087
:1093300004240200942002000C2402004422002095
:109340002C260200798D010028260200A986010042
:10935000242402003C2402006424002085870100AC
:10936000758701005424020094210020702402001B
:10937000D0240020558A0100BC2400208C24020047
:10938000AC240200C0240200341D0200DC240200D0
:10939000FC24020080510100A18501000425020087
:1093A000818C0100918B0100AC240020D824002086
:1093B00024250200342100200C240020382502003E
:1093C0000021002206F0F4FC00230593544B05A96C
:1093D0004B60544B54488B6005230B8002F0B6FB66
:1093E000002803D00021002206F0E2FC4F4805F0DF
:1093F00019FF5346187805F01BFF002043464C49DF
:109400004A4600F005FB00231693E3602361A02386
:109410009B026360F0231B03A36003232373454B6C
:10942000201C6361444BA36102F0C0F9002803D003
:109430000021002206F0BCFC002040494A46434679
:1094400000F0E6FA01223E4B002019781143E12298
:1094500011400C221143CD220A401A7007225A7083
:1094600009329A7037494A46434600F0D1FAFFF76D
:1094700049FD002034494A46434600F0C9FA4022DB
:10948000324B80211A60C123314A09069B00D1501A
:10949000002030494A46434600F0BAFAE1212E48FE
:1094A000C904002206F0A2FB002803D000210022FC
:1094B00006F07EFC29494A464346002000F0A8FAFF
:1094C000032001F0D7F82649041C4A4600204346F1
:1094D00000F09EFA002C04D0201C0021002206F08F
:1094E00067FC022000F0ECFD002805D105F0E4FF48
:1094F000FEF78AFE0028F9D00021002206F058FC71
:10950000F4E70022002106F053FC291C0020FEF79E
:1095100059FE301C0021002206F04AFCB0E5C0468E
:10952000718B0100D18C0100FC240020118B010003
:1095300044250200218D010065850100602502009F
:109540007021002084250200A825020000E100E02F
:1095500000600040D025020024240020E425020001
:1095600004260200A0DF7047A2DF7047A6DF704725
:1095700063DF704767DF7047F0B556465F464D467C
:109580004446F0B4CB889DB0009313688E1D1B88B1
:10959000041C01934B880D1C0293B37F171C03938B
:1095A0000B1C28331B786D4A0493F38A6C4905938E
:1095B0004389069343880793C38800200893694B27
:1095C00000F026FAEB8862899A4200D18DE0628829
:1095D0009A4200D18EE0B378062B06D01DB03CBC79
:1095E00090469946A246AB46F0BD00205E4900F089
:1095F0000FFA3F6863883A889342EFD1002B00D17D
:10960000A8E09B460EAB9C4600230022984663468A
:109610003D1C0B920D940C93AB886C88D218D2B27F
:10962000AE1D0B92002B00D192E00C984746844669
:10963000211D614482468E427F41A244291CBC46C2
:109640004046474652460A318A4247416046391CE5
:109650000143092084469C458041404208425DD038
:10966000514603203143084258D150460B9A1D1FE2
:109670009246021C0027AD080135A900AC46994668
:10968000351C131C381C0C9F04CD013004C36045ED
:10969000FAD352464B460B920C9775188B421CD04E
:1096A000287881461CA88446A44460464F4640184A
:1096B00038380770481C98420FDA6F780231B94683
:1096C0001CAFBA46504404194846383C20708B42BF
:1096D00003DDA878614438390870F5185B46002B23
:1096E0002DD02B880B9A9B4696E700201F4900F04F
:1096F0008FF973E7203500201D4900F089F9328B7E
:10970000291C002006F094FC1A49002007F05CF8A0
:10971000327EA369201C291C98475FE70B9A002121
:1097200094462A1C251C0C9F50188479781944549F
:1097300001318B42F8DC62460C970B92CDE70C9B13
:109740000B9A9C460D9CA369201C6146984745E7EF
:10975000351CC3E70EAB00229C46F4E73C20020018
:10976000882702004420020000280200D4270200BB
:10977000EC270200502C020070B5151C0A8882B03C
:10978000061C0C1C512A03D81A499300CB589F463B
:10979000009200201849194A194B00F039F902B01B
:1097A00070BD211C2A1CFFF7E7FEF8E701235B428E
:1097B0008382F4E70020134900F02AF9124B291C98
:1097C0002B603623AB80A088FFF7D4FE0028E6D0BC
:1097D0000021002206F0ECFAE1E700200B4900F03E
:1097E00017F9DCE7A2880020094900F011F9A388E5
:1097F000B382D4E73026020074280200A4280200B5
:1098000094200200242802002C2500204C2802006D
:1098100014280200F0B54D4644465F4656460123E3
:10982000F0B45B42838208C9051C83612023041CB9
:109830001C3597B02022281C994607F08EF957490D
:1098400006A8102207F089F9211C06A81231FFF79B
:109850008FFE002806D017B03CBC90469946A24621
:10986000AB46F0BDA37C04A98B704D4B0130221C8C
:109870000B80FFF777FE0028EDD10F26B046C1B26E
:10988000B1430E3E3143464631401026B24656465D
:1098900002AA31431170414683B21B0A8B430E3931
:1098A0000B4341460B403343537002230221937014
:1098B0009B46C3B20B43334369463C2614926A4627
:1098C00089190F90109011901290139015900B70B1
:1098D000A37C03AF9375334B388093824246C3B267
:1098E00093430E3A134342461340524613433B7090
:1098F0005B46BB7005AB0A935B460AAE0C900D90BD
:109900000E903381B381231C2088321C0A330B97BD
:10991000FFF72AFE00289ED10222C3B21343082279
:109920003C2113436A4652180F90109011901290E8
:1099300013901490159013706A464146A37CB06052
:109940009375194BF0609382C2B28A430E390A4371
:1099500041460A4051460A433A70424683B21B0AC6
:1099600093430E3A1343424613400B437B705B46CE
:10997000BB7005AB0A934B463381B3814B4677608E
:1099800035612A1C009309492B1C00F041F82088FE
:10999000A31C0FA9321CFFF7E7FD5CE77827020044
:1099A000231500002515000026150000AC28020034
:1099B0001E2230B50223051C00208DB06A4413809E
:1099C000089008AC09900130A0700A9268890A7862
:1099D000208000920B91497804930191084BA98A49
:1099E000039202910593074A074B0020074900F0B4
:1099F0000FF8A88A211CFFF7B9FD0DB030BDC04695
:109A0000601D0200A4280200E0200200DC28020001
:109A10000EB430B5051CC6B049AC08CC094A019358
:109A200000920292084B06A8084907F00BF9281C7F
:109A300006A905AA059406F069FC46B030BC08BC2E
:109A400003B01847601D0200FC2402000429020034
:109A5000A02210B5064BD205D15880231B041C1C34
:109A6000A1208C430B400349C0001450535010BD3B
:109A7000040500000C050000F0B544465F4656465C
:109A80004D46F0B4041C87B011280FD0122800D125
:109A90009BE0132800D19CE0142800D19DE007B082
:109AA0003CBC90469946A246AB46F0BD002300263A
:109AB0009946012975D0002961D00229EFD1534C74
:109AC000534B544FE258544B002098461B68990062
:109AD000CB18009351493B6806F076FE4C4BE25898
:109AE0003B68D21A43461B689900CB189A4234D27D
:109AF00002AB9C464A4B0F259B4600239A46444B9B
:109B00006544029403935346291C48462B7005F084
:109B100097FC2B7800205946321C06F055FE2B7816
:109B2000002BBCD00024B44206D0E0B2291C05F0C2
:109B300087FC2B78002BB2D10134042CF3D13220D6
:109B400003F00EFC029B039A9A583B68D21A4346D4
:109B50001B689900CB189A42D5D30020314906F0F2
:109B600033FE73009E19304B9E197578002D96D0E8
:109B70002E4B1B68002B92D0281C98478FE72C494E
:109B8000002006F021FE2B4806F0AEF8264A7300AE
:109B90009B19D318284A9B78955D9D4200D07EE79B
:109BA000E4E70020254906F00FFE1F4B770098469A
:109BB0004246BB19D55C43445B78002B11D1BF19D9
:109BC0004744BA781C4B9A55D0E7012301269946A1
:109BD0006FE70223022699466BE703230326994683
:109BE00067E70B4B094A1348D2580A4B1A600A4BD5
:109BF0001B689900C918124B1A1C994605F0F6FF0C
:109C00000028DCD14B461C70D9E7C046001001404B
:109C1000040500009025002094250020802A0200E1
:109C2000AC2A0200C82A0200E42500209825002062
:109C3000402A02009C25002088250020002A0200DE
:109C4000E0250020F8B5C74B1B68DB0700D4F8BD42
:109C5000C54A1478172CFAD8C449A300CB589F469C
:109C6000A022C34BD205D1588023DB031C1CA120AA
:109C70008C430B40BF49C00014505350BE4B0022D0
:109C80001B68BE489900C91805F0B0FFDFE7A023A4
:109C9000F021B84ADB05490499500021043A995053
:109CA000D5E7A022B24BD205D1588023DB031C1C80
:109CB000A1208C430B40AF49C00014505350AE4B11
:109CC00000221968AD4805F091FFC0E7AC4BA12018
:109CD0001968E0235B048B43A0210026F025C90509
:109CE000C000A44C0B50A24B0E51CB586D046B40DE
:109CF0008025AD032B4000D120E10D5003230E51F0
:109D0000082113709C4B00221B689C48594305F0A6
:109D10006DFF9CE79A4BA1201968E0235B048B43FD
:109D2000A0210026F025C905C000924C0B50904B95
:109D30000E51CB586D046B408025AD032B4000D1F4
:109D400004E10D5004230E512821DAE7A023A122BB
:109D5000E021DB05D2004904802499500021854888
:109D6000A40319501C50995071E7864D281C05F02A
:109D7000BBFF11231C1B00D1C7E0002800D0C4E0AA
:109D800080237F4E1B043360012C10D0C830642127
:109D9000604306F051FD784B00221B684343281CAA
:109DA000191C05F023FFF02332685B041340A02246
:109DB0007049D2055350A1230021DB00D15046E762
:109DC0006F4BA1211A68F0235B049343A022C900C2
:109DD000D20553500021674BD15038E7684BA12082
:109DE0001968E0235B048B43A0210027F026C905F6
:109DF000C000604D0B505E4B4F51CB587604734002
:109E00008026B603334000D18EE00E504F51022C15
:109E100000D1A0E02821147074E7A023A122C02162
:109E2000DB05D2004904C024995000215148E403C5
:109E300019501C5099500AE7A023A122D021DB051C
:109E4000D20049048024995000214A48E403195063
:109E50001C509950FBE6A023F021A122DB05490408
:109E6000D20099500021434A9950F0E6E022444B39
:109E700052041B68A1219A43A023C900DB0580245A
:109E80005A5000223B48A4031A501C505A50DEE698
:109E90003B4BA1201968E0235B048B43A0210026E3
:109EA000F025C905C000334C0B50314B0E51CB5837
:109EB0006D046B408025AD032B403CD00D500E51FE
:109EC000052313702C4B002219682C48490005F01B
:109ED0008DFEBCE62A4BA1201968E0235B048B436E
:109EE000A0210026F025C905C000224C0B50204BB4
:109EF0000E51CB586D046B408025AD032B4022D012
:109F00000D500E5106231370D9E6F0231C4A5B0452
:109F10001168A1200B40A021C000C9050B500023EF
:109F200014480B50136092E64E510B50022C15D082
:109F300004211470E6E60D510B50C1E70D510B5092
:109F400002210323DDE60D510B50DBE70D510B50D1
:109F500004210423D5E612211470D3E602211470E3
:109F6000D0E6C0468C250020BC2500201829020020
:109F7000040500000C050000942500206425002045
:109F800084250020C0250020F0B55F4656464D468A
:109F90004446F0B4037887B0112B0FD0122B00D1B8
:109FA00070E0132B00D171E0142B00D172E007B0E8
:109FB0003CBC90469946A246AB46F0BD0023002625
:109FC0009946364C364B0020E258364B9A46364B73
:109FD0009B461B689900CB180093534633491B6876
:109FE00006F0F2FB2E4BE25853461B68D21A5B4632
:109FF0001B689900CB189A4233D202AB9C460F25BE
:10A0000000272B4B65449846254B02940393291C4B
:10A0100048462F7005F014FA2B7800204146321C78
:10A0200006F0D2FB2B78002BC1D00024A64206D02C
:10A03000E0B2291C05F004FA2B78002BB7D10134CB
:10A04000042CF3D1322003F08BF9029B039A9A5827
:10A0500053461B68D21A5B461B689900CB189A427C
:10A06000D5D30020134906F0AFFB73009E19124BA5
:10A070009E19707800289AD0104B1B68002B96D040
:10A08000984794E70123012699469AE7022302267E
:10A09000994696E703230326994692E7001001406C
:10A0A000040500009025002094250020802A02004D
:10A0B000AC2A0200C82A0200E425002098250020CE
:10A0C00070B5DB4B041C1B680020DB0700D470BD9F
:10A0D000172CFCD8D74AA300D3589F46A022D64BB2
:10A0E000D205D1588023DB031C1CA1208C430B40DC
:10A0F000D249C00014505350D14B00221B68D148A4
:10A100009900C91805F072FDE1E7A022CA4BD205FB
:10A11000D1588023DB031C1CA1208C430B40C74972
:10A12000C00014505350C64B00221968C54805F0B2
:10A130005DFDCCE7C44D281C05F0D6FD11231C1B8A
:10A1400000D14CE1002800D049E18023BF4E1B0420
:10A150003360012C10D0C8306421604306F06CFBE2
:10A16000B74B00221B684343281C191C05F03EFD19
:10A17000F02332685B041340A022B049D20553504B
:10A18000A1230021DB00D150A1E7A023F021A122CF
:10A19000DB054904D20099500021A84A00209950BB
:10A1A0001222AB4B1A7092E7A023A122E021DB051B
:10A1B000D2004904802499500021A048A4031950DA
:10A1C0001C5099501322A24B00201A707FE7A02345
:10A1D000F0219A4ADB05490499500021043A99502C
:10A1E0009B4B00201C7072E7984BA1211A68F0234A
:10A1F0005B049343A022C900D205535000238F492A
:10A2000000205350924A137061E7904BA1211A68C5
:10A21000E0235B049343A0220026F025D205C90069
:10A2200086485350844B1650D3586D046B4080259C
:10A23000AD032B4000D1E9E055501650022C00D15F
:10A24000F1E02821824B1C707D4B00221B687D4869
:10A25000594305F0CBFC3AE7A023F021774ADB0510
:10A26000490499500021043A99500C22784B00205F
:10A270001A702CE7A023A122D021DB05D2004904CB
:10A280008024995000216D48E40319501C509950C6
:10A2900014226F4B00201A7019E76C4BA1211A6829
:10A2A000E0235B049343A0220025F024D205C900DB
:10A2B00062485350604B1550D35864046340802467
:10A2C000A403234000D199E05450155008210322E3
:10A2D0001AE05E4BA1211A68E0235B049343A0229D
:10A2E0000025F024D205C90054485350524B155054
:10A2F000D358640463408024A403234000D18BE03E
:10A300005450282115500422514B1A709CE7E0222A
:10A310004E4B52041B68A1219A43A023C900DB05C0
:10A3200080245A5000224548A4031A501C505A5009
:10A33000474B07321A700020C9E6A023A122C02192
:10A34000DB05D2004904C024995000213B48E403B6
:10A3500019501C50995015223D4B00201A70B6E63A
:10A360003A4BA1211A68E0235B049343A022002505
:10A37000F024D205C900314853502F4B1550D35803
:10A38000640463408024A40323403CD054501550FF
:10A3900005222F4B2B481A70294B002219684900BF
:10A3A00005F024FC93E6294BA1211A68E0235B0405
:10A3B0009343A0220025F024D205C9001F48535022
:10A3C0001D4B1550D358640463408024A4032340DC
:10A3D00026D05450155006221D4B1A70A3E6F023C8
:10A3E0001A4A5B041168A1240B40A021E400C905AE
:10A3F0000B510023114C0B51136068E6145053505D
:10A400000221032280E714505350C1E715505350E6
:10A41000022C0AD0042115E714505350042172E78E
:10A4200014505350D7E712210CE702210AE7C04627
:10A430008C25002078290200040500000C0500008E
:10A440009425002064250020C025002084250020BC
:10A45000BC250020224B10B51960224B041C18604B
:10A46000214B1A60830710D5204B214A21481A60DE
:10A47000214A5A60214A9A604A08042104F06EFF7A
:10A48000002820D0E30703D41CE0C3070ED500202A
:10A49000A023F022A1210024DB055204C9005A5058
:10A4A00017495C500C315A5000280BD11548002137
:10A4B000154A05F081FB002804D114480121144AF3
:10A4C00005F07AFB10BD04F0A3FF0028DAD1114893
:10A4D0000021114A05F070FBE307E5D5D8E7C04637
:10A4E000942500208C25002098250020E4250020BC
:10A4F0000D110D0EE0290200120E0F130F10141093
:10A500000C050000DC290200459C01000C2B020018
:10A51000519A0100D8290200899F010073DF70471A
:10A52000F8B5071C0E20002F00D183E0002A00D1CF
:10A5300080E0002440480470404803600698404B87
:10A5400018604048031C61CA61C361CA61C361CA23
:10A5500061C300223C4B1C609C809A713B4B3C4A7F
:10A560001A603C4A3C489A60046044608460C4605D
:10A57000046144618461C461046244628462C462AF
:10A58000046344633B783A1C0370BB7810328370D9
:10A59000FB78C3707B784370031C103330CA30C320
:10A5A000031C103A083330CA30C3031C0832183376
:10A5B00030CA30C37B6A002B11D0284B284E43622F
:10A5C0007C6A9E6022881A80A5889D80002D06D016
:10A5D0000023A268D25CF2540133AB42F9D1BB6ACA
:10A5E000002B14D01F4B204E8362BD6A9E60AC8846
:10A5F0009C802A881A800023002C05D0AA68D25C8F
:10A60000F2540133A342F9D12C23FA5CC2543B6AC1
:10A61000002B06D0154B03623A6A54885C8012887E
:10A620001A807B68002B03D0114B43607B6843602A
:10A6300000F0B4FDF8BDC0460427002034260020F9
:10A640005C2600206826002060260020B02600201E
:10A650008C260020E4260020F0250020282600205B
:10A66000382600200C270020C026002008270020C4
:10A67000AC260020F0B546464F460024C0B4BC4E80
:10A6800089B0307001A8019404F076FC08280CD041
:10A69000002805D1019B002B08D00122B54B1A7070
:10A6A00009B00CBC90469946F0BD0194B24BB34F33
:10A6B000994600234A461360938093717B78002B60
:10A6C00048D03578012D00D180E0BB78002B00D137
:10A6D00012E1022D7AD03B7B002B01D1032D6AD0F1
:10A6E0003B7E002B00D185E0A54B1B68002B03D0DF
:10A6F000EA1E012A00D8A0E00022A24B1A70002313
:10A7000002AC029398466360A360E36023616361D7
:10A71000022D00D1E1E071D9032D00D1C6E0042D56
:10A720007AD1BB8B23823B8C6382974B1A79002AA8
:10A7300000D1EBE03A78002A04D0944A1278002A3B
:10A7400000D101E10422924B92481A7006F070FA8F
:10A75000357861E0BB783578002B42D0022D35D0BA
:10A76000012DB8D102233370BB78002B1DD04B468E
:10A770005B78002B00D0CEE04B469B78002B00D0BE
:10A78000C9E04B46DB78002B00D0C4E04B461B7978
:10A79000002B00D0BFE04B465B79002B00D0BAE025
:10A7A0004B469B79002B00D0B5E0032333703B7BF5
:10A7B000002B00D0A4E0042333703B7E002B36D165
:10A7C0000023734A33701370002595E76C4B1B68A8
:10A7D000002B00D1A1E001216F4A08201170984799
:10A7E0003578012D3FD0022DBED03B7B002B00D011
:10A7F00076E773E7042D00D076E7E1E7012D0BD172
:10A80000664806F015FA4B4663604346638223822E
:10A810005F4B25701D703578002D1ED1584B1B687D
:10A82000002B02D05A4A10789847002038E7544B42
:10A8300004251B68002B00D15EE73A78002A00D17E
:10A840005AE7524A1278002A00D055E701214D4AB2
:10A85000072011709847357851E7201CFFF75EFEFE
:10A860000028DBD01CE77B78002B00D17AE74B4631
:10A870005B78002B00D037E74B469B78002B00D04D
:10A8800032E74B46DB78002B00D02DE74B461B7997
:10A89000002B00D028E74B465B79002B00D023E744
:10A8A0004B469B79002B00D15CE71DE7BB8A638296
:10A8B0003B8A2382344B1A79002A23D03A78002A23
:10A8C00003D0324A1278002A2AD00322304B34486F
:10A8D0001A7006F0ADF935789EE7304806F0A8F911
:10A8E0004B466360012323703B8963827B6823822C
:10A8F000274B1D7035788FE7022D00D0EBE654E72B
:10A900000325F1E61A7B002AD8D1DEE71A7B002A5C
:10A9100000D00FE716E70225E6E61F4A137060E74E
:10A92000E36004231F48023200212272C37000F04A
:10A9300035FC002800D0B3E60522154B1A481A70E2
:10A9400006F076F9357867E7E360042315480232AC
:10A9500000212272C37000F021FC002800D09FE685
:10A9600006220B4B11481A7006F062F9357853E74E
:10A9700004270020052700206026002068260020EC
:10A9800034260020E1260020B02600205826002092
:10A9900018270020C82B0200E0260020102B020000
:10A9A0006C2B0200F0250020382B0200942B0200B3
:10A9B00010B50388112B20D0192B06D0102B00D0F6
:10A9C00010BD8288264B1A80FAE78279002AF7D1D7
:10A9D000244B1B78022B39D02DD9032B20D0042BEC
:10A9E000EED1214C2148227006F022F9204B1B6841
:10A9F000002BE5D020789847E2E700221D4B1A7023
:10AA0000174B82881B889A42DAD10120FFF732FE69
:10AA10000028D5D0184B1B68002BD1D09847CFE722
:10AA2000114A1648137006F003F90420FFF722FEBE
:10AA30000028EFD1C4E7012BC2D1114806F0F8F885
:10AA40000220FFF717FE0028E4D1B9E70D4806F011
:10AA5000EFF80320FFF70EFE0028DBD1B0E7C04679
:10AA6000802000200427002018270020982C0200B6
:10AA700034260020582600205C260020542C02009A
:10AA8000F02B0200202C0200023808B5012803D860
:10AA9000094B1A78002A00D108BD00221A70074B12
:10AAA0001878FFF7E7FD0028F6D0054B1B68002B50
:10AAB000F2D09847F0E7C046052700200427002081
:10AAC0005C26002071DF704772DF704779DF7047C6
:10AAD0007DDF704765DF7047F0B50488051C83B0E3
:10AAE0000720012C04D01488A01C984202D90C2005
:10AAF00003B0F0BD2E78012E04D16E7802363619DF
:10AB0000B342F4D3023B1C1B6B460F1CA4B20818C3
:10AB1000991D161CDC80FFF7DBFF0028E8D12B789D
:10AB2000022B18D0012B11D0231C0821FE2BDED8BC
:10AB30003288581CB85432880020013292B23280D8
:10AB4000B954328801329B183380D1E76B789C422C
:10AB5000EBD2231CE9E76B46DB8809219C42E5D256
:10AB6000231CE2E7F0B55F46564644464D46F0B436
:10AB700085B09A460EAB80CB061C1B8800919B4685
:10AB80003B88904601930388002B5BD000239946B5
:10AB900002AB0024DD1C03E033880134A3422ADD2C
:10ABA0007368A1009C460422614403A805F0D5FF08
:10ABB00003A8291C0022FFF78DFF002826D12B783F
:10ABC0004345E9D14B46002B27D043463A88D3185A
:10ABD0005B4539DC524403A8291CFFF77BFF0028A2
:10ABE00014D13B882A780134D3183B80012399463D
:10ABF0003388A342D4DC4B46002B23D03B88019AF8
:10AC0000013B9B1A9BB20C20FF2B18D905B03CBC12
:10AC100090469946A246AB46F0BD42463B889A18FC
:10AC200002325A4510DC69465246013309789BB21C
:10AC30003B80D1543A88013292B23A80CAE7111C63
:10AC4000524653540020E1E70C20DFE7F0B55F46A1
:10AC500056464D464446031C0020F0B41788108029
:10AC6000586B87B0002800D16FE10478022F18D903
:10AC70000220112508701088013080B210800D5418
:10AC80001088013080B210800C5414880134A4B2B2
:10AC90001480186B002800D177E0251C1235BD42C6
:10ACA00007D90C2007B03CBC90469946A246AB465B
:10ACB000F0BD11250D551488013D0134A4B2148056
:10ACC0000D5514880134A4B21480C57B0D55148829
:10ACD0000134A4B21480857B0D5514880134A4B2CC
:10ACE0001480457B0D5514880134A4B21480057B73
:10ACF0000D5514880134A4B21480C57A0D551488FA
:10AD00000134A4B21480857A0D5514880134A4B29C
:10AD10001480457A0D5514880134A4B21480057A44
:10AD20000D5514880134A4B21480C5790D551488CA
:10AD30000134A4B2148085790D5514880134A4B26D
:10AD4000148045790D5514880134A4B21480057916
:10AD50000D5514880134A4B21480C5780D5514889B
:10AD60000134A4B2148085780D5514880134A4B23E
:10AD7000148045780D5514880134A4B214800078ED
:10AD8000085514880134A4B214802E201D5C002DB7
:10AD900000D0DCE01E1C2D23F35C151C8846002B24
:10ADA00000D0F7E0B378002B00D024E1F378002B3B
:10ADB00016D0E21CBA4200D973E70222414640464F
:10ADC0000A5501212A88013292B22A8081542A88A8
:10ADD000013292B22A8083542C880134A4B22C8090
:10ADE0007368002B16D01A78E31CBB4200D958E7D1
:10ADF0000223414640460B550A212B8801339BB262
:10AE00002B80C1542B8801339BB22B80C2542B88DA
:10AE100001332B803389002B00D010E1338A002BC3
:10AE200000D076E1338B002B00D08BE1336A002B0E
:10AE30004AD02A880C20911DB94200D932E71988DE
:10AE400005388B46052900D82CE7CC4C5C44A4B2CD
:10AE5000A146CB4CA446A14500D823E75C88A24676
:10AE6000052C00D81EE7C54C6946A146D1444C4686
:10AE7000CC81CC89644500D814E7C24CA34504D0EA
:10AE8000A24502D0D34500D90CE7052140468154A4
:10AE90002A880D31013292B22A8081542A880132E7
:10AEA00092B22A80198842441170090A51702A8886
:10AEB000023292B22A805988131C43441970090A3D
:10AEC00059702B8802332B80746A002C32D0A288F0
:10AED0002988131D5B180C20BB4200D9E2E6931CA5
:10AEE000FE2B00D9DEE6434603325A54FF22414688
:10AEF0002B8801339BB22B80CA542B8801339BB221
:10AF00002B80228843441A70120A5A702B8802330D
:10AF10009BB22B80A288002A0CD0A168053800299A
:10AF200000D1BFE64344181C05F017FE2A88A38809
:10AF3000D3182B802C23F35C002B00D098E03378BF
:10AF4000002B00D0DEE00020ACE60024A1E6E61CE9
:10AF50002238BE4200D9A5E602260E551C241088D0
:10AF6000013080B210800C541088013080B2108003
:10AF7000022D00D10FE100D806E1032D00D108E138
:10AF8000042D00D0F7E003240C5414880134A4B23B
:10AF90001480FFE609340C20BC4200D982E604A8E4
:10AFA000FFF790FD002800D07CE6414608222B8860
:10AFB000CA542B88133201339BB22B80CA5402AB84
:10AFC0009C4609212888153A013080B228806144C6
:10AFD000404405F0C2FD2B8802AA0633127A9BB2C8
:10AFE0002B80002A00D001224146CA542C8801340B
:10AFF000A4B22C80D6E604340C20BC4200D951E621
:10B0000004A8FFF763FD002800D04BE60322414669
:10B010002B88CA542B88163201339BB22B80CA541A
:10B020002B8802AA01339BB212892B8043441A70E9
:10B03000120A5A702C880234A4B22C80B6E6341C52
:10B04000083400950197201C022102224346FFF795
:10B0500089FD002800D025E600950197201C0621D7
:10B0600010224346FFF77EFD002800D01AE6D5E601
:10B07000B46A002C00D17EE0A3880233FE2B00D9F5
:10B080000FE60022914616329246163228889346E1
:10B090000BE04B465C00B36A4C449C46A4006444FD
:10B0A000A3880233FE2B00D9FBE54246514601330B
:10B0B00013542B8801339BB22B80D1542B8801333E
:10B0C0009BB22B80228843441A70120A5A70288837
:10B0D000023080B22880A288002A0AD0A168002904
:10B0E00049D0404405F039FD2888A388C01880B2B3
:10B0F00028804B460133DBB299465B46F35C4B45F7
:10B10000C7D81CE7301C41462A1C3B1CFFF7E4FC57
:10B11000C8E5341C103400950197201C032102223D
:10B120004346FFF71FFD002800D0BBE500950197BF
:10B13000201C072110224346FFF714FD002800D0F1
:10B14000B0E56FE6341C183400950197201C1421DB
:10B1500002224346FFF706FD002800D0A2E5009535
:10B160000197201C152110224346FFF7FBFC002805
:10B1700000D097E55AE6072094E5C0467FF3FFFF2D
:10B180007DF30000FFFF0000012DF4D100240C54DA
:10B19000FBE60E54F9E601240C54F6E6F0B54E46F3
:10B1A000574645461F23E0B496B002AA041C0E1C65
:10B1B000D381002800D171E0C3785B0767D50023F5
:10B1C00002AA9381436B002B00D13FE11B7802223E
:10B1D00006ADAB7003230521042703202A700F322C
:10B1E0006A7002AA9381226B002A3AD0112306AD1D
:10B1F0002B54013BEB55D37B6B54907B4B1CE85499
:10B20000507B8B1CE854107BCB1CE854D07A0B1D70
:10B21000E854907A4B1DE854507A8B1DE854107A0C
:10B22000CB1DE854D0790133E85490790133E854C8
:10B2300050790133E85410790133E854D078013360
:10B24000E85490780133E854013302A883815078A0
:10B25000E854013302A883811278EA5401338381D0
:10B260009BB22E22A25C002A00D0ECE12D22A25C2F
:10B27000002A00D012E1A278002A00D03CE1E27856
:10B28000002A35D0D91C1F2925D90C2000E0072021
:10B2900016B01CBC90469946A246F0BD002502ABF4
:10B2A0009881002E00D1D5E0F378002BEFD102AACF
:10B2B00094460E236344301C0EA91A1CFFF7C6FCEB
:10B2C0000028E5D102AB9B7B0EAA02A9097B281CB2
:10B2D000FFF7FAFBDCE70220012706ADE854581C13
:10B2E00002339BB280B22F54EA548BB202AA9381EC
:10B2F0006268002A0FD01078DA1C1F2AC5D80221F4
:10B300000A2706ADE954591C02339BB289B26F5427
:10B31000E85402AB9A812389002B00D09FE0238A56
:10B32000002B00D009E1238B002B00D024E1236AFD
:10B33000002B43D002AA92890C20911D1F29A7D867
:10B340001888824655460720052DA1D9D04D554471
:10B35000ADB2AC46CF4DA846AC4599D95D88A9465B
:10B36000052D00D894E7CA4D6F46AC46CC446546DF
:10B37000FD81FD89454500D88AE7C74DAA4504D01F
:10B38000A94502D0CA4500D982E70520122706AD9B
:10B39000A854501C80B22F54901C80B202AFB881C8
:10B3A0001F88281807703F0A477004325B8892B2E2
:10B3B000AD182B701B0A6B7002AB9981676A002F66
:10B3C00030D0BB880C20991C02AB9B899A1C551865
:10B3D0001F2D00D95CE7FE2900D959E706AD0131E0
:10B3E000E954591C04339BB2984689B2F33068542F
:10B3F00092B202A98A813988AA181170090A51707B
:10B40000424602AB9A81BA88002A0BD0B96800295B
:10B4100000D13CE7281C404405F09FFBBB8802AAF2
:10B42000434493812C23E25C002A00D0C3E006ADA4
:10B430002378002B00D134E7201C291C05AA1F23E8
:10B44000FFF74AFB002800D12BE721E70221012763
:10B450000020C8E602ABDE810022002335E705AB01
:10B46000271C00931F23083706AD98460193381C0C
:10B47000022102222B1CFFF775FB002800D007E7F2
:10B4800005AB00934346381C0193062110222B1C68
:10B49000FFF768FB002800D0FAE640E709330C20EC
:10B4A0001F2B00D9F4E60EA8FFF70CFB002800D0F4
:10B4B000EEE602AB9F8908231B2206ADEB557B1CF1
:10B4C0009BB2EA5402AB9C463121B81C80B2614465
:10B4D000153A281805F041FB30213B1C02AA5218EE
:10B4E000127808339BB2002A00D001220937EA54AF
:10B4F000BBB202AA9381BEE604330C201F2B00D9F5
:10B50000C6E60EA8FFF7E2FA002800D0C0E6032244
:10B51000192102AB9B8906ADEA545A1C92B2A95478
:10B5200002AA118E9A1C92B2AD18043329709BB2F4
:10B53000090A02AA69709381A1E605AB271C009352
:10B540001F23103706AD98460193381C03210222B1
:10B550002B1CFFF707FB002800D099E605AB0093F2
:10B560004346381C0193072110222B1CFFF7FAFADF
:10B57000002800D08CE6D6E605AB271C00931F23DD
:10B58000183706AD98460193381C142102222B1C53
:10B59000FFF7E8FA002800D07AE605AB00934346AF
:10B5A000381C0193152110222B1CFFF7DBFA002811
:10B5B00000D06DE6BBE6A36A9846002B00D166E694
:10B5C0009B880233FE2B00D95FE6013A02A9D2B272
:10B5D0008F8951008A189200424491461622924661
:10B5E00006AD52460133EB557B1C9BB2EA54BB1CA3
:10B5F0009BB202AA938142461288EB181A70043754
:10B60000120A5A70BFB202AB9F8143469A88002A41
:10B610000CD09968002900D139E6E81905F09DFAA7
:10B6200043469B88FF18BFB202AB9F81C84500D13B
:10B63000FEE60C239C46E04443469B880233FE2BE7
:10B64000CFD90C2024E602201C27591C06AD89B254
:10B65000E8546F54191889B282420CD010D9032AC9
:10B660000CD0042A00D012E603226A5403339BB2A2
:10B6700002AA9381FAE501226A54F7E76854F5E7D4
:10B68000012A00D003E600226D182A70EEE7C046BA
:10B690007FF3FFFF7DF30000FFFF000075DF7047C1
:10B6A00076DF70477ADF70477BDF704710B5184B45
:10B6B00082B01888174B984214D0174A174C137849
:10B6C0000133DBB21370217B99420DD2002313703A
:10B6D000237C002B12D16369002B03D0002201A828
:10B6E0000270984702B010BD0D49FFF7D7FF002840
:10B6F000F8D0A369002BF5D09847F3E73B21FFF77B
:10B70000CFFF0028E7D0A369002BE4D09847E2E7F9
:10B7100064270020FFFF00002427002028270020A6
:10B720006827002030B51B4B1B4A5B88118883B00B
:10B7300099420FD852889A420CD3184B5B69002B60
:10B7400003D0012201A802709847154C00232370F2
:10B7500003B030BD124C2378002B08D00F4B5B692F
:10B76000002BF3D0002201A802709847EEE70D4BA2
:10B770000A4D1B78002B0BD0A9680B48002204F05F
:10B7800035FA0028E2D0AB69002BDFD09847DDE71F
:10B790006968F2E71C27002068270020282700207E
:10B7A000192700202427002044270020164938B5F7
:10B7B000021C0B1C32CA32C332CA32C312681A606E
:10B7C0000022124B01681A70002916D0104C083262
:10B7D000201C05F0C2F9201CFFF764FF00280BD1E4
:10B7E00001220C4B52421A8000220B4B0B481A705C
:10B7F00000210B4A04F0E0F938BD0548FFF754FF7B
:10B800000028EDD0F8E7C04628270020192700209F
:10B81000682700206427002024270020D82C02005D
:10B82000ADB6010008B5024804F05EFA08BDC04696
:10B830004427002010B50388112B35D021D9122BB5
:10B8400017D0502B1CD1214CC288E3899A4217D1C2
:10B85000C38B022B14D11E33C35CDB070ED41C48F0
:10B8600004F042FA00280BD0A369002B08D09847B7
:10B8700006E0811D0822174805F06FF9FFF752FF17
:10B8800010BD102BFCD1011C8288134B16311A807D
:10B890001048082205F061F90022104B1A700B4B7A
:10B8A000DB89002BECD1E9E701220B4B52421A80D5
:10B8B00000220A4B06481A7004F016FA0028DFD05E
:10B8C000024B9B69002BDBD09847D9E72827002043
:10B8D000442700201C270020642700202427002064
:10B8E0000B7803704B7843700220704738B5041C06
:10B8F000081C0D1C05F0C8F96560208038BDC046E5
:10B90000A0DF7047A2DF7047A3DF7047A4DF704756
:10B91000A6DF704730B583B0002808D0002906D0D4
:10B920000B88112B23D0502B03D0102B1CD003B02D
:10B9300030BD037D002BFAD0CA8843899A42F6D1E4
:10B94000CB8B022BF3D10468002CF0D00B1C2122EE
:10B9500020259A5C5B5D120213430122134001A96A
:10B9600053400B70A047E2E78B884382DFE7012357
:10B970005B424382DBE7C046F0B5574680B40E27F2
:10B9800092B0002816D0002914D00B680E1C03605A
:10B9900001235B4243820A79037404A902338B704A
:10B9A000424B0275041C021D01200B80FFF7A8FF0B
:10B9B000071E04D0381C12B004BC9246F0BD237D93
:10B9C000002B56D102220BA90B934B608B60CB60EE
:10B9D0000B614B618B6113430B7000234B616A4613
:10B9E000012368466D469375314A8282B27B0020FE
:10B9F0002A73F27B6A73022292466A465546957311
:10BA0000357B0890099005A8D570069006AD0332E5
:10BA100003A82B81AB810A920790A088A31D2A1C42
:10BA2000FFF770FF071EC5D1B16800293CD06A46F8
:10BA3000012393751F4B93826B469881337C01AE33
:10BA400013736B465246301C9A73FFF749FF221C52
:10BA500005AB2B6080B203ABAF60EF606B602881F9
:10BA6000A8812E61E0880E32291CFFF74DFF071CCC
:10BA7000A0E70F250121C2B2AA430A432A4010259C
:10BA800002AB2A431A70727B0BA95A7002229A7079
:10BA90000B9048608860C860086148618861C0B2E6
:10BAA000104305430D7099E7E08183E70F1800000C
:10BAB000192A00000829000030B589B06B46041C23
:10BAC000DD1DD97100281CD0027CCBB200209A4227
:10BAD00015D001236A4602901381608A02AAE18888
:10BAE0000395FFF713FF021E09D12B781049237429
:10BAF000638A8B4207D0217D0830002905D109B027
:10BB000030BD0E20FBE70820F9E704A904924A6043
:10BB1000E288181C0A8001228A706A4652898A804B
:10BB200002AA8A60039ACA60FFF7F2FEE7E7C046FE
:10BB3000FFFF0000A0DF7047A2DF7047A5DF70475E
:10BB4000A6DF7047A8DF704763DF7047F0B5444653
:10BB50005F4656464D46F0B4041C95B00E20002CAE
:10BB600017D0002915D04B68002B12D001235B425F
:10BB7000238010220D1C04A8614904F0EEFF0A2165
:10BB80006A46604B04A869441381FFF7DDFF002873
:10BB900006D015B03CBC90469946A246AB46F0BDD7
:10BBA000221D013002A9FFF7C5FF0028F1D16B4625
:10BBB00034269A7A6946042303AFBA70A2710F2221
:10BBC000034389190D900E900F90109011901290D0
:10BBD00013900B704C4B90463B8083B21B0A9343EF
:10BBE0000122924652461343424613401022914688
:10BBF0004A4601AE13433080737003236A46B37024
:10BC00009B4614230A900B900C909385231CA088CC
:10BC100008AA083308970996FFF78EFF0028B8D1C5
:10BC20000823C2B213434A46342113436A465218CA
:10BC30000D900E900F901090119012901390137021
:10BC40004246A3793080BB70304B0A903B8083B270
:10BC50001B0A934352461343424613404A4613433A
:10BC6000737013236A46B37004330B900C90938562
:10BC7000231CA0880DA908AA103308970996FFF77E
:10BC80005BFF002800D084E7342102236A46034387
:10BC900052180D900E900F901090119012901390DA
:10BCA00013704246A3793080BB70194B0A903B80D9
:10BCB000C3B2934352461343424613404A4613438A
:10BCC00033705B466A46B37002230B9013859385ED
:10BCD000231CA0880DA908AA2033089709960C9563
:10BCE000FFF72AFF002800D053E76B68A362AB6818
:10BCF000002B00D0E3620122064B1A7049E7C046D0
:10BD0000002D020030150000321500003115000032
:10BD1000341500007027002030B5031C87B00028C0
:10BD20000AD00588114C0820A54203D0104C247875
:10BD3000002C03D107B030BD0E20FBE70D481024C6
:10BD40004170694604708C1D03218270002221809D
:10BD500002A902924A601A8AC8600A8001221888E1
:10BD60008A708C60FFF7ECFEE4E7C046FFFF00003E
:10BD70007027002074270020F0B589B0002815D066
:10BD8000002913D0826A002A10D00B88112B23D0EF
:10BD90000ED90D1C041C502B0FD0512B06D18B79C2
:10BDA000022B03D10A89038A9A4219D009B0F0BD47
:10BDB000102BFBD18B880380F8E7C988038999424F
:10BDC000F4D1082104AB1970E98B1972291C2031B8
:10BDD0000591191C9047E9E701235B420380E5E7E1
:10BDE0008B7A043B022BE1D90223002201AE04AF7F
:10BDF00001923B7033806B4673600088A18A321CCD
:10BE0000FFF79CFE002811D0E36A002B00D0984772
:10BE1000FE232088FF33391CBB80FFF793FE0028E8
:10BE2000C4D0E36A002BC1D09847BFE76B461B78AC
:10BE3000DB07EDD5B880391C2088FFF783FE00288A
:10BE4000EFD12223E95C082935D8264A8B00D35844
:10BE50009F462B8C022B39D924232322EB5CAA5C2E
:10BE60001B021343B3805A42534106333370201CE4
:10BE7000A36A311C984799E70923F7E70223F5E7FE
:10BE8000012333702A8C9A421AD9291C2331337228
:10BE90007160A36A201C311C984787E70023337028
:10BEA0002B8C012B18D90123EFE70423DEE70523B0
:10BEB000DCE70323DAE7201C0322FFF72DFFAEE7C0
:10BEC000201C02210622FFF727FFA8E7201C0821DB
:10BED0000322FFF721FFA2E7201C01210622FFF722
:10BEE0001BFF9CE7DC2C0200A0DF7047A2DF70473D
:10BEF000F0B54F4646460123C0B493B002A98B70FB
:10BF0000D24B041C0B80D24B01201A1C9946FFF720
:10BF1000EBFF002800D0CAE02688002E00D0CBE03E
:10BF20002689002E00D0FBE0268A002E00D029E1D1
:10BF3000268B002E00D057E1268C002E00D0A5E1E4
:10BF4000268D002E00D0D2E1226B002A3BD00126A4
:10BF50003C25117804AB1970517803AF5970917872
:10BF6000655D9970D1780020D97011791971926846
:10BF7000BE70B84E110A3E8001AE35703C25AC460D
:10BF80005A71120CDA71A4440222654699710BA908
:10BF90000B900A7048608860C860086148618861D9
:10BFA0006D78B27006AA9060D06008307570069700
:10BFB0005660108113614B4690811888A64BFFF79D
:10BFC00095FF002873D1636B002B37D01A681E7958
:10BFD0009046002A00D1C9E1002E04D100200021A2
:10BFE000002203F0E5FE01203C2504AFB8709B4819
:10BFF000655D388003A805703C25AC46002302220D
:10C00000A44465460BA90B930A704B608B60CB6010
:10C010000B614B618B616D78827006AA9360D3606F
:10C02000434613614B464570506018888C4B069709
:10C0300016819681FFF75AFF002838D1A36B002B99
:10C0400000D185E11A7804A802705A88012642704E
:10C05000120A82709A883C25C270120A0271DB882B
:10C06000022243711B0A8371002303AFBE707D4E11
:10C07000655D0BA93E8001AE0B9335700A704B6075
:10C080008B60CB600B614B618B613C346478B27028
:10C0900006AA9360D3600733138193814B46747073
:10C0A00006975660106118886F4BFFF71FFF13B09B
:10C0B0000CBC90469946F0BD63689846002B00D1B1
:10C0C00048E101203C2504AFB8706848655D3880C0
:10C0D00003A805703C25AC4600230222A444654613
:10C0E0000BA90B930A704B608B60CB600B614B61AB
:10C0F0008B616D78827006AA9360D36043461361AA
:10C100004B46457050601888594B069716819681AA
:10C11000FFF7ECFE0028CAD12689002E00D103E7E4
:10C12000E3689846002B00D11AE101203C2504AFBA
:10C13000B8705048655D388003A805703C25AC4652
:10C1400000230222A44465460BA90B930A704B609E
:10C150008B60CB600B614B618B616D78827006AA3E
:10C160009360D360434613614B4645705060188816
:10C17000414B069716819681FFF7B8FE002800D143
:10C18000D2E694E763699846002B00D1F4E00120E1
:10C190003C2504AFB8703948655D388003A8057048
:10C1A0003C25AC4600230222A44465460BA90B9310
:10C1B0000A704B608B60CB600B614B618B616D785B
:10C1C000827006AA9360D360434613614B46457064
:10C1D000506018882A4B069716819681FFF786FED5
:10C1E000002800D1A4E662E7E3699846002B00D15D
:10C1F000C8E001203C2504AFB8702248655D388056
:10C2000003A805703C25AC4600230222A4446546E1
:10C210000BA90B930A704B608B60CB600B614B6179
:10C220008B616D78827006AA9360D3604346136178
:10C230004B46457050601888134B069716819681BF
:10C24000FFF754FE002800D176E630E70A18000018
:10C25000C4270020232A00008C2700202A2A00005F
:10C260009C270020502A0000A4270020292A000033
:10C2700094270020242A000084270020252A00007B
:10C28000B4270020272A0000AC270020636A9846C4
:10C29000002B7DD001203C2504AFB8704248655D7D
:10C2A000388003A805703C25AC4600230222A44434
:10C2B00065460BA90B930A704B608B60CB600B61DA
:10C2C0004B618B616D78827006AA9360D3604346A0
:10C2D00013614B46457050601888344B06971681A1
:10C2E0009681FFF703FE002800D129E6DFE6E36A26
:10C2F0009846002B52D001203C2504AFB8702C4842
:10C30000655D388003A805703C25AC4600230222F9
:10C31000A44465460BA90B930A704B608B60CB60FD
:10C320000B614B618B616D78827006AA9360D3605C
:10C33000434613614B464570506018881D4B069765
:10C3400016819681FFF7D2FD002800D1FCE5AEE60C
:10C350000020ACE600200021002203F029FDB0E619
:10C3600000200021002203F023FDDEE60020002152
:10C37000002203F01DFD2FE600200021002203F023
:10C3800017FD04E700200021002203F011FD30E733
:10C3900000200021002203F00BFD7BE7002000219C
:10C3A000002203F005FDA6E7262A0000BC27002096
:10C3B000282A00007C2700207FDF704782DF70473B
:10C3C000A7DF7047A9DF7047AADF704700207047DA
:10C3D0000020704700207047002070470020704701
:10C3E0000020704700207047F0B55F464D46444638
:10C3F0005646F0B487B014236A4653804B78334FC7
:10C400005A00D3189B00FB18804618896B460D1CF8
:10C410009A1C01A90323FFF7D7FF00281DD16B78D1
:10C420002B4E9B466B465B885A469A465B46DB0022
:10C430009C1AA400201C0830301801A952469946C5
:10C4400004F07CFB002810D15B4602225B005B44B9
:10C450009B00FF18BB7A13402ED0002007B03CBCD5
:10C4600090469946A246AB46F0BD34196368002B4E
:10C4700020D1184F5A464B469B1A03229B00F2507C
:10C480006A7801A9D3009B1A52469B00F3185A60A0
:10C490006878C300181A80000830301804F05DFB7B
:10C4A00069784046CB00591A890071181C2238233C
:10C4B000B847D2E7084FDDE7341923606360A36013
:10C4C000E36023616361A361C7E7C046E8270020FA
:10C4D0003428002009ED010099ED0100354AF8B536
:10C4E0004F46914646464946C0B44378071CDA0099
:10C4F000D21A920089184C68002C0DD058002E4E8C
:10C50000C11889007118897A4DB2002D46DB0022CE
:10C5100000250024904605E00022002500249046D6
:10C52000254E5800C3189B00F31818894146221C59
:10C530002B1CFFF747FF0B2808D0002814D01F48FA
:10C54000012D14D00CBC90469946F8BD7B7841462D
:10C550005A00D3189B00F3181889221C0123FFF7F7
:10C5600031FF002803D101250020012DEAD17B787D
:10C570000C215A00D3189B00F6183089104AFFF797
:10C580001FFF0028DED002220E4BC31893430FD0AA
:10C5900008280DD011280BD00020D3E74906B6D4C7
:10C5A000111C083188464946C844A4B28D58B9E7E1
:10C5B0000248C7E734280020E82700204180000017
:10C5C000FFFF0000FECFFFFF021C38B548780C4C7F
:10C5D000C300181A80000D1C2018111C38231C22BF
:10C5E00002F022FC002807D16A78D3009B1A9B0036
:10C5F000E3185A68013200D038BD5860FCE7C046E5
:10C6000034280020F0B5474680B43F4F90B03C68D6
:10C61000002C3DD0169C582C3AD81C1C3B4B161CA9
:10C6200001936A4600231374169B0D1C804600215B
:10C63000374802AA0994089302F03AFB002806D171
:10C64000404602A9082204F079FA002848D001AA3D
:10C650009378FF2B1CD0032D2DD02E49611A1B2956
:10C660001AD92D4BE31A1B2B2AD8002353700AAB7F
:10C6700009931823212108930A33022D34D06946E7
:10C680000B7407AB0593101C3B6804A9321C984738
:10C6900010B004BC9046F0BD204C2168002E03D1A0
:10C6A000012098400142F3D001209840814321604D
:10C6B00022232121E1E7169B582B18D04323DEE7E4
:10C6C0001749631A1B2BE3D8002302205370013350
:10C6D000D370144B9B7A03400BD032233121CCE72B
:10C6E00001AA90700023B6E76B461974C9E72323AB
:10C6F000C5E70B604B608B60CB600B614B618B615E
:10C7000032333121B9E7C0465428002000FFFFFF33
:10C7100010280020F427002018280020502800208E
:10C7200034280020E8270020021C38B548780C4C3B
:10C73000C300181A80000D1C2018111C38231C225D
:10C7400002F072FB002807D16A78D3009B1A9B0085
:10C75000E3185A68013200D038BD5860FCE7C04683
:10C7600034280020334AF8B54F469146464649469C
:10C77000C0B44378071CDA00D21A920089184C68BA
:10C78000002C0DD058002C4EC11889007118897AE0
:10C790004DB2002D44DB002200250024904605E028
:10C7A0000022002500249046234E5800C3189B0009
:10C7B000F31818894146221C2B1CFFF703FE0B2897
:10C7C0000CD0002803D1012D13D0002002E0012D50
:10C7D0000FD01A480CBC90469946F8BD7B7841466C
:10C7E0005A00D3189B00F3181889221C0123FFF765
:10C7F000E9FD7B780C215A00D3189B00F61830898C
:10C800000F4AFFF7DDFD0028DFD002220D4BC318D1
:10C810009343DED00828DCD01128DAD00020D9E7F5
:10C820004906B8D4111C083188464946C844A4B208
:10C830008D58BBE734280020E82700204180000005
:10C84000FFFF0000FECFFFFFF0B55F464D464446B8
:10C850005646F0B487B014236A4653804B78334F62
:10C860005A00D3189B00FB18804618896B460D1C94
:10C870009A1C01A90323FFF7A7FD00281DD16B789F
:10C880002B4E9B466B465B885A469A465B46DB00BE
:10C890009C1AA400201C0830301801A95246994661
:10C8A00004F04CF9002810D15B4602225B005B4487
:10C8B0009B00FF18BB7A13402ED0002007B03CBC71
:10C8C00090469946A246AB46F0BD34196368002BEA
:10C8D00020D1184F5A464B469B1A03229B00F25018
:10C8E0006A7801A9D3009B1A52469B00F3185A603C
:10C8F0006878C300181A80000830301804F02DF949
:10C9000069784046CB00591A890071181C223823D7
:10C91000B847D2E7084FDDE7341923606360A360AE
:10C92000E36023616361A361C7E7C046E827002095
:10C930003428002009ED010099ED0100F0B54F46C3
:10C940004646C0B485B0002858D0002301210025F8
:10C95000061C0120324A4942136053729372314AD5
:10C96000314C90721181D1721360938095712F4A6E
:10C970002360136053609360D360136153619361CC
:10C980006360A360E360FF332374A1762183657441
:10C99000A574E57425756575A575254A13688343E7
:10C9A0001360244B6A46197058239380224BD08021
:10C9B0000093224B6846191C984602F001F9071EA5
:10C9C00016D11F4B994601234A4613703378002B2A
:10C9D0001AD14046002102AA02F06AF900280FD1BC
:10C9E000201C02A91C22002302F01EFA002807D1F5
:10C9F000381C05B00CBC90469946F0BD114FF7E7C6
:10CA00004B46071C1D70F3E76A466B469188DB882E
:10CA10004046594389B202F061FA071CE8E7C04674
:10CA200054280020E8270020F42700203428002084
:10CA300050280020C827002005C60100102800202B
:10CA4000CC2700200E800000F8B5194B1B78002B76
:10CA500001D11848F8BD00280AD0002908D00B6879
:10CA6000002B05D0144E3768002F03D01348F1E790
:10CA70001348EFE7051C301C0C1C08C005310522CB
:10CA800004F06BF8012223790421B372337AF07930
:10CA9000934302221343DBB28B43337201230343DC
:10CAA000DBB21A43D2B28A43F27100202F70D1E771
:10CAB000CC270020088000005428002004800000BB
:10CAC0000E800000004870479180000000487047C9
:10CAD0009180000000487047918000000A4B1B784D
:10CAE000002B01D10948704700290BD0002809D03C
:10CAF0000378002BF6D1064A1268002AF2D00B7098
:10CB00000020F0E70348EEE7CC2700200880000073
:10CB1000542800200E800000002806D0FF23037058
:10CB200043708370C370002070470148FCE7C04623
:10CB30000E80000008B5194B1B78002B01D1184856
:10CB400008BD00281BD0002919D00378002BF6D18E
:10CB5000144B1B68002BF2D08278FF2A11D0D3002F
:10CB60009B1A114A9B00D3189A7E920714D4103353
:10CB7000081C0722191C03F0F0FF0020E0E70B4817
:10CB8000DEE74378FF2B07D05A00D318084A9B00F2
:10CB9000D3189A7A9207EBD40648D1E7CC27002025
:10CBA0000880000054280020F42700200E80000098
:10CBB000E827002005800000F0B5244B8BB01B78DF
:10CBC000002B02D122480BB0F0BD00280DD0002967
:10CBD0000BD00378002BF5D11E4B1B68002BF1D036
:10CBE0008378002B03D01C48EDE71C48EBE71C4E74
:10CBF000B27EFF2AF7D00D1CCB608178194FCA0096
:10CC0000521A9200B2186B61AB6003AB2A616F607D
:10CC10002B60041C817801AA134802F049F800280F
:10CC2000D1D103A801A91C221C2302F0FDF8002881
:10CC3000C9D11C23E860A27868615343F61803AB9E
:10CC40002E616F60A8602B60BDE7C046CC27002036
:10CC50000880000054280020108000000E80000092
:10CC6000F4270020D02700201028002010B582B023
:10CC7000041C81786A460D4802F01AF8002812D187
:10CC800060786946C300181A094B800018181C22E6
:10CC90001C2302F0C9F8074B074A9B7A68469B00A1
:10CCA0009B58211C984702B010BDC0461028002098
:10CCB0001828002054280020382E0200F0B55F46C6
:10CCC00056464D464446FF23F0B4D04A8FB0127802
:10CCD0000393002A46D0CE4F3A689046002A41D0AE
:10CCE00004AD05AE6B70AB70EB70031D73602A234F
:10CCF000002233810388041C2A70102B00D141E1EB
:10CD0000FF21C44A80889146927A0191910708D503
:10CD1000C149884200D12CE149460989814200D1AC
:10CD200027E1113B9BB2412B1CD8BC499B00CB583F
:10CD30009F461323337000239B46281C311C5A4600
:10CD4000C0473378122B0DD14B469B7A012B09D06B
:10CD50004A4601239372023B1381D372002313606E
:10CD6000938093710FB03CBC90469946A246AB4667
:10CD7000F0BDBB7AAA4A9B009B58281C9847F1E754
:10CD80000223111C99430B1C0820494602408B7258
:10CD900000D157E15BB2002B00DAFBE110234A46D9
:10CDA00093720233337000239B46C6E7132333701C
:10CDB0000423494613438B72C97AFF2900D177E1D6
:10CDC00016233370974B181C9C460830002380466E
:10CDD00060468360404643608360C36003614423D0
:10CDE0001A434B469A7200239B468F4B984600226B
:10CDF000CB00591A89008D4B41440B920C910D9236
:10CE0000089309920A92A0883A1D002108ABFFF707
:10CE1000D3FA0028A6D13B6898468EE74B46DB7ACA
:10CE2000FF2B00D16FE1804B804E9846311C42466B
:10CE30000023FFF7C3FA95E701217B7A04208B4397
:10CE40007B724B4682439A7214233370A3798A46CD
:10CE5000002B00D01BE10021E3798B46184200D162
:10CE60006BE7019BFF2B00D167E708231A434B4672
:10CE70009A72E37A9B0709D55146019AD3009B1A0F
:10CE8000694A9B00D3189A7E8A439A764B46DB7A8E
:10CE9000FF2B00D14FE74B461B78022B00D1B9E1A5
:10CEA000614B49469846019A0968D3009B1A9B003A
:10CEB00043441961494688889A7E98828879987592
:10CEC000022082439A766B4608AC99885848221C07
:10CED00001F0EEFE002833D16B785A00D3189B0086
:10CEE0004B449B7A5B0600D591E1524B9A46A97858
:10CEF000201CCB00591A890041441C220023D04732
:10CF0000002811D1697840304B005B189B004B44DE
:10CF10009A7A82439A72CB00591A8B004349201C9B
:10CF2000C9181C221C23D0472B78201C5A00D31868
:10CF30009B00FB189B7A404A9B009B58291C9847F2
:10CF40003B68984600239B46F7E6A379112B02D154
:10CF5000130700D5C3E080235B421A434B469A7205
:10CF600015233370BB7A2E4A9B009B58281C984788
:10CF7000E6E74946C97A8A46A97000216970514698
:10CF80000191CEE60121234B8A4699469B7A1942AC
:10CF900000D1E7E6494602238B720F336A70337083
:10CFA000838807220B81831D191C48469B4603F08A
:10CFB000D4FD237D54461C4000D182E01F4A5B080B
:10CFC000D45CFF2C00D1E3E00394A1B24B464A4667
:10CFD000DC720A231648937208AAAC7001F068FE4E
:10CFE0000028ADD1687808A9C300181A83000F483B
:10CFF0001C22C0181C2301F017FFBB7A104A9B00AB
:10D000009B5808A8291C98479AE7C046CC270020BF
:10D0100054280020E8270020FFFF0000102D020008
:10D02000182E020034280020F427002018280020A1
:10D030001028002009ED0100282E0200C82700203A
:10D04000382E02000199FF2900D1A7E6CB005B1A18
:10D050009B001C1C874F1034FB183C196270A27097
:10D06000E27022716271A2711A605A609A60DA608D
:10D07000FF221A749A76013AFF3A1A8301238B40F1
:10D08000191C7D48AA7003688B43036086E64B46F3
:10D090006A46DB7A79489380918808AA984601F01D
:10D0A00007FE002849D0A3799B463B68984644E692
:10D0B000704B98469B7EFF2B00D1BEE0704B9B4689
:10D0C00095E66C4859461030072203F037FD0023DF
:10D0D0009B46002800D030E60394191C76E7002315
:10D0E00068488360C36003614361836116333370B2
:10D0F00060231A434B469A7202237A7A13437B7257
:10D1000000239B4619E65B4BE18998461B8B002662
:10D11000994200D08AE64B46DE7208231A434B46FA
:10D12000281C9A72AE70FFF7A1FD4B46DB7AA088EF
:10D13000FF2B00D17AE6544E78E608A8582101F07A
:10D14000CDFE0028AFD14B4B42469B464346DB0009
:10D150009B1A9B001A1C10329446DC4462465070A5
:10D160009070D070107150719071FF225B441A74EE
:10D170009A76013AFF3A1A834146186058609860DF
:10D18000D86053468B403C4A1168994311608AE746
:10D19000FF211BE76B4608AC99883848221C01F038
:10D1A00087FD002830D16B785A00D3189B004B4480
:10D1B0009B7A5B063ED4354B9846A978201CCB0061
:10D1C000591A8B002B491C22C9180023C04700287C
:10D1D0000ED10C236A78403053434B44997A8143F3
:10D1E00099721C235A432849201C89181A1CC047CD
:10D1F0002B78201C5A00D3189B00FB189B7A244ADA
:10D200009B009B58291C98473B689846C6E5214BD4
:10D210009A466CE6174B019A98461B48D3009B1A16
:10D22000408A9B004344188301201A1C9B7E834341
:10D23000937648E6174B9846BFE74B461B78022B80
:10D2400016D0494643464A460968196192889A822F
:10D250004A4692799A75FD2342469376002303AAA3
:10D260001370039A9B46D1B24A46A970D172BEE5AB
:10D27000FE23F1E7F427002050280020102800208A
:10D28000438000003428002018280020CDC301006E
:10D29000282E020099ED010030B5002915D00A783A
:10D2A000002A02D00A4B181C30BD0A4B1B68002B09
:10D2B000F8D0FF23084C8B702589FA3B8542F2D1C8
:10D2C0004A70E37A8B700023EDE7044BEBE7C0462E
:10D2D0000880000054280020E82700200E8000006D
:10D2E000F0B5002820DBFF271B4B03229C463B1C8C
:10D2F0008408C026C0B20240D2009340A400644417
:10D30000B600A5599D438B013B409340191C29430E
:10D31000A1511F2318401E3B8340C022181C0E4BF6
:10D32000520098501860F0BDFF260C4A0324944622
:10D33000321C0F23C0B20440E400A2400340083B6B
:10D340009B089B006344DD6995438A013240A240FB
:10D35000111C2943D961DCE700E100E000ED00E0A9
:10D3600082B00190019B002B14D0019B0A48013B25
:10D3700001930138C046C046C046C046C046C046BC
:10D38000C046C046C046C046C046C046F1D1019B1B
:10D39000002BEAD102B07047E703000070B54E25BC
:10D3A000174C0820635D002B00D070BD201CFF21AE
:10D3B000202228300126FAF7FBFE201C7642FF21AE
:10D3C000242240C0FAF7F4FE4823FF22E65401333A
:10D3D000E2540133E6540133E6540133E6540620A7
:10D3E00001330121E654FFF77BFF8021C123054A69
:10D3F0009B000906D150012300206355D5E7C046A4
:10D4000060280020006000404E23034AD05C431E89
:10D410009841C0B27047C04660280020F0B547462A
:10D4200080B45A4C9046231828331E7808257F2E46
:10D4300003D8281C04BC9046F0BDCD78AC46002D26
:10D4400043D02268013200D194E004270026731CE7
:10D450009D006259013240D0B31C9F4233D99D00D8
:10D460006259013239D0F31C9F422CD99D00625978
:10D47000013232D0331D9F4225D99D0062590132BD
:10D480002BD0731D9F421ED99D006259013224D0BA
:10D49000B31D9F4217D99D00625901321DD0F31D63
:10D4A0009F4210D99D006259013216D001339F422C
:10D4B00009D99D00625901320FD00936B74202D90D
:10D4C000636A013307D00425B3E72269013256D0DD
:10D4D0000A270426BBE709232425424662516246F7
:10D4E0002718DEB228373E70002A02D1E3184433F1
:10D4F00018708B78002B15D1031CA0254A78C133F6
:10D50000FF3392009B00ED055A51CB78002B15D1CB
:10D5100076B2A41944340B7822789B01134323700C
:10D52000002586E7A022D2059446E0250227830045
:10D530006344ED005A59BA435A51E6E7A22476B241
:10D54000134BB600F318E4000A781D591149000284
:10D5500029401951F82149010840061CC021100436
:10D56000021C301C89021D590A40104328431851DF
:10D5700000255EE700261E7043462360B9E70425B8
:10D580001D7043462E1C23612B1CAFE76028002032
:10D5900000600040FFE0FCFFF0B5264D2C18283459
:10D5A000227853B2032B18DDEB1844331B789B0908
:10D5B000032B32D0012B39D0C025AD02A023DB05CF
:10D5C0009C46E02380006044DB00C4581A49214097
:10D5D000C150C2582A43C250F0BD032AFCD8174894
:10D5E000A227844601269A006244FF00D0593043A6
:10D5F000D0511A1C604600274032920092B2175058
:10D600000029E9D00022A25692005259002AE3D004
:10D61000C1229E4092008650DEE7A223A022DB00BA
:10D62000D205D258012383401A42C5D18025AD02CC
:10D63000C4E7C04660280020FFFFFCFF00600040F8
:10D64000A223A022DB00D205D358C340181C01231B
:10D6500018407047F0B544465F4656464D46F0B414
:10D66000844A83B013680024012B65D0824B1A686A
:10D67000012A6DD0814B1A68012A00D178E0804BD5
:10D680001A68012A00D183E07E4B00261A68012A1D
:10D6900000D18EE023070BD0E30700D593E0A3076A
:10D6A00000D5BBE0630700D59DE0230700D5A9E0C6
:10D6B000002C06DB03B03CBC90469946A246AB4624
:10D6C000F0BDC0239846C0239B0200246E4D9946AE
:10D6D00005E0032B00D1B0E00134062CEAD0231C76
:10D6E0004833E95C4BB20133F6D0C9B24346081C5B
:10D6F00098432B1828331B785BB29B00EA58002A0A
:10D70000EAD0A027FF05BC468B09019383009C4407
:10D71000E0276346FF00DB594F463B400127874027
:10D720001B0C3E42D5D0022BD6D1019B032B00D13E
:10D730008BE001999047CFE7C121544889004158B7
:10D740000B4293D04C4B14601A680134012A91D1DA
:10D75000C1224E499200895802220A4200D189E72B
:10D7600000211960454B14431A68012A00D086E74E
:10D77000C12246499200895804220A4200D17EE71C
:10D78000002119603E4B14431A68012A00D07BE740
:10D79000C1223E499200895808220A4200D173E70B
:10D7A00000211960374B14431A680026012A00D063
:10D7B00070E71E6080231B061C43A022A223D20513
:10D7C000DB00D65866E7A223304ADB00D058D15898
:10D7D0002D4DC00489032B68C00E890F9847A307FD
:10D7E00000D45FE71AE0A323284ADB00D058D158C1
:10D7F000254DC0048903AB68C00E890F98472307E5
:10D8000000D455E7214A224B1F4DD058D158C004AF
:10D810008903C00E890FEB68984749E71D4B1B4AE7
:10D82000194DD058D158C00489036B68C00E890FB8
:10D830009847630700D438E7D5E7019B032B00D056
:10D8400077E780239B029A4602E0C0239B029A4618
:10D85000E0216346C9005B589B465F460E4B3B4048
:10D8600067467B507B5857461F433B1C67467B509F
:10D870005FE7C0460061004004610040086100406D
:10D880000C6100407C610040602800200060004086
:10D890001C05000014050000FFFFFCFF29DF704796
:10D8A00028DF704730B583B0002806D0112806D194
:10D8B00008230F4A11680B43136003B030BD021CEC
:10D8C0000C4801788B005B189B00C518281CE96880
:10D8D0006B694C0064182979074DA4002D680C3041
:10D8E0000095064D6459A0470422054B1A70E4E7E1
:10D8F000A0290020B0280020AC2900208429002085
:10D90000A5290020F0B55F464D4644465646F0B482
:10D910005E4F85B03C785E4D012C00D188E0002C34
:10D9200000D16DE0022C16D0032C0DD1594B186894
:10D93000FFF7B6FF021E07D0112800D080E00823B1
:10D94000554A11680B43136005B03CBC904699469C
:10D95000A246AB46F0BD504B99461B6803932B780B
:10D960009E00F3189B00EE183369984680235B05F0
:10D97000196940460904090C9B4602F05DFF454BBE
:10D98000824618605B4619694346581EF3880904AD
:10D99000C018090C02F050FF82454CD00323039CB1
:10D9A0009C434B461C603D4B1B68002B02D102334D
:10D9B000234262D000223A4B1A703A4B5869431CFA
:10D9C00054D080235B0519690904090C02F034FF67
:10D9D000031C80225205106911690004013B000CF0
:10D9E00009045843090C02F027FFFFF759FF021EF4
:10D9F000AAD0112824D108231C434B461C60A3E75E
:10DA0000294B1C60294B1C606B78002B9CD02B7819
:10DA10009A00D3189B00ED18EA88254B1A602B79E1
:10DA2000032B27D0042B25D0012B00D08CE73B7093
:10DA300000F000FC88E70123039A9A431443B0E7FF
:10DA40002B789800C01880002E18301C184DF368F1
:10DA50002D685C00E418317973690095154DA400B8
:10DA60000C306459A04704233B706DE780235B05AD
:10DA70005B69AEE700F020F866E7094A504613708C
:10DA8000FFF70EFFFFF70EFF5EE7C046A529002057
:10DA9000B0280020B8290020A0290020B4290020A7
:10DAA000A429002000100010B02900207C290020AB
:10DAB000AC29002084290020F0B55F4656464D462B
:10DAC0004446F0B45B4B5C481A78802791008A1872
:10DAD00092009B18DD681E696A0052199200821834
