:020000021000EC
:1080000000400020C50502000D0602000F06020018
:108010000000000000000000000000000000000060
:108020000000000000000000000000001106020037
:108030000000000000000000130602001506020008
:1080400017060200170602001706020017060200B4
:10805000170602000000000071D30100798F0100B3
:10806000CDED0100170602001706020017060200F8
:108070001706020017060200170602001706020084
:1080800017060200D5F301001706020017060200CA
:10809000B5F40100170602004DFD010017060200AD
:1080A0001706020017060200000000000000000092
:1080B00000000000000000000000000000000000C0
:1080C000164B002B00D1144B9D46402292029A1A67
:1080D000924600218B460F461348144A121A00F0AC
:1080E00065F80F4B002B00D098470E4B002B00D0AB
:1080F00098470020002104000D000D48002802D000
:108100000C4800E000BF00F02DF82000290000F02E
:10811000E7FF00F011F8C046000008000040002012
:10812000000000000000000000210020A42E00201C
:108130000000000000000000084B10B50400002BF8
:1081400002D0002100E000BF054B1868836A002BB5
:1081500000D09847200000F031F8C0460000000031
:10816000D011020070B500260C4D0D4C641BA410FC
:10817000A64209D1002609F01FF80A4D0A4C641BDB
:10818000A410A64205D170BDB300EB589847013644
:10819000EEE7B300EB5898470136F2E700210020E4
:1081A000002100200021002000210020030082186F
:1081B000934200D1704719700133F9E7FEE7C046DA
:1081C00070DF704771DF704774DF704776DF70478C
:1081D00078DF70477ADF70477CDF70477FDF70475A
:1081E00082DF7047A7DF7047A8DF7047A9DF7047BD
:1081F00060DF70472EDF704732DF704733DF704734
:1082000048DF7047F0B54E46DE4657464546030008
:10821000E0B50D3B8FB08146072B00D9EBE004ABF6
:108220009C46232700230DAE67443B707370030008
:10823000FF22113B3270032B00D836E100230A9352
:108240000B93B94B9B46B94B0993B94B08930D233C
:1082500098460C3B9A460024E0B2390007F004F837
:108260003B78002B66D00123A340357802225D4085
:10827000EDB23100AF48357008F085FBAE4BAF4A28
:10828000AF49D258AF4B00201A60099B089A05935A
:108290000A9B04937378029503935B4601934346CC
:1082A00000934B4601F048FCA0238021DB05022C03
:1082B00000D1F0E0032C00D1A7E0012C00D16FE049
:1082C000A14A890399500021043A99505346042B3E
:1082D00058D10B9B002B00D0A1E03B78002B00D1A4
:1082E000B3E09A4B1A889A4B9A4200D1C8E0310009
:1082F000984801F0E9FB0823020004009A4312D0D9
:108300000222954BC31893430DD011280BD0934BE9
:10831000984208D09249002001F00EFC0022002172
:10832000200007F05FFC0FB03CBC90469946A24687
:10833000AB46F0BD099B089A05930A9B89490493B3
:10834000737800200393337802935B46019343468E
:1083500000934B4601F0F0FBC14528D0A0238021BB
:10836000DB05022C45D0032C00D196E0012C0FD068
:10837000A1228903D20099500021734A9950534693
:10838000042BA6D001239C460134E244E04463E779
:10839000C903A122D200995000216B4A9950F1E7FC
:1083A000C903694A99500021043A9950EAE76E4B93
:1083B0001B78994500D199E00B9A002ACED1099AF1
:1083C0006A4906920B9A00200592727804923278DC
:1083D00003925A4602924A4601920092089A01F08C
:1083E000ABFB4A46604B80211A70A023DB05022CB0
:1083F000B9D10904CDE74D4B009001935C4A5D4B28
:108400005D49002001F098FB8DE74F4A49049950DF
:108410000021043A99500B9B002B00D15DE700240A
:10842000514B02221C70FF2331004248737008F048
:10843000AAFAA023F021444ADB0549049950043AE2
:108440009C503B78002B00D04BE73B4B3B4A4B4CBE
:10845000D2584B4B4B491A600020220001F06CFBB4
:1084600000224949200007F0E5FA484902000020AF
:1084700001F062FB354B1A88354B9A4200D036E743
:108480007378089A019333784149009300205B4642
:1084900001F052FB47E7090483E7A1224904D20017
:1084A00099500021284A995013E71F4B39499B46A0
:1084B0001E4B5A461C00099300930300002001F054
:1084C0003BFB1B4B049408931A000123039373781E
:1084D000314902933378002001935B4600934B4669
:1084E00001F02AFB01230A930B93B0E60B9B002BB0
:1084F00000D033E7221D013393403278274953409F
:10850000099ADBB2337006920B9A002005927278BA
:1085100003935B4602934B46049201930093089A9F
:1085200001F00AFB1AE7C04678160200981602000E
:10853000A4160200D8240020040500000010014009
:10854000D0160200DC2400200C050000642000206E
:10855000FFFF00000C240020FECFFFFF01340000CD
:10856000B4170200F4160200DA24002044170200B7
:108570001818020010180200201802007C240020A5
:108580004824002078170200662600009417020095
:10859000E417020080160200AC1602001817020051
:1085A00010B5040084B00022002107F01BFB064B2D
:1085B00001940293054B064A00930649064B00209E
:1085C00001F0BAFA04B010BD9816020010180200AB
:1085D00048180200501802004018020070B5072821
:1085E00012D8324B80001B589F46032001F000FE3A
:1085F000002803D00022002107F0F4FA2C4B2D4A6A
:108600002D49002001F098FA70BD294B294A2B49C9
:10861000002001F091FAF7E7254C264A230028496B
:10862000002001F089FA032002F000FA230005007F
:10863000244A2549002001F07FFA002DE4D00022D1
:108640000021280007F0CEFADEE7052001F0D0FD7A
:10865000002803D00022002107F0C4FA144B154A69
:108660001A49002001F068FACEE7022001F0C0FDAF
:10867000002803D00022002107F0B4FA0C4B0D4A69
:108680001349002001F058FABEE7042001F0B0FDC4
:10869000002803D00022002107F0A4FA044B054A69
:1086A0000C49002001F048FAAEE7C046D4110200A0
:1086B00098160200741B0200B01B02002C1C020062
:1086C000E81B0200001C0200081C02007C1B0200C8
:1086D000981B0200D01B020010B526482649274AE5
:1086E00043581268264C84B09B1AA3421ED84358A4
:1086F00024499A1A03912449244B029101921B7830
:1087000000200093224A234B234901F015FA234C01
:10871000200007F005FA00281FD100221A49200086
:1087200007F088F9002813D104B010BD154B174C81
:108730000193237800200093154A164B184901F045
:10874000FBF900231548237007F0EAF90028EBD065
:108750000022002107F046FAE6E70022002107F098
:1087600041FA00220849200007F064F90028DBD014
:10877000EEE7C04600100140040500004824002038
:10878000652600009816020066260000DA24002004
:10879000B8180200B0180200C01802007C240020A3
:1087A000EC18020010B5040005F078FF200002F07C
:1087B000D1F910BDF0B5DE4657464E464546040099
:1087C000E0B5CE4D85B0838802950288CC4FCD4E62
:1087D000CD49019200203A00009601F0ADF9200049
:1087E00004F0DAF8200002F047FE2100C74803F049
:1087F0000BF92100C64802F0AFFE2288522A00D9A8
:10880000E3E0C4499300CB589F469A0700D466E141
:10881000002100220023C0480088FFF7E1FC002867
:1088200003D00022002107F0DDF92B003200BB4904
:10883000002001F081F9200002F016F9B84BB94A86
:1088400018002100984601F031F82388502B00D100
:10885000C6E005B03CBC90469946A246AB46F0BD8A
:10886000AD4B0022188800210323FFF7BFFC00282E
:1088700000D02AE12B003200AB49002001F05CF966
:10888000D9E73A00A949002001F056F90022A84B87
:108890001A60D0E7A749002001F04EF9CBE7A649BE
:1088A000002001F049F9C6E70020A288A34901F0A1
:1088B00043F9072001F09CFC002800D011E1A288B8
:1088C000954B1A8006F0B8FC002800D002E1009514
:1088D0009B4B9C4A9C49002001F02EF9ABE79B4939
:1088E000002001F029F901228B4B52421A80984B4B
:1088F00001950093934A9749002001F01DF99AE7EA
:108900009549002001F018F9834B944A18880021FA
:10891000934BFFF763FC002800D0D1E02B0032001E
:108920009049002001F008F985E78F4B20001900DD
:108930000A2212310E30984607F0E4FF8B4B1B7968
:10894000DA0700D4B0E0002800D05EE741469A077D
:1089500000D5AFE000225B0700D45BE7002800D021
:1089600058E7834B57E7E3883A000093814900209A
:1089700001F0E2F85FE7A11D06227C4807F0D1FF75
:108980002B0032007C49002001F0D6F853E720226A
:10899000A25C237A029206220192023A009277495F
:1089A00000203A0001F0C8F8002375498B8002339B
:1089B0000B70594B1888FFF717FC002800D13AE7D5
:1089C0000022002107F00EF935E7029563886D4912
:1089D0000193009233003A00002001F0ADF82AE73D
:1089E000694B534C9A46694B6949994653464A46E6
:1089F0009B58F022120303950292934622680020AE
:108A0000019200933A00330001F096F82368002B9E
:108A100000D11EE74946524652585E49D21A8A4250
:108A200000D916E7494652465258594601930291D9
:108A3000009233003A0003955749002001F07CF87A
:108A4000354B1A88554B9A4250D04A4653469B584C
:108A50005A460395029222685149019200933A00C6
:108A60003300002001F068F84E49404601F02CF830
:108A70000823020004009A4312D002224A4BC31872
:108A800093430DD011280BD0484B984208D0484949
:108A9000002001F051F800220021200007F0A2F888
:108AA0000D20FFF7AFFBD4E69A0718D5002800D0B9
:108AB000AEE600213F4A5B0700D4ABE62C4BAAE6AA
:108AC0000022002107F08EF828E70022002107F09D
:108AD00089F8CFE60022002107F084F8F7E60021AC
:108AE00038E70022002107F07DF8E8E63B00324A33
:108AF0003249002001F020F8ABE6C046981602008B
:108B000078160200001C02004C1302004C240020C6
:108B1000D0230020F4110200642000208014020001
:108B20000C240020E024002040140200A8140200BD
:108B3000DC240020E4140200081502007413020073
:108B4000941302009C130200A4130200C01302003D
:108B500010180200D8130200FC1302001825002090
:108B600068200020201402009C240020C82300203C
:108B700020250020B8140200641402002C15020005
:108B800008250020601502000010014004050000C7
:108B90008C150200FFFF0E00C8150200FFFF000049
:108BA00004160200D8240020FECFFFFF013400008D
:108BB000B4170200C0240020A416020040160200D0
:108BC00030B5050085B00C00101E22D12378152B7E
:108BD0000CD0212B04D0142B02D0002005B030BDC6
:108BE000042229001E4807F09CFEF6E704231D4CD2
:108BF00001A928000293039403F0FCFD00280DD185
:108C00002368DB0712D4280003F0F8FD0028E4D025
:108C100007E00022002106F0E5FFD7E7124B98425B
:108C2000DBD00022002106F0DDFFD6E70F4B104A13
:108C300018880C21FFF7D6FA082302009A43E2D0E5
:108C400002220C4BC3189343DDD01128DBD00A4B12
:108C50009842D8D00022002106F0C4FFD3E7C046D6
:108C600008240020C0230020408000006420002051
:108C7000FFFF0000FECFFFFF0134000010B5154BD1
:108C80001888154B98421BD01321FFF79FFA002834
:108C90001AD1002001F0ACFA00280CD102F0E4FB5C
:108CA000002803D00022002106F09CFFFA2040009B
:108CB00004F0E8F910BD0022002106F093FFEDE773
:108CC000FFF782FA0028E4D00022002106F08AFF94
:108CD000DFE7C04664200020FFFF000070B50500FC
:108CE0000C000A780020044900F026FF280021002B
:108CF00006F0F6F870BDC046A0180200F8B51E00D8
:108D000002293AD0032925D0012900D0F8BD002A34
:108D100053D12C49002000F00FFF069B002B0AD0F6
:108D20003400294DF718227829000020013407F07B
:108D30003BFCA742F7D1254C2100002007F034FC72
:108D40003100069A002007F065F82100002007F0A6
:108D50002BFCDBE7002A26D11D49002000F0ECFEA9
:108D6000002320221B491C4805F0ECFE0028CDD032
:108D70000022002106F036FFC8E7002A18D1174963
:108D8000002000F0D9FE069B002B0AD034000E4DC7
:108D9000F718227829000020013407F005FCA742CB
:108DA000F7D10F4CC8E70F49002000F0C5FEADE732
:108DB0000D49002000F0C0FEA8E70C49002000F09B
:108DC000BBFEA3E7A01C0200BC1C0200B81C0200F2
:108DD0001C1D0200E8240020B8240020E01C020032
:108DE000FC1C0200001D0200C41C0200841C0200C6
:108DF00070B50D00160000200A000C4900F09CFE22
:108E00000B4C202200212000FFF7D0F9290032006E
:108E1000200007F086FD2021064805F071FF00289C
:108E200003D00022002106F0DDFE70BD0C19020007
:108E3000E8240020B824002010B5040002000E49E8
:108E4000002000F079FE082322009A4312D002226B
:108E50000A4BE31893430DD0112C0BD0084B9C42C6
:108E600008D00849002000F067FE00220021200001
:108E700006F0B8FE10BDC04678180200FECFFFFF16
:108E8000013400009018020010B5037884B004008B
:108E9000002B01D004B010BD0B4B3B211888FFF70D
:108EA00095F900280BD1094B01940293084B094A0C
:108EB00000930949094B002000F03EFEEAE700223A
:108EC000002106F08FFEEEE76420002098160200D5
:108ED00010180200481802005C1C02004018020032
:108EE000C12101221820194B890010B55A50184988
:108EF00058508021002049005850A021C9005A50E4
:108F00000730FFF779F900281BD103210720FFF76D
:108F100075F9002810D10720FFF76CF9002803D05D
:108F20000022002106F05EFE80220021074B520045
:108F30009950FF3A1A6010BD0022002106F052FE3F
:108F4000E9E70022002106F04DFEDEE70070004058
:108F50000405000010B5064A0649032001F010FB85
:108F6000002803D00022002106F03CFE10BDC046C0
:108F700005820100CD0C0000802210B5314B52005B
:108F80009958002900D110BD00219950A122FF203D
:108F9000D2009A58013102409620C00059605043D7
:108FA000FE3107F0C3FB4300C018274B80B2642199
:108FB000984211D9254802F0BDFB082302009A43CC
:108FC000E1D0234B9842DED0224B9842DBD00022E6
:108FD000002106F007FED6E71F4B984214D81F4A1F
:108FE00090421CD81E4B984223D81E4A0021904222
:108FF000E0D9181A8300C01A5531FF31400007F03C
:1090000095FB0630C1B2D5E7174B1B1A3A204042F8
:10901000584307F08BFB01006431C9B2CAE7181A44
:109020008300C01AA021C00007F080FB2A30C1B223
:10903000C0E71921101A494207F078FB1230C1B27B
:10904000B8E7C04600700040B70B0000D0230020F6
:109050000430000001340000540B0000B40A00008A
:109060008809000034080000B80B0000C12101226B
:109070001820194B890010B55A50184958508021B2
:10908000002049005850A021C9005A500730FFF76E
:10909000B3F800281BD103210720FFF7AFF8002801
:1090A00010D10720FFF7A6F8002803D000220021E6
:1090B00006F098FD80220021074B52009950FF3A9C
:1090C0001A6010BD0022002106F08CFDE9E70022A5
:1090D000002106F087FDDEE7007000400405000077
:1090E000F0B5DE464E4657464546E0B5A7B006F019
:1090F000F3FEE54EE54BE64AE6490020009600F017
:109100001BFD8023A3220121DB05D200995082227E
:10911000002052009850996099580029FCD00021F5
:10912000002099503300DC4ADC4900F005FD0023A3
:10913000DB4A0521002006F0F1FB002803D00022C5
:10914000002106F04FFDD74A0121D74806F058FC10
:10915000002803D00022002106F044FDD34A00215C
:10916000D34806F04DFC002803D00022002106F071
:1091700039FD3300C84ACF49002000F0DDFCFFF77D
:10918000E9FE3300C44ACC49002000F0D5FC00239E
:109190004822CA49082006F09FFD002803D000227B
:1091A000002106F01FFD16AC082200212000FEF76A
:1091B000FDFF012320002370FFF71AF8002803D0D9
:1091C0000022002106F00EFD0DAD2800FEF7FAFF8B
:1091D0008046002800D046E229000020FEF7F0FF7C
:1091E000B74806F09FFD002803D00022002106F0BA
:1091F000F9FCB44806F0A0FD002803D000220021AD
:1092000006F0F0FCA44AB0490020330000F094FCC2
:10921000AE4A0A21082006F03DF8002803D00022BB
:10922000002106F0DFFC002033009B4AA84900F033
:1092300083FCA84803F004FB002803D0002200218F
:1092400006F0D0FC05F032FB002803D000220021FC
:1092500006F0C8FC280003F00DFA002803D0002215
:10926000002106F0BFFC5D20002105226844FEF7C6
:109270009DFF0D236371063BA3710933E371964B88
:109280002100169301232371944B18009A4603F092
:109290006FFA002803D00022002106F0A3FC33005F
:1092A0007D4A8F49002000F047FC0F2301212A78D6
:1092B00028009A430A43134010228A49134311227B
:1092C0002B70FEF789FF002803D00022002106F052
:1092D00089FCC0204000FEF77BFF002803D000225D
:1092E000002106F07FFC082200212000FEF75EFF2F
:1092F0007D4B200016937D4B1793FEF76BFF0028E4
:1093000003D00022002106F06DFC794900203300D3
:10931000614A00F011FC08AB99464A46754B83CB75
:1093200083C2382200212000FEF740FF0223237071
:10933000013B9846A3700623E370033B23824B4610
:109340006D4A63616D490323002000F0F5FB242280
:1093500000212800FEF72AFF43462B7328232B61A8
:10936000233B6B6143462B76C8231B01EB61644BA7
:109370002A002B620023002100932000614B01F0A2
:10938000B3FA002803D00022002106F02BFC3300A2
:109390005D490020404A00F0CFFB5C4B03A80D93D1
:1093A0005B4B04935B4B03935B4B19009B4605F0AF
:1093B00027FB002803D00022002106F013FC574BA6
:1093C0002022984659460023404605F03FFC0028DD
:1093D00003D00022002106F005FC43460EAA83CBF1
:1093E00083C283CB83C203CB03C24D49002000F06C
:1093F000A3FB29004B4800F0A7FA002803D0002265
:10940000002106F0EFFB142200214846FEF7CEFEB5
:109410004A461123537393731374103B13714946D7
:1094200063334148137302F0C7F8002803D00022C9
:10943000002106F0D7FB402200212000FEF7B6FEF7
:109440003A49200002F074F83C210F230120625CAD
:109450009A430243134010221343635400223D23D6
:109460002000E25402F092FB002803D000220021E9
:1094700006F0B8FB05AD00210C222800FEF796FE91
:109480002B4B29006B6055E098160200281902004A
:109490009413020030190200001C02005819020047
:1094A000B0210020E18E010020190200D9860100C0
:1094B0002419020070190200881902007823002084
:1094C000B5870100A5870100A01902000021002036
:1094D000BC19020008240020C18B0100C423002015
:1094E000D8190200F81902005000A00004009001F1
:1094F0000C1A020040130200281A0200301A02005F
:1095000080510100DD850100501A0200F18D01003B
:1095100020000100FD8C0100B8240020E824002078
:10952000701A02000C240020D0230020841A0200AC
:10953000DD8C0100534B5448AB6006232B8002F0B6
:1095400049F9002803D00022002106F04BFB4F48C8
:1095500005F07EFD5346187805F080FD33004C4A37
:109560004C49002000F0E8FA1C2200212000FEF700
:109570001DFEA0239B026360F0231B03A360032353
:109580002373454B20006361444BA36101F030FF1E
:10959000002803D00022002106F024FB33003C4ABF
:1095A0003F49002000F0C8FA01213E4A002013780C
:1095B0000B43E1210B400C210B43CD210B401370D9
:1095C000072353700933937037493300304A00F052
:1095D000B3FAFFF74BFD33002D4A3449002000F069
:1095E000ABFA4022324B80211A60C123314A09066E
:1095F0009B00D1500020264A2F49330000F09CFAEE
:10960000E1210022C9042D4806F014FA002803D0F5
:109610000022002106F0E6FA33001D4A2849002006
:1096200000F08AFA032001F001FA33000400184A1E
:109630002449002000F080FA002C04D000220021F0
:10964000200006F0CFFA022000F0D2FD002805D15C
:1096500005F046FEFEF7D4FD0028F9D000220021D7
:1096600006F0C0FAF4E70022002106F0BBFA290058
:109670000020FEF7A5FD00220021404606F0B2FAC8
:10968000AEE5C046398E01004C2400207D8C0100DF
:10969000001C0200901A0200898E0100A1850100C1
:1096A000AC1A020018250020D01A0200F41A020099
:1096B00000E100E0006000401C1B0200E8230020E5
:1096C000301B0200501B0200A0DF7047A2DF704772
:1096D000A6DF704763DF704767DF7047F0B54E461F
:1096E000DE4657464546E0B5C3889BB0089343889D
:1096F0008E1D0793438904000693F38A0D0005939A
:109700000B0028331B7817000493B37F00200393CA
:109710004B88029313685E4A1B880193CB885D498E
:1097200000935D4B00F008FAEB8862899A4200D101
:1097300089E062889A4200D18AE0B378062B06D08D
:109740001BB03CBC90469946A246AB46F0BD0020FB
:10975000524900F0F1F9386803889A466388534506
:10976000EED153460022002B00D18EE00CAB9B467D
:10977000002305009C460A920B94AB886C88D21893
:10978000D2B2AE1D0A92002B76D06746211D5944F5
:109790008E427F415A46B8462F00101962460A375A
:1097A000B842524141461143092290469845BF4173
:1097B0007F420F423CD00100063A31430A4237D182
:1097C0001D1F99460300AD080135A900A8460027D2
:1097D00030001D000A9A08C8013708C5B845FAD8F4
:1097E0004B460A9275188B421AD02A7890461AAACC
:1097F00017194246781838380270481C48450FDA65
:109800006A78023190461AAA9146424648440419A1
:10981000383C22708B4203DDA878791838390870FB
:10982000F5185346002B29D02B880A9A9A46A4E7AC
:1098300000210A9A5C4468188079605401318B4297
:10984000F9DC0A92ECE71649002000F075F977E799
:1098500020351449002000F06FF9328B29000020D8
:1098600006F0D8FA1049002006F09EFE327EA36969
:1098700029002000984763E73500D2E70A9A0B9C3D
:10988000A3695946200098475AE70CAB9B46F7E777
:10989000B8180200801F0200B0180200F81F020072
:1098A000CC1F0200E41F0200541F020070B5150017
:1098B0000A8882B006000C00512A03D81A49930086
:1098C000CB589F460092194B194A1A49002000F0C4
:1098D00033F902B070BD2A002100FFF7FFFEF8E760
:1098E00001235B428382F4E71349002000F024F94E
:1098F000124B29002B603623AB80A088FFF7ECFECB
:109900000028E6D00022002106F06CF9E1E70C49BE
:10991000002000F011F9DCE7A2880A49002000F0DD
:109920000BF9A388B382D4E7381D0200001C0200A3
:10993000201F0200281F0200D01E02003025002038
:10994000F81E0200C01E0200F0B54E46DE46574625
:1099500045460123E0B55B42838208C90700836165
:1099600020231C3797B0040020223800994606F0C7
:10997000D8FF06A802004F4B62CB62C221001B68D1
:1099800012311360FFF7A6FE002806D017B03CBCCA
:1099900090469946A246AB46F0BDA37C04A98B70C5
:1099A000454B220001300B80FFF78EFE0028EDD1E1
:1099B00002AD280003220021FEF7F8FB11232B70D3
:1099C0001023984611236B700F3B9B461C220021ED
:1099D0000FA89A46AB70FEF7E9FB5A4643463C2176
:1099E00013436A46521813706A46A37C03AE9375FC
:1099F000324B00219382300003221495FEF7D6FBF0
:109A0000424601231343337053460AAD142200210A
:109A10002800B370FEF7CAFB05AB0A9353462B81AF
:109A2000AB81230020880A332A000FA96E60FFF75C
:109A30004DFE0028AAD11C2200210FA8FEF7B6FB7C
:109A40005A4608233C2113436A46521813706A464B
:109A5000A37C002193751A4B300093820322FEF7FA
:109A6000A5FB01220F23134042461343337001220A
:109A70000F231340424613437370534614220021B0
:109A80002800B370FEF792FB05AB0A934B462B817F
:109A9000AB814B466E602F613A00009309493B0051
:109AA000002000F049F8A31C20882A000FA9FFF726
:109AB0000DFE6BE7801E0200231500002515000037
:109AC00026150000901E0200F0B5C6461E27022390
:109AD00000B58CB008AC05000E006F4410220021C8
:109AE000200098463B80FEF761FB01230E4AA370DD
:109AF0006B89E6602380A760059242460492AA8A99
:109B0000337802927278039301920093074A084BCC
:109B10000849002000F010F8A88A2100FFF7D8FDBE
:109B20000CB004BC9046F0BD98160200201F020045
:109B300094130200581F02000EB430B50500C6B0E1
:109B400049AC08CC094A019302920092084B09499A
:109B500006A806F0EFFE05AA06A92800059406F05F
:109B6000C5FA46B030BC08BC03B0184798160200CE
:109B7000281A02000C2002008021A022090410B53E
:109B80000C00A120044BD205D358C0009C430B40CD
:109B900002491450535010BD040500000C0500008C
:109BA000F0B5DE4657464E464546E0B5040087B060
:109BB00011280FD0122800D1A0E0132800D1A1E075
:109BC000142800D1A2E007B03CBC90469946A246BA
:109BD000AB46F0BD00230025984601297AD0002924
:109BE00066D00229EFD1554B554A9B469A58554F9E
:109BF000554B39681B68002002938B005B1800935B
:109C00005249029B06F0D0FC5B4639684C4A9B588F
:109C10008A0052184C49096802915B1A9A4234D959
:109C200002AB9C464A4B0F249A4600239946444B6C
:109C3000644403934B4621004046237005F014FB17
:109C400023782A005146002006F0AEFC2378002B32
:109C5000B9D00026B54206D0F0B2210005F004FBD1
:109C60002378002BAFD10136042EF3D1322003F03C
:109C700009FA5B46039A39689A58334B1B6802937A
:109C8000D21A8B005B189A42D4D33249002006F0D6
:109C90008BFC6B005B19304DED186E78002E92D066
:109CA0002E4B1B68002B00D18DE7300098478AE7C8
:109CB0002B49002006F078FC2A4805F031FF6A00A5
:109CC000254B52199B189E78274B5B5DB34200D001
:109CD00079E7E3E72549002006F066FC1E4F6B009C
:109CE00098465B19FE5CFB185B78002B12D143464B
:109CF0005B19FF18BA781C4B5A55CFE70123012591
:109D000098466AE702230225984666E7032303255F
:109D1000984662E70A4B094A1248D2580A4B1A6021
:109D2000134B9946074B4A461B689900C91805F022
:109D300081FE0028DBD14B461C70D8E700100140A3
:109D400004050000942500206825002080210200E1
:109D5000AC210200C8210200B8250020E82500201F
:109D60004021020098250020F0250020002102005B
:109D70006C250020F8B5C54B1B68DB0700D4F8BD87
:109D8000C34A1478172CFAD8C249A300CB589F466F
:109D90008021A022C9030C00A120BF4BD205D358BB
:109DA000C0009C430B40BD4914505350BC4B002293
:109DB0001B68BC489900C91805F03CFEDFE7A023EA
:109DC000F021B64ADB05490499500021043A995024
:109DD000D5E78021A022C9030C00A120AE4BD205FB
:109DE000D358C0009C430B40AC4914505350AC4B6B
:109DF00000221968AB4805F01DFEC0E7AA4BA12060
:109E00001968E0235B048B43A0210026C905C0002C
:109E1000A24C0B50A04B0E51CD58F0235B046B406D
:109E20008025AD032B4000D128E10D5008230E51B1
:109E3000032111709A4A9B4811680022594305F08A
:109E4000F9FD9CE7984BA1201968E0235B048B4344
:109E5000A0210026C905C000904C0B508E4B0E511E
:109E6000CD58F0235B046B408025AD032B4000D11F
:109E7000FFE00D5028230E510421DAE7A023A12290
:109E8000E021DB05D2004904802499500021834859
:109E9000A40319501C50995071E7844D280005F017
:109EA0003FFE11231C1B00D1C8E0002800D0C5E0F4
:109EB00080237D4E1B043360012C0FD0C8306421F9
:109EC000604306F0A9FB764B002219684143280045
:109ED00005F0B0FDF022336852041340A0226F4910
:109EE000D2055350A1230021DB00D15047E76E4B30
:109EF000A1211A68F0235B049343A022C900D20574
:109F000053500021654BD15039E7674BA1201968A8
:109F1000E0235B048B43A0210027C905C0005F4DEF
:109F20000B505D4B4F51CE58F0235B04734080269D
:109F3000B603334000D190E00E5028234F51022C3D
:109F400079D0147076E7A023A122C021DB05D200CE
:109F50004904C024995000215048E40319501C5072
:109F600099500CE7A023A122D021DB05D20049049F
:109F70008024995000214948E40319501C509950FD
:109F8000FDE6A023F021A122DB054904D20099506F
:109F90000021424A9950F2E6E022434B52041B68EA
:109FA000A1219A43A023C900DB0580245A50002236
:109FB0003A48A4031A501C505A50E0E63A4BA120EC
:109FC0001968E0235B048B43A0210026C905C0006B
:109FD000324C0B50304B0E51CD58F0235B046B408C
:109FE0008025AD032B4041D00D500E510523137039
:109FF0002B4B002219682B48490005F01BFDBEE6DB
:10A00000294BA1201968E0235B048B43A021002683
:10A01000C905C000214C0B501F4B0E51CD58F023E9
:10A020005B046B408025AD032B402CD00D500E51AE
:10A0300006231370DBE6163B1470FBE6F0231A4A86
:10A040005B041168A1200B40A021C000C9050B5082
:10A05000002312480B50136091E64E510B5004231D
:10A06000022C00D06DE7023B1470E3E60D510B505B
:10A07000BCE70D510B5004230421DAE60D510B50BF
:10A0800002230321D5E60D510B50D1E7C425002052
:10A09000EC25002020200200040500000C05000033
:10A0A00094250020C825002070250020742500205C
:10A0B000F0B5DE4657464E464546E0B5037889B0D2
:10A0C000112B0FD0122B00D173E0132B00D174E0B1
:10A0D000142B00D175E009B03CBC90469946A246CD
:10A0E000AB46F0BD002303930593384B384F9B4696
:10A0F000384B39689A465B4652469A588B00364E22
:10A100005B18009333683549002006F04DFA5B4632
:10A11000524639689A583368D21A8B005B189A42B3
:10A1200034D204AB9C462E4B0F249946002398460C
:10A1300053460493059B64449A4643462100039882
:10A14000237005F091F8237852464946002006F026
:10A150002BFA2378002BBED00025554506D0E8B257
:10A16000210005F081F82378002BB4D10135042DAE
:10A17000F3D1322002F086FF5B46049A39689A5880
:10A180003368D21A8B005B189A42D6D31549002047
:10A1900006F00AFA059A144D944653006344ED18EC
:10A1A0006878002897D0114B1B68002B93D09847F4
:10A1B00091E701230393059397E702230393059304
:10A1C00093E70323039305938FE7C04600100140F4
:10A1D000942500200405000068250020802102004D
:10A1E000AC210200C8210200B8250020E82500208B
:10A1F00070B5DA4B04001B680020DB0700D470BD8B
:10A20000172CFCD8D64AA300D3589F468021A02201
:10A21000C9030C00A120D34BD205D358C0009C43E6
:10A220000B40D14914505350D04B00221B68D048EA
:10A230009900C91805F0FEFBE1E78021A022C903BF
:10A240000C00A120C74BD205D358C0009C430B4043
:10A25000C54914505350C54B00221968C44805F035
:10A26000E9FBCCE7C34D280005F05AFC11231C1B69
:10A2700000D14BE1002800D048E18023BE4E1B04F2
:10A280003360012C0FD0C8306421604306F0C4F95C
:10A29000B64B002219684143280005F0CBFBF022A1
:10A2A000336852041340A022AF49D2055350A12372
:10A2B0000021DB00D150A2E7A023F021A122DB0581
:10A2C0004904D20099500021A74A00209950122237
:10A2D000AA4B1A7093E7A023A122E021DB05D2004C
:10A2E00049048024995000219F48A40319501C5010
:10A2F00099501322A14B00201A7080E7A023F0216F
:10A30000994ADB05490499500021043A99509B4B26
:10A3100000201C7073E7984BA1211A68F0235B049E
:10A320009343A022C900D205535000238E49002038
:10A330005350924A137062E78F4BA1211A68E023B1
:10A340005B049343A0220026D205C90086485350DF
:10A35000844B1650D558F0235B046B408025AD0329
:10A360002B4000D1E9E0555028231650022C00D193
:10A37000F2E0824A14707D4A7D48116800225943F8
:10A3800005F058FB3BE7A023F021774ADB054904A1
:10A3900099500021043A99500C22784B00201A70F1
:10A3A0002DE7A023A122D021DB05D200490480247F
:10A3B000995000216C48E40319501C509950142204
:10A3C0006E4B00201A701AE76B4BA1211A68E0232C
:10A3D0005B049343A0220025D205C9006248535074
:10A3E000604B1550D458F0235B0463408024A403D1
:10A3F000234000D199E054500823155003211AE05E
:10A400005D4BA1211A68E0235B049343A022002541
:10A41000D205C90054485350524B1550D458F0231C
:10A420005B0463408024A403234000D18DE02823F3
:10A43000545015500421514A11709CE7E0224E4BB4
:10A4400052041B68A1219A43A023C900DB05802484
:10A450005A5000224448A4031A501C505A50474BEB
:10A4600007321A700020CAE6A023A122C021DB0512
:10A47000D2004904C024995000213B48E4031950FC
:10A480001C50995015223D4B00201A70B7E63A4BEC
:10A49000A1211A68E0235B049343A0220025D20582
:10A4A000C900314853502F4B1550D458F0235B044A
:10A4B00063408024A40323403CD05450155005220F
:10A4C0002E4B2B481A70294B00221968490005F0C1
:10A4D000B1FA94E6284BA1211A68E0235B04934368
:10A4E000A0220025D205C9001F4853501D4B15500E
:10A4F000D458F0235B0463408024A403234028D075
:10A500005450155006221D4B1A70A4E6F0231A4A27
:10A510005B041168A1240B40A021E400C9050B5184
:10A520000023114C0B51136069E614505350022361
:10A53000032180E714505350C1E7155053500423B2
:10A54000022C00D015E7023B13E7145053500423AC
:10A5500070E714505350D5E7163B0AE7C425002096
:10A5600080200200040500000C0500009425002056
:10A57000C82500207425002070250020EC2500202F
:10A58000224B10B51960224B04001860214B1A6051
:10A59000830710D5204B214A21481A60214A5A606E
:10A5A000214A9A604A08042104F0EEFD002820D0D8
:10A5B000E30703D410BD0020E3070DD5A023F0224C
:10A5C000A1210024DB055204C9005A5017495C50F0
:10A5D0000C315A500028EDD1154A0021154805F0DC
:10A5E0000FFA0028E6D1144A0121144805F008FAB0
:10A5F000E0E704F021FE0028DAD1114A00211148D9
:10A6000005F0FEF9E307D9D4E4E7C046942500201D
:10A61000C4250020E8250020B82500200D110D0ECE
:10A62000E0200200120E0F130F1014100C05000092
:10A63000759D010014220200799B01000C2202008A
:10A64000B1A001001022020073DF7047F0B59C4EEC
:10A6500087B0072200213000FDF7A8FD994D6B78E7
:10A66000002B67D0984F3C78012C05D0AB78002B9D
:10A6700000D1E8E0022C0FD1944B1B68002B00D1D5
:10A6800013E10121924A0820117098473C78012C6F
:10A6900000D1DCE0022C58D02B7B002B01D1032C05
:10A6A00074D02B7E002B02D1042C00D100E1874B0B
:10A6B0001B68002B02D0E21E012A72D90022854BB2
:10A6C0001A70182200216846FDF770FD022C00D197
:10A6D0008BE074D9032C00D194E0042C22D16B467A
:10A6E000AA8B1A822A8C5A827B4B1A79002A00D1B3
:10A6F000CCE02A78002A00D1CCE0784A1278002AEF
:10A7000000D0C7E0694603930423023274480A72FA
:10A710000021C37000F0B0FD002864D10622714B07
:10A720003C781A70002C51D1684B1B68002B56D115
:10A73000002058E0644FAB783C78002BA7D0022C67
:10A740009AD0012CA8D102233B70AB78002B17D0F4
:10A750007378002B00D0B1E0B378002B00D0ADE0CF
:10A76000F378002B00D0A9E03379002B00D0A5E0CE
:10A770007379002B00D0A1E0B379002B00D09DE0CD
:10A7800003233B702B7B002B00D07DE004233B7028
:10A790002B7E002B00D18BE04C4B04241B68002B3C
:10A7A0008CD02A78002A89D04C4A1278002A85D188
:10A7B0000121484A0720117098473C7881E7012C15
:10A7C000B0D16B461C70474B01961C706846FFF772
:10A7D0003BFF002807D13D4B1B68002BA8D0414A06
:10A7E00010789847002007B0F0BD01236A46137027
:10A7F0006B462A8901965A826A466B681382394BE6
:10A800001C70E3E76B46AA8A5A822A8A1A82324B64
:10A810001A79002A42D02A78002A42D02F4A127888
:10A82000002A3ED169460393042302322C480A725F
:10A830000021C37000F020FD0028D4D10522294B4F
:10A840003C781A706EE7022C00D025E798E76B7809
:10A85000002B00D177E77378002B00D027E7B3787F
:10A86000002B00D023E7F378002B00D01FE73379CB
:10A87000002B00D01BE77379002B00D017E7B379CA
:10A88000002B00D15FE712E7032410E71A7B002AB0
:10A8900000D02EE70422134B1A7097E71A7B002A88
:10A8A000B9D103220F4B1A7090E7094A1370EEE6F4
:10A8B00000230C4A3B7013700024FFE60224F6E6E6
:10A8C00090260020F8250020F52500205C26002099
:10A8D0008C260020DC260020CC260020DD2600204F
:10A8E0001C260020F4250020F8B504000E000E20E0
:10A8F000002C00D17BE0002A79D000203C49087070
:10A900003C490B6006993C4B19603C490B0023CA3B
:10A9100023C323CA23C323CA23C3072200213848E1
:10A92000FDF744FC374B384A384D1A60384A00214D
:10A930009A6028003822FDF739FC237822002B701A
:10A94000A3781032AB70E378EB7063786B702B00F8
:10A95000103303CA03C32B00103A083303CA03C3DE
:10A960002B000832183303CA03C3636A002B11D0CB
:10A97000284B294F6B62616A9F600A881A80888819
:10A980009880002806D000238A68D25CFA540133EC
:10A990008342F9D1A36A002B14D0204B204FAB6225
:10A9A000A06A9F608188998002881A80002300290C
:10A9B00005D08268D25CFA5401338B42F9D12C2342
:10A9C000E25CEA54236A002B06D0164B2B62226A03
:10A9D0005188598012881A806368002B03D0124B6B
:10A9E0006B6063686B603100280000F045FCF8BDC7
:10A9F000F52500205C26002058260020F8250020A0
:10AA000090260020CC260020E02600201C260020D6
:10AA100000270020802600206026002098260020A5
:10AA2000A4260020C4260020C826002010B500243B
:10AA30000B4B82B0187001A8019404F0B3F90828F8
:10AA400009D0002805D1019B002B05D00122054B20
:10AA50001A7002B010BD0194FFF7F8FDF9E7C04687
:10AA6000F52500205426002030B5038883B0112B33
:10AA70001ED0192B07D0102B01D003B030BD828817
:10AA80002D4B1A80F9E78479002CF6D12B4B1D78D9
:10AA9000022D4ED038D9032D23D0042DEDD1284BD3
:10AAA0001C70284B1B68002BE7D000209847E4E778
:10AAB0000024254B1C70204B82881B889A42DCD1D5
:10AAC00001251E4B01A81D70019404F06BF90828A4
:10AAD00024D0002827D1019B002B20D01B4B1D70B8
:10AAE000CBE7174A1570042201A81A70019404F0EC
:10AAF00059F9082812D0002815D1019B002B0ED03F
:10AB00000122124B1A70B8E7012DB6D1022201A81A
:10AB10001A70019404F046F90828DAD10194FFF77D
:10AB200095FD0028A9D00A4B1B68002BA5D098479B
:10AB3000A3E70322D8E7C04680200020F5250020A7
:10AB4000F42500205C260020DD260020542600206D
:10AB50005826002030B5023883B0012803D8104CA5
:10AB60002378002B01D103B030BD002501A825704A
:10AB7000019504F017F9082807D000280AD1019B95
:10AB8000002B03D001232370EDE70195FFF75EFD55
:10AB90000028E8D0034B1B68002BE4D09847E2E77D
:10ABA000542600205826002071DF704772DF70475E
:10ABB00079DF70477DDF704765DF7047F0B5DE46AF
:10ABC00057464E464546E0B587B09B4610AB91468A
:10ABD00004CB07001B8802910193138890460393CE
:10ABE0000388002B00D16EE000239A4604AB0024BA
:10ABF000DD1C03E03B880134A3422EDD7B68A1000D
:10AC00009C460422614405A805F08BFE0022290021
:10AC100005A8FFF7D1FF061E2BD12B784B45E9D1B4
:10AC20005346002B2DD043461A884B460199D31822
:10AC30008B421DDC5A44290005A8FFF7BDFF002800
:10AC40003BD142462B78128801349B184246138030
:10AC500001239A463B88A342D0DC5346002B32D0D6
:10AC600043461B88039A013B9B1A9BB2FF2B26D9B4
:10AC70000C26300007B03CBC90469946A246AB4635
:10AC8000F0BD43464A461B8801999A1802328A420F
:10AC9000EEDC4246013369469BB213805A46097A7C
:10ACA00005A8D15443461A882900013292B21A806D
:10ACB0005A44FFF781FF0028C3D00600D9E71100EE
:10ACC0005A465354D5E70026D3E7C046F0B5574659
:10ACD0004E464546DE460023E0B517881380436B99
:10ACE00087B006000D001400002B00D1E2E0022F17
:10ACF00000D8D7E01A7802230B7011212388013382
:10AD00009BB22380E954238801339BB22380EA5409
:10AD1000238801339BB22380326B002A00D170E07C
:10AD200019001231B94200D9BCE01121E95423883D
:10AD3000013901339BB22380E954238801339BB24C
:10AD40002380D17BE954238801339BB22380917BFC
:10AD5000E954238801339BB22380517BE954238833
:10AD600001339BB22380117BE954238801339BB2CA
:10AD70002380D17AE954238801339BB22380917ACE
:10AD8000E954238801339BB22380517AE954238804
:10AD900001339BB22380117AE954238801339BB29B
:10ADA0002380D179E954238801339BB223809179A0
:10ADB000E954238801339BB223805179E9542388D5
:10ADC00001339BB223801179E954238801339BB26C
:10ADD0002380D178E954238801339BB22380917872
:10ADE000E954238801339BB223805178E9542388A6
:10ADF00001339BB223801278EA54238801339BB23B
:10AE000023802E22B25C002A56D12D22B25C002A69
:10AE100000D072E0B278002A00D09BE0F278002ADD
:10AE200013D0D91CB9423DD80221E95423880139F5
:10AE300001339BB22380E954238801339BB22380E2
:10AE4000EA54238801339BB223807268002A14D00D
:10AE5000D91CB94226D802211278E9542388083136
:10AE600001339BB22380E954238852B201339BB251
:10AE70002380EA542388013323803389002B00D0B8
:10AE800092E1338A002B00D0AAE1338B002B00D053
:10AE9000C0E1336A002B00D1BFE02288911DB94286
:10AEA00000D878E00C2007B03CBC90469946A246FA
:10AEB000AB46F0BD00232FE7D91CB942F2D80221DE
:10AEC0001C20E954238801339BB22380E854238853
:10AED00001339BB22380022A00D1BAE100D8B3E14A
:10AEE000032A00D1B8E1042A00D077E10322EA5412
:10AEF000238801339BB2238087E709330C20BB42B0
:10AF0000D1D804A8FFF750FE0028CCD1082223880E
:10AF10000921EA542388133201339BB22380EA5477
:10AF200002AB9C462088153A013080B220806144F3
:10AF3000281805F0F6FC238802AA0633127A9BB281
:10AF40002380002A00D00122EA54238801339BB2D7
:10AF500023805FE704330C20BB42A4D804A8FFF78A
:10AF600027FE00289FD103222388EA542388163223
:10AF700001339BB22380EA54238802AA01339BB297
:10AF800012892380EB181A70120A5A702388023330
:10AF90009BB2238042E719888A46052900D81DE123
:10AFA000B248504480B28046B1488446804500D8BB
:10AFB00014E158888146052800D80FE1AB4869465E
:10AFC0008046C8444046C881C889604500D805E12C
:10AFD000A848824504D0814502D0CA4500D9FDE089
:10AFE0000521A95422880D31013292B22280A95440
:10AFF0002288013292B222801988AA181170090A97
:10B0000051702288023292B222805988AA18117097
:10B01000090A5170238802332380736A9846002BF3
:10B0200030D0998820888A1C831C9B18BB4200D989
:10B0300038E7FE2A00D935E7FF2203312954238857
:10B0400001339BB22380EA544246238801339BB2EA
:10B0500023801288EB181A70120A5A70434620880F
:10B06000023080B220809A88002A0BD0996800298B
:10B0700000D1B3E0281805F054FC4246238892889A
:10B080009B1823802C23F35C002B3BD133780020CA
:10B09000002B00D107E732880720012A00D102E700
:10B0A0002288901CB84200D9FCE6012B05D17378A8
:10B0B00002339B189F4200D2F4E6023FBA1A04AF53
:10B0C00093B22818390098463B80FFF773FD00289B
:10B0D00000D0E8E63378022B00D1BFE0012B5ED030
:10B0E00043460821FE2B00D9DCE622885E1CAE54C4
:10B0F0002288013292B22280A954228801329B1800
:10B100002380D0E6B36A9846002B67D09B88023331
:10B11000FE2B00D9C6E60022914616329246163220
:10B12000208893460CE04B46B26A5B0090464B4445
:10B130009B00984443469B880233FE2B00D9B1E61E
:10B14000524601332B54238801339BB22380EA54A7
:10B150004246238801339BB223801288EB181A7071
:10B16000120A5A7043462088023080B220809A88A2
:10B17000002A0BD09968002930D0281805F0D1FB9F
:10B18000434620889B88C01880B220804B460133FC
:10B19000DBB299465B46F35C4B45C4D876E77378DF
:10B1A00098459ED243469CE708239846B0440197B1
:10B1B00000942B00022202214046FFF7FFFC0028EA
:10B1C00000D070E6019700942B0010220621404623
:10B1D000FFF7F4FC002800D153E664E6072062E69E
:10B1E00010239846B044019700942B0002220321BB
:10B1F0004046FFF7E3FC002800D054E60197009496
:10B200002B00102207214046FFF7D8FC002800D170
:10B210003BE648E618239846B044019700942B007B
:10B22000022214214046FFF7C9FC002800D03AE66C
:10B23000019700942B00102215214046FFF7BEFC19
:10B24000002800D125E62EE6012AC7D10022EA54C3
:10B250004EE60122EA544BE6E95449E63B880921CF
:10B26000984500D33EE743463BE7C0467FF3FFFFE8
:10B270007DF30000FFFF000030B593B01F236A4646
:10B280000C009380D380002822D0C3785B071CD5A4
:10B2900001AA02A9FFF71AFD02AD002816D1002C61
:10B2A00019D0E378002B10D16B460AA99A1D200013
:10B2B000FFF70CFD002809D16B469B790AAA694665
:10B2C00028000979FFF772FC00E0072013B030BDB9
:10B2D00090800025E3E76B460022DC800023EEE748
:10B2E00075DF704776DF70477ADF70477BDF704726
:10B2F00010B5184B82B01888174B984214D0174AD3
:10B30000174C13780133DBB21370217B99420DD2B5
:10B3100000231370237C002B12D16369002B03D010
:10B32000002201A80270984702B010BD0D49FFF736
:10B33000D7FF0028F8D0A369002BF5D09847F3E792
:10B340003B21FFF7CFFF0028E7D0A369002BE4D013
:10B350009847E2E722270020FFFF00007027002027
:10B36000242700206827002030B51B4B1B4A5B8830
:10B37000118883B099420FD852889A420CD3184B47
:10B380005B69002B03D0012201A802709847154C7D
:10B390000023237003B030BD124C2378002B08D05B
:10B3A0000F4B5B69002BF3D0002201A80270984775
:10B3B000EEE70D4B0A4D1B78002B0BD0A96800223D
:10B3C0000A4804F037FB0028E2D0AB69002BDFD03D
:10B3D0009847DDE76968F2E76027002068270020CA
:10B3E000242700202027002070270020402700204D
:10B3F000164902000B0070B532CA32C332CA32C3DA
:10B4000012681A600022124B01681A70002916D0C7
:10B41000104C0832200005F084FA2000FFF764FF8A
:10B4200000280BD101220C4B52421A8000220B4BF8
:10B4300000211A700A480B4A04F0E2FA70BD054870
:10B44000FFF754FF0028EDD0F8E7C046242700207E
:10B4500020270020682700202227002070270020B6
:10B4600018220200F1B2010010B5024804F058FBA6
:10B4700010BDC0464027002010B50388112B35D0E1
:10B4800021D9122B17D0502B1CD1214CC288E38913
:10B490009A4217D1C38B022B14D11E33C35CDB0736
:10B4A0000ED41C4804F03CFB00280BD0A369002BF1
:10B4B00008D0984706E0811D0822174805F031FAA8
:10B4C000FFF752FF10BD102BFCD101008288134BF7
:10B4D00016311A801048082205F023FA0022104B7A
:10B4E0001A700B4BDB89002BECD1E9E701220B4BE7
:10B4F00052421A8000220A4B06481A7004F010FBD0
:10B500000028DFD0024B9B69002BDBD09847D9E79E
:10B510002427002040270020602700202227002029
:10B52000702700200B7803704B784370022070471F
:10B5300070B5040008000D0005F01EFA656020805B
:10B5400070BDC046A0DF7047A2DF7047A3DF704721
:10B55000A4DF7047A6DF704730B583B0002808D05D
:10B56000002906D00B88112B22D0502B03D0102B92
:10B570001BD003B030BD037D002BFAD0CA884389AD
:10B580009A42F6D1CB8B022BF3D10468002CF0D079
:10B5900020221F33CB5C8A5C1B021A43012301ADBE
:10B5A00093432B702900A047E3E78B884382E0E7B1
:10B5B00001235B424382DCE7F0B557464E46DE4648
:10B5C0004546E0B5070095B00E000E20002F14D0C0
:10B5D000002912D00B680D383B6001235B427B824F
:10B5E0000A7906A93B7402338B704F4B3A753A1DAA
:10B5F0000B80FFF7A7FF002806D015B03CBC904693
:10B600009946A246AB46F0BD3B7D002B6CD10DABFD
:10B610009A461C2218000021FCF7C8FD534602225E
:10B620001B78002413435246137053465C61012378
:10B630009B465A4602AB9A753C4B05AD02AA9382D3
:10B64000002103222800FCF7B1FDB37B08AC2B706E
:10B65000F37B02AA6B700223AB709946337B002107
:10B66000D37020001422FCF7A1FD07AB08935B46C2
:10B670002381A38102AB033323616560BB1DB888BE
:10B6800022005146FFF760FF0028B6D1B368984604
:10B69000002B47D0012302AA9375254B00219382EA
:10B6A00028000322FCF782FD337C03AE2B704B464F
:10B6B00041463000AB70FFF735FF80461422002171
:10B6C0002000FCF773FD07AB6A4623604346D38036
:10B6D000D0883A0065602081A08126610E32F8880A
:10B6E0002100FFF733FF88E704AC0322002120008C
:10B6F000FCF75CFD102501232B432370737B1C2278
:10B70000637002239846A3700DAB9A46180000217F
:10B71000FCF74CFD534642461B78134352462B43DD
:10B72000137082E7F88168E70F180000192A0000FB
:10B730000829000070B588B06B460400DD1DD97182
:10B74000002820D0027CCBB200209A4219D00822D7
:10B75000002102A8FCF72AFD6A4601231381E18833
:10B76000608A02AA0395FFF7F3FE002809D12B781F
:10B77000658A2374104B08309D4202D0237D002B34
:10B7800003D108B070BD0E20FBE704AE10220021EB
:10B790003000FCF70BFDE388310033800123B370E8
:10B7A0006B465B892800B38002ABB360039BF360F8
:10B7B000FFF7D0FEE5E7C046FFFF0000A0DF7047BF
:10B7C000A2DF7047A5DF7047A6DF7047A8DF70478C
:10B7D00063DF7047F0B54546DE4657464E46E0B556
:10B7E000040095B00D000E20002C17D0002915D0B4
:10B7F0004B68002B12D0012304A802005B42238077
:10B80000624BC2CBC2C21B680A2113606A46604BFE
:10B8100069441381FFF7DCFF002806D015B03CBC5B
:10B8200090469946A246AB46F0BD221D02A90130C2
:10B83000FFF7C4FF0028F1D16B469E7A1C22A67147
:10B8400000210DA8FCF7B2FC34216A4604235218EB
:10B8500003AF1370BE704F4B01AE032200213000C6
:10B860003B80FCF7A3FC0F23994610239846112335
:10B87000737002239B4601239A460323142200215E
:10B8800008A8B370FCF792FC14236A469385230042
:10B89000A088083308AA0DA908970996FFF790FF1A
:10B8A0000028BBD11C2200210DA8FCF77FFC4246DA
:10B8B0000823342113436A4652181370A3790322D4
:10B8C000BB70354B002130003B80FCF76FFC5246CB
:10B8D0004B4613404246134373705B46DBB213433F
:10B8E00052460021134308A81422B370FCF75EFCF3
:10B8F00017236A4693852300A088103308AA0DA950
:10B9000008970996FFF75CFF002800D086E71C2205
:10B9100000210DA8FCF74AFC34226B469B185A46BE
:10B920001A70A3790322BB701C4B002130003B80AE
:10B93000FCF73CFC52464B461340424613433370DF
:10B940005A4653460021134308A81422B370FCF74B
:10B950002DFC6B4602221A8502229A852300A088BC
:10B96000203308AA0DA9089709960C95FFF728FF20
:10B97000002800D052E76B68A362AB68002B00D0B0
:10B98000E3620122064B1A7048E7C04640220200DB
:10B99000301500003215000031150000341500008C
:10B9A00071270020F0B5040087B000280AD0058870
:10B9B000124B08209D4203D0114B1B78002B03D162
:10B9C00007B0F0BD0E20FBE710230E4F02AD3B7019
:10B9D0006B469E1D03237970BA7000211022280047
:10B9E0003380FCF7E3FB238A20882B800123290086
:10B9F000AB70AE60EF60FFF7E7FEE1E7FFFF00002E
:10BA00007127002074270020F0B5C64600B5040059
:10BA100088B00D00002813D0002911D0826A002AB6
:10BA20000ED00B88112B21D00ED9502B11D0512BB9
:10BA300006D18B79022B03D10A89038A9A4219D045
:10BA400008B004BC9046F0BD102BF9D18B88038060
:10BA5000F6E7C98803899942F2D1082304A90B703B
:10BA6000EB8B20350B724D609047E9E701235B4279
:10BA70000380E5E78B7A043B022BE1D90223984649
:10BA800001AE0822002104AF30003B70FCF78EFBB2
:10BA9000434633806B46A18A208832007360FFF7EB
:10BAA00091FE002811D0E36A002B00D09847FE23B6
:10BAB0002088FF333900BB80FFF788FE0028BFD005
:10BAC000E36A002BBCD09847BAE76B461B78DB07CC
:10BAD000EDD5B88039002088FFF778FE0028EFD137
:10BAE0002223E95C082934D8254A8B00D3589F4685
:10BAF0002B8C022B38D92423EA5C013BEB5C12022D
:10BB00001343B3805A425341063333703100A36A62
:10BB10002000984794E70923F7E70223F5E701237C
:10BB200033702A8C9A4219D9233533727560A36A0F
:10BB300031002000984783E7002333702B8C012BC2
:10BB400018D90123F0E70423DFE70523DDE703230A
:10BB5000DBE703222000FFF725FFAFE706220221E3
:10BB60002000FFF71FFFA9E7032208212000FFF7AD
:10BB700019FFA3E7062201212000FFF713FF9DE72D
:10BB80001C220200A0DF7047A2DF7047F0B5DE463E
:10BB900057464E4645460123E0B595B004A98B7043
:10BBA000DE4B80460B80DE4B01201A009A46FFF7E1
:10BBB000E9FF8146002800D0F2E043461F88002FAD
:10BBC00000D031E143461F89002F00D06AE143468F
:10BBD0001F8A002F00D0BDE143461F8B002F00D0ED
:10BBE000F3E143461F8C002F00D029E243461F8D0E
:10BBF000002F00D0DCE043461B6B002B45D01A78A9
:10BC000006AC22701A680021120A62705A88022556
:10BC1000A270DA7805AFE2701A7903AE22719B68E0
:10BC20001A0A63711B0CE3710DAB9B46A2711800DD
:10BC30001C22FCF7BBFA5B461D700123BB70B94B9D
:10BC40000322002130003B80FCF7B0FA42463C233F
:10BC5000D35C0021337043463C335B78B57008AD4C
:10BC6000142228007370FCF7A1FA08232B81AB8102
:10BC700053462A0018885946AB4B08976E602C61D2
:10BC8000FFF782FF002800D0CCE043465B6B002B1F
:10BC900041D01A6801921B799B46002A00D116E216
:10BCA0005B46002B04D100220021002003F09AFF04
:10BCB0000DAF1C2200213800FCF778FA0123022482
:10BCC00006AE05ADB370994B0322002128003C70ED
:10BCD0003380FCF76BFA42463C23D35C00212B7087
:10BCE00043463C335B78AC7008AC142220006B7088
:10BCF000FCF75CFA5B462381A381019B2200236150
:10BD00005346390018888A4B08966560FFF73CFF58
:10BD1000002800D086E043469B6B002B40D01A7869
:10BD200006AC22705A8800216270120AA2709A88AA
:10BD30000226E270120A2271DB881C2263711B0A40
:10BD4000A3710DAB99461800FCF730FA4B461E70F4
:10BD5000012305AF03ADBB70764B03220021280001
:10BD60003B80FCF723FA42463C23D35C00212B7036
:10BD700043463C335B78AE7008AE142230006B70E3
:10BD8000FCF714FA07233381B381534649461888D8
:10BD90003200694B089775603461FFF7F5FE814604
:10BDA000484615B03CBC90469946A246AB46F0BD0D
:10BDB0004346DB6A0193002B00D19FE10DAB9B460C
:10BDC0001C2200211800FCF7F1F902245B461C70CC
:10BDD000012306AE05ADB370584B032200212800A5
:10BDE0003380FCF7E3F942463C23D35C00212B70FF
:10BDF00043463C335B78AC7008AC142220006B7077
:10BE0000FCF7D4F9019B2200236153465946188858
:10BE10004B4B089665602781A781FFF7B5FE002888
:10BE200000D1E8E68146BBE743465B680193002BFF
:10BE300000D140E10DAB9B461C2200211800FCF70D
:10BE4000B5F902245B461C70012306AE05ADB37044
:10BE50003C4B0322002128003380FCF7A7F942461F
:10BE60003C23D35C00212B7043463C335B78AC70A1
:10BE700008AC142220006B70FCF798F9019B22009B
:10BE800023615346594618882F4B089665602781D1
:10BE9000A781FFF779FE0028C4D143461F89002FF0
:10BEA00000D194E64346DB680193002B00D108E102
:10BEB0000DAB9B461C2200211800FCF777F90224E9
:10BEC0005B461C70012306AE05ADB3701F4B032209
:10BED000002128003380FCF769F942463C23D35CFB
:10BEE00000212B7043463C335B78AC7008AC1422C5
:10BEF00020006B70FCF75AF9019B22002361534626
:10BF000059461888124B089665602781A781FFF76C
:10BF10003BFE002800D15AE684E7C0460A1800001C
:10BF2000B4270020232A0000C02700202A2A00006E
:10BF3000A4270020502A00009C270020282A000067
:10BF4000B8270020292A00008C270020242A00007E
:10BF50009427002043465B690193002B00D1BBE08E
:10BF60000DAB9B461C2200211800FCF71FF9022490
:10BF70005B461C70012306AE05ADB370624B032215
:10BF8000002128003380FCF711F942463C23D35CA2
:10BF900000212B7043463C335B78AC7008AC142214
:10BFA00020006B70FCF702F9019B220023615346CD
:10BFB00059461888554B089665602781A781FFF779
:10BFC000E3FD002800D107E62CE74346DB69019337
:10BFD000002B00D186E00DAB9B461C2200211800EF
:10BFE000FCF7E4F802245B461C70012306AE05ADA5
:10BFF000B370474B0322002128003380FCF7D6F8AA
:10C0000042463C23D35C00212B7043463C335B7893
:10C01000AC7008AC142220006B70FCF7C7F8019BD1
:10C02000220023615346594618883A4B08966560AA
:10C030002781A781FFF7A8FD002800D1D1E5F1E60F
:10C0400043465B6A0193002B52D00DAB9B461C22EA
:10C0500000211800FCF7AAF802245B461C7001239B
:10C0600006AE05ADB3702C4B0322002128003380AF
:10C07000FCF79CF842463C23D35C00212B704346DE
:10C080003C335B78AC7008AC142220006B70FCF77A
:10C090008DF8019B220023615346594618881F4B97
:10C0A000089665602781A781FFF76EFD002800D103
:10C0B0009CE5814674E600220021002003F092FDF9
:10C0C000B8E600220021002003F08CFDF0E60021FC
:10C0D000002003F087FDE3E500220021002003F0AB
:10C0E00081FD3DE700220021002003F07BFD72E787
:10C0F00000220021002003F075FDA6E700220021A8
:10C10000002003F06FFD59E6252A0000AC2700202F
:10C11000272A000084270020262A00007C270020F0
:10C120007FDF704782DF7047A7DF7047A9DF704766
:10C13000AADF70470020704700207047002070473A
:10C14000F0B545464E46DE465746E0B587B0142367
:10C150006A4653804A78304E53009B186A469B00CB
:10C16000F31880460D0018890232032301A9FFF756
:10C17000DFFF00281BD16B78284F9A465246DB0020
:10C180009C1A9946A4006B4620005B88083038183A
:10C190001A0001A99B4604F0B5FB00280FD15346B5
:10C1A0005B0053449B00F618B37A9B072ED5002002
:10C1B00007B03CBC90469946A246AB46F0BD3C1940
:10C1C0006368002B20D1164E52464B469B1A032221
:10C1D0009B00FA506A7801A9D3009B1A5A469B002B
:10C1E000FB185A606B78D800C01A800008303818E5
:10C1F00004F097FB6B781C22D900C91A89007918C2
:10C2000038234046B047D2E7064EDDE738191C22F6
:10C210000021FBF7CBFFCAE7F0270020FC27002016
:10C2200045EB0100C9EB0100F0B5C64600B5417809
:10C230002F4BCA00521A92009C469B185C6806005D
:10C24000002C0DD04B002B4D581880002818807AF8
:10C2500047B2002F1DDB002200249046002704E097
:10C2600000230027234D98464B005B189B00EB18DA
:10C270001889424623003900FFF758FF0B2812D0D7
:10C28000002804D1012C19D004BC9046F0BD1A48F6
:10C29000F8E74006DFD4A0B21700804660460837B2
:10C2A00067448458E1E77278390053009B189B007B
:10C2B000EB18188942460123FFF738FF72780C21EA
:10C2C00053009B189B00ED1828890C4AFFF72CFFA0
:10C2D0000028D9D002220A4BC318934305D008285E
:10C2E00003D0112801D00020CEE70348CCE7C04698
:10C2F000FC270020F027002041800000FFFF000005
:10C30000FECFFFFF70B506004A780C4CD3009B1A95
:10C310009B000D00E0181C223823310002F096FC2F
:10C32000002807D16A78D3009B1A9B00E418636841
:10C33000013300D070BD6060FCE7C046FC270020E0
:10C34000F0B5C64600B53F4C1D00236890B080464E
:10C350000E001700002B3BD0169B582B38D83A4BB9
:10C360006A46019300231374169B02AA00213748E2
:10C370000995089302F0BAFB002806D1082202A909
:10C38000404604F0BFFA00284AD001AB98469B789B
:10C39000FF2B1DD0032E2ED02D4AAA1A1B2A1BD9E3
:10C3A0002C4BEB1A1B2B2BD80023424653700AABA5
:10C3B00009931823212208930A33022E35D06A46A6
:10C3C000137407AB05933A00236804A940469847C5
:10C3D00010B004BC9046F0BD1F480268002F03D186
:10C3E000012199400A42F3D0012199408A43026019
:10C3F00022232122E1E7169B582B19D04323DEE7A5
:10C4000016482D1A1B2DE3D80023424653700133E2
:10C41000D370134B9B7A9B070CD532233122CCE788
:10C4200001AB984698700023B4E76B461A74C8E7CE
:10C430002323C4E71C220021FBF7B8FE322331225C
:10C44000BBE7C046C827002000FFFFFF542800209C
:10C4500038280020D427002034280020FC27002082
:10C46000F027002000207047002070470020704710
:10C470000020704770B506004A780C4CD3009B1A18
:10C480009B000D00E0181C223823310002F0DEFB77
:10C49000002807D16A78D3009B1A9B00E4186368D0
:10C4A000013300D070BD6060FCE7C046FC2700206F
:10C4B000F0B5C64600B541782F4BCA00521A92001B
:10C4C0009C469B185C680600002C0DD04B002B4D41
:10C4D000581880002818807A47B2002F20DB0022ED
:10C4E00000249046002704E000230027234D9846AF
:10C4F0004B005B189B00EB1818894246230039005B
:10C50000FFF714FE0B2815D0002803D0012C1CD0F7
:10C510001B4802E0012C18D0002004BC9046F0BD5E
:10C520004006DCD4A0B21700804660460837674456
:10C530008458DEE77278390053009B189B00EB1893
:10C54000188942460123FFF7F1FD72780C21530050
:10C550009B189B00ED1828890A4AFFF7E5FD002883
:10C56000DAD00222084BC3189343D1D00828CFD089
:10C570001128D1D10248D0E7FC270020F027002065
:10C5800041800000FFFF0000FECFFFFFF0B54546F1
:10C590004E46DE465746E0B587B014236A465380C0
:10C5A0004A78304E53009B186A469B00F318804629
:10C5B0000D0018890232032301A9FFF7B9FD0028F5
:10C5C0001BD16B78284F9A465246DB009C1A99463D
:10C5D000A4006B4620005B88083038181A0001A9B7
:10C5E0009B4604F08FF900280FD153465B0053445B
:10C5F0009B00F618B37A9B072ED5002007B03CBCF1
:10C6000090469946A246AB46F0BD3C196368002BA4
:10C6100020D1164E52464B469B1A03229B00FA50DD
:10C620006A7801A9D3009B1A5A469B00FB185A60EE
:10C630006B78D800C01A80000830381804F071F9FF
:10C640006B781C22D900C91A890079183823404612
:10C65000B047D2E7064EDDE738191C220021FBF770
:10C66000A5FDCAE7F0270020FC27002045EB0100CC
:10C67000C9EB0100F0B5C64600B5060084B000283D
:10C680004ED00125002201272E4B2F486D421A6003
:10C690005A729A720581C572073200218772FBF7C0
:10C6A00085FD1C2200212948FBF780FD284C06222D
:10C6B000200000211130FBF779FD1022002120001D
:10C6C000FBF774FDFF23234A23741368A576BB434D
:10C6D0001360214B25831D70204B214D0193214B6D
:10C6E00029006846009302F08BF9002814D11E4BF4
:10C6F000367898461F70002E18D102AA0021280013
:10C7000002F0F4F900281AD100231C2202A920000B
:10C7100002F09CFA002805D104B004BC9046F0BD9C
:10C720001248F9E7002342461370F5E76B469988F3
:10C73000DB882800594389B202F0E2FAECE743466D
:10C740001E70E9E7C8270020F0270020FC27002002
:10C750003828002034280020182800205800010024
:10C760005428002041C30100332800200E8000001F
:10C77000F8B5194B05001B780C00002B01D11748A8
:10C78000F8BD00280AD0002908D00B68002B05D07E
:10C79000134E3768002F03D01248F1E71248EFE735
:10C7A0003000053108C0052204F0BBF823790220CF
:10C7B000B37201230421327A9A430243D2B28A43EC
:10C7C00032720122F3791343DBB20343DBB28B43B2
:10C7D000F37100202F70D3E7332800200880000079
:10C7E000C8270020048000000E8000000048704729
:10C7F0009180000000487047918000000048704719
:10C80000918000000A4B1B78002B01D1094870472A
:10C8100000290BD0002809D00378002BF6D1064A56
:10C820001268002AF2D00B700020F0E70348EEE710
:10C830003328002008800000C82700200E80000058
:10C84000002806D0FF23037043708370C37000205C
:10C8500070470148FCE7C0460E80000010B51A4B37
:10C860000C001B78002B01D1184810BD002815D0F2
:10C87000002913D00378002BF6D1154B1B68002B31
:10C88000F2D08378FF2B12D0D900C91A114B89003E
:10C8900059188B7E9B0703D50F48E6E70F48E4E75E
:10C8A00010310722200004F03CF80020DDE7437837
:10C8B000FF2BF1D05900C918094B890059188B7A00
:10C8C0009B07EED40448D0E73328002008800000FE
:10C8D000C827002038280020058000000E800000B6
:10C8E000F0270020F0B5244B8BB01B7804000D001E
:10C8F000002B02D121480BB0F0BD00280DD000293B
:10C900000BD00378002BF5D11D4B1B68002BF1D009
:10C910008378002B03D01B48EDE71B48EBE71B4E49
:10C92000B27EFF2AF7D0CB608178194FCA00521A25
:10C930009200B2186B61AB6003AB2A616F602B6031
:10C94000817801AA134802F0D1F80028D3D11C2322
:10C950001C2201A903A802F079F90028CBD1E860D4
:10C96000A2786861D3009B1A9B00F61803AB2E6176
:10C970006F60A8602B60BEE73328002008800000AD
:10C98000C8270020108000000E80000038280020FA
:10C990001C28002054280020F0B5DE4657464E469D
:10C9A0004546FF23E0B58FB00393D54B04001B78B9
:10C9B000002B40D0D34F3B689846002B3BD005ADB1
:10C9C000031D6B602A232B81CF4B04930388102B0C
:10C9D00000D139E1CD4E8088B27A9246FF2293464B
:10C9E0005246920705D5CA4A90422BD032898242DC
:10C9F00028D0113B9BB2412B1DD8C64A9B00D3586F
:10CA00009F4613232B7000239A4604AB9946524647
:10CA100029004846C0472B78122B0CD1B37A012B42
:10CA200009D00123B372023B3381F3720722002144
:10CA30003000FBF7BBFB0FB03CBC90469946A246CA
:10CA4000AB46F0BDF27A934604AA914659469170DE
:10CA5000002249464A70CCE701227B7A1421934395
:10CA60007B725346914603329343B3722970A17986
:10CA7000002900D08BE1E1790A4200D12AE15A462F
:10CA8000FF2A00D126E108221343B372E37A9B0701
:10CA90000AD55B465A464946DB009B1A9E4A9B00D4
:10CAA000D3189A7E8A439A76F37AFF2B00D111E14C
:10CAB0003378022B00D159E2974B5A4698465B4691
:10CAC000DB009B1A31689B0043441961B1889A7E50
:10CAD0009982B179997502218A439A765B466A46B2
:10CAE00008ACD380D1888D48220001F0FFFF04AB51
:10CAF0009946002836D15A7853009B189B00F318AA
:10CB00009B7A5B0600D42EE2854B9A464B469B7877
:10CB10001C22D900C91A8900414400232000D047B3
:10CB2000002812D14B465A78403053009B189B0086
:10CB3000F318997A81439972D100891A794B890047
:10CB400059181C221C232000D0474B461A7849460E
:10CB500053009B189B00FB189B7A734A9B009B58C1
:10CB6000200098473B68984600239A464FE7A379F0
:10CB7000112B03D153461B0700D56EE1802352468B
:10CB80005B421343B37215232B7004AB9946BB7AF7
:10CB9000664A9B009B5848469847E3E7BB7A634A3E
:10CBA0009B009B5804A8984745E7022352469A43A6
:10CBB0001300B2725246120700D4C1E004AA5BB25D
:10CBC0009146002B00DA8BE11023B37202332B70F5
:10CBD00000239A461BE7132352462B70042313436A
:10CBE000B372F37A9B46FF2B79D14B4B98469B7ED1
:10CBF000FF2B00D109E14E4B9A465A460023D10043
:10CC0000891A8900474A41440B930C910D9308926D
:10CC100009930A933A1DA08808AB0021FFF780FA18
:10CC2000002800D007E73B68984604AB9946EEE63B
:10CC3000F37AFF2B00D1B8E0374B3A4998460023EE
:10CC40004246FFF76FFAF6E60122304E9346B37A7A
:10CC50001A4200D1EFE60223B3720F332B7004ABFC
:10CC6000994600234A465370838807223381831DE7
:10CC7000190030009A4603F054FE237D5C461C40A8
:10CC800000D1DCE02B4A5B08D45CFF2C00D123E10F
:10CC90000394A1B20A23B3724B46F47208AA1F4848
:10CCA0009C7001F023FF002800D05BE74B465B78C7
:10CCB00008A9D800C01A1B4B800018181C221C237E
:10CCC00001F0C4FFBB7A1C4A9B009B58494608A848
:10CCD000984747E700239A4604AB994697E6162300
:10CCE00016481422002108302B70FBF75FFA44230A
:10CCF00052461A4300239A46074BB27298467CE785
:10CD000033280020C827002000FFFFFFF027002065
:10CD1000FFFF000050220200382800205428002085
:10CD2000C9EB0100D4270020782302005823020019
:10CD3000438000001828002068230200FC27002000
:10CD400004AB99465B46FF2B00D13DE7DF00FF1A9D
:10CD5000BF003800904C113020180622E419002141
:10CD6000FBF724FA102200212000FBF71FFAFF2313
:10CD700058462374A376FE3B834088490122086805
:10CD8000524298434B46228308609A701CE76A46D9
:10CD9000F37A8348D380D18808AA984601F0A6FE8A
:10CDA00000286FD0A3799A463DE77B4B0021984637
:10CDB0001A8BE3899A4200D041E7082352461A436E
:10CDC000B27202ABF17208AA75480391997201F030
:10CDD0008DFE002812D102AB5B7A1C22D800C01A4B
:10CDE000704B8000181808A91C2301F02FFFBB7A94
:10CDF0006D4A9B009B5804A908A89847F37AA0881D
:10CE0000FF2B00D0C5E0002119E73378022B65D055
:10CE1000434631681961B2889A82B2799A75FD23C6
:10CE200042469376002203AB1A7002AB1B799B46F5
:10CE30005A4604AB9A700023F2729A46DDE65648D1
:10CE400051460722103003F05DFD00239A4600286A
:10CE500000D0DCE5039419001CE75448142200219B
:10CE60000830FBF7A3F9162352462B7060231A43B0
:10CE7000B27202227B7A13437B7200239A4604AB80
:10CE80009946C4E5582108A801F03AFF002889D145
:10CE900043464246DB009B1A9B009A463E4B504657
:10CEA0009B46113006220021DA445844FBF77EF9F4
:10CEB000102200215046FBF779F95246FF231374E4
:10CEC0009376013BFF3B138341464B468B40334AED
:10CED00011689943116065E7FF21DBE6FE239FE7B8
:10CEE0006A465B4608ACD380D1882D48220001F009
:10CEF000FDFD002834D14B465A7853009B189B0007
:10CF0000F3189B7A5B0641D5294B98464B469B7894
:10CF10001C22D900C91A204B89005918200000236F
:10CF2000C04700280FD14B4659780C234B43F318C8
:10CF30009A7A403082439A721C225143194B200046
:10CF400059181300C0474B461A78494653009B189E
:10CF50009B00FB189B7A174A9B009B582000984720
:10CF60003B68984630E6144B9A46CFE50A4B5A4642
:10CF700098465B460121DB009B1A0A4A9B00528AB5
:10CF800043441A839A7E8A439A76A7E50B4B9846C8
:10CF9000BCE7044953E6C046382800203428002066
:10CFA00054280020D427002068230200FC270020FA
:10CFB000C9EB01007823020045EB010035C10100F7
:10CFC00030B5002915D00A78002A02D00A4B180083
:10CFD00030BD0A4B1B68002BF8D0FF23084C8B7028
:10CFE0002589FA3B8542F2D14A70E37A8B7000239F
:10CFF000EDE7044BEBE7C04608800000C82700209F
:10D00000F02700200E800000F0B500281EDB1B4A30
:10D0100003249446FF2217008308C026C0B20440B0
:10D02000E4008901A7400A40A2409B006344B60087
:10D030009D59BD432A439A511F23C02118401E3BCE
:10D0400083400E4A490053501360F0BDFF240C4A40
:10D050000325944622000F23C0B20540ED0089014C
:10D06000AA400C40AC400340083B9B089B00634433
:10D07000DE6996433443DC61DEE7C04600E100E050
:10D0800000ED00E082B00190019B002B14D0019BC9
:10D090000A48013B01930138C046C046C046C0461D
:10D0A000C046C046C046C046C046C046C046C04650
:10D0B000F1D1019B002BEAD102B07047E7030000D9
:10D0C00070B54E25174C0820635D002B00D070BD55
:10D0D00020002022FF2128300126FBF767F82000DE
:10D0E00076422422FF2140C0FBF760F84823FF224C
:10D0F000E6540133E2540133E6540133E65401337C
:10D10000E654012101330620E654FFF77DFF80211C
:10D11000C123054A9B000906D15001230020635515
:10D12000D5E7C0465C280020006000404E23034A3B
:10D13000D05C431E9841C0B27047C0465C280020B6
:10D14000F0B5C64600B5584C9046231828331E78D3
:10D1500008257F2E03D8280004BC9046F0BDCD786A
:10D16000AC46002D40D0226804270126013200D1B0
:10D1700094E0B500635901333CD0731C9D006259A3
:10D18000013238D0B31CBB422CD29D00625901320F
:10D1900031D0F31CBB4225D29D00625901322AD006
:10D1A000331DBB421ED29D006259013223D0731D34
:10D1B000BB4217D29D00625901321CD0B31DBB4245
:10D1C00010D29D006259013215D0F31DBB4209D225
:10D1D0009D00625901320ED00836BE4202D2636A07
:10D1E00001333FD00425B6E72269013230D00A2747
:10D1F0000526BEE7330042466251624627185EB2FA
:10D2000028373E70002A29D08B78002B14D10300D8
:10D21000A0254A78C133FF3392009B00ED055A5197
:10D22000CB78002B21D1A41944340B7822789B01B0
:10D230001343237000258EE7A022D2059446E025F3
:10D24000022783006344ED005A59BA435A51E7E775
:10D2500004251D704346042623610423E318443348
:10D260001870D1E709232425C5E7104AB600944673
:10D27000A2226644D2000B780D4CB1580002214026
:10D28000F82464012040C024B1501B04A402B1580A
:10D29000234018430843B05000255CE700261E7069
:10D2A00043462360B0E7C0465C2800200060004091
:10D2B000FFE0FCFF0023F0B5254C22182832D3569E
:10D2C000032B18DDE31844331B789B09032B33D061
:10D2D000012B3AD0C025AD02A023DB059C46E023FC
:10D2E00080006044DB00C1581A4C2140C150C25834
:10D2F0002A43C250F0BDD8B20328FBD8164DA2274E
:10D30000AC46012698006044FF00C5593543C5511D
:10D310001800654600274030800080B24751002940
:10D32000E8D0127852B292001259002AE2D09E4000
:10D33000C1239B00EE50DDE7A223A022DB00D20533
:10D34000D258012383401A42C4D18025AD02C3E7DD
:10D350005C280020FFFFFCFF00600040A223A02209
:10D36000DB00D205D358C340012018407047C046A7
:10D37000F0B5D6464F464646C0B5C64A00241368A7
:10D38000012B00D103E1C44B1A68012A00D10CE142
:10D39000C24B1A68012A00D117E1C14B1A68012A51
:10D3A00000D122E1BF4B00251A68012A00D12DE1EE
:10D3B00023070BD0E30700D53EE1A30700D54AE1E0
:10D3C000630700D555E1230700D529E1002C04DBD4
:10D3D0001CBC90469946A246F0BD4823B24CE1568B
:10D3E0004B1C1ED0C9B2C023080098432318283311
:10D3F0001B785BB29B00E658002E12D0A0230127B9
:10D40000DB059C46E023874082006244DB00D35862
:10D4100089099B039B0F3D4200D1D0E1022B00D133
:10D42000F6E14923E1564B1C1ED0C9B2C0230800C7
:10D430009843231828331B785BB29B00E658002ED4
:10D4400012D0A0230127DB059C46E0238740820001
:10D450006244DB00D35889099B039B0F3D4200D1F6
:10D4600091E1022B00D1D9E14A23E1564B1C1ED099
:10D47000C9B2C02308009843231828331B785BB235
:10D480009B00E658002E12D0A0230127DB059C4606
:10D49000E023874082006244DB00D35889099B0364
:10D4A0009B0F3D4200D123E1022B00D1BCE14B2375
:10D4B000E1564B1C1ED0C9B2C02308009843231864
:10D4C00028331B785BB29B00E658002E12D0A023B5
:10D4D0000127DB059C46E023874082006244DB0095
:10D4E000D35889099B039B0F3D4200D1E4E0022BF6
:10D4F00000D180E14C23E1564B1C1ED0C9B2C023A1
:10D5000008009843231828331B785BB29B00E65829
:10D51000002E12D0A0230127DB059C46E023874084
:10D5200082006244DB00D35889099B039B0F3D4274
:10D5300000D10CE1022B00D164E14D23E1564B1CDC
:10D5400000D145E7C9B2C023080098432318283307
:10D550001B785BB29B00E658002E00D138E7A02371
:10D560000124DB059C46E023844082006244DB000A
:10D57000D35889099B039B0F254200D1D4E0022B8D
:10D5800000D025E7032900D155E1B04720E7C121AC
:10D590004648890044581C4000D1F4E6002313603B
:10D5A0003D4B1A68012A00D0F2E6C1223F499200A1
:10D5B000895802220A4200D1EAE600211960374B5D
:10D5C00014431A68012A00D0E7E6C12237499200C5
:10D5D000895804220A4200D1DFE600211960304B4D
:10D5E00014431A68012A00D0DCE6C1222F499200B8
:10D5F000895808220A4200D1D4E600211960294B3B
:10D6000014431A680025012A00D0D1E61D6080234A
:10D610001B061C43A022A223D205DB00D558C7E677
:10D62000224A234BD058D1581F4B8903C004890F7D
:10D63000C00EDB689847C9E6A2231C4ADB00D0581D
:10D64000D158194B8903C0041B68890FC00E984735
:10D65000A30700D4B4E6174B144AD058D158124B44
:10D660008903C0045B68890FC00E9847630700D424
:10D67000A9E6A3230D4ADB00D058D1580A4B8903F1
:10D68000C0049B68890FC00E9847230700D49DE60D
:10D69000C6E7C046006100400461004008610040E8
:10D6A0000C6100407C6100405C280020006000406C
:10D6B0001C05000014050000032B00D01AE7032905
:10D6C00014D180239B029A46E023DB00D758994669
:10D6D000BC465A4FB846674643461F403B004F463C
:10D6E000D351D35957461F434B46D750B04701E754
:10D6F000032B00D0DBE6032914D180239B029A463A
:10D70000E023DB00D7589946BC464C4FB8466746E5
:10D7100043461F403B004F46D351D35957461F4302
:10D720004B46D750B047C2E6032B00D050E6032942
:10D7300000D02AE78027BF02E023DB00D5583F4C0A
:10D740002540D550D4583C43D450B04740E6032B35
:10D7500000D0F2E6032914D180239B029A46E023ED
:10D76000DB00D7589946BC46344FB8466746434617
:10D770001F403B004F46D351D35957461F434B469A
:10D78000D750B047D9E6032B00D06DE6032914D15A
:10D7900080239B029A46E023DB00D7589946BC467B
:10D7A000264FB846674643461F403B004F46D3517D
:10D7B000D35957461F434B46D750B04754E6032B27
:10D7C00000D02EE6032914D180239B029A46E02341
:10D7D000DB00D7589946BC46184FB84667464346C3
:10D7E0001F403B004F46D351D35957461F434B462A
:10D7F000D750B04715E6032900D077E7C0239B0236
:10D800009A4661E70329BCD1C0239B029A46A6E74A
:10D810000329EED1C0239B029A46D8E70329CCD135
:10D82000C0239B029A46B6E7032900D07AE7C023BB
:10D830009B029A4664E7C027BF027DE7FFFFFCFF1B
:10D8400029DF704728DF7047F0B54546DE4657466A
:10D850004E46E0B55A4D85B02C78012C66D0002C90
:10D860004CD0022C15D0032C0CD1564B1868FFF766
:10D87000E9FF021E06D0112860D10823524A116820
:10D880000B43136005B03CBC90469946A246AB469C
:10D89000F0BD4D4B9A461B6803934C4B98461B7842
:10D8A0009E00F6188023B6005B0519694644376967
:10D8B0000904090C38009B4602F0AEFE414B81463C
:10D8C00018605B461969F088013F0904C019090C0A
:10D8D00002F0A2FE81452CD00323039C9C435346B7
:10D8E0001C603B4B1B68002B02D10233234240D00B
:10D8F0000022384B1A7000F007FBC3E7364B1C6060
:10D90000364B1C60314B5A78002ABBD019788A00FC
:10D91000521892009B18D988314A1B791160032B49
:10D9200024D0042B22D0012BACD12B7000F090FC22
:10D93000A8E70123039A9A431443D0E7234F38788A
:10D9400084002418A4003E19F068736931794600F8
:10D95000361823480C3400683C1900902148B60062
:10D9600036582000B04704232B708BE700F03CF8BA
:10D9700088E7184A48461370FFF764FF021E00D17B
:10D9800080E7112804D108231C4353461C6079E723
:10D990004346187884002418A40020001E197369D7
:10D9A0003179F6680C307400A4190D4EA400366865
:10D9B000404400960B4EA459A04704232B7061E706
:10D9C000B02900209429002098290020C828002090
:10D9D0009C290020B1290020AC290020A829002082
:10D9E000AC280020B0280020F0B557464E464546EA
:10D9F000DE46E0B55D4A83B011788B005B189B0072
:10DA0000D318DA681F699146802252051169904641
:10DA10004A4652004A449000554A1E8912181089FD
:10DA2000548952684443A418DA88524B95199B468E
:10DA3000924600235A4609041360090C3800ED1978
:10DA400002F070FE00295FD143461B699BB29A45E4
:10DA500044D0AC4200D177E04B46032B3ED0434646
:10DA60001969B8190904090C02F05CFE424B8908D7
:10DA70001960434619690904090C280002F052FE96
:10DA8000002925D0802676053169336989B2994607
:10DA9000A0B202F0C1FD6A464B468046D380AFB2C9
:10DAA000D188380002F0B8FD43466A46D380D38857
:10DAB00080B283423FD034693169380089B202F0C4
:10DAC00031FE5B462404240C89B2641AA4081C604D
:10DAD00002222A4B1A70FFF7B7FE0EE080235B0587
