:020000021000EC
:1080000000400020390502008105020083050200BE
:108010000000000000000000000000000000000060
:1080200000000000000000000000000085050200C4
:108030000000000000000000870502008905020022
:108040008B0502008B0502008B0502008B050200E8
:108050008B050200000000000DD00100C98C01005A
:1080600091E901008B0502008B0502008B050200DF
:108070008B0502008B0502008B0502008B050200B8
:108080008B0502002DF101008B0502008B0502001B
:1080900021F201008B050200B9FC01008B050200F2
:1080A0008B0502008B0502000000000000000000AC
:1080B00000000000000000000000000000000000C0
:1080C000164B002B00D1144B9D46402292029A1A67
:1080D000924600218B460F461348144A121A00F0AC
:1080E00067F80F4B002B00D098470E4B002B00D0A9
:1080F00098470020002104000D000D48002802D000
:108100000C4800E000BF00F02DF82000290000F02E
:1081100099FE00F011F8C046000008000040002061
:108120000000000000000000FC200020DC2E0020E9
:108130000000000000000000084B10B5041C002BDC
:1081400002D0002100E000BF054B1868836A002BB5
:1081500000D09847201C00F033F8C0460000000013
:10816000181902000E4B70B500251E1C0D4CE41AA8
:10817000A410A54204D0AB00F35898470135F8E7A6
:1081800009F0BCFB084B00251E1C084CE41AA41087
:10819000A54204D0AB00F35898470135F8E770BD0D
:1081A000FC200020FC200020FC200020FC200020DF
:1081B000031C8218934202D019700133FAE770470A
:1081C000FEE7C04670DF704771DF704774DF7047AD
:1081D00076DF704778DF70477ADF70477CDF704763
:1081E0007FDF704782DF7047A7DF7047A8DF7047E7
:1081F000A9DF704760DF70472EDF704732DF7047BE
:1082000033DF70473CDF704748DF7047822110B58D
:10821000041C84B0FF31084A07F064FC074B01944A
:108220000093074B002002930649074A074B01F0D1
:108230000DFB04B010BDC046941A0200DC1A020007
:10824000E41A0200A41A0200CC1A0200D41A020096
:1082500010B5072812D8364B80001B589F460320C4
:1082600001F00AFE002803D03249334A07F03AFCF5
:1082700000203249324A334B01F0E8FA10BD0020A9
:1082800031492F4A2F4B01F0E1FAF7E72D4C00203E
:108290002E492B4A231C01F0D9FA00202C492D4AE3
:1082A000231C01F0D3FA002001F0E6FD002838D1AC
:1082B000FFF7A8FF0028E1D027491F4A07F012FC6A
:1082C000DCE7052001F0D8FD002803D023491A4A35
:1082D00007F008FC00202249194A1A4B01F0B6FAAF
:1082E000CCE7022001F0C8FD002803D01D49124A46
:1082F00007F0F8FB00201C49114A124B01F0A6FAC6
:10830000BCE7042001F0B8FD002803D017490A4A51
:1083100007F0E8FB00201649094A0A4B01F096FADB
:10832000ACE79021044AC90007F0DCFBC0E7C04677
:108330001C1902006F020000941A02002C1B02009C
:108340000C1B0200E41A0200901B0200641B0200D6
:108350007C1B0200DC1A020084040000630200009F
:10836000F01A020069020000141B020075020000EE
:108370004C1B020010B5041C05F086FF201C02F007
:108380003DFA10BDF0B5041C8E4E85B08388009672
:1083900002888D4F8D4D8E49019200203A1C029526
:1083A00001F054FA201C04F083F9201C02F044FF71
:1083B0008848211C03F0D6F98748211C02F0AEFF43
:1083C0002288522A00D9D3E084499300CB589F4693
:1083D00000220021002382480088FFF703FF0028C5
:1083E00003D08049804A07F07DFB00207F49321C82
:1083F0002B1C01F02BFA201C02F094F97C48211C64
:108400007C4A01F0D5F805B0F0BD754B0021188805
:1084100000220323FFF7ECFE002800D0C7E0002075
:108420007549321C2B1C01F011FAE4E70020734956
:108430003A1C01F00BFADEE70020714901F006FA60
:10844000D9E700206F4901F001FAD4E70020A288A3
:108450006D4901F0FBF9072001F00EFD002800D066
:10846000AAE0A2885E4B1A8006F0D2FC002800D059
:1084700098E0009500206549654A664B01F0E6F9F1
:10848000B9E70020644901F0E1F90122544B52425E
:108490001A80624B01950093002061495C4A01F00B
:1084A000D5F9A8E700205F4901F0D0F94C4B002135
:1084B00018885D4A5D4BFFF793FE00286DD10020C0
:1084C0005B49321C2B1C01F0C1F994E7594F201C69
:1084D000391C0E3012310A2208F0DAF943425841B1
:1084E000554BC0B21B79DA0736D5002800D16FE7AB
:1084F000391C9A0736D447E0A11D06224E4808F0E1
:10850000D6F900204D49321C2B1C01F09FF972E76F
:1085100004220092023201921A32A25C237A029261
:10852000002047493A1C01F091F9002345498B800E
:1085300002330B702A4B1888FFF758FE002800D131
:1085400059E74149284A07F0CDFA54E700203F494E
:108550003A1C01F07BF94EE79A0714D5002800D1A8
:1085600036E700213A4A5B0700D433E7394B32E75C
:108570006388009201930295002037493A1C331C0E
:1085800001F064F937E7002100225B0700D421E7FE
:10859000002800D11EE72F4B1DE73049124A07F093
:1085A000A1FA8CE72E49104A07F09CFA61E72D49A1
:1085B0000D4A07F097FA32E72B490B4A07F092FA77
:1085C0004FE7C046F01B0200E81B0200E41A02005D
:1085D000C01B0200FC240020E42500203C190200FE
:1085E0007C20002007030000941A0200041D0200F2
:1085F000A424002050240020C41C02002C1D0200D2
:10860000581D02007C1D0200F81B0200181C02000D
:10861000341C02003C1C0200441C0200DC1A020054
:108620005C1C0200801C02007C24002064200020CE
:10863000A41C020084240020F0240020E81C020076
:10864000A01D0200E02400202F0300003C1D0200BA
:10865000E0230020F8230020D41D0200EA020000DD
:10866000D3020000F3020000C902000030B5051C6F
:1086700085B00C1C002A27D12378152B0CD0212B78
:1086800004D0142B02D0002005B030BD291C0422D8
:10869000214808F00CF9F6E70423204C281C01A916
:1086A0000293039403F00CFF002813D12368DB0727
:1086B00019D4281C03F008FF0028E4D0DC21184A54
:1086C000890007F00FFADEE7101C1649144A07F07C
:1086D00009FAD1E7144B9842D5D0DE21104A89001F
:1086E00007F000FACFE7114B114A18880C21FFF769
:1086F0007BFD0823021C9A43DBD002220D4BC318DA
:108700009343D6D01128D4D00B4B9842D1D00B49EB
:10871000034A07F0E7F9CCE7F8240020A024002062
:10872000941A02001F020000408000007C200020FC
:10873000FFFF0000FECFFFFF013400006B030000CD
:1087400008B51D4B18881D4B984216D01321FFF712
:108750003FFD002824D1002001F08EFB00281AD113
:1087600002F062FD002803D01549164A07F0BAF955
:10877000FA20400004F06EFD08BDFFF727FD002839
:1087800013D1002001F078FB0028E9D00E490D4AF2
:1087900007F0A8F9E4E70D490A4A07F0A3F9DFE773
:1087A0000B49084A07F09EF9D5E7D121054A89000F
:1087B00007F098F9E5E7C0467C200020FFFF0000A5
:1087C00096030000941A0200470300008D03000086
:1087D0008B03000038B5051C0C1C0A7800200449E6
:1087E00001F034F8281C211C06F05CF938BDC046A5
:1087F000001E0200F8B51E1C02293AD0032925D01C
:10880000012900D0F8BD0020002A50D12A4901F0EA
:108810001DF8069B002B0AD0341C284DF71822782F
:108820000020291C013407F079FEBC42F7D1244C0A
:10883000211C002007F072FE311C069A002007F070
:10884000A5FA211C002007F069FEDBE70020002AC2
:1088500025D11C4900F0FAFF1B481C4920220023A7
:1088600005F04AFF0028CDD019491A4A07F03AF915
:10887000C8E70020002A16D1174900F0E7FF069B41
:10888000002B0AD0341C0D4DF71822780020291C2B
:10889000013407F043FEBC42F7D1104CC8E7104941
:1088A00000F0D4FFAEE70F4900F0D0FFAAE70E4971
:1088B00000F0CCFFA6E7C0462C1E0200481E0200B6
:1088C000441E0200A81E02002C2500205C2400206B
:1088D000DF030000941A02006C1E0200881E0200D2
:1088E0008C1E0200501E0200101E020038B50C1C27
:1088F000151C00200E49221C00F0A8FF00230D4883
:10890000211C036043608360C36003614361836132
:10891000C3612A1C07F0CBFF0748202105F0D6FFD2
:10892000002803D00549064A07F0DCF838BDC046E8
:10893000C41E02005C2400202C250020A903000096
:10894000941A0200031CF0B50D3B85B0061C072BE2
:1089500000D98BE00B250F2300276D4403AC0020CA
:10896000291C2370677006F06BFA2A78002A00D061
:1089700087E00123217880270B43A120A021C0009C
:10898000C905BF030F5069480A500120291C2370F4
:1089900006F056FA2A78002A00D186E002232278CF
:1089A00080205340A0226149D205C00350500020CE
:1089B000043950500220291C237006F041FA2A780D
:1089C000002A00D186E00423227880205340A02290
:1089D0005649D2050004505000200439505003205D
:1089E000291C237006F02CFA2A78002A00D186E090
:1089F0000823227880205340A0224C49D20540040D
:108A00005050002004395050113E2370032E0AD8D4
:108A1000FF23F0216370A023444ADB0549049950E9
:108A20000021043A9950424B424A1B88934200D19C
:108A300072E0211C404800F0D9FE0823021C041CEF
:108A40009A431CD002223D4BC318934317D01128E0
:108A500015D03B4B984212D000203A4900F0F6FE68
:108A6000201C8F21384A07F03DF808E0374B009072
:108A7000019300203649374A374B00F0E7FE05B036
:108A8000F0BD0123227880205340A0222749D2053F
:108A900080035050043957500120291C237006F0E0
:108AA000CFF92A78002A00D078E70223217880279E
:108AB0000B43A120A021C000C905FF030F501B4894
:108AC0000A500220291C237006F0BAF92A78002ADD
:108AD00000D078E70423217880270B43A120A02130
:108AE000C000C9053F040F5010480A500320291C3C
:108AF000237006F0A5F92A78002A00D078E7082329
:108B0000217880250B43A120A021C000C9056D0458
:108B10000D5006480A5077E7009310230020019378
:108B20000E490F4A0F4B00F091FEA8E70C0500001C
:108B30007C200020FFFF0000A4240020FECFFFFFC8
:108B400001340000D81E0200941A0200E41A020048
:108B50003C1F02005C1F0200DC1A0200081F02001A
:108B6000341F0200E81B020010B5041C0E49221C31
:108B7000002000F06BFE0823221C9A4312D0022230
:108B80000A4BE31893430DD0112C0BD0084B9C4299
:108B900008D00020074900F059FE201C0649074A6A
:108BA00006F0A0FF10BDC046641F0200FECFFFFF0D
:108BB000013400007C1F020044040000941A0200EB
:108BC00010B5037884B0002B01D004B010BD0D4B5C
:108BD000041C3B211888FFF7FBFA00280BD10A4B35
:108BE00001940093094B002002930949094A0A4B5A
:108BF00000F02CFEE9E77621084AFF3106F072FF0B
:108C0000EDE7C0467C200020DC1A0200E41A0200D6
:108C10008C1F0200CC1A0200D41A0200941A02001F
:108C2000C1210122182008B51A4B89005A501A494F
:108C300058508021002049005850A021C9005A50A6
:108C40000730FFF7DBFA00281DD107200321FFF7CB
:108C5000D7FA002811D10720FFF7CEFA002804D058
:108C600099210E4A490006F03DFF80220021094B60
:108C700052009950FF3A1A6008BD3021074AFF316F
:108C800006F030FFE7E79621044A490006F02AFF84
:108C9000DBE7C0460070004004050000941A0200A3
:108CA00008B503200549064A01F090FA002803D0D0
:108CB000BF21044A06F016FF08BDC046CD0C0000D7
:108CC00045890100941A0200802208B5314B5200F8
:108CD0009958002900D108BD00219950A1220131E5
:108CE000D2009A58FF20596096231040DB00584369
:108CF000FE3107F0DBFC4300C018274B80B2642133
:108D0000984212D9254802F0D3FB0823021C9A434B
:108D1000E1D0234B9842DED0224B9842DBD0182181
:108D2000214AFF3106F0DEFED5E7204B984213D8EA
:108D30001F4A90421AD81F4B984222D81E4A00213F
:108D40009042DFD9181A430018181C49400007F058
:108D5000ADFC0630C1B2D5E7194BC839181A3A2311
:108D6000584307F0A3FC6430C1B2CBE7A021181A26
:108D7000430018184942C00007F098FC2A30C1B2DD
:108D8000C0E71921101A494207F090FC1230C1B215
:108D9000B8E7C04600700040B70B0000E425002093
:108DA0000430000001340000941A0200540B00004B
:108DB000B40A00008809000034080000ACFEFFFF80
:108DC000B80B0000C1210122182008B51A4B8900F8
:108DD0005A501A4958508021002049005850A0216B
:108DE000C9005A500730FFF709FA00281DD10720A3
:108DF0000321FFF705FA002811D10720FFF7FCF93E
:108E0000002804D099210E4A490006F06BFE80220A
:108E10000021094B52009950FF3A1A6008BD3021D9
:108E2000074AFF3106F05EFEE7E79621044A490053
:108E300006F058FEDBE7C046007000400405000065
:108E4000941A0200F0B55F4656464D464446F0B4CB
:108E5000A7B007F003F8E74B00200093E649E74A84
:108E6000E74B00F0F3FC8023A3220121DB05D200B5
:108E700099508222002052009850996099580029F8
:108E8000FCD08223802200215B00D205D150DD4B33
:108E90000020009307310522DB4B06F04BFCDB4C36
:108EA000002803D0DA49221C06F01CFED94B012110
:108EB000181CD94A994606F0C1FC002803D0D749AE
:108EC000221C06F00FFEFFF7EBFE0820D4494822D3
:108ED000002306F0B7FE002804D0C721221C490059
:108EE00006F000FE002316AD1693281C6B600133BC
:108EF0002B70FFF77FF9002804D0CB21221C4900FA
:108F000006F0F0FD0DAE301CFFF75EF9071E00D035
:108F100022E20020311CFFF755F9C24806F0B8FEE6
:108F2000002804D0A221221CFF3106F0DBFDBE4840
:108F300006F0B8FE002804D0A621221CFF3106F05E
:108F4000D1FD08200A21B94A05F094FF002803D07A
:108F5000CB21221C06F0C6FDB54803F0D7FA002845
:108F600003D0B449221C06F0BDFD05F079FA0028B3
:108F700003D0B149221C06F0B5FD301C03F0D8F92E
:108F8000002804D09121221C890006F0ABFD5D234E
:108F900000226B44DA701A710D236B71063BAB71C2
:108FA0000933EB71A54B291C169301232B71A44B9C
:108FB000181C9A4603F042FA002803D0A149221C4B
:108FC00006F090FD0F2101223378301C8B431343B0
:108FD00010220B4013439C4911223370FFF7FEF817
:108FE000002804D0DD21221C490006F07BFDC020B2
:108FF0004000FFF7EFF8002804D0DF21221C4900D1
:1090000006F070FD50232B8050336B809C3BAB806F
:109010008D33FF33281CEB80FFF7DEF8002804D0E7
:10902000E421221C490006F05DFD88490C2208A8B5
:1090300007F03DFC0023169398462B616B60AB60F4
:10904000EB60AB61EB612B626B62AB62EB62013395
:109050009B462B700623EB70033B2B8208AB6B61A6
:1090600000207B497B4A032300F0F0FB4346F3607A
:10907000B3617360B3600D935B4633732823336130
:109080000A3B73615B463376C8231B01F361724B65
:10909000281C3362434600210093321C6F4B01F0C1
:1090A000FBF8002804D0F621221C490006F01AFD26
:1090B0006B4B03A80D93202383801F3BC380694B18
:1090C0000393694B191C9B4605F074FA002803D0E2
:1090D0006649221C06F006FD654B59469846181C49
:1090E0002022002305F098FB002803D06149221CB0
:1090F00006F0F8FC00230EA9149315930A1C4346AE
:1091000083CB83C283CB83C203CB03C200205A49E3
:1091100000F09CFB5948311C00F09AFA002803D05B
:109120005749221C06F0DEFC00232D216A460893D5
:1091300009930A930B930C935218113313706A46D8
:109140000131521813706A460231521813706A4680
:109150000C395218103B13706A46083152186333A9
:10916000484808A9137002F007F9002804D08321A9
:10917000221CC90006F0B6FC40220021281CFFF783
:1091800017F8281C404902F0B5F83C210F200122B5
:109190006B5C834313431022034013436B54002240
:1091A0003D23281CEA5402F099FB002803D03749DC
:1091B000221C06F097FC00230593354B05A94B6054
:1091C000344B35488B6001230B8002F0B5F9002841
:1091D00003D03249221C06F085FC314805F020FD01
:1091E0005346187805F022FD00231693EB602B619F
:1091F00058E0C046E41A0200B41F02003C1C020002
:10920000DC1F0200C9FA0100FC200020941A0200B1
:109210005C040000DC230020218C010061040000BC
:109220000824002085830100758301003425002077
:10923000F82400203D020000410200006D8601007C
:109240005824002052020000E41F0200881A020085
:10925000F81F02000C200200805101005182010021
:10926000ED880100F58701002C250020FE03000099
:109270005C2400200104000014200200A42400202B
:1092800009040000E4250020282002002104000039
:10929000D5870100698B0100FC2400202B0400000D
:1092A00041870100A0239B026B60F0231B03AB608E
:1092B00003232B73304B281C6B61304BAB6101F0E7
:1092C00077FF002804D08121221C890006F00AFCC7
:1092D00001222B4B19781143E12211400C2211433A
:1092E000CD220A401A7007225A7009329A70FFF78D
:1092F00069FD4022234B80211A60C123224A0906BE
:109300009B00D1504B46E1211868C904002206F0A9
:10931000C9FA002803D01D49221C06F0E3FB0320F4
:1093200001F062F8002803D01949221C06F0DAFB8C
:10933000022000F0A1FD002803D01649221C06F0EF
:10934000D1FB05F079FEFEF75FFF0028F9D0124946
:10935000221C06F0C7FBF4E79C21221CFF3106F01B
:10936000C1FB311C0020FEF72DFF9E21381CFF3170
:10937000221C06F0B7FBD0E5C18B01000D82010075
:109380007C24002000E100E0006000406C0400004C
:10939000A7040000A904000074040000A0DF7047C7
:1093A000A2DF7047A6DF704763DF704767DF704753
:1093B000F0B556465F464D464446F0B4CB889DB066
:1093C000009313688E1D1B88041C01934B880D1C91
:1093D0000293B37F171C03930B1C28331B786D4A31
:1093E0000493F38A6C490593438906934388079352
:1093F000C38800200893694B00F028FAEB88628943
:109400009A4200D18DE062889A4200D18EE0B37812
:10941000062B06D01DB03CBC90469946A246AB46F2
:10942000F0BD00205E4900F011FA3F6863883A8879
:109430009342EFD1002B00D1A8E09B460EAB9C4697
:1094400000230022984663463D1C0B920D940C931A
:10945000AB886C88D218D2B2AE1D0B92002B00D113
:1094600092E00C9847468446211D614482468E4214
:109470007F41A244291CBC464046474652460A3119
:109480008A4247416046391C0143092084469C4575
:109490008041404208425DD051460320314308429A
:1094A00058D150460B9A1D1F9246021C0027AD084A
:1094B0000135A900AC469946351C131C381C0C9F7D
:1094C00004CD013004C36045FAD352464B460B929B
:1094D0000C9775188B421CD0287881461CA88446AE
:1094E000A44460464F46401838380770481C9842DC
:1094F0000FDA6F780231B9461CAFBA4650440419EE
:109500004846383C20708B4203DDA87861443839E6
:109510000870F5185B46002B2DD02B880B9A9B46C4
:1095200096E700201F4900F091F973E720350020ED
:109530001D4900F08BF9328B291C002006F026FC17
:109540001A49002006F0EAFF327EA369201C291C7C
:1095500098475FE70B9A002194462A1C251C0C9F14
:10956000501884797819445401318B42F8DC6246F2
:109570000C970B92CDE70C9B0B9A9C460D9CA36914
:10958000201C6146984745E7351CC3E70EAB002217
:109590009C46F4E7D82102008C210200E021020061
:1095A00014220200E821020000220200A426020088
:1095B00070B5151C0A8882B0061C0C1C512A03D8F1
:1095C0001A499300CB589F46009200201849194A27
:1095D000194B00F03BF902B070BD211C2A1CFFF7AB
:1095E000E7FEF8E701235B428382F4E7002013499A
:1095F00000F02CF9124B291C2B603623AB80A0887D
:10960000FFF7D4FE0028E6D09D210E4A06F06AFA44
:10961000E1E700200C4900F019F9DCE7A2880020FE
:109620000A4900F013F9A388B382D4E7342002007A
:10963000A0220200D0220200F01B02003822020009
:10964000FC2500206022020078220200282202006D
:10965000F0B54D4644465F4656460123F0B45B42A2
:10966000838208C9051C83612023041C1C3597B024
:109670002022281C994607F01AF9574906A81022FB
:1096800007F015F9211C06A81231FFF78DFE0028FE
:1096900006D017B03CBC90469946A246AB46F0BDFA
:1096A000A37C04A98B704D4B0130221C0B80FFF76B
:1096B00075FE0028EDD10F26B046C1B2B1430E3E73
:1096C0003143464631401026B246564602AA31433F
:1096D0001170414683B21B0A8B430E390B4341463E
:1096E0000B40334353700223022193709B46C3B255
:1096F0000B43334369463C2614926A4689190F90FE
:10970000109011901290139015900B70A37C03AFE2
:109710009375334B388093824246C3B293430E3ADB
:10972000134342461340524613433B705B46BB70A3
:1097300005AB0A935B460AAE0C900D900E903381F8
:10974000B381231C2088321C0A330B97FFF728FEB5
:1097500000289ED10222C3B2134308223C211343A6
:109760006A4652180F901090119012901390149016
:10977000159013706A464146A37CB0609375194BEF
:10978000F0609382C2B28A430E390A4341460A40CE
:1097900051460A433A70424683B21B0A93430E3A3B
:1097A0001343424613400B437B705B46BB7005ABD3
:1097B0000A934B463381B3814B46776035612A1C4F
:1097C000009309492B1C00F041F82088A31C0FA925
:1097D000321CFFF7E5FD5CE77C2102002315000049
:1097E0002515000026150000D82202001E2230B5E3
:1097F0000223051C00208DB06A441380089008AC39
:1098000009900130A0700A9268890A78208000923D
:109810000B91497804930191084BA98A0392029114
:109820000593074A074B0020074900F00FF8A88A64
:10983000211CFFF7B7FD0DB030BDC046E41A020091
:10984000D02202003C1C0200082302000EB430B5F6
:10985000051CC6B049AC08CC094A0193009202929B
:10986000084B06A8084907F097F8281C06A905AA7E
:10987000059406F0F9FB46B030BC08BC03B01847AD
:10988000E41A02000C20020030230200A02210B5CE
:10989000064BD205D15880231B041C1CA1208C43ED
:1098A0000B400349C0001450535010BD0405000084
:1098B0000C050000F0B544465F4656464D46F0B4F0
:1098C000041C87B011280FD0122800D192E0132871
:1098D00000D193E0142800D194E007B03CBC90463E
:1098E0009946A246AB46F0BD0023002599460129C2
:1098F0006CD0002952D00229EFD1514E514B524F1A
:10990000F258524B002098461B689900CB180093E0
:109910004F493B6806F002FE4A4BF2583B68D21AA8
:1099200043461B689900CB189A4225D202AB9C464D
:10993000484B0F249B4600239A46424B64440393B2
:109940005346211C4846237005F07AFA23780020FC
:1099500059462A1C06F0E2FD2378002BBDD03220A8
:1099600003F078FC039BF2583B68D21A43461B680D
:109970009900CB189A42E3D30020374906F0CEFD78
:109980006B005D19354B5D196E78002EA5D0344BF8
:109990001B68002BA1D0301C98479EE7314900205E
:1099A00006F0BCFD304B186806F00AF82F49021C7F
:1099B0000020FFF74BFF294A6B005B19D3182C4A94
:1099C0009B78565D9E4200D087E7DEE7002029495C
:1099D00006F0A4FD214B6F00984642467B19D65CE9
:1099E00043445B78002B11D17F194744BA78204B50
:1099F0005A55CAE701230125994678E70223022533
:109A0000994674E703230325994670E70D4B0C4AEA
:109A1000D2580D4B1A60144B18680C4B1B689900F8
:109A2000C918154B1A1C994605F03CFF021E01D1BE
:109A30004B461C7000201149FFF708FFD4E7C046D1
:109A400000100140040500003C26002040260020B4
:109A5000C4240200F02402000C2502005826002035
:109A6000482600207424020044260020B42402006A
:109A7000382600202424020032260020642402001C
:109A8000F8B5AC4B1B68DB0700D4F8BDAA4A1478C4
:109A9000172CFAD8A949A300CB589F46A022A84B5F
:109AA000D205D1588023DB031C1CA1208C430B4022
:109AB000A449C00014505350A34B00221868A34B74
:109AC0001B689900C91805F0EDFEDEE7A023F02120
:109AD000DB0549049B4A99500021043A9950D4E788
:109AE000A022974BD205D1588023DB031C1CA12058
:109AF0008C430B409349C00014505350924B0022AA
:109B00001868924B196805F0CDFEBEE7A021A12090
:109B1000A0230026F025C9055B04C000894C0B502A
:109B2000874B0E51CB586D046B408025AD032B4005
:109B300000D1EBE00D5003230E5108211370824B2E
:109B400000221868814B1B68594305F0ABFE9CE767
:109B5000A021A120A0230026F025C9055B04C00098
:109B6000784C0B50764B0E51CB586D046B408025D2
:109B7000AD032B4000D1D1E00D5004230E5128211C
:109B8000DCE7A023A122E021DB05D20049048024E8
:109B9000995000216B48A40319501C50995074E748
:109BA0006B4D286805F00CFF11231C1B00D19EE0B3
:109BB000002800D09BE0012C0DD0C8306421604308
:109BC00006F0E4FC614B2D681B6800224343281C0F
:109BD000191C05F067FEA0238021DB05090479E745
:109BE000A023B021DB054904A122D2009950002115
:109BF000544A995049E7A021A120A0230027F0262C
:109C0000C9055B04C0004F4D0B504D4B4F51CB5815
:109C1000760473408026B60333406DD00E504F510A
:109C2000022C00D17FE02821147088E7A023A12214
:109C3000C021DB05D2004904C024995000214148CD
:109C4000E40319501C5099501FE7A023A122D021F2
:109C5000DB05D20049048024995000213948E403EF
:109C600019501C50995010E7A023F021DB0549043E
:109C7000BAE7A023A122DB05D200A02186E7A0211C
:109C8000A120A0230026F025C9055B04C0002D4CAF
:109C90000B502B4B0E51CB586D046B408025AD0300
:109CA0002B4030D00D500E5105231370264B00224F
:109CB0001868264B1968490005F0F4FDE5E6A02177
:109CC000A120A0230026F025C9055B04C0001D4C7F
:109CD0000B501B4B0E51CB586D046B408025AD03D0
:109CE0002B4018D00D500E510623137006E7A02309
:109CF0008021DB05090477E74E510B50022C15D06B
:109D0000042114701BE70D510B50CDE70D510B5082
:109D10000221032312E70D510B50E5E70D510B50C3
:109D2000042104230AE71221147008E702211470A9
:109D300005E7C046342600205026002044230200B8
:109D4000040500000C0500005426002040260020D9
:109D50004C260020F0B544465F4656464D46F0B4CA
:109D6000041C3B4B3B4A87B0D25800203A49FFF7CE
:109D70006DFD2378112B0CD0122B5DD0132B5FD0EF
:109D8000142B61D007B03CBC90469946A246AB4626
:109D9000F0BD002300259B462E4E2D4B2F4FF25831
:109DA0002F4B002098461B689900CB1800932D4933
:109DB0003B6806F0B3FB264BF2583B68D21A434689
:109DC0001B689900CB189A4225D202AB9C46264BC1
:109DD0000F249A46002399461D4B644403934B4637
:109DE000211C5846237005F02BF82378002051469B
:109DF0002A1C06F093FB2378002BC3D0322003F0FB
:109E000029FA039BF2583B68D21A43461B68990013
:109E1000CB189A42E3D30020144906F07FFB6B0075
:109E20005D19134B5D1968780028ABD0114B1B6886
:109E3000002BA7D09847A5E7012301259B46ABE758
:109E4000022302259B46A7E7032303259B46A3E79E
:109E50000405000000100140502502003C260020AF
:109E600040260020C4240200F02402000C25020039
:109E7000582600204826002070B5CC4B041C1B68D7
:109E80000020DB0700D470BD172CFCD8C84AA30003
:109E9000D3589F46A022C74BD205D1588023DB035D
:109EA0001C1CA1208C430B40C349C00014505350CC
:109EB000C24B00221868C24B1B689900C91805F0F4
:109EC000F1FCE0E7A022BB4BD205D1588023DB0395
:109ED0001C1CA1208C430B40B749C00014505350A8
:109EE000B64B00221868B64B196805F0DBFCCAE7D0
:109EF000B44D286805F064FD11231C1B00D130E12E
:109F0000002800D02DE1012C0DD0C8306421604321
:109F100006F03CFBAA4B2D681B6800224343281C1B
:109F2000191C05F0BFFCA0238021A34ADB0509040E
:109F300099500021043A9950A5E7A023F021A122CD
:109F4000DB054904D200995000219B4A002099501A
:109F500012229D4B1A7096E7A023A122E021DB0577
:109F6000D20049048024995000219348A403195039
:109F70001C5099501322944B00201A7083E7A023A1
:109F8000F0218D4ADB05490499500021043A99508B
:109F90008D4B00201C7076E7A022B021A123D205B2
:109FA0004904DB00D1500023834900205350864AE6
:109FB000137068E7A022A121A0230026F025D20576
:109FC0005B04C9007C4853507A4B1650D3586D043B
:109FD0006B408025AD032B4000D1D5E05550165085
:109FE000022C00D1DDE02821774B1C70734B00223E
:109FF0001868734B1B68594305F054FC43E7A023D2
:10A00000F0216D4ADB05490499500021043A99502A
:10A01000002038E7A023A122D021DB05D20049048B
:10A020008024995000216448E40319501C50995031
:10A030001422654B00201A7025E7A022A121A0233D
:10A040000025F024D2055B04C9005B485350594BEE
:10A050001550D358640463408024A403234000D1E6
:10A060008AE0545015500821032217E0A022A121B4
:10A07000A0230025F024D2055B04C9004E485350AC
:10A080004C4B1550D358640463408024A4032340F0
:10A0900000D17FE054502821155004224A4B1A70F9
:10A0A000A4E7A023A122A021DB05D200490480243B
:10A0B000995000214048A40319501C509950072280
:10A0C000414B00201A70DEE6A023A122C021DB054F
:10A0D000D2004904C024995000213748E4031950A4
:10A0E0001C5099501522384B00201A70CBE6A02244
:10A0F000A121A0230025F024D2055B04C9002E482D
:10A1000053502C4B1550D358640463408024A4034F
:10A11000234036D05450155005222B4B1A70274B34
:10A1200000221868264B1968490005F0BBFBAAE617
:10A13000A022A121A0230025F024D2055B04C900A0
:10A140001D4853501B4B1550D35864046340802462
:10A15000A403234022D05450155006221A4B1A70E3
:10A16000BEE6A0238021A122DB050904D20099507C
:10A170000021114A995086E61450535002210322BF
:10A180008CE714505350C7E715505350022C0AD097
:10A19000042129E71450535004217EE714505350F2
:10A1A000DBE7122120E702211EE7C046342600200B
:10A1B000A4230200040500000C0500005426002022
:10A1C000402600204C26002050260020224B10B5AF
:10A1D0001960224B041C1860214B1A60830710D5AC
:10A1E000204B214A21481A60214A5A60214A9A602C
:10A1F0004A08042104F0B2FD002820D0E30703D46C
:10A200001CE0C3070ED50020A023F022A1210024CA
:10A21000DB055204C9005A5017495C500C315A50A2
:10A2200000280BD115480021154A05F007FB00282E
:10A2300004D114480121144A05F000FB10BD04F0BC
:10A24000E7FD0028DAD111480021114A05F0F6FA9D
:10A25000E307E5D5D8E7C046402600203426002095
:10A2600048260020582600200D110D0E042402005F
:10A27000120E0F130F1014100C05000054260020AE
:10A28000819A01004C2600208D9801004426002070
:10A29000559D010073DF7047F8B5071C0E20002F95
:10A2A00000D181E0002A00D17EE000243F48047004
:10A2B0003F48036006983F4B18603F48031C61CA43
:10A2C00061C361CA61C361CA61C300223B4B1C60A8
:10A2D0009C809A713A4B3B4A1A603B4A3B489A60D1
:10A2E000046044608460C460046144618461C4614A
:10A2F000046244628462C4623B783A1C0370BB7897
:10A3000010328370FB78C3707B784370031C10336A
:10A3100030CA30C3031C103A083330CA30C3031CA0
:10A320000832183330CA30C37B6A002B11D0284B57
:10A33000284E43627C6A9E6022881A80A5889D8090
:10A34000002D06D00023A268D25CF2540133AB4248
:10A35000F9D1BB6A002B14D01F4B204E8362BD6A1B
:10A360009E60AC889C802A881A800023002C05D02F
:10A37000AA68D25CF2540133A342F9D12C23FA5CCF
:10A38000C2543B6A002B06D0154B03623A6A5488CC
:10A390005C8012881A807B68002B03D0114B4360CD
:10A3A0007B68436000F0BEFAF8BDC0466C27002011
:10A3B000A0260020C4260020D0260020C826002089
:10A3C00018270020F42600204C27002064260020B7
:10A3D00094260020A426002074270020282700208F
:10A3E0007027002014270020F0B546464F46002471
:10A3F000C0B4BC4E89B0307001A8019404F0B4FA26
:10A4000008280CD0002805D1019B002B08D0012280
:10A41000B54B1A7009B00CBC90469946F0BD01943A
:10A42000B24BB34F994600234A4613609380937111
:10A430007B78002B48D03578012D00D180E0BB78A7
:10A44000002B00D112E1022D7AD03B7B002B01D1F1
:10A45000032D6AD03B7E002B00D185E0A54B1B6805
:10A46000002B03D0EA1E012A00D8A0E00022A24B54
:10A470001A70002302AC029398466360A360E36005
:10A4800023616361022D00D1E1E071D9032D00D178
:10A49000C6E0042D7AD1BB8B23823B8C6382974B21
:10A4A0001A79002A00D1EBE03A78002A04D0944AC5
:10A4B0001278002A00D101E10422924B92481A70CE
:10A4C00006F060FA357861E0BB783578002B42D031
:10A4D000022D35D0012DB8D102233370BB78002B6B
:10A4E0001DD04B465B78002B00D0CEE04B469B78CE
:10A4F000002B00D0C9E04B46DB78002B00D0C4E035
:10A500004B461B79002B00D0BFE04B465B79002BFC
:10A5100000D0BAE04B469B79002B00D0B5E0032376
:10A5200033703B7B002B00D0A4E0042333703B7ED0
:10A53000002B36D10023734A33701370002595E742
:10A540006C4B1B68002B00D1A1E001216F4A082051
:10A55000117098473578012D3FD0022DBED03B7B3E
:10A56000002B00D076E773E7042D00D076E7E1E713
:10A57000012D0BD1664806F005FA4B466360434651
:10A58000638223825F4B25701D703578002D1ED1AC
:10A59000584B1B68002B02D05A4A1078984700206D
:10A5A00038E7544B04251B68002B00D15EE73A784E
:10A5B000002A00D15AE7524A1278002A00D055E703
:10A5C00001214D4A072011709847357851E7201C2A
:10A5D000FFF760FE0028DBD01CE77B78002B00D162
:10A5E0007AE74B465B78002B00D037E74B469B78E9
:10A5F000002B00D032E74B46DB78002B00D02DE754
:10A600004B461B79002B00D028E74B465B79002B8B
:10A6100000D023E74B469B79002B00D15CE71DE778
:10A62000BB8A63823B8A2382344B1A79002A23D067
:10A630003A78002A03D0324A1278002A2AD003221C
:10A64000304B34481A7006F09DF935789EE7304853
:10A6500006F098F94B466360012323703B896382BF
:10A660007B682382274B1D7035788FE7022D00D041
:10A67000EBE654E70325F1E61A7B002AD8D1DEE7A2
:10A680001A7B002A00D00FE716E70225E6E61F4AEC
:10A69000137060E7E36004231F4802320021227236
:10A6A000C37000F03FF9002800D0B3E60522154B37
:10A6B0001A481A7006F066F9357867E7E3600423F4
:10A6C0001548023200212272C37000F02BF90028D5
:10A6D00000D09FE606220B4B11481A7006F052F983
:10A6E000357853E76C2700206D270020C82600200E
:10A6F000D0260020A0260020482700201827002070
:10A70000C3260020802700201C26020047270020A7
:10A7100064250200C0250200642600208C2502006A
:10A72000E825020010B50388112B20D0192B06D084
:10A73000102B00D010BD8288264B1A80FAE7827950
:10A74000002AF7D1244B1B78022B39D02DD9032BAB
:10A7500020D0042BEED1214C2148227006F012F9B2
:10A76000204B1B68002BE5D020789847E2E70022B9
:10A770001D4B1A70174B82881B889A42DAD1012030
:10A78000FFF732FE0028D5D0184B1B68002BD1D024
:10A790009847CFE7114A1648137006F0F3F80420E3
:10A7A000FFF722FE0028EFD1C4E7012BC2D11148E8
:10A7B00006F0E8F80220FFF717FE0028E4D1B9E719
:10A7C0000D4806F0DFF80320FFF70EFE0028DBD16E
:10A7D000B0E7C0467E2000206C27002080270020A4
:10A7E000EC260200A0260020C3260020C42600205C
:10A7F000A82602004426020074260200023808B58A
:10A80000012803D8094B1A78002A00D108BD00227C
:10A810001A70074B1878FFF7E7FD0028F6D0054BB4
:10A820001B68002BF2D09847F0E7C0466D27002048
:10A830006C270020C426002072DF704779DF704744
:10A840007DDF704765DF7047F0B55F46564644468A
:10A850004D46F0B485B09A460E9B061C98461B7870
:10A860008B4601930388171C002B40D00023994688
:10A8700002AB0024DD1C03E033880134A3422CDD4D
:10A880007368A1009C460422614403A806F00FF8F7
:10A8900003A8291C0022FFF7D5FF002828D12B7818
:10A8A000BB42E9D14B46002B29D043461A78D31935
:10A8B0001F2B34DC524403A8291CFFF7C3FF0028D8
:10A8C00016D143461A782B780134D31842461370B8
:10A8D000012399463388A342D2DC4B46002B06D095
:10A8E000434651461B78019A013B9B1A8B5400202A
:10A8F00005B03CBC90469946A246AB46F0BD4346E7
:10A900001B78DA191D2A0ADC41469A1C0A70524645
:10A9100059460133DBB2D15443461A78CAE70C20BA
:10A92000E6E7C046F0B55F464D464446564600232E
:10A93000F0B497B005AD02AA041C0F1C2B70537322
:10A94000002800D15EE1C3785B0700D4EFE0037814
:10A95000002B00D027E28378002B00D058E20023A0
:10A96000E278002A00D0EAE06268002A0FD011786D
:10A970001C2B00DD3DE102220A2006AEF2545A1CD7
:10A98000D2B2B054DA1C0233DBB22A70F1542389FC
:10A99000002B00D058E2238A002B00D0AFE2238B9B
:10A9A000002B00D0C4E2236A002B50D02A780C2060
:10A9B000911D8A461F2900D9BAE0198805388B46AF
:10A9C000052900D8B4E08C4E6946B446DC4466469E
:10A9D000CE81CE89B446894EB046B44500D8A7E0B2
:10A9E0005E88B446052E00D8A2E0834E6644CE8130
:10A9F000B6B2464500D89BE0814EB34504D0B4457D
:10AA000002D0E34500D993E0052006AEB054901C77
:10AA1000C1B2297089466946501C8873C0B2844609
:10AA200012208046604641463154198804328C46D3
:10AA300049467018614601706146090A41705B8899
:10AA4000D2B2B61833701B0A737053462B70636A08
:10AA50009846002B2CD01B792A789C460233911CF7
:10AA6000DBB2CB180C201F2B62DC634606AE03332F
:10AA7000B354531CDBB2F330F0544346C9B22970CF
:10AA80001B8871180B7004321B0A4B70D3B22B70E9
:10AA9000994643469A88002A0AD09968002946D0E8
:10AAA000301C484405F003FF43469A884A442A7004
:10AAB0002C23E35C06AE002B00D1A4E0A26A002A9E
:10AAC00035D09046013BDBB201335A00D3189B00CE
:10AAD0004344994616232C789A460DE0301905F028
:10AAE000E6FE43469B88E418E4B22C700C239C4697
:10AAF000E044C84500D186E0434651469B88621C2D
:10AB00000333D2B23355B1544246A31CDBB22B708F
:10AB10001288F3181A70120A5A7043460434E4B2C9
:10AB20002C709A88002AE1D099680029D6D1072094
:10AB300017B03CBC90469946A246AB46F0BD0221F8
:10AB400006AEF154991CC9B288460121581CC0B206
:10AB5000315441460333DBB22B70725404E77B78E7
:10AB60000C201D2BE4DC02AB9C460E241D23644408
:10AB700026306044211C2380FFF762FE0028D7D1D5
:10AB80003B78022B00D182E27B78002B03D09BB272
:10AB900008221D2B01D9082223880EA98846404689
:10ABA000427002AA527BDBB20232591C9B18DBB204
:10ABB00002AA01705373BA78002A00D0F3E1FA7840
:10ABC0009446002A0FD00222414601204446CA542E
:10ABD000591CC9B2605460469A1C0333D2B2DBB22E
:10ABE00002A94B73A0547A68002A31D011781C2B2B
:10ABF00020DD0C209CE7C0467FF3FFFF7DF30000C3
:10AC0000FFFF00000026002F00D1D1E1FB78002BD0
:10AC100000D08CE702AA53733B78002B9FD1BB78FE
:10AC2000002B00D09DE17A680023002A10D0117813
:10AC30000EAA9046022240464446C2540A205A1C9C
:10AC4000D2B2A054DA1C023302A8DBB24273E15440
:10AC50003B89002B00D010E13B8A002B00D02DE176
:10AC60003B8B002B00D0A7E13B6A002B50D002AAFF
:10AC7000527B0C20911D8B461F2900D958E718885C
:10AC8000824654460720052C00D851E7DB4C694624
:10AC9000A446D4446446CC81A4B2A446D84CA04671
:10ACA000A44500D844E75C88A446052C00D83FE7BB
:10ACB000D24C6444CC81A4B2444500D838E7D14C8E
:10ACC000A24504D0A44502D0E24500D930E70EA841
:10ACD000804605204446A054901CC1B202AC61736A
:10ACE000541C8946E1B21224A4464446604660548E
:10ACF00048461C8840440470240A447004325B882F
:10AD0000D2B2424413701B0A53705A4602AB5A73B4
:10AD10007C6A002C37D023790C209C4602AB5A7BEE
:10AD200063460233911CDBB2CB181F2B00DDFFE61C
:10AD30000EAB98466346404603338354CBB29C46E1
:10AD4000614602AB5973FF204146531CDBB2C85425
:10AD50006146238841440B7004321B0A4B70D3B206
:10AD600099464A4602AB5A73A288002A0BD0A168C2
:10AD7000002900D1DBE64046484405F098FDA28852
:10AD800002AB4A445A732C23FB5C002B00D03BE1FE
:10AD900002AB5C7B0EAB984642462978301C231CE4
:10ADA000FFF74AFDC4E663780C201D2B00DDBFE6EB
:10ADB0000EAB98461D234246138002AB9C460630DC
:10ADC00060444146FFF73CFD002800D0B0E6237800
:10ADD000022B00D154E16378002B03D09BB20822F0
:10ADE0001D2B02D9434608221B8806AE72702A78B2
:10ADF000DBB20232591C9B18DBB231702B70A27887
:10AE0000002A00D1ACE50C201B2B00D990E601E014
:10AE10000EAB98464046FFF711FD002800D087E6AC
:10AE2000032219212B7806AEF2545A1CD2B2B15427
:10AE3000424611889A1CD2B2B61804333170DBB284
:10AE4000090A71702B708BE50823984606AEA04462
:10AE50000095404602210222331CFFF7F5FC002832
:10AE600000D065E60095404606211022331CFFF70E
:10AE7000EBFC002800D05BE68DE50EAB02AA9846FD
:10AE800094463C1C0D23083463440093201C02218B
:10AE900002224346FFF7D8FC002800D048E602AA69
:10AEA00094460D2363440093201C06211022434640
:10AEB000FFF7CAFC002800D03AE6CDE60EAB02AAA6
:10AEC000984694463C1C0D23103463440093201C88
:10AED000032102224346FFF7B7FC002800D027E6F3
:10AEE00002AA94460D2363440093201C07211022DC
:10AEF0004346FFF7A9FC002800D019E6B0E610236E
:10AF0000984606AEA0440095404603210222331C19
:10AF1000FFF79AFC002800D00AE60095404607217A
:10AF20001022331CFFF790FC002800D000E636E525
:10AF30001823984606AEA0440095404614210222EC
:10AF4000331CFFF781FC002800D0F1E50095404656
:10AF500015211022331CFFF777FC002800D0E7E50D
:10AF600021E502AB0E249C466444201CFFF766FCDE
:10AF7000002800D0DCE50EAA90460322414602AB31
:10AF80005B7B4046CA5419215A1CD2B281549A1C88
:10AF90002188D2B2424411700433090A5170DBB2E5
:10AFA00002AA53730BE60C201B2B00D9C0E5DCE78B
:10AFB00002AB5C7B0022F0E60EAB02AA98469446F8
:10AFC0003C1C0D23183463440093201C14210222DE
:10AFD0004346FFF739FC002800D0A9E502AA9446B1
:10AFE0000D2363440093201C152110224346FFF7D4
:10AFF0002BFC002800D09BE536E6C0467FF3FFFF20
:10B000007DF30000FFFF0000BF6A002F00D18EE536
:10B01000013BDBB202AA0133547B5A00D3189B00D8
:10B0200099460EAB984616239A46B9444246414685
:10B030005046BB8803331355A31CDBB202AA5373DB
:10B04000621CD2B288543A8843441A700434120AFB
:10B050005A70E4B202AB5C73BA88002A0CD0B968AB
:10B06000002900D163E54346181905F020FCBB8890
:10B07000E418E4B202AB5C730C374F45D6D18BE6D3
:10B0800043461B8809221D2B00D8AEE6A3E6238881
:10B0900009221D2B00D880E576E5C04675DF704794
:10B0A00076DF70477ADF70477BDF704710B5184B4B
:10B0B00082B01888174B984214D0174A174C13784F
:10B0C0000133DBB21370217B99420DD20023137040
:10B0D000237C002B12D16369002B03D0002201A82E
:10B0E0000270984702B010BD0D49FFF7D7FF002846
:10B0F000F8D0A369002BF5D09847F3E73B21FFF781
:10B10000CFFF0028E7D0A369002BE4D09847E2E7FF
:10B11000B0270020FFFF00008C2700209027002090
:10B12000B427002030B51C4B1C4A5B88118883B0C3
:10B1300099420FD852889A420CD3194B5B69002B65
:10B1400003D0012201A802709847164C00232370F7
:10B1500003B030BD134C2378002B08D0104B5B6933
:10B16000002BF3D0002201A802709847EEE70E4BA7
:10B170000B4D1B78002B0CD0A9680C4B00221868D3
:10B1800004F090FB0028E1D0AB69002BDED098479B
:10B19000DCE76968F1E7C04684270020B427002077
:10B1A00090270020812700208C270020AC2700203A
:10B1B000164938B5021C0B1C32CA32C332CA32C31C
:10B1C00012681A600022124B01681A70002916D00A
:10B1D000104C0832201C05F06AFB201CFFF762FFB0
:10B1E00000280BD101220C4B52421A8000220B4B3B
:10B1F0000B481A7000210B4A04F020FB38BD0548AB
:10B20000FFF752FF0028EDD0F8E7C0469027002056
:10B2100081270020B4270020B02700208C270020A1
:10B22000AC270020ADB0010008B5024B186804F04F
:10B23000C7FB08BDAC27002010B50388112B36D002
:10B2400022D9122B18D0502B1DD1224CC288E38951
:10B250009A4218D1C38B022B15D11E33C35CDB0776
:10B260000FD41D4B186804F0ABFB00280BD0A3696A
:10B27000002B08D0984706E0811D0822174805F0EA
:10B2800016FBFFF74FFF10BD102BFCD1011C82886D
:10B29000134B16311A801148082205F008FB0022D2
:10B2A000104B1A700B4BDB89002BECD1E9E7012224
:10B2B0000B4B52421A8000220A4B1A70064B186838
:10B2C00004F07EFB0028DED0024B9B69002BDAD015
:10B2D0009847D8E790270020AC270020842700203B
:10B2E000B02700208C2700200B7803704B78437028
:10B2F0000220704738B5041C081C0D1C05F06EFBBD
:10B300006560208038BDC046A0DF7047A2DF70476F
:10B31000A3DF7047A4DF7047A6DF704730B50B8806
:10B3200083B0112B23D0502B06D0102B01D003B0AB
:10B3300030BD8B884382FAE7037D002BF7D0CA88A3
:10B3400043899A42F3D1CB8B022BF0D10468002CB5
:10B35000EDD00B1C212220259A5C5B5D1202134369
:10B360000122134001A953400B70A047DFE70123DE
:10B370005B424382DBE7C046F0B557464E46C0B459
:10B380000B6893B0036001235B4243820A790F1C70
:10B39000037404A902338B70424B0275041C021D16
:10B3A00001200B80FFF7B0FF8246002805D05046F1
:10B3B00013B00CBC91469A46F0BD237D002B55D1AD
:10B3C00002220BA90B934B608B60CB600B614B612E
:10B3D0008B6113430B7000234B616A46012368465F
:10B3E0009375314A03AE8282BA7B00203270FA7BB9
:10B3F00072700222B27091466A463D7B033215702C
:10B4000006AD089009902B81AB8105A806900A92A1
:10B41000A088A31D2A1C0796FFF778FF8246002804
:10B42000C5D1B96800291FD06A46012393751F4B07
:10B43000308093823B7C01AF33704B46381CB37035
:10B44000FFF752FF5346221CAB60EB6080B205ABA6
:10B450002B606E602881A8812F61E0880E32291C44
:10B46000FFF756FF8246A2E7E081A0E70F25012102
:10B47000C2B2AA430A432A40102502AB2A431A70DB
:10B480007A7B0BA95A7002229A700B9048608860F0
:10B49000C860086148618861C0B2104305430D70FF
:10B4A0009AE7C0460F180000192A0000082900007A
:10B4B00010B588B06B46D971037C041C00208B4208
:10B4C00016D001236A46029013816B46217407331C
:10B4D00002AA608AE1880393FFF71CFF021E07D1CE
:10B4E000638A0E498B4217D0217D0830002901D193
:10B4F00008B010BD04A904924A60E288181C0A80B2
:10B5000001228A706A4652898A8002AA8A60039A56
:10B51000CA60FFF701FFEBE70820E9E7FFFF000043
:10B52000A0DF7047A2DF7047A5DF7047A6DF704736
:10B53000A8DF704763DF7047F0B544465F46564664
:10B540004D46F0B4041C95B00E20002C17D00029F5
:10B5500015D04B68002B12D001235B4223801022B0
:10B560000D1C04A8614905F0A2F90A216A46604B46
:10B5700004A869441381FFF7DDFF002806D015B049
:10B580003CBC90469946A246AB46F0BD221D013018
:10B5900002A9FFF7C5FF0028F1D16B4634269A7A3D
:10B5A0006946042303AFBA70A2710F2203438919BD
:10B5B0000D900E900F9010901190129013900B70B0
:10B5C0004C4B90463B8083B21B0A93430122924628
:10B5D0005246134342461340102291464A4601AE5A
:10B5E00013433080737003236A46B3709B46142361
:10B5F0000A900B900C909385231CA08808AA08330E
:10B6000008970996FFF78EFF0028B8D10823C2B229
:10B6100013434A46342113436A4652180D900E9044
:10B620000F90109011901290139013704246A379CE
:10B630003080BB70304B0A903B8083B21B0A93432F
:10B6400052461343424613404A4613437370132332
:10B650006A46B37004330B900C909385231CA0882A
:10B660000DA908AA103308970996FFF75BFF002879
:10B6700000D084E7342102236A46034352180D9018
:10B680000E900F90109011901290139013704246EC
:10B69000A3793080BB70194B0A903B80C3B29343AF
:10B6A00052461343424613404A46134333705B46A7
:10B6B0000222B3706B460B901A8502229A85231CD6
:10B6C000A0880DA908AA2033089709960C95FFF7C2
:10B6D00029FF002800D052E76B68A362AB68002BFB
:10B6E00000D0E3620122064B1A7048E7502702009F
:10B6F000301500003215000031150000341500002F
:10B70000BC27002030B5031C87B000280AD005886C
:10B71000114C0820A54203D0104C2478002C03D1F2
:10B7200007B030BD0E20FBE70D481024417069467C
:10B7300004708C1D032182700022218002A90292D4
:10B740004A601A8AC8600A80012218888A708C6050
:10B75000FFF7ECFEE4E7C046FFFF0000BC27002037
:10B76000C0270020F0B589B0002815D0002913D0DB
:10B77000826A002A10D00B88112B23D00ED90D1C01
:10B78000041C502B0FD0512B06D18B79022B03D1E7
:10B790000A89038A9A4219D009B0F0BD102BFBD157
:10B7A0008B880380F8E7C98803899942F4D108217E
:10B7B00004AB1970E98B1972291C20310591191CF1
:10B7C0009047E9E701235B420380E5E78B7A043B7E
:10B7D000022BE1D90223002201AE04AF01923B709B
:10B7E00033806B4673600088A18A321CFFF79CFE91
:10B7F000002811D0E36A002B00D09847FE23208850
:10B80000FF33391CBB80FFF793FE0028C4D0E36AE6
:10B81000002BC1D09847BFE76B461B78DB07EDD5FF
:10B82000B880391C2088FFF783FE0028EFD122233F
:10B83000E95C082935D8264A8B00D3589F462B8CC3
:10B84000022B39D924232322EB5CAA5C1B0213436D
:10B85000B3805A42534106333370201CA36A311C13
:10B86000984799E70923F7E70223F5E701233370A7
:10B870002A8C9A421AD9291C233133727160A36A27
:10B88000201C311C984787E7002333702B8C012B39
:10B8900018D90123EFE70423DEE70523DCE70323C0
:10B8A000DAE7201C0322FFF72DFFAEE7201C022160
:10B8B0000622FFF727FFA8E7201C08210322FFF735
:10B8C00021FFA2E7201C01210622FFF71BFF9CE7B6
:10B8D0002C270200A0DF7047A2DF7047F0B54F466B
:10B8E00046460123C0B493B002A98B70D24B041C0E
:10B8F0000B80D24B01201A1C9946FFF7EBFF002862
:10B9000000D0CAE02688002E00D0CBE02689002E89
:10B9100000D0FBE0268A002E00D029E1268B002EE5
:10B9200000D057E1268C002E00D0A7E1268D002EF6
:10B9300000D0D4E1226B002A3BD001263C251178AF
:10B9400004AB1970517803AF59709178655D9970A7
:10B95000D1780020D970117919719268BE70B84EF3
:10B96000110A3E8001AE35703C25AC465A71120C6E
:10B97000DA71A4440222654699710BA90B900A70F2
:10B9800048608860C8600861486188616D78B270FD
:10B9900006AA9060D06008307570069756601081D6
:10B9A00013614B4690811888A64BFFF795FF00283E
:10B9B00073D1636B002B37D01A681E799046002A2A
:10B9C00000D1CBE1002E04D100206E219E4A04F06C
:10B9D00089F801203C2504AFB8709C48655D38802B
:10B9E00003A805703C25AC4600230222A44465460A
:10B9F0000BA90B930A704B608B60CB600B614B61A2
:10BA00008B616D78827006AA9360D36043461361A0
:10BA10004B464570506018888D4B0697168196816D
:10BA2000FFF75AFF002838D1A36B002B00D187E124
:10BA30001A7804A802705A8801264270120A82708D
:10BA40009A883C25C270120A0271DB880222437177
:10BA50001B0A8371002303AFBE707E4E655D0BA988
:10BA60003E8001AE0B9335700A704B608B60CB60EB
:10BA70000B614B618B613C346478B27006AA9360B1
:10BA8000D3600733138193814B46747006975660D9
:10BA900010611888704BFFF71FFF13B00CBC904665
:10BAA0009946F0BD63689846002B00D14AE1012019
:10BAB0003C2504AFB8706948655D388003A80570FF
:10BAC0003C25AC4600230222A44465460BA90B93F7
:10BAD0000A704B608B60CB600B614B618B616D7842
:10BAE000827006AA9360D360434613614B4645704B
:10BAF000506018885A4B069716819681FFF7ECFE26
:10BB00000028CAD12689002E00D103E7E3689846B1
:10BB1000002B00D11CE101203C2504AFB870514836
:10BB2000655D388003A805703C25AC4600230222E1
:10BB3000A44465460BA90B930A704B608B60CB60E5
:10BB40000B614B618B616D78827006AA9360D36044
:10BB5000434613614B46457050601888424B069728
:10BB600016819681FFF7B8FE002800D1D2E694E74F
:10BB700063699846002B00D1F6E001203C2504AF14
:10BB8000B8703A48655D388003A805703C25AC461E
:10BB900000230222A44465460BA90B930A704B6054
:10BBA0008B60CB600B614B618B616D78827006AAF4
:10BBB0009360D360434613614B46457050601888CC
:10BBC0002B4B069716819681FFF786FE002800D141
:10BBD000A4E662E7E3699846002B00D1CAE00120A1
:10BBE0003C2504AFB8702348655D388003A8057014
:10BBF0003C25AC4600230222A44465460BA90B93C6
:10BC00000A704B608B60CB600B614B618B616D7810
:10BC1000827006AA9360D360434613614B46457019
:10BC200050601888144B069716819681FFF754FED2
:10BC3000002800D176E630E70A180000102800201E
:10BC4000232A0000D8270020602702002A2A0000AB
:10BC5000E8270020502A0000F0270020292A0000B1
:10BC6000E0270020242A0000D0270020252A0000F9
:10BC700000280020272A0000F8270020636A984641
:10BC8000002B7DD001203C2504AFB8704248655D93
:10BC9000388003A805703C25AC4600230222A4444A
:10BCA00065460BA90B930A704B608B60CB600B61F0
:10BCB0004B618B616D78827006AA9360D3604346B6
:10BCC00013614B46457050601888344B06971681B7
:10BCD0009681FFF701FE002800D127E6DDE6E36A42
:10BCE0009846002B52D001203C2504AFB8702C4858
:10BCF000655D388003A805703C25AC460023022210
:10BD0000A44465460BA90B930A704B608B60CB6013
:10BD10000B614B618B616D78827006AA9360D36072
:10BD2000434613614B464570506018881D4B06977B
:10BD300016819681FFF7D0FD002800D1FAE5ACE628
:10BD40000020AAE600206D21174A03F0CBFEAEE6E4
:10BD500000206D21144A03F0C5FEDCE600206D21B1
:10BD6000114A03F0BFFE2DE600206D210E4A03F0BC
:10BD7000B9FE02E700206D210B4A03F0B3FE2EE767
:10BD800000206D21084A03F0ADFE7BE700206D2105
:10BD9000054A03F0A7FEA6E7262A0000082800208F
:10BDA000282A0000C8270020602702007FDF704794
:10BDB00082DF7047A7DF7047A9DF7047AADF7047AF
:10BDC0000020704700207047002070470020704717
:10BDD000002070470020704700207047F0B55F4694
:10BDE0004D4644465646F0B487B014236A46538005
:10BDF0004B78334F5A00D3189B00FB1880461889A4
:10BE00006B460D1C9A1C01A90323FFF7D7FF0028DE
:10BE10001DD16B782B4E9B466B465B885A469A46E3
:10BE20005B46DB009C1AA400201C0830301801A9D6
:10BE30005246994604F02CFD002810D15B460222A0
:10BE40005B005B449B00FF18BB7A13402ED00020A0
:10BE500007B03CBC90469946A246AB46F0BD3419AB
:10BE60006368002B20D1184F5A464B469B1A032279
:10BE70009B00F2506A7801A9D3009B1A52469B009E
:10BE8000F3185A606878C300181A80000830301818
:10BE900004F00DFD69784046CB00591A89007118ED
:10BEA0001C223823B847D2E7084FDDE73419236056
:10BEB0006360A360E36023616361A361C7E7C04679
:10BEC000302800207C280020F9E6010089E70100E5
:10BED000354AF8B54F46914646464946C0B4437880
:10BEE000071CDA00D21A920089184C68002C0DD079
:10BEF00058002E4EC11889007118897A4DB2002D54
:10BF000046DB002200250024904605E000220025A3
:10BF100000249046254E5800C3189B00F31818893A
:10BF20004146221C2B1CFFF747FF0B2808D0002896
:10BF300014D01F48012D14D00CBC90469946F8BD72
:10BF40007B7841465A00D3189B00F3181889221CAD
:10BF50000123FFF731FF002803D101250020012D27
:10BF6000EAD17B780C215A00D3189B00F61830894F
:10BF7000104AFFF71FFF0028DED002220E4BC31825
:10BF800093430FD008280DD011280BD00020D3E701
:10BF90004906B6D4111C083188464946C844A4B2A3
:10BFA0008D58B9E70248C7E77C28002030280020D8
:10BFB00041800000FFFF0000FECFFFFF021C38B5EC
:10BFC00048780C4CC300181A80000D1C2018111C56
:10BFD00038231C2202F020FC002807D16A78D30005
:10BFE0009B1A9B00E3185A68013200D038BD586094
:10BFF000FCE7C0467C280020F0B5474680B43F4FA0
:10C0000090B03C68002C3DD0169C582C3AD81C1C93
:10C010003B4B161C01936A4600231374169B0D1CA0
:10C0200080460021374802AA0994089302F038FBA1
:10C03000002806D1404602A9082204F029FC002865
:10C0400048D001AA9378FF2B1CD0032D2DD02E4968
:10C05000611A1B291AD92D4BE31A1B2B2AD800234E
:10C0600053700AAB09931823212108930A33022D38
:10C0700034D069460B7407AB0593101C3B6804A9C8
:10C08000321C984710B004BC9046F0BD204C21688B
:10C09000002E03D1012098400142F3D001209840A6
:10C0A0008143216022232121E1E7169B582B18D0E0
:10C0B0004323DEE71749631A1B2BE3D80023022032
:10C0C00053700133D370144B9B7A03400BD032234F
:10C0D0003121CCE701AA90700023B6E76B461974B2
:10C0E000C9E72323C5E70B604B608B60CB600B6116
:10C0F0004B618B6132333121B9E7C0469C28002067
:10C1000000FFFFFF582800203C2800206028002066
:10C11000982800207C28002030280020021C38B5F8
:10C1200048780C4CC300181A80000D1C2018111CF4
:10C1300038231C2202F070FB002807D16A78D30054
:10C140009B1A9B00E3185A68013200D038BD586032
:10C15000FCE7C0467C280020334AF8B54F4691469C
:10C1600046464946C0B44378071CDA00D21A92000A
:10C1700089184C68002C0DD058002C4EC11889002D
:10C180007118897A4DB2002D44DB0022002500246D
:10C19000904605E00022002500249046234E5800DA
:10C1A000C3189B00F31818894146221C2B1CFFF76B
:10C1B00003FE0B280CD0002803D1012D13D0002042
:10C1C00002E0012D0FD01A480CBC90469946F8BDEC
:10C1D0007B7841465A00D3189B00F3181889221C1B
:10C1E0000123FFF7E9FD7B780C215A00D3189B004F
:10C1F000F61830890F4AFFF7DDFD0028DFD0022254
:10C200000D4BC3189343DED00828DCD01128DAD0B8
:10C210000020D9E74906B8D4111C083188464946A0
:10C22000C844A4B28D58BBE77C28002030280020E9
:10C2300041800000FFFF0000FECFFFFFF0B55F462A
:10C240004D4644465646F0B487B014236A465380A0
:10C250004B78334F5A00D3189B00FB18804618893F
:10C260006B460D1C9A1C01A90323FFF7A7FD0028AC
:10C270001DD16B782B4E9B466B465B885A469A467F
:10C280005B46DB009C1AA400201C0830301801A972
:10C290005246994604F0FCFA002810D15B4602226F
:10C2A0005B005B449B00FF18BB7A13402ED000203C
:10C2B00007B03CBC90469946A246AB46F0BD341947
:10C2C0006368002B20D1184F5A464B469B1A032215
:10C2D0009B00F2506A7801A9D3009B1A52469B003A
:10C2E000F3185A606878C300181A800008303018B4
:10C2F00004F0DDFA69784046CB00591A89007118BC
:10C300001C223823B847D2E7084FDDE734192360F1
:10C310006360A360E36023616361A361C7E7C04614
:10C32000302800207C280020F9E6010089E7010080
:10C33000F0B54F464646C0B485B0002858D000231B
:10C3400001210025061C0120324A49421360537224
:10C350009372314A314C90721181D1721360938083
:10C3600095712F4A2360136053609360D36013610B
:10C37000536193616360A360E360FF332374A1762C
:10C3800021836574A574E57425756575A575254AC1
:10C39000136883431360244B6A46197058239380B3
:10C3A000224BD0800093224B6846191C984602F01D
:10C3B00001F9071E16D11F4B994601234A461370F7
:10C3C0003378002B1AD14046002102AA02F068F906
:10C3D00000280FD1201C02A91C22002302F01CFA05
:10C3E000002807D1381C05B00CBC90469946F0BD1A
:10C3F000114FF7E74B46071C1D70F3E76A466B4683
:10C400009188DB884046594389B202F05FFA071CE5
:10C41000E8E7C0469C280020302800203C28002067
:10C420007C2800209828002014280020F9BF010053
:10C4300058280020152800200E800000F8B5194B60
:10C440001B78002B01D11848F8BD00280AD000291C
:10C4500008D00B68002B05D0144E3768002F03D08E
:10C460001348F1E71348EFE7051C301C0C1C08C00B
:10C470000531052204F01BFA012223790421B3724D
:10C48000337AF079934302221343DBB28B43337246
:10C4900001230343DBB21A43D2B28A43F271002074
:10C4A0002F70D1E715280020088000009C2800206C
:10C4B000048000000E80000000487047918000005A
:10C4C000004870479180000000487047918000004C
:10C4D0000A4B1B78002B01D10948704700290BD06B
:10C4E000002809D00378002BF6D1064A1268002AEA
:10C4F000F2D00B700020F0E70348EEE7152800208B
:10C50000088000009C2800200E800000002806D033
:10C51000FF23037043708370C3700020704701488D
:10C52000FCE7C0460E80000008B5194B1B78002BB5
:10C5300001D1184808BD00281BD0002919D0037864
:10C54000002BF6D1144B1B68002BF2D08278FF2A07
:10C5500011D0D3009B1A114A9B00D3189A7E9207E0
:10C5600014D41033081C0722191C04F0A0F9002071
:10C57000E0E70B48DEE74378FF2B07D05A00D318DB
:10C58000084A9B00D3189A7A9207EBD40648D1E761
:10C5900015280020088000009C2800203C2800204E
:10C5A0000E8000003028002005800000F0B5244BEC
:10C5B0008BB01B78002B02D122480BB0F0BD0028B5
:10C5C0000DD000290BD00378002BF5D11E4B1B6832
:10C5D000002BF1D08378002B03D01C48EDE71C48DA
:10C5E000EBE71C4EB27EFF2AF7D00D1CCB608178A2
:10C5F000194FCA00521A9200B2186B61AB6003ABBC
:10C600002A616F602B60041C817801AA134802F034
:10C6100047F80028D1D103A801A91C221C2302F04D
:10C62000FBF80028C9D11C23E860A2786861534355
:10C63000F61803AB2E616F60A8602B60BDE7C046A3
:10C6400015280020088000009C2800201080000091
:10C650000E8000003C2800201828002058280020C8
:10C6600010B582B0041C81786A460D4802F018F8B3
:10C67000002812D160786946C300181A094B80005F
:10C6800018181C221C2302F0C7F8074B074A9B7A94
:10C6900068469B009B58211C984702B010BDC046BD
:10C6A00058280020602800209C280020C028020074
:10C6B000F0B55F4656464D464446FF23F0B4D04A97
:10C6C0008FB012780393002A46D0CE4F3A68904636
:10C6D000002A41D004AD05AE6B70AB70EB70031D4A
:10C6E00073602A23002233810388041C2A70102BD4
:10C6F00000D141E1FF21C44A80889146927A01919C
:10C70000910708D5C149884200D12CE149460989E1
:10C71000814200D127E1113B9BB2412B1CD8BC497F
:10C720009B00CB589F461323337000239B46281C45
:10C73000311C5A46C0473378122B0DD14B469B7A99
:10C74000012B09D04A4601239372023B1381D37215
:10C7500000231360938093710FB03CBC90469946C0
:10C76000A246AB46F0BDBB7AAA4A9B009B58281C48
:10C770009847F1E70223111C99430B1C08204946F6
:10C7800002408B7200D157E15BB2002B00DAFBE173
:10C7900010234A4693720233337000239B46C6E748
:10C7A000132333700423494613438B72C97AFF293C
:10C7B00000D177E116233370974B181C9C46083044
:10C7C0000023804660468360404643608360C360C8
:10C7D000036144231A434B469A7200239B468F4BB6
:10C7E00098460022CB00591A89008D4B41440B9288
:10C7F0000C910D92089309920A92A0883A1D00218B
:10C8000008ABFFF7D3FA0028A6D13B6898468EE71D
:10C810004B46DB7AFF2B00D16FE1804B804E984670
:10C82000311C42460023FFF7C3FA95E701217B7ACA
:10C8300004208B437B724B4682439A7214233370DD
:10C84000A3798A46002B00D01BE10021E3798B46B7
:10C85000184200D16BE7019BFF2B00D167E708234B
:10C860001A434B469A72E37A9B0709D55146019ABF
:10C87000D3009B1A694A9B00D3189A7E8A439A7602
:10C880004B46DB7AFF2B00D14FE74B461B78022B40
:10C8900000D1B9E1614B49469846019A0968D30035
:10C8A0009B1A9B0043441961494688889A7E988266
:10C8B00088799875022082439A766B4608AC9988ED
:10C8C0005848221C01F0ECFE002833D16B785A0046
:10C8D000D3189B004B449B7A5B0600D591E1524BE9
:10C8E0009A46A978201CCB00591A890041441C2281
:10C8F0000023D047002811D1697840304B005B18E5
:10C900009B004B449A7A82439A72CB00591A8B004F
:10C910004349201CC9181C221C23D0472B78201CFB
:10C920005A00D3189B00FB189B7A404A9B009B58E7
:10C93000291C98473B68984600239B46F7E6A37955
:10C94000112B02D1130700D5C3E080235B421A43A9
:10C950004B469A7215233370BB7A2E4A9B009B5824
:10C96000281C9847E6E74946C97A8A46A9700021FB
:10C97000697051460191CEE60121234B8A469946C2
:10C980009B7A194200D1E7E6494602238B720F33A6
:10C990006A703370838807220B81831D191C4846F7
:10C9A0009B4603F084FF237D54461C4000D182E067
:10C9B0001F4A5B08D45CFF2C00D1E3E00394A1B2D2
:10C9C0004B464A46DC720A231648937208AAAC709A
:10C9D00001F066FE0028ADD1687808A9C300181AD6
:10C9E00083000F481C22C0181C2301F015FFBB7ADE
:10C9F000104A9B009B5808A8291C98479AE7C046F4
:10CA0000152800209C28002030280020FFFF00006F
:10CA100098270200A02802007C2800203C28002043
:10CA20006028002058280020F9E60100B028020004
:10CA300014280020C02802000199FF2900D1A7E690
:10CA4000CB005B1A9B001C1C874F1034FB183C1951
:10CA50006270A270E27022716271A2711A605A60F3
:10CA60009A60DA60FF221A749A76013AFF3A1A83C2
:10CA700001238B40191C7D48AA7003688B43036017
:10CA800086E64B466A46DB7A79489380918808AA05
:10CA9000984601F005FE002849D0A3799B463B68E3
:10CAA000984644E6704B98469B7EFF2B00D1BEE033
:10CAB000704B9B4695E66C4859461030072203F0B0
:10CAC000E7FE00239B46002800D030E60394191CA3
:10CAD00076E7002368488360C36003614361836134
:10CAE0001633337060231A434B469A7202237A7AC4
:10CAF00013437B7200239B4619E65B4BE189984602
:10CB00001B8B0026994200D08AE64B46DE72082332
:10CB10001A434B46281C9A72AE70FFF7A1FD4B4694
:10CB2000DB7AA088FF2B00D17AE6544E78E608A87D
:10CB3000582101F0CBFE0028AFD14B4B42469B461B
:10CB40004346DB009B1A9B001A1C10329446DC44BF
:10CB5000624650709070D070107150719071FF22C9
:10CB60005B441A749A76013AFF3A1A834146186078
:10CB700058609860D86053468B403C4A116899438E
:10CB800011608AE7FF211BE76B4608AC998838489B
:10CB9000221C01F085FD002830D16B785A00D31893
:10CBA0009B004B449B7A5B063ED4354B9846A97854
:10CBB000201CCB00591A8B002B491C22C9180023BA
:10CBC000C04700280ED10C236A78403053434B44B1
:10CBD000997A814399721C235A432849201C891849
:10CBE0001A1CC0472B78201C5A00D3189B00FB1836
:10CBF0009B7A244A9B009B58291C98473B6898467F
:10CC0000C6E5214B9A466CE6174B019A98461B489D
:10CC1000D3009B1A408A9B004344188301201A1CAE
:10CC20009B7E8343937648E6174B9846BFE74B4677
:10CC30001B78022B16D0494643464A4609681961BB
:10CC400092889A824A4692799A75FD234246937653
:10CC5000002303AA1370039A9B46D1B24A46A970D7
:10CC6000D172BEE5FE23F1E73C2800209828002081
:10CC700058280020438000007C28002060280020E5
:10CC8000C1BD0100B028020089E7010030B50029CC
:10CC900015D00A78002A02D00A4B181C30BD0A4B66
:10CCA0001B68002BF8D0FF23084C8B702589FA3BBA
:10CCB0008542F2D14A70E37A8B700023EDE7044B92
:10CCC000EBE7C046088000009C28002030280020A8
:10CCD0000E800000F0B5002820DBFF271B4B03224D
:10CCE0009C463B1C8408C026C0B20240D200934040
:10CCF000A4006444B600A5599D438B013B4093407A
:10CD0000191C2943A1511F2318401E3B8340C022F8
:10CD1000181C0E4B520098501860F0BDFF260C4AAC
:10CD200003249446321C0F23C0B20440E400A24006
:10CD30000340083B9B089B006344DD6995438A01DF
:10CD40003240A240111C2943D961DCE700E100E038
:10CD500000ED00E070B54E25174C0820635D002BF8
:10CD600000D070BD201CFF21202228300126FBF7B7
:10CD70001FFA201C7642FF21242240C0FBF718FA3C
:10CD80004823FF22E6540133E2540133E6540133D1
:10CD9000E6540133E654062001330121E654FFF73F
:10CDA00099FF8021C123054A9B000906D150012328
:10CDB00000206355D5E7C046A82800200060004049
:10CDC0004E23034AD05C431E9841C0B27047C04610
:10CDD000A8280020F0B5474680B45A4C9046231846
:10CDE00028331E7808257F2E03D8281C04BC9046C3
:10CDF000F0BDCD78AC46002D43D02268013200D181
:10CE000094E004270026731C9D006259013240D033
:10CE1000B31C9F4233D99D006259013239D0F31CB3
:10CE20009F422CD99D006259013232D0331DBB4242
:10CE300025D29D00625901322BD0731D9F421ED90D
:10CE40009D006259013224D0B31D9F4217D99D0025
:10CE5000625901321DD0F31D9F4210D99D006259C5
:10CE6000013216D001339F4209D99D006259013227
:10CE70000FD00936B74202D9636A013307D00425BF
:10CE8000B3E72269013256D00A270426BBE70923FB
:10CE900024254246625162462718DEB228373E708A
:10CEA000002A02D1E318443318708B78002B15D177
:10CEB000031CA0254A78C133FF3392009B00ED0587
:10CEC0005A51CB78002B15D176B2A41944340B7883
:10CED00022789B0113432370002586E7A022D20508
:10CEE0009446E025022783006344ED005A59BA4373
:10CEF0005A51E6E7A22476B2134BB600F318E400C9
:10CF00000A781D591149000229401951F821490197
:10CF10000840061CC0211004021C301C89021D5947
:10CF20000A4010432843185100255EE700261E7072
:10CF300043462360B9E704251D7043462E1C236138
:10CF40002B1CAFE7A828002000600040FFE0FCFF9A
:10CF5000F0B5264D2C182834227853B2032B18DD57
:10CF6000EB1844331B789B09032B32D0012B39D0AB
:10CF7000C025AD02A023DB059C46E0238000604471
:10CF8000DB00C4581A492140C150C2582A43C2503C
:10CF9000F0BD032AFCD81748A227844601269A0030
:10CFA0006244FF00D0593043D0511A1C604600271C
:10CFB0004032920092B217500029E9D00022A256C6
:10CFC00092005259002AE3D0C1229E40920086501E
:10CFD000DEE7A223A022DB00D205D2580123834042
:10CFE0001A42C5D18025AD02C4E7C046A82800205A
:10CFF000FFFFFCFF00600040A223A022DB00D2055F
:10D00000D358C340181C012318407047F0B544465C
:10D010005F4656464D46F0B4844A83B013680024F8
:10D02000012B65D0824B1A68012A6DD0814B1A689A
:10D03000012A00D178E0804B1A68012A00D183E0F0
:10D040007E4B00261A68012A00D18EE023070BD000
:10D05000E30700D593E0A30700D5BBE0630700D545
:10D060009DE0230700D5A9E0002C06DB03B03CBC03
:10D0700090469946A246AB46F0BDC0239846C023D1
:10D080009B0200246E4D994605E0032B00D1B0E0D1
:10D090000134062CEAD0231C4833E95C4BB201333F
:10D0A000F6D0C9B24346081C98432B1828331B7886
:10D0B0005BB29B00EA58002AEAD0A027FF05BC46D5
:10D0C0008B09019383009C44E0276346FF00DB59F2
:10D0D0004F463B40012787401B0C3E42D5D0022BD8
:10D0E000D6D1019B032B00D18BE001999047CFE76C
:10D0F000C1215448890041580B4293D04C4B1460D5
:10D100001A680134012A91D1C1224E4992008958EE
:10D1100002220A4200D189E700211960454B1443DD
:10D120001A68012A00D086E7C12246499200895830
:10D1300004220A4200D17EE7002119603E4B1443CD
:10D140001A68012A00D07BE7C1223E499200895823
:10D1500008220A4200D173E700211960374B1443BB
:10D160001A680026012A00D070E71E6080231B0683
:10D170001C43A022A223D205DB00D65866E7A223D7
:10D18000304ADB00D058D1582D4DC00489032B689C
:10D19000C00E890F9847A30700D45FE71AE0A323C6
:10D1A000284ADB00D058D158254DC0048903AB680C
:10D1B000C00E890F9847230700D455E7214A224B18
:10D1C0001F4DD058D158C0048903C00E890FEB6899
:10D1D000984749E71D4B1B4A194DD058D158C004F8
:10D1E00089036B68C00E890F9847630700D438E73E
:10D1F000D5E7019B032B00D077E780239B029A465B
:10D2000002E0C0239B029A46E0216346C9005B58B6
:10D210009B465F460E4B3B4067467B507B585746CC
:10D220001F433B1C67467B505FE7C04600610040E0
:10D2300004610040086100400C6100407C610040D6
:10D24000A8280020006000401C0500001405000014
:10D25000FFFFFCFF82B00190019B002B14D0019BCB
:10D260000A48013B01930138C046C046C046C0464B
:10D27000C046C046C046C046C046C046C046C0467E
:10D28000F1D1019B002BEAD102B07047E703000007
:10D2900029DF704728DF704730B583B0002806D0FB
:10D2A000112806D108230F4A11680B43136003B0FD
:10D2B00030BD021C0C4801788B005B189B00C51820
:10D2C000281CE9686B694C0064182979074DA40093
:10D2D0002D680C300095064D6459A0470422054B7B
:10D2E0001A70E4E7E8290020F8280020F42900203B
:10D2F000CC290020ED290020F0B55F464D4644467C
:10D300005646F0B45E4F85B03C785E4D012C00D19E
:10D3100088E0002C00D16DE0022C16D0032C0DD13A
:10D32000594B1868FFF7B6FF021E07D0112800D02E
:10D3300080E00823554A11680B43136005B03CBCDC
:10D3400090469946A246AB46F0BD504B99461B68A5
:10D3500003932B789E00F3189B00EE1833699846D0
:10D3600080235B05196940460904090C9B4603F0BC
:10D370000DF9454B824618605B4619694346581EB5
:10D38000F3880904C018090C03F000F982454CD059
:10D390000323039C9C434B461C603D4B1B68002BA6
:10D3A00002D10233234262D000223A4B1A703A4B28
:10D3B0005869431C54D080235B0519690904090C82
:10D3C00003F0E4F8031C802252051069116900047F
:10D3D000013B000C09045843090C03F0D7F8FFF790
:10D3E00059FF021EAAD0112824D108231C434B4602
:10D3F0001C60A3E7294B1C60294B1C606B78002B39
:10D400009CD02B789A00D3189B00ED18EA88254B06
:10D410001A602B79032B27D0042B25D0012B00D0A9
:10D420008CE73B7000F000FC88E70123039A9A43E5
:10D430001443B0E72B789800C01880002E18301CD9
:10D44000184DF3682D685C00E41831797369009514
:10D45000154DA4000C306459A04704233B706DE7C0
:10D4600080235B055B69AEE700F020F866E7094AB8
:10D4700050461370FFF70EFFFFF70EFF5EE7C04642
:10D48000ED290020F8280020002A0020E8290020AB
:10D49000FC290020EC29002000100010F8290020B1
:10D4A000C4290020F4290020CC290020F0B55F46D3
:10D4B00056464D464446F0B45B4B5C481A7880278C
:10D4C00091008A1892009B18DD681E696A00521943
:10D4D00092008218148950895268604380469044B3
:10D4E000DA881B89141C9946514B92469B460023AF
:10D4F0005A467F05396983B009044C441360090C0E
:10D50000301CA41903F0C8F8002924D13B699BB250
:10D510009A4537D044456CD0032D33D0301C39693F
:10D52000484489B203F0B8F8424B89081960396958
:10D53000201C0904090C03F0AFF8002932D10222A3
:10D540003D4B1A70FFF7D8FE03B03CBC904699469D
:10D55000A246AB46F0BD032D14D0301C39694844B7
:10D560000904090C03F098F8324B890819603969ED
:10D570004445E4D00904090C201C03F08DF800296F
:10D58000DDD00FE080235B051969301C0904090C0C
:10D5900002F0FCFF0322294B1860274B1A70FFF79B
:10D5A000ABFED1E780256D0529692B696A4699464E
:10D5B0004346D380D08889B202F0E8FF6A464B46E2
:10D5C000A6B2D380071CD188301C02F0DFFFBFB2A7
:10D5D00080B287421DD02C692969301C89B203F0C2
:10D5E0005BF85B462404240C89B2641AA4081C600E
:10D5F000A5E74B46002BC5D0032DC3D0301C39699D
:10D60000484489B203F048F80A4B890819603B691D
:10D6100095E7434624041B041A0C240C131B5A469A
:10D620009B0813608BE7C046F8280020CC29002017
:10D63000C8290020FC290020ED290020002A002014
:10D64000F8B546464F46C0B41D4D08AC24886E78E8
:10D65000A44604240A2E2DD02C78A046A419092C07
:10D6600000DD0A3C14277C432C196261221C2071C6
:10D670000C32B94681C981C2E3806346238100240C
:10D68000104B01361A786E70A24213D142464F46B3
:10D690005743ED190C4AE98811602A79032A07D00B
:10D6A000042A05D0012A05D11A70FFF725FE01E0F2
:10D6B000FFF7FCFE201C0CBC90469946F8BDC04606
:10D6C000F8280020ED290020F4290020082170B559
:10D6D0000C1C244A82B013681C4009D08B43136091
:10D6E000214B224A1B789B009B58984702B070BD83
:10D6F0001F4D2B789800C3189B00EE183179042930
:10D700002AD0F268736950008218301C194E9200BA
:10D7100036680C300096184E96590022B047022009
:10D720002A7893009B189B00EB181C71DC80D86052
:10D730001C615C611C816B780132013BD2B26B7061
:10D740000A2A06D02A7000220C4B1A70FFF7D4FD6B
:10D75000CCE700232B70F6E70122084B1A70FFF785
:10D76000CBFDC3E7E8290020EC290020D0280200E7
:10D77000F8280020F4290020CC290020ED290020E1
:10D7800030B5244B83B05869431C3ED080235B05E1
:10D7900019690904090C02F0F9FE041C80235B05D9
:10D7A0001869196900041A69000C631E58431A4B62
:10D7B00009041B68090C92B292085943FFF768FDEF
:10D7C000021E06D0112806D10823144A11680B4303
:10D7D000136003B030BD12490B789800C018800068
:10D7E0000D18281CEB6829795C00E4186B690D4D55
:10D7F000A4002D680C3000950B4D6459A0470422FD
:10D800000A4B1A70FFF778FDE3E780235B055C693C
:10D81000C4E7C04600100010002A0020E8290020BC
:10D82000F8280020F4290020CC290020ED29002030
:10D83000802230B55205146921492404230C0C6858
:10D8400083B0013C5C431F4B5869431C35D01169C0
:10D850000904090C02F09AFE80235B0519691A4B32
:10D8600009040138090C41431A68201CFFF710FD18
:10D87000021E06D0112806D10823144A11680B4352
:10D88000136003B030BD12490B789800C0188000B7
:10D890000D18281CEB6829795C00E4186B690D4DA4
:10D8A000A4002D680C3000950B4D6459A04704224C
:10D8B0000A4B1A70FFF720FDE3E75069CCE7C0463A
:10D8C000002A002000100010FC290020E829002078
:10D8D000F8280020F4290020CC290020ED29002080
:10D8E000082330B51E4D83B02C68234214D1A30702
:10D8F00002D501231C432C6002221A4B1A701A4BCA
:10D900001868FFF7C7FC021E04D011280DD10823A8
:10D910001C432C6003B030BD9C43124B134A1B7850
:10D920002C609B009B589847F4E711490B789800AE
:10D93000C01880000D18281CEB6829795C00E418D9
:10D940006B690C4DA4002D680C3000950A4D64598C
:10D95000A0470422094B1A70FFF7CEFCDAE7C04655
:10D96000E8290020EC290020002A0020D02802000D
:10D97000F8280020F4290020CC290020ED290020DF
:10D98000F0B58027274C7F05237839699A00D31892
:10D990009B00E3181A89DD881B69AD18ED1809048E
:10D9A00083B0090C281C02F077FE1F4B0E1C58692F
:10D9B000431C35D039690904090C02F0E7FD8023C6
:10D9C0005B05196901380904090C4143174B891992
:10D9D0001A68281CFFF75CFC021E06D0112806D12D
:10D9E0000823134A11680B43136003B0F0BD23787A
:10D9F0009800C01880002618301C0E4CF36824686C
:10DA00005D003179ED18736900940B4CAD000C305A
:10DA10002C59A0470422094B1A70FFF76DFCE4E76C
:10DA20007869CCE7F828002000100010C8290020F1
:10DA3000E8290020F4290020CC290020ED2900202D
:10DA400030B5154B83B01868FFF724FC021E06D0D2
:10DA5000112806D10823114A11680B43136003B043
:10DA600030BD0F490B789800C01880000D18281C95
:10DA7000EB6829795C00E4186B690A4DA4002D68F5
:10DA80000C300095084D6459A0470422074B1A70CA
:10DA9000FFF732FCE3E7C046002A0020E829002017
:10DAA000F8280020F4290020CC290020ED290020AE
:10DAB000082370B52A4D82B02C68234209D09C43BC
:10DAC000284B294A1B782C609B009B58984702B032
:10DAD00070BD0122234B1A70244B5869431C3BD064
