:100000002AC04EC064C13AC14BC04AC049C048C0B2
:1000100047C046C045C022C743C042C041C040C0DF
:100020003FC00000010203040000000000000102C4
:1000300004804020100804020102020201010101B3
:1000400001010101003240003936003B38003A37E7
:100050000B04E509210A11241FBECFE5D2E0DEBF63
:10006000CDBF11E0A0E6B0E0E0EEF4E102C0059003
:100070000D92A632B107D9F711E0A6E2B1E001C0B6
:100080001D92A537B107E1F710E0C6E5D0E003C047
:100090002297FE011FDAC035D107D1F744D81ECA16
:1000A000AFCF0F931F93CF93DF93182FFA010081E7
:1000B00006276083C0E0D0E0FE01E85DFE4F80814E
:1000C000811759F482819381009739F081818023CF
:1000D00021F00280F381E02D09952496C031D105ED
:1000E00059F7DF91CF911F910F910895813079F4E5
:1000F0008091270186238093270182B3862382BBC8
:1001000082B3882391F48BB78F7E8BBF0895809143
:10011000260186238093260180B5862380BD80B585
:10012000882319F48BB78F7D8BBF08951F93CF93CE
:10013000DF93282F30E0F901E25DFF4F9491275CB7
:100140003F4FF901149180E0A8E2B1E0C0E0D0E0B7
:1001500020C04FB7F894209709F057C012962D9100
:100160003C9113972115310509F04FC00EC011962F
:100170002C911197921751F412962D913C9113974F
:100180006217730719F44FBF45C0ED014FBF1496B6
:100190008F5F8430F0F2209709F43CC02FB7F894B9
:1001A0004A815B814115510539F5188399837B8319
:1001B0006A838BB7113081F480618BBF82B389234E
:1001C00011F53091270189B38923832B809327016F
:1001D00082B3892B82BB17C080628BBF80B5892315
:1001E00091F43091260186B38923832B80932601D5
:1001F00080B5892B80BD07C02FBF80E0A8E2B1E0A9
:10020000C0E0D0E0A6CF2FBF05C02C91121709F097
:10021000BDCFADCFDF91CF911F910895CF93DF93E5
:10022000282F30E0F901E75CFF4FC491225D3F4F7A
:10023000F901D4916D2F60958C2F58DF40E050E08C
:10024000DA01A85DBE4F8FB7F8949C919C1769F4B2
:1002500011969C9111979D1741F41C9211961C9236
:10026000119713961C921E9212978FBF4C5F5F4F8F
:100270004031510529F7DF91CF9108951F920F92D8
:100280000FB60F9211242F933F934F935F936F9369
:100290007F938F939F93AF93BF93EF93FF9386B317
:1002A00060B5682382E046E251E0FBDEFF91EF910A
:1002B000BF91AF919F918F917F916F915F914F917E
:1002C0003F912F910F900FBE0F901F9018951F9286
:1002D0000F920FB60F9211242F933F934F935F937A
:1002E0006F937F938F939F93AF93BF93EF93FF93FE
:1002F00089B362B3682381E047E251E0D2DEFF9127
:10030000EF91BF91AF919F918F917F916F915F918D
:100310004F913F912F910F900FBE0F901F90189506
:1003200010923901109238010895BF92CF92DF9256
:10033000EF92FF920F931F93CF93DF9383E791E0A8
:100340009093700180936F01E0917301F0917401BB
:100350000190F081E02D09958DE691E060E670E076
:100360001CD78AE391E022D58AE391E066E267D365
:100370008AE391E062E070E0C8D48AE391E060E053
:1003800041E070D48AE391E061E040E04FD58AE338
:1003900091E000E012EF22EF32EF42EF50E060E038
:1003A00070E027D48AE391E051D303E011E0AAE59D
:1003B000EA2EA1E0FA2EBEE5CB2EB1E0DB2EC5E0A1
:1003C000D0E012C0F801B2908F018B2D62E012D6FE
:1003D0008B2D61E043D6F701129212921292129283
:1003E0007F01F60112926F01219761F781E060E0D1
:1003F00001D681E061E032D681E061E0FBD581E0A9
:1004000060E02CD66AEF70E080E090E0ADD581E04E
:1004100061E024D66AEF70E080E090E0A5D581E04D
:1004200060E01CD66AEF70E080E090E09DD581E04E
:1004300061E014D66AEF70E080E090E095D581E04D
:1004400060E00CD6DF91CF911F910F91FF90EF905C
:10045000DF90CF90BF9008952F923F924F925F927E
:100460006F927F928F929F92AF92BF92CF92DF92C4
:10047000EF92FF920F931F93CF93DF9300D000D0A2
:100480000F92CDB7DEB786E5A82E81E0B82E9DE5A8
:10049000892E91E0992E83E091E09C838B8322E664
:1004A000422E21E0522E1D8210E034E0632E712C8A
:1004B00001E043E0342E02C069807A80F301319775
:1004C000FA83E983EB81FC818291FC83EB83FAD58B
:1004D00022242394009709F02224F20182912F0113
:1004E0002816A9F18DE691E060E870E056D68DE619
:1004F00091E0B3014AE050E017D78DE691E06FE854
:1005000070E04BD6222019F066E770E002C06BE77E
:1005100070E08DE691E041D6F2012082F501808104
:100520009181A281B3810097A105B10591F0DFD43B
:100530006B017C01F50180819181A281B381C81A90
:10054000D90AEA0AFB0A81E0F1E0FD8305C080E0F8
:1005500003C081E091E09D83222009F009C1882336
:1005600009F4A0C05DC0C3D4DC01CB01F5018083D8
:100570009183A283B383F40100838DE691E062E965
:1005800070E00BD68DE691E0B3014AE050E0CCD6A6
:100590008DE691E0D2D68CC0F50180819181A28157
:1005A000B3810097A105B10509F47BC0A0D46B010C
:1005B0007C01F50180819181A281B381C81AD90A99
:1005C000EA0AFB0AF4EFCF16F1E0DF06F0E0EF06EF
:1005D000F0E0FF0608F46CC08DE691E065EA70E09B
:1005E000DCD58DE691E0B3014AE050E09DD68DE682
:1005F00091E068EB70E0D1D58DE691E0B701A601FE
:100600002AE030E04FD68DE691E097D6F4013082B3
:10061000F5011082118212821382F1E0FD8348C03D
:100620008DE691E06DEB70E0B8D58DE691E0B30119
:100630004AE050E079D68DE691E068EB70E0ADD508
:100640008DE691E0B701A6012AE030E02BD68DE6D9
:1006500091E073D68BE0C816D104E104F10420F0D8
:1006600082E0F401808317C08DE691E06EEC70E0CB
:1006700094D58DE691E0B3014AE050E055D68DE681
:1006800091E068EB70E089D58DE691E0B701A601B5
:100690002AE030E007D6F50110821182128213821F
:1006A00008C011E0F4018081882319F0108201C094
:1006B00011E08CEF9FEFA80EB91E089481089108F5
:1006C000E981FA81309709F0F7CEFD81FF23B9F176
:1006D00010923901109238018DE691E064EE70E0DD
:1006E0005CD50EE1C02ED12C19C08AE391E06AE5F9
:1006F00071E044E02ED2882361F08DE691E068EE4F
:1007000070E04BD58DE691E018D6C114D10479F094
:1007100013C08DE691E06BEE70E03FD50894C10800
:10072000D1088FEFC8168FEFD806F9F605C08DE611
:1007300091E06DEE70E031D581E0612F8FD4812F93
:100740000F900F900F900F900F90DF91CF911F910E
:100750000F91FF90EF90DF90CF90BF90AF909F9060
:100760008F907F906F905F904F903F902F90089563
:10077000882309F411CFF7CE0F931F93CF93DF9304
:1007800081E060E06BD48AE391E06DD1C3E0D1E019
:100790008E0107C0F80182918F0160E971E041E0AC
:1007A000C5DCF0E00F3F1F07A9F7479A379885B7D8
:1007B000877E806185BF85B7806285BFF89485B7E5
:1007C000846880936301982F9B7F9093620185BF1B
:1007D00095BF78948895F89402C08A911FDD80E0D7
:1007E000CF3FD807D1F785B78F7D85BF8AE391E0EA
:1007F00047D181E061E032D46FE070E080E090E0CA
:10080000B3D3DF91CF911F910F91089525DE8823F7
:1008100009F4B2DF08958AE391E063E042E0FCD09E
:1008200008950F931F93CF93DF930F92CDB7DEB749
:100830008C0181E0698327D680E026D680E025D62A
:10084000F801818169810AD40F90DF91CF911F91C6
:100850000F910895EF92FF920F931F93CF93DF9321
:100860007C01162FEA01022F60E070E0DADF812FB1
:100870008F7100D6182F04C08FEFFCD589930150DB
:100880000023D1F7C70161E070E0CBDF812FDF915A
:10089000CF911F910F91FF90EF9008951F93CF93E9
:1008A000DF93EC01162F60E070E0BBDF812F8F71CA
:1008B000E1D58FEFDFD5182FCE0161E070E0B1DF19
:1008C000812FDF91CF911F910895EF92FF920F93A7
:1008D0001F93CF93DF937C01162FEA01022F60E074
:1008E00070E09FDF812F8F718062C4D5182F03C005
:1008F0008991C0D501500023D9F7C70161E070E0AC
:1009000090DF812FDF91CF911F910F91FF90EF909A
:100910000895EF92FF921F93CF93DF930F92CDB77D
:10092000DEB77C01162F60E070E049837ADF812F0B
:100930008F7180629FD5182F4981842F9BD5C70165
:1009400061E070E06EDF812F0F90DF91CF911F91FA
:10095000FF90EF900895BF92CF92DF92EF92FF92B7
:100960000F931F93CF93DF93EC017B01CC80D42EA8
:10097000C41608F4DC2C8E81882311F4CD1801C034
:10098000CC24CE0160E070E04CDF80EA73D5B82E55
:10099000870105C0F80181918F016CD5DA94DD20C3
:1009A000C9F703C080E066D5CA94CC20D9F7CE0140
:1009B00061E070E036DF8B2DDF91CF911F910F91B9
:1009C000FF90EF90DF90CF90BF9008951F93CF934B
:1009D000DF93EC0160E070E024DF82EE4BD5182F4E
:1009E000CE0161E070E01DDF812FDF91CF911F917B
:1009F00008951F93CF93DF93EC0160E070E011DF67
:100A000081EE38D5182FCE0161E070E00ADF812F2A
:100A1000DF91CF911F910895FC016083418381E0B4
:100A20008283138280E28483158216821086118667
:100A30001286138614861586168617860895462F05
:100A4000603808F04FE765E064DF0895CF93DF93E7
:100A5000EC01888160E002D3CE01CBDFCE01B6DFAE
:100A6000DF91CF910895CF93DF93EC0160E016DF23
:100A7000482F4D7FCE0160E04CDFDF91CF9108958C
:100A8000CF93DF93EC0160E009DF482F4260CE0195
:100A900060E03FDFDF91CF910895FF920F931F93A6
:100AA000CF93DF93EC018B01F42E60E0F7DE482F4B
:100AB0004C7F4260CE0160E02CDF86E990E07BD283
:100AC000CE01B8014F2D47DF888161E0C7D28FE0AA
:100AD00090E071D2888160E0C1D2DF91CF911F9107
:100AE0000F91FF9008951F93CF93DF93EC0160E087
:100AF00070E097DE80E6BED48FEFBCD4182FCE0115
:100B000061E070E08EDE812FDF91CF911F9108951B
:100B1000EF92FF920F931F93CF93DF937B018A0194
:100B2000E90167E040E7F5DE21E085FF20E0F7011D
:100B3000208321E084FF20E0F801208391E086FFFC
:100B400090E09883DF91CF911F910F91FF90EF90EC
:100B50000895CF92DF92EF92FF920F931F93CF935E
:100B6000DF9300D00F92CDB7DEB78C0196DFBFD1F7
:100B70006B017C01C80168E0AE014D5F5F4F21E071
:100B800069DE807329F5B3D1DC01CB018C199D0995
:100B9000AE09BF09843F21E0920720E0A20720E0D0
:100BA000B20740F315C0C8019EDFF8018783C80172
:100BB0005ADFC8011EDF8C2D0F900F900F90DF9130
:100BC000CF911F910F91FF90EF90DF90CF900895FC
:100BD00098012B5F3F4FC801BE016E5F7F4FAE0192
:100BE0004F5F5F4F95DFCA80F80185818823F9F256
:100BF000DACFEF92FF920F931F93CF93DF93CDB78E
:100C0000DEB728970FB6F894DEBF0FBECDBF7C01CC
:100C100009831A832B833C834D835E836F8378879C
:100C20006AE0AE014F5F5F4F25E04FDEC70160E134
:100C3000AE014F5F5F4F25E048DEF701448141324E
:100C400008F040E2C70161E164DE28960FB6F8942F
:100C5000DEBF0FBECDBFDF91CF911F910F91FF90EF
:100C6000EF900895EF92FF921F93CF93DF930F922F
:100C7000CDB7DEB77C01162F6730D8F461E0498329
:100C80000DDE4981442349F041E050E002C0440FA9
:100C9000551F1A95E2F7482B09C041E050E002C009
:100CA000440F551F1A95E2F740954823C70161E0AC
:100CB00030DE0F90DF91CF911F91FF90EF9008955C
:100CC0000F931F93CF93DF938C01EB0166E0E6DD7A
:100CD000482F497FC330D10579F0C230D10511F4D6
:100CE00044600BC0C130D10511F4426006C02097AA
:100CF00021F0C430D10509F44660C80166E009DE80
:100D0000DF91CF911F910F910895EF92FF920F9372
:100D10001F93CF93DF930F92CDB7DEB78C017B018A
:100D200066E0BCDDF8011282282F277DF2E0EF1685
:100D3000F10411F4206208C081E0E816F10421F406
:100D400081E0F80182832860C80166E0422F298390
:100D5000E0DDC80166E0A2DD2981821721F0F801FB
:100D6000128280E001C081E00F90DF91CF911F914E
:100D70000F91FF90EF9008950F931F93CF93DF9300
:100D80008C01EB0160E08ADD482F437F209731F032
:100D9000C130D10511F4486001C04C60C80160E069
:100DA000B8DDDF91CF911F910F910895CF93DF931D
:100DB000EC01888161E01ED1898161E01BD148D3BB
:100DC000888160E04BD1CE0161E070E02ADD65E012
:100DD00070E080E090E0C8D0CE0164E04FE499DD9F
:100DE000CE0163E070E06CDFCE0162E070E08DDF89
:100DF000882311F081E08B83CE0160E070E085DF15
:100E0000CE0162E070E0B8DFCE016CE140E081DD50
:100E1000CE0167E040E77DDDCE016CE410DECE015F
:100E2000D5DDCE01E6DDDF91CF910895262F4F70FD
:100E30002295207F242B64E0422F6BDD08958EB530
:100E4000887F8EBD8FB58C7F81608FBD8EB5877E8C
:100E50008EBD8EB5887F83608EBD08951F920F92E0
:100E60000FB60F9211242F933F938F939F93AF93BD
:100E7000BF938091640190916501A0916601B0914A
:100E8000670130916C01232F2A5F2D3728F02D57F1
:100E90000396A11DB11D03C00296A11DB11D209393
:100EA0006C018093640190936501A0936601B093F7
:100EB00067018091680190916901A0916A01B091E8
:100EC0006B010196A11DB11D80936801909369018A
:100ED000A0936A01B0936B01BF91AF919F918F91E5
:100EE0003F912F910F900FBE0F901F9018950F9369
:100EF0001F938FB7F89400916401109165012091C0
:100F00006601309167018FBFB801C9011F910F9130
:100F100008950F931F939FB7F89400916801109163
:100F2000690120916A0130916B0182B748B740FF97
:100F300006C08F3F21F00F5F1F4F2F4F3F4F9FBFC6
:100F4000322F212F102F0027080F111D211D311DB9
:100F500043E0000F111F221F331F4A95D1F7B8013C
:100F6000C9011F910F910895CF92DF92EF92FF92E6
:100F7000CF93DF936B017C01CCDFDC01CB01EC0173
:100F80000EC0C7DF6C1B7D0B83E0683E780738F02E
:100F90000894C108D108E108F108C851DC4FC11418
:100FA000D104E104F10469F7DF91CF91FF90EF9054
:100FB000DF90CF900895019739F0019729F0880FBD
:100FC000991F01970197F1F70895789480B783608E
:100FD00080BF83B7877F83BF83B7887F836083BFEA
:100FE00089B7816089BF2BDF86B1887F866086B92B
:100FF000379A0895CF93DF9390E0FC01E25DFF4FB5
:101000002491875C9F4FFC018491882321F190E01B
:10101000FC01E35BFF4FA491B0E0865B9F4FFC01B6
:101020008491C82FD0E09FB7F8948C91662331F457
:10103000209582238C938881822308C0623041F4FA
:10104000322F309583238C938881822B888302C032
:10105000822B8C939FBFDF91CF910895282F30E092
:10106000F901E25DFF4F9491F901E75CFF4FE491D4
:10107000EE2339F1823019F480B78F7304C08330C6
:1010800021F480B78F7C80BF0AC0843019F48FB5FB
:101090008F7304C0853019F48FB58F7C8FBDF0E05D
:1010A000E65BFF4FA491B0E02FB7F8948C916623D4
:1010B00029F4909589238C932FBF0895892B8C93C5
:1010C0002FBF0895282F30E0F901E25DFF4F949182
:1010D000F901E75CFF4FE491EE2311F1823019F43E
:1010E00080B78F7304C0833021F480B78F7C80BFBA
:1010F0000AC0843019F48FB58F7304C0853019F499
:101100008FB58F7C8FBDF0E0E95BFF4FE491F0E09D
:101110002081292381E090E029F480E090E0089587
:1011200080E090E0089551DF00D970DBFECF0F938F
:101130001F93CF93DF938C01EB0108C0D801ED9191
:10114000FC910190F081E02DC80109956991662319
:10115000A9F7DF91CF911F910F910895EF92FF9220
:101160000F931F93CF93DF937C018B01EA010CC097
:10117000D8016D918D01D701ED91FC910190F08125
:10118000E02DC70109952197209791F7DF91CF9125
:101190001F910F91FF90EF900895DC01ED91FC916C
:1011A0000280F381E02D099508956F927F928F92CE
:1011B0009F92AF92BF92CF92DF92EF92FF920F93E6
:1011C0001F93CF93DF93CDB7DEB7A0970FB6F894F8
:1011D000DEBF0FBECDBF3C01DB01CA014115510589
:1011E0006105710549F4C30140E350E060E070E03F
:1011F00020E030E065D041C08E010F5F1F4FCC244E
:10120000DD247601822E9924AA24BB24BC01CD01C1
:10121000A50194013BD1F80161938F010894C11C91
:10122000D11CE11CF11CC901DA010097A105B1052F
:1012300069F715C0E1E0F0E0EC0FFD1FEC0DFD1DBE
:1012400040814A3010F4405D01C0495C552747FD9C
:101250005095652F752FC30120E030E031D0089400
:10126000C108D108E108F108FFEFCF16FFEFDF0654
:10127000FFEFEF06FFEFFF06E9F6A0960FB6F89432
:10128000DEBF0FBECDBFDF91CF911F910F91FF90B9
:10129000EF90DF90CF90BF90AF909F908F907F9016
:1012A0006F9008952115310549F4DC01ED91FC9111
:1012B0000190F081E02D642F0995089576DF08955F
:1012C000CF92DF92EF92FF92CF93DF93EC016A010E
:1012D0007B012115310541F4E881F9810190F0810C
:1012E000E02D642F099519C02A303105A9F477FF44
:1012F0000FC04DE250E060E070E020E030E0E0DF61
:10130000F094E094D094C094C11CD11CE11CF11C59
:10131000CE01B701A6012AE048DFDF91CF91FF900F
:10132000EF90DF90CF9008959A01FB01AF016627FF
:1013300057FD6095762FC4DF0895CF93DF93EC01BE
:101340004DE050E060E070E020E030E0B9DFCE0139
:101350004AE050E060E070E020E030E0B1DF82E0A1
:1013600090E0DF91CF9108950895089580E090E096
:1013700008958FEF9FEF08958FEF9FEF08950895E1
:10138000DC0112968D919C911397DC01ED91FC91FB
:101390000280F381E02D099581E090E0089521E736
:1013A00031E0FC0133832283E0917101F0917201FD
:1013B0000190F081E02DC9010995089527E031E001
:1013C000FC0131832083EBDF089589E191E0909364
:1013D0007201809371018DE691E0F0DF0895B89A73
:1013E000C09A0895862F880F8E7162956F70606124
:1013F00022E095E059E0F89407C0000000000000EA
:101400000000000000000000879510F0C09802C0A6
:10141000C09A0000579510F40000000033E049E541
:101420004A95F1F700003A95D1F700009A9529F70F
:1014300000002A9521F095E0862F54E0E5CF7894BE
:10144000089581E291E0909374018093730108956F
:1014500083E061E003DE86E061E0CCDD85E061E011
:10146000C9DD83E061E0C6DD84E060E0C3DD80E1EA
:101470008DB908958FB980E48EB98BE18DB9769BD3
:10148000FDCF8FB10895089508950895A1E21A2E11
:10149000AA1BBB1BFD010DC0AA1FBB1FEE1FFF1F18
:1014A000A217B307E407F50720F0A21BB30BE40B68
:1014B000F50B661F771F881F991F1A9469F76095AF
:1014C0007095809590959B01AC01BD01CF01089569
:1014D000EE0FFF1F0590F491E02D0994F894FFCFD3
:1014E0000A0A5475726E20546F7563682052656DD8
:1014F0006F74650A0A004F4E2020004F46462000B8
:1015000053656E736F722073746174652023003AA3
:1015100020000A5374617274696E67206163746994
:1015200076653A20000A4D6F646520627920646513
:101530006661756C743A2000202D2D20000A456EDE
:1015400064696E67206163746976653A20000A44B5
:1015500065626F756E6365642C2069676E6F726576
:10156000643A20002E2E2E006F6B002E00666169FB
:101570006C65642E0A002E00000000750120000733
:1015800008090A00000000C0099708AE08B609BCA7
:1015900009B909BF0900000000B409B5090000003D
:0615A00000EF09F2090052
:00000001FF
