:020000040003F7
:10A00000203C0020C5A50300DFA50300E1A5030057
:10A010000000000000000000000000000000000040
:10A02000000000000000000000000000D5A00300B8
:10A030000000000000000000E5A50300E7A5030004
:10A04000E9A50300E9A50300E9A50300E9A50300CC
:10A05000E9A5030000000000E9A50300E9A503004D
:10A06000E9A50300E9A50300E9A50300E9A50300AC
:10A07000E9A50300E9A50300E9A50300E9A503009C
:10A08000E9A5030019E20300E9A50300E9A503001F
:10A090003BE20300E9A50300B5E90300E9A50300DD
:10A0A000E9A50300E9A5030000000000000000008E
:10A0B00000000000000000000000000000000000A0
:10A0C0000348854604F040FD00480047D9A303003B
:10A0D000203C00200648704502D1EFF3098101E0E1
:10A0E000EFF30881886902380078024A10470000BF
:10A0F000FDFFFFFFBDA10300401E00BF00BF00BF6A
:10A1000000BF00BF00BF00BF00BF00BF00BF00BF57
:10A1100000BFF1D170470000056885F308884068EA
:10A12000FF2464B2EFF30585002D01D1A646004758
:10A130002546064621273FBAF0B400240025002614
:10A140000027F0B4F92040B200470000401E00BFD5
:10A1500000BF00BF00BF00BF00BF00BF00BF00BF07
:10A1600000BF00BF00BFF1D170470000F8B5064640
:10A17000002E01D10E20F8BD3446274D2F1BAC42D6
:10A1800013D03C2F0CD200203C353C3403E0217826
:10A190002970641E6D1E0146401C3C29F7D904E05D
:10A1A0003C222146284604F09DFC00223C211A480E
:10A1B00004F0D2F9194908800020DCE770B50546A3
:10A1C0000C46002D04D12068FFF7D0FF206002E08C
:10A1D0000120206000BF00BF70BD70B50546002D96
:10A1E00001D10E2070BD00223C210B4804F0B4F9CF
:10A1F00004460A480088844201D00B20F2E73C2242
:10A200000549284604F06EFC04480088401C0349B8
:10A2100008800020E6E70000807F0020BC7F00204F
:10A22000F0B5059C55000D439E003543260235438D
:10A23000069E360435430526360707273F02F619E2
:10A240008700F551F0BD70B504460D462A462146FB
:10A25000CB4803F011FB70BD7CB5152418250BE02D
:10A260002646002000900346012211460190304608
:10A27000FFF7D6FF00BF641CAC42F1D900BF0F202E
:10A280004005C049886000BF7CBD70B500BFBE4BB3
:10A29000BE4A0521002003F0D4FF044600BF254636
:10A2A000002D06D000BFBAA26821284603F0E4FAC8
:10A2B00000BF00BF00BF70BD7CB5142403252E462F
:10A2C00000202B4602460146019600902046FFF7EB
:10A2D000A7FF00BF7CBD10B50446204601F051FC2D
:10A2E00010BDF0B587B00546AD4B0FCB03AC0FC426
:10A2F000002D0ED003A818DF044600BF2646002E0E
:10A3000006D000BFA2A29421304603F0B5FA00BFE8
:10A3100000BF1D20400313DF044600BF2646002E69
:10A3200006D000BF9AA29821304603F0A5FA00BFDC
:10A3300000BF00BF9B4B48229B49082004F0F2FA63
:10A34000064600BF3746002F06D000BF90A29A21D4
:10A35000384603F091FA00BF00BF00BF0020019013
:10A360000290029001206946087101A860DF04464E
:10A3700000BF2646002E06D000BF85A2A62130468B
:10A3800003F07AFA00BF00BF884804F00AFB0446D5
:10A3900000BF2646002E06D000BF7DA2A921304670
:10A3A00003F06AFA00BF00BF07B0F0BD70B500BF90
:10A3B0007F4A1421082003F081FA044600BF254695
:10A3C000002D06D000BF72A2B121284603F054FA36
:10A3D00000BF00BF00BF70BD00267648C069B1282D
:10A3E00001D1012000E000200546002D02D0002010
:10A3F0007049C861FFF730FF00BF6F4840691D21F9
:10A400004903884201D1012000E000200746002FC7
:10A4100005D100BF5EA2C62103F02EFA00BF00BF27
:10A4200000BF01200007006901218902884201D193
:10A43000012000E000200746002F05D100BF54A2F4
:10A44000C72103F019FA00BF00BFFFF71EFFFFF797
:10A4500033FF01F0A3FD01F009FE00282BD01720E7
:10A4600000F088F801F012FE044600BF2746002FD6
:10A4700006D000BF46A2D421384603F0FDF900BF44
:10A4800000BF012169400846FFF72BFFFFF78EFF51
:10A4900001F048FE044600BF2746002F06D000BF4B
:10A4A0003BA2DA21384603F0E7F900BF00BF1720CE
:10A4B00000F05BF806E0012169400846FFF711FF54
:10A4C000FFF774FF2E4614202E490969C140C907C1
:10A4D000C90F002901D1012000E000200643002E11
:10A4E00006D103210903886801F056FC002814D125
:10A4F000172000F03FF801F067FD044600BF274633
:10A50000002F06D000BF22A2EE21384603F0B4F996
:10A5100000BF00BF172000F028F803210903886856
:10A5200001F03AFC002808D001F0A0FD002804D179
:10A5300003210903886801F06EFD00BF00BF00BF62
:10A5400000BF00BFBFF34F8F00BF00BF00BF1B485D
:10A550001B49C86000BF00BF00BFBFF34F8F00BFE3
:10A5600000BF00BF00BF00BFFDE701218140054AD9
:10A570009160704701218140024AD160704700001C
:10A58000EFBEADDE0005005009E50300EC2C002015
:10A590002E2E5C2E2E5C2E2E5C6D61696E2E63005D
:10A5A000A8EB030069EA0300B42E0020D7A2030041
:10A5B000FC2E002000050040001000100400FA05E9
:10A5C00000ED00E00321094802680A4302600848E0
:10A5D00002680A4302600748804707480047FEE7D1
:10A5E000FEE7FEE7FEE7FEE7FEE700002405004089
:10A5F00054050040A1A60300C1A00300324833491E
:10A60000086070473248008CC0B2012812D130482F
:10A61000808C0007000F00280CD12D48806AF021A3
:10A620000840402806D12A48C06A0840002801D1C5
:10A63000012070470020FCE72548008CC0B20128AB
:10A640002CD12348808C0007000F002826D12048F9
:10A65000806AF0210840002806D11D48C06A0840E1
:10A66000002801D1012070471948806AF021084074
:10A67000102806D11648C06A0840002801D10120E0
:10A68000F1E71348806AF0210840302806D11048CD
:10A69000C06A0840002801D10120E4E70020E2E779
:10A6A00010B5FFF7C9FF002805D00A480A494860DD
:10A6B000C8130A498861FFF7A5FF002802D00120CE
:10A6C0000749886010BD00000024F400002C002021
:10A6D000C00F00F0DFFF07C000050040006C004025
:10A6E0000006004002460A70FF2000021040000AE7
:10A6F0004870FF2000041040000C8870100EC870D5
:10A700000420704710B58EB004461C2107A804F041
:10A7100002FA6846007F04218843011D68460177DC
:10A72000002008900A900B900C900D90A17968463B
:10A730008171F84981800020009000BF6846007850
:10A7400001090901684601700078F02188436946D3
:10A75000087000BF00BF6846407801090901491C24
:10A76000684641704078F02188431030694648704F
:10A7700000BF6846807806218843811C6846817046
:10A7800080780821884301466846817080781021CE
:10A790008843014668468170807841084900491C19
:10A7A00068468170142102A804F0B5F901A802904E
:10A7B0006846039000210182418214218182002099
:10A7C0000690A0882346083302AA07A9A2DF0EB08C
:10A7D00010BD30B58FB004460D461C2108A804F00A
:10A7E0009AF908A8007802218843811C08A8017002
:10A7F000002009900B900C900D900E90A179684666
:10A800008172C449891C01810020019000BF684603
:10A81000007901090901491C684601710079F0219C
:10A82000884310306946087100BF00BF6846407910
:10A8300001090901684641714079F0218843694660
:10A84000487100BF6846807906218843811C6846AC
:10A850008171807908218843014668468171807939
:10A86000102188430146684681718079410849007A
:10A87000491C68468171142103A804F04CF902A810
:10A88000039001A804900221684681820021C182C0
:10A89000022101830795A0882346203303AA08A933
:10A8A000A2DF0FB030BD10B58EB004461C2107A842
:10A8B00004F031F96846007F082188434118684652
:10A8C0000177007F102188434118684601770020F6
:10A8D00008900A900B900C900D90A17968468171B8
:10A8E0008C49491E81800020009000BF6846007896
:10A8F00001090901684601700078F0218843694622
:10A90000087000BF00BF6846407801090901491C72
:10A91000684641704078F02188431030694648709D
:10A9200000BF6846807806218843811C6846817094
:10A93000807808218843014668468170807810211C
:10A940008843411868468170807841084900491C55
:10A9500068468170142102A804F0DDF801A8029075
:10A9600068460390002101824182172181820020E4
:10A970000690A0882346103302AA07A9A2DF0EB0D2
:10A9800010BD8A8802807047FEB504460020009002
:10A9900001900221684601800021418002A80190B7
:10A9A000A18A20886A46A5DF0546002D07D0E06A07
:10A9B000002802D02846E16A88470020FEBD02AE8A
:10A9C000304600F03AFA0746F807C00F00BFF5E737
:10A9D00070B586B004460D461646002C02D10E20F6
:10A9E00006B070BD20884C49884203D04B4800789F
:10A9F000002801D10820F3E70021019110216846C9
:10AA00008288501C83B246480193815468468188ED
:10AA1000481C82B242480192455468468188481CCD
:10AA200082B23F4801924654002002900390049065
:10AA30000590218A6846018101218172002181816E
:10AA400001A8049036480590208802A9A6DFC7E730
:10AA500070B588B004460D46022069460874204649
:10AA6000FFF792FF002808D1FF20FE306946888258
:10AA7000208804A9A8DF08B070BD0020694688823C
:10AA8000208804A9A8DF0646002E01D03046F2E750
:10AA900000BFA87E030004F069F80982061D344552
:10AAA0004D557A5D8200002069460871288B022886
:10AAB00005DAA97E06222046FFF78AFFDBE701219F
:10AAC00001A8017228461B30029001A92046A26A03
:10AAD00090476AE0012069460871288B022805DA50
:10AAE000A97E06222046FFF773FFC4E7012101A8D3
:10AAF000017228461B30029001A92046A26A9047A5
:10AB000053E002206946087101A92046A26A9047D5
:10AB10004BE0000032150000FFFF0000042C002075
:10AB2000052C002003206946087101A92046A26A6D
:10AB300090473AE004206946087101A92046A26ABC
:10AB4000904732E005206946087101A92046A26AB3
:10AB500090472AE0288B032805DA032208212046A3
:10AB6000FFF736FF87E728461B3000F066F9694695
:10AB700008810889002802D10720087102E0062018
:10AB80006946087101A92046A26A90470DE0092094
:10AB90006946087101A92046A26A904705E0A97E8E
:10ABA00003222046FFF714FF65E700BF002062E79D
:10ABB000F8B505460C46A61D307802281AD17088D3
:10ABC000298A884216D1A07A042813D0A07A0628B0
:10ABD00010D0A07A05280DD0B11C2846FFF738FF09
:10ABE0000746002F05D0E86A002802D03846E96AF7
:10ABF000884700BFF8BD3EB505460C46E088298968
:10AC000088420DD1082069460870A17F684601720C
:10AC100020462030019069462846AA6A904700BF26
:10AC20003EBD0022D2430280704770B586B0044614
:10AC30000E46002C04D0002E02D07068002802D1ED
:10AC40000E2006B070BD0020C04320807E4B0FCB8D
:10AC500001AD0FC57D4869468882163101A863DFC2
:10AC60000546002D01D02846EBE7221D05A901204D
:10AC7000A0DF0546002D01D02846E2E76846807D2A
:10AC8000A0712046FFF73EFD0546002D01D0284665
:10AC9000D7E72046FFF707FE0546002D01D02846DE
:10ACA000CFE731462046FFF794FD0546002D01D041
:10ACB0002846C6E77068A062B068002801D0B06876
:10ACC000E0620120624908700020BAE770B50546CD
:10ACD0000C46002D01D0002C00D170BDA86A0028C0
:10ACE0001FD02088102806D011280ED0502807D059
:10ACF000512814D10EE021462846FFF742FE0FE00E
:10AD000021462846FFF777FF0AE021462846FFF74D
:10AD100088FF05E021462846FFF74AFF00E000BF14
:10AD200000BF00BFD9E730B585B004460D46002C02
:10AD300002D10E2005B030BD20884649884203D09C
:10AD400043480078002801D10820F3E70021009152
:10AD5000102168460288501C83B23F4800938154FA
:10AD6000072168460288501C83B23B4800938154F7
:10AD7000012168460288501C83B2374800938154F1
:10AD800002466846008811182846FFF7ABFC0146CA
:10AD900068460088081881B2009100200190029056
:10ADA00003900490218A68468180012181710021ED
:10ADB0000181039028480490208801A9A6DFB9E703
:10ADC00030B585B004460D46002C02D10E2005B0EA
:10ADD00030BD20881F49884203D01D4800780028D4
:10ADE00001D10820F3E70021009111216846028873
:10ADF000501C83B21848009381540246684600886C
:10AE000011182846FFF76EFC0146684600880818AE
:10AE100081B2009100200190029003900490218A59
:10AE200068468180012181710021018103900A48D7
:10AE30000490208801A9A6DFC9E7014608784A786E
:10AE40001202104370470000B8EB030030150000F9
:10AE5000042C0020FFFF0000052C002070B50446E4
:10AE60001D4610881230A84201D90C2070BD112057
:10AE7000168888551088401C108010201688885528
:10AE80001088401C10800F2307E0E05C168888556E
:10AE9000581E43B21088401C1080002BF5DA0020A9
:10AEA000E4E730B504461088C01C984201D90C2054
:10AEB00030BD0220158848551088401C10801C2089
:10AEC000158848551088401C1080012C06D0022C93
:10AED00008D0032C0AD0042C10D10BE000201588D8
:10AEE00048550DE001201588485509E002201588D5
:10AEF000485505E003201588485501E00720D7E7AD
:10AF000000BF1088401C10800020D1E7FEB5054628
:10AF10000C46174620880930B84201D90C20FEBDE6
:10AF2000684671DF0646002E01D03046F7E708205C
:10AF3000218868542088401C20801B202188685468
:10AF40002088401C208021884819062200A9013150
:10AF500003F0C8FD2088801D208068460078002806
:10AF600002D12188685402E0012021886854208899
:10AF7000401C20800020D2E7FFB583B005460F4675
:10AF800014462878012805D16878002802D10720C6
:10AF900007B0F0BD2088801C0699884209D828781F
:10AFA000012808D12088801C6978411806988142C0
:10AFB00001D90C20ECE721880698401A801E86B241
:10AFC00001962188891CC81901A97DDF0290029889
:10AFD000002801D00298DBE72878022806D16846CD
:10AFE0008088B04202DC092000900BE0082000902D
:10AFF0002878012805D16878B04202DC6878019091
:10B0000000E0019668468088FE2801D90C20BFE741
:10B0100068468088401C218878542088401C208005
:10B020002188009878542088401C20802188684618
:10B030008088081820800020AAE7F8B505460C464D
:10B0400017462088001DB84201D90C20F8BD68467B
:10B0500079DF0646002E01D03046F7E7032021882D
:10B0600068542088401C208019202188685420883A
:10B07000401C2080208841196846008800F001FBB0
:10B080002188401820800020E0E730B50446108871
:10B09000C01C984201D90C2030BD022015884855AB
:10B0A0001088401C10800120158848551088401CCD
:10B0B000108015884C551088401C10800020EBE74C
:10B0C00030B504461088C01C984201D90C2030BD10
:10B0D0000220158848551088401C108011201588C2
:10B0E00048551088401C108010880C541088401C53
:10B0F00010800020EBE730B504461088C01C984251
:10B1000001D90C2030BD0220158848551088401CFC
:10B1100010800A20158848551088401C108015881A
:10B120004C551088401C10800020EBE7FFB587B01D
:10B1300006461D46109C002006902088059000279A
:10B1400049E0B900706841180A88684682804988D9
:10B15000C180002202A901A865DF0390039800289E
:10B1600002D003980BB0F0BD6846017A099881427D
:10B1700030D10698002801D0002000E00220009085
:10B1800020886946097A4118009809181198814267
:10B1900001DD0C20E6E7069800280AD12088401C33
:10B1A00020802188089868542088401C2080012035
:10B1B00006902088421902A901A865DF0390039830
:10B1C000002801D00398CDE721886846007A081846
:10B1D000208000BF7F1C3088B842B2DC069800286F
:10B1E0000ED021880598401C081A80B2049004985B
:10B1F000FF2801DD0C20B5E70498C1B20598295459
:10B200000020AFE7FFB583B015460D9F0C9E019758
:10B2100000960222069B04990398FFF787FF0446D5
:10B22000002C02D0204607B0F0BD019700961022F6
:10B230002946069B0398FFF779FF0446002C01D0AE
:10B240002046F0E70020EEE701460888062808DBE4
:10B2500008881922D201904205DD0888FB4A9042F5
:10B2600001D0072070474888062808DB4888192243
:10B27000D201904205DD4888F44A904201D007206F
:10B28000F0E70888F14A904208D04888904205D0FB
:10B2900008884A88904201DD0720E3E70020E1E7C3
:10B2A000FFB581B006460D4614462088801D0499DE
:10B2B000884202D90C2005B0F0BD3046FFF7C4FF2C
:10B2C0000746002F01D03846F5E70520218868544D
:10B2D0002088401C20801220218868542088401C2F
:10B2E000208022885119308800F0CBF9218840183D
:10B2F000208022885119708800F0C3F921884018F5
:10B3000020800020D7E7FFB581B005460E461446E1
:10B31000A888871C2088801CC1190498814202D902
:10B320000C2005B0F0BDFE2F01D90C20F9E7781CE8
:10B33000218870542088401C2080FF202188705470
:10B340002088401C208022889119288800F099F9D3
:10B35000218840182080A88800280EDDA8680028D1
:10B3600001D10720DDE7AA8823889819A96803F08E
:10B37000B9FB2088A988401820800020D1E7FEB5BD
:10B3800007460E461446B86A002801D10720FEBDC4
:10B390000020019037E0B96A0C22019850430D1843
:10B3A000A888801C00900098FE2801D90C20EEE7A8
:10B3B0000098401C218870542088401C2080162052
:10B3C000218870542088401C208022889119288868
:10B3D00000F057F9218840182080A88800280EDD49
:10B3E000A868002801D10720D1E7AA8823889819E6
:10B3F000A96803F077FB2088A9884018208001986D
:10B40000401CC0B201902C20C15D01988142C2DC79
:10B410000020BCE7F7B582B0044616460025378801
:10B4200000203080606B00280CD0616B08783B46B0
:10B4300032460399FFF744FE0546002D02D0284608
:10B4400005B0F0BD206B00280AD03B463246206B89
:10B450000399FFF703FD0546002D01D02846EFE7CD
:10B460002E20005D00280BD02E21085D3B46324681
:10B470000399FFF716FD0546002D01D02846DFE7AA
:10B480002D20005D002809D03A4631460398FFF789
:10B490003DFD0546002D01D02846D1E7A0780028C3
:10B4A00009D03A4631460398FFF7C7FD0546002DFF
:10B4B00001D02846C4E7E07800280BD0E17848B2F4
:10B4C0003B4632460399FFF7E0FD0546002D01D0CB
:10B4D0002846B5E7606800280CD00020616808564F
:10B4E0003B4632460399FFF706FE0546002D01D084
:10B4F0002846A5E7208900280DDD01970096062241
:10B50000022120460830039BFFF77CFE0546002DF4
:10B5100001D0284694E7208A00280DDD0197009687
:10B520000722032120461030039BFFF76BFE0546E0
:10B53000002D01D0284683E7208B00280DDD0197E0
:10B5400000961522142120461830039BFFF75AFE5F
:10B550000546002D01D0284672E7206A00280AD04F
:10B560003B463246206A0399FFF79AFE0546002DB6
:10B5700001D0284664E7606A00280AD03B4632467C
:10B58000606A0399FFF7BFFE0546002D01D02846EB
:10B5900056E72C20005D00280ADD3B463246204657
:10B5A0000399FFF7ECFE0546002D01D0284647E73A
:10B5B000207800280AD03B46324620460399FFF700
:10B5C000DBFC0546002D01D0284639E7284637E741
:10B5D0000146C87804221040002801D10720704796
:10B5E0000020FCE70146C878002801D007207047FA
:10B5F0000020FCE7F3B593B00D461F211291119185
:10B600001398002814D01398FFF7E2FF0446002C8B
:10B6100002D0204615B0F0BD12AA09A91398FFF771
:10B62000F9FE0446002C01D02046F3E709AE02E003
:10B63000002600201290002D16D02846FFF7D2FFDA
:10B640000446002C04D02046E4E70000FFFF000081
:10B6500011AA01A92846FFF7DDFE0446002C01D0FF
:10B660002046D7E701AF02E000270020119010A884
:10B670008088C3B210A80089C1B23A46304672DF52
:10B68000C8E702460A70FF2000021040001248700E
:10B690000220704701464888B74A1288904206DB6C
:10B6A0004888B54A5288904201DC0120704700204A
:10B6B000FCE738B50546B1480088B14988423BD01F
:10B6C000B0480078401CAF490870AF48007B09784B
:10B6D00088420FDBA849A948008875DF0446002C82
:10B6E00007D0A9488069002803D0A748816920466F
:10B6F000884721E00020A3490870A348007C002867
:10B700000FD03B219D48008876DF0446002C07D0EF
:10B710009D488069002803D09B488169204688475E
:10B7200000BF99484069002806D000200090964844
:10B7300041696846884700BF38BD70B505461C2280
:10B740002946914803F0CEF90020904908702868F6
:10B7500000280BD008228848296803F0C3F98648DE
:10B760007ADF0446002C08D0204670BD82487BDF7B
:10B770000446002C01D02046F7E70020C0437F4953
:10B78000088000207F490870814A0021814802F02A
:10B79000A6FDEAE710B57F48006802F0F8FD10BD8D
:10B7A00038B57D48FFF776FF002829D17748007823
:10B7B00000280AD074484069002820D0002000905A
:10B7C000714841696846884719E06E48007800284A
:10B7D00002D16D48456801E06B4885680022294622
:10B7E0006C48006802F0AAFD0446002C07D06648A9
:10B7F0008069002803D064488169204688470AE0B0
:10B8000061484069002806D0012000905E484169E7
:10B810006846884700BF00205C49087038BD10B5F5
:10B820000446A088554908800822214616315A4806
:10B8300003F058F90020534908705348C089002884
:10B8400001D1FFF7ADFF10BD70B505460020C04324
:10B850004A49088000204B4908704E48006802F0B1
:10B8600096FD0446002C07D047488069002803D085
:10B87000454881692046884770BD70B50546AC1DB6
:10B8800020884149C989884220D1208B02281DD1B6
:10B8900000BF00BFA17EE27E120211430846C1072D
:10B8A000C90F002902D0FFF77BFF0FE0394800687D
:10B8B00002F06DFD0646002E07D03348806900284F
:10B8C00003D0314881693046884700BF70BD10B54C
:10B8D00004460822A11D304803F004F9FFF760FF79
:10B8E00010BD10B504462088102806D0112808D0B5
:10B8F00012280ED0502810D107E02046FFF78FFF06
:10B900000CE02046FFF7A0FF08E02046FFF7B5FF58
:10B9100004E02046FFF7DBFF00E000BF00BF10BDE2
:10B9200038B5044608222146134803F0DBF81248D4
:10B930007ADF0546002D1CD11748FFF7ABFE002823
:10B940000BD10120114908700B490C48008875DFA4
:10B95000054601200B4908700BE00B4840690028A0
:10B9600006D001200090084841696846884700BF1A
:10B970000025284638BD00000C2C0020162C002085
:10B98000FFFF0000142C00204C300020202C002051
:10B99000B3B60300C8EB0300182C002001B505E086
:10B9A0000098401E00900348FEF7A6FB0098002870
:10B9B000F6D108BDE7030000002318214143D54A12
:10B9C00053541821414389184B60022318214143E5
:10B9D0008918CB6000231821414389180B61182175
:10B9E000414389184B611821414389188B60704786
:10B9F00010B50020C8490860C649091F0870487082
:10BA00008870002403E02046FFF7D6FF641C0A2C50
:10BA1000F9D310BDFEB50F26BE48001F00781821CF
:10BA20004843BC494418206901902078012802D07D
:10BA300003282ED11FE060690090B7480068850296
:10BA40006068471B009840190090A0684119019850
:10BA50000818019001208002874205D2BA08009997
:10BA6000019829DF064605E0FF220132009901987E
:10BA700029DF06460EE001200007006981B2019827
:10BA800003F01AF8A44909684518284628DF064635
:10BA900000E000BF00BF002E03D101209D49091F17
:10BAA00088703046FEBDFFB581B0064617469948FE
:10BAB000001F40780A2839D09648001F0078954921
:10BAC000091F49784018C4B20A2C02DB20460A3804
:10BAD000C4B2182060438F490E54182060434018A8
:10BAE0004761182060434118029805C80A61C86080
:10BAF00018216143874A89180498486018206043D8
:10BB000080180A9981600025101F8078002805D1CF
:10BB1000FFF780FF0546112D00D100257D48001F4D
:10BB20004078401C7B49091F487000E004252846E6
:10BB300005B0F0BD10B500247648001F40780028FD
:10BB40000CDD7448001F8078002807D1FFF762FFE2
:10BB50000446002C02D0112C00D10024204610BD38
:10BB6000F8B505460C462778E06880006B490E580A
:10BB7000606800902A46394620460C306369B04719
:10BB8000F8BDF8B5044600256248001F80780128FA
:10BB900063D100205F49091F8870022C02D0032C5A
:10BBA00058D14CE05B48001F0078182148435949A0
:10BBB000461859480068401C574908600846006804
:10BBC00080027168884201D3012000E000200090CB
:10BBD0000098002823D04F48001F077800204E49C6
:10BBE00008604C48001F4078401E4A49091F4870B1
:10BBF00008460078401C0870084600780A2803DBD5
:10BC0000084600780A38087018207843414A81189D
:10BC10002846FFF7A5FF3846FFF7CEFE00BFFFF727
:10BC200089FF0546002D09D03A48001F00781822E8
:10BC30005043384A81182846FFF792FF0BE03548F9
:10BC4000001F007818225043324A81180D20FFF758
:10BC500087FF00E000BF00BF00BFF8BD10B5FFF7D1
:10BC6000C7FE00202E4908602B49086000BF04E091
:10BC700000218200294B9950401C0228F8D3002053
:10BC800010BD30B5024626480068022801D10420C4
:10BC900030BD2348006808602148136804680068C4
:10BCA000401C1F4D2860A0001C4C23500020EFE7D3
:10BCB000034606207047F8B506460C4617461D4653
:10BCC000204600F01DF8002804D0601900F018F894
:10BCD000002801D11020F8BD3B4622463146012004
:10BCE0000095FFF7E0FEF6E738B504460D46002064
:10BCF0002B460246214600900320FFF7D4FE38BDB4
:10BD000001468807800F002801D1012070470020DC
:10BD1000FCE700008C300020302C0020242C002078
:10BD20002C2C0020F8B50D461446069FF7480078E5
:10BD3000012804D1012D02D10220F449087000BF6E
:10BD40002646002E06D000BFF14A4021304601F0C1
:10BD500093FD00BF00BFF8BD70B500BF48DF0446CB
:10BD600000BF2546002D06D000BFE94A52212846D3
:10BD700001F082FD00BF00BF01F06FFEE3480078D4
:10BD8000022807D0E1480078032803D0DF48007874
:10BD9000042800D170BDE1E7F8B504462068401CD6
:10BDA000002800D1F8BD0025684600F0EDF90098A4
:10BDB0000078012816D1002600984088002808D075
:10BDC000009A9168032212039068002202F0C4FBDB
:10BDD000064600984088B04201D1012000E00020D2
:10BDE000054600BF2846DDE770B505461C21C94859
:10BDF000FFF77AFF044600BF2646002E06D000BF9C
:10BE0000C34A8721304601F037FD00BF00BF002341
:10BE10001C222946BF48FFF74EFF044600BF2646B6
:10BE2000002E06D000BFBA4A8D21304601F024FD15
:10BE300000BF00BF70BD0FB438B5684600F0A4F96C
:10BE40006846007C002810D16846408AB249488084
:10BE50000798886001200870FF2008710120AB4915
:10BE60000870AD48FFF7C0FF94E06846007C0128E9
:10BE70001DD16846408AA84948800699059840180F
:10BE800007994018A4498860A5200870FF20087110
:10BE90000598C86006980861079848610898886105
:10BEA00001209A4908709C48FFF79EFF72E068469F
:10BEB000007C032818D100980078974908700098F2
:10BEC00040884880009880688860AA20087105989A
:10BED000C860069808610798486101208B4908707E
:10BEE0008D48FFF781FF55E06846007C022822D18B
:10BEF00000980078A52806D10020874948808860EE
:10BF0000FF20087009E000980078834908700098C5
:10BF100040884880009880688860FF207E490871CA
:10BF20000020C860086148610120784908707A489B
:10BF3000FFF75AFF2EE06846007C052812D101F079
:10BF40009FF8044600BF2546002D06D000BF704A6A
:10BF5000DB21284601F090FC00BF00BF03206B49A5
:10BF6000087017E06846007C04280CD100206A495C
:10BF700048808860FF2008700098007908710846A2
:10BF8000FFF732FF06E06846007C062802D1042055
:10BF90005E49087038BC08BC04B018473EB55F4A1B
:10BFA00007CA6B4607C3FFF759FE0446002C01D0B1
:10BFB00020463EBDFF208002564948606846FFF794
:10BFC00060FE04462046F4E710B500F03CFA044653
:10BFD000002C01D0204610BD01F0B9FB0446FFF74C
:10BFE000BBFE2046F7E710B500204D490A680FE078
:10BFF000012181401140002909D041B2CC06E40E54
:10C000000123A340464C8034236000BF00BF401C86
:10C010002028EDD310BD70B5064611DF044600BFE1
:10C020002546002D07D000BF394AFF21333128466D
:10C0300001F022FC00BF00BFFFF7D5FF0321090379
:10C04000886813DF044600BF2546002D07D000BFD7
:10C050002F4AFF213831284601F00EFC00BF00BFF7
:10C0600003210903886800F095F870BD08B568469B
:10C0700000F08AF800980078A52803D0009800798D
:10C08000AA2801D1012008BD0020FCE770B500F00E
:10C09000FFFC002804D100F0D1FC002800D170BDC5
:10C0A0006420FFF77BFC00F02FFC044600BF254610
:10C0B000002D07D000BF164AFF215D31284601F050
:10C0C000DBFB00BF00BF00F0E3FC044600BF2546D9
:10C0D000002D07D000BF0E4AFF216031284601F035
:10C0E000CBFB00BF00BF00F05DFC044600BF25464F
:10C0F000002D07D000BF064AFF216331284601F01A
:10C10000BBFB00BF00BF2046C9E700003C2C00205D
:10C1100030EC0300342C00207C310020CCEB0300F9
:10C1200000E100E000B587B01422164902A802F031
:10C13000D9FC0698009002A80FC8FFF77CFEFFF715
:10C140000BFE002007B000BD38B50446684600F07D
:10C150001BF8009800782070009840886080009854
:10C160008068A0600098007920710098C068E06045
:10C1700000980069206100984069606100988069BA
:10C18000A06138BDD8EB030001490A460260704740
:10C1900000FC030010B504462046FDF7BDFF10BDAE
:10C1A000F8B50D4614461E46012D02D0032D24D1AC
:10C1B0000EE0FE480078052809D1FD4800680028F7
:10C1C00005D0324621460420F94B1B68984715E0FC
:10C1D000F648007802280FD1F649486880470320C6
:10C1E000F2490870F2480068002805D0324621461E
:10C1F0000320EF4B1B68984700E000BF00BF00BF63
:10C200002746002F06D000BFEB4A5821384601F0E0
:10C2100033FB00BF00BFF8BD10B586B00446012057
:10C22000E64908700520694608710598009001A844
:10C230000FC8FFF700FE06B010BD70B5DF480078EC
:10C24000002801D0082070BDDD48006802F09FF88A
:10C25000044600BF2546002D06D000BFD64A7B21EC
:10C26000284601F009FB00BF00BF00220F2189040E
:10C27000D348006802F062F8044600BF2546002D4E
:10C2800006D000BFCC4A7E21284601F0F5FA00BF57
:10C2900000BF2046D7E770B50646CA48CA490860BD
:10C2A0000220C2490870C9480168C648FFF71CFD52
:10C2B000044600BF2546002D06D000BFBE4A94218B
:10C2C000284601F0D9FA00BF00BF70BD70B5064620
:10C2D000BF48BD4908600220B4490870032000032C
:10C2E00080681D225203101A4108B948FFF7FCFC70
:10C2F000044600BF2546002D06D000BFAE4AA62149
:10C30000284601F0B9FA00BF00BF70BD704700B504
:10C3100087B01422AF4902A802F0E4FB069800900F
:10C3200002A80FC8FFF787FD07B000BD30B5034670
:10C330000020A9494968032212039268914210D94A
:10C34000A649A54C646803252D03AD68621B1446FD
:10C350008C43204614460C40002C01D04C1C001984
:10C3600000BF30BD00B587B00121684601729C480E
:10C370000188684641810320000380680690964842
:10C38000406803909448806804909348C068059082
:10C390000698009002A80FC8FFF74DFD002007B0D7
:10C3A00000BD30B587B08C48C1688648FFF79CFC5B
:10C3B000044600BF2546002D06D000BF7E4AFE2160
:10C3C000284601F059FA00BF00BF8348C268804880
:10C3D000002341687B48FFF76EFC0446002C14D113
:10C3E000142102A802F097FB0021684601727C48E4
:10C3F0000188684641817848C06805900698009099
:10C4000002A80FC8FFF717FD00BF204607B030BDD8
:10C4100000B587B0032168460172714801886846FB
:10C4200041816D48406803906B48806804906A4879
:10C43000C06805900698009002A80FC8FFF7FBFCA3
:10C44000002007B000BD3EB5624914314A68086853
:10C450008968019202910090002062490870604949
:10C46000088058496846FFF70CFC0446002C04D0AD
:10C4700000204E49087020463EBD0320000380681E
:10C480005049486052494F4A05CA05C1032000037C
:10C4900080680321090389681D225203511A490843
:10C4A00040184B494860504A0021454801F017FFA9
:10C4B000044600BF2546002D07D000BF3E4AFF219D
:10C4C0004531284601F0D8F900BF00BF00220F21F6
:10C4D00089043B48006801F031FF044600BF25464F
:10C4E000002D07D000BF344AFF214931284601F012
:10C4F000C3F900BF00BF00203C49086001202B4960
:10C5000008700020B8E72A490860704770B50546F2
:10C5100031486E684ECE4EC0103800780421084075
:10C5200000280DD02C480078C007C00F002805D186
:10C530002948007802210840002801D0062070BD5B
:10C54000254800798007800F00280BD12248007A07
:10C550008007800F002805D11F48007B8007800FCF
:10C56000002801D00620EAE71B4840681A4989687C
:10C5700040181949C968401814490860164880686D
:10C5800017218902884201D90C20D8E71248007887
:10C59000C007C00F002836D00320000380681D218B
:10C5A0004903081A09490968884221E0442C0020FF
:10C5B000682C00204832002088EC0300502C00201A
:10C5C000ECEB03005C2C0020642C0020482C0020A5
:10C5D000542C0020F0EB030098310020FF030000F2
:10C5E0004E2C00204C2C002019C20300402C0020AF
:10C5F00001D20C20A3E7F748F7490860F7484860E4
:10C60000F74888601EE00320000380681D2149036D
:10C61000081A4008F3490968884201D20C208EE7C5
:10C62000F148ED490860F1484860F148007802217E
:10C630000840002803D0EF48E749886002E0EE4850
:10C64000E5498860ED48007801280CD1FFF7F5FD39
:10C650000446002C01D0204671E7DF480168E1481C
:10C660000068884701E0082400BF00BF204666E755
:10C67000F8B50446002C01D10E20F8BDA068810752
:10C68000890F002901D1012100E00021002901D1F9
:10C690001020F2E7D9480078032804D0042803D0FA
:10C6A000052836D102E000BF0820E6E76068860072
:10C6B000D34800688019CB490968884205D9002011
:10C6C000C043CF4908600C20D7E7FFF7B6FD054609
:10C6D000002D01D02846D0E7A768C9483246394620
:10C6E0000368C8480068FFF7E6FA0546002D01D048
:10C6F0002846C2E7C24800688019C1490860084658
:10C700000068B8490968884201D0092500E0002581
:10C7100001E0082500BF00BF2846AEE710B5082499
:10C72000B7480068002801D0082010BDB348007841
:10C7300004280ED1B4480178B44801F02FFF044614
:10C74000002C03D10520AD49087002E00020AE495D
:10C7500008702046E9E770B505460026A74800782E
:10C76000032802D0042828D103E00420A34908703C
:10C7700000BFA3480068002801D0082070BDFFF763
:10C780005CFD0646002E01D03046F7E7686884005D
:10C790009D4800780019802801D90920EEE79B4ABE
:10C7A000994B1B78D0182246A96802F09BF996484D
:10C7B000007800199449087001E0082600BF00BF06
:10C7C0003046DBE710B58D48007805281FD18C482E
:10C7D000006884490968884201D0082416E00620D0
:10C7E00086490870FFF729FD0446002C0ED18549C3
:10C7F000096848687B49096801F030FF0446002C4D
:10C8000001D0204610BD07207C49087001E00824B3
:10C8100000BF00BF2046F5E770B5784800780728CC
:10C8200015D17B48006801F0B2FD044600BF2546E3
:10C83000002D06D000BF774A7749284601F01CF842
:10C8400000BF00BF644988688047044601E00824AF
:10C8500000BF00BF204670BD00B587B00620694606
:10C8600008720698009002A80FC8FFF7E4FA07B014
:10C8700000BD7FB504460E46154603200090019486
:10C880000296A9080391684618DF04B070BD7FB511
:10C8900004460E4615460120009001940296A90810
:10C8A0000391684618DF04B070BDFFB581B007463C
:10C8B0000E461C4631463846039AFFF7DAFF054616
:10C8C000002D02D1284605B0F0BD012000038642AC
:10C8D0000AD9311B381B23462246FFF7E6FF0546DF
:10C8E000002D01D02846EEE731463846039AFFF77F
:10C8F000CEFF0546002D01D02846E4E731463846F4
:10C90000039AFFF7B6FFDEE7F0B589B002A8FFF79C
:10C910001BFC0598002801D109B0F0BD01210903D5
:10C92000059840180899884230D9012424030898B2
:10C93000001B45080599089840180190690008985F
:10C9400047186800001900900320000380680599CB
:10C95000884213D2611960190422FFF798FF064636
:10C96000002E01D03046D7E7042221462046FFF7AB
:10C970008EFF0646002E01D03046CDE70198C21B3F
:10C980002B4638460099FFF790FFC5E70598002829
:10C9900006D001210903059A0898FFF778FFBBE745
:10C9A0000020B9E710B58CB005A8FFF7CDFB0998BA
:10C9B000002841D00898002830D103200003806867
:10C9C0000321090389681D225203511A490840189E
:10C9D00027E0000097C20300483200200FC3030085
:10C9E00065C30300482C0020CDC203000DC3030023
:10C9F0009831002011C40300A3C30300442C00207D
:10CA0000402C0020642C00204C2C0020A831002059
:10CA1000ECEB030088EC03007D02000008990B9802
:10CA2000401804460020019002940998810803915F
:10CA300001A818DF0CB010BD0020FBE710B58CB0CA
:10CA400005A8FFF781FB099800281FD00898002847
:10CA50000BD10320000380680321090389681D228C
:10CA60005203511A4908401802E008990B984018DF
:10CA70000446032001901D2040030290039409986E
:10CA80008108049101A818DF0CB010BD0020FBE75D
:10CA9000F0B58DB006A8FFF757FB0998002801D123
:10CAA0000DB0F0BD01210903099840180C99884286
:10CAB0001CD901252D030C98401B440809990C989A
:10CAC000471861000C984618600040190190032037
:10CAD000000380680999884201D20E20E0E7BA1B62
:10CAE000234630460199FFF7E0FED9E70320029084
:10CAF0000120000303900C99049109988108059185
:10CB000002A818DFCCE70000F8B501210A4600238F
:10CB10001F46009354000C439D002C433D022C43C0
:10CB2000009D2D042C4305252D0707263602AD193F
:10CB30008600AC5100BFF8BD10B5FE480088FE4924
:10CB4000884201D1082010BDFC480078002825D07B
:10CB500001230822FA49F7480088A9DF0446002C7F
:10CB600001D02046EFE7022300221146F148008859
:10CB7000A9DF0446002C01D02046E4E7EE4A0C2150
:10CB8000EC480088A7DF0446EE48844204D0082C15
:10CB900002D0801C844208D1002406E000231A46FB
:10CBA0001946E4480088A9DF04462046CBE7024640
:10CBB000082A0CD004DC002A07D0062A13D108E08A
:10CBC0000B2A0AD00C2A0ED105E001207047022062
:10CBD000FCE70320FAE70420F8E7042901D1052047
:10CBE000F4E70620F2E70620F0E7F7B582B00D463D
:10CBF00016460298032840D0042857D1002D15D09E
:10CC0000CC480088CC49884236D01321C9480088D6
:10CC100076DF044600BF2746002F06D000BFCA4A71
:10CC2000EE21384600F028FE00BF25E0304601F036
:10CC300091FD044600BF2746002F06D000BFC24A20
:10CC4000F421384600F018FE00BF00BFBF4800685E
:10CC5000B04211D101220321BD48FDF7B9FE0446BF
:10CC600000BF2746002F06D000BFB74AFD21384637
:10CC700000F002FE00BF00BF19E001212846FFF7C7
:10CC800096FF01900121B248019AFDF7A1FE0446EA
:10CC900000BF2746002F07D000BFAB4AFF210A3153
:10CCA000384600F0E9FD00BF00BF00E000BF00BF54
:10CCB00005B0F0BDF8B506460C4603212046FFF747
:10CCC00076FF07463A4603213046FDF781FE0446CB
:10CCD00000BF2546002D07D000BF9B4AFF2124310D
:10CCE000284600F0C9FD00BF00BFF8BDF3B589B00C
:10CCF0000D46002005900690079008909548007812
:10CD000069460875944A07CA02AB07C305A8039091
:10CD1000287A019001980C2812D003220121099849
:10CD2000FDF756FE044600BF2646002E07D000BF82
:10CD3000854AFF214131304600F09EFD00BF2DE0C5
:10CD40006E68304600F080FD0690301D00F07CFDDE
:10CD500007903046083000F077FD089002A8FFF7F2
:10CD6000D5FB0446002C0BD001212046FFF71FFF06
:10CD700007463A4601210998FDF72AFE044600BFFE
:10CD800000BF2746002F07D000BF6F4AFF21563152
:10CD9000384600F071FD00BF00BF00BF0BB0F0BD12
:10CDA000F3B585B00C46207A8007800F002813D099
:10CDB000207A8207920F04239A1A0192002106E03A
:10CDC00000230246471CF8B26668B354491C019A16
:10CDD0009142F5D3207200BF012002906168049156
:10CDE000207A8008039002A8FFF7B5FC0546002DC5
:10CDF00018D002212846FFF7DAFE07463A460221FC
:10CE00000598FDF7E5FD054600BF2E46002E07D02C
:10CE100000BF4D4AFF218831304600F02DFD00BF94
:10CE200000BF00BF07B0F0BDF3B585B00D46287A4E
:10CE30008007800F002814D0032211460598FDF7C3
:10CE4000C7FD044600BF2746002F07D000BF3E4A5B
:10CE5000FF219D31384600F00FFD00BF00BF07B035
:10CE6000F0BD287A04903D49049801F03FFC044647
:10CE7000002C04D021460598FFF71CFFEFE76E68F1
:10CE800031463648049A006801F02CFE049801F0FF
:10CE9000A4FC0446002C04D021460598FFF70AFFA5
:10CEA000DDE704A92D4801F0A6FC0446002C04D0BF
:10CEB00021460598FFF7FEFED1E704200190049873
:10CEC0008008029025480168039101A8FFF7D0FB74
:10CED0000446002C0AD1287A2149096840182049C3
:10CEE00008601E4800681949086059E0092C47D1BC
:10CEF000287A1B49096840181949086019480078C0
:10CF000000284DD018480088401E17490880084660
:10CF10000088002844D1124801680598FDF750FFA9
:10CF2000044600BF2746002F24D000BF064AFF2139
:10CF3000DB311BE0822C0020FFFF0000852C00204D
:10CF4000D032002002300000E4EC03008C2C0020E2
:10CF50006C320020722C002010EC03007C2C00208E
:10CF6000742C0020812C00207A2C0020384600F000
:10CF700083FC00BF00BFFB480088FB4908800FE02E
:10CF8000FA48006801F0E6FB0746002F03D0394657
:10CF90000598FFF78FFE21460598FFF78BFE00BF2F
:10CFA00000BF5CE770B504460D46F14800780128E3
:10CFB00004D0022807D003280FD109E029462046D3
:10CFC000FFF794FE0AE029462046FFF7E9FE05E058
:10CFD00029462046FFF728FF00E000BF00BF70BDD4
:10CFE00010B5044600BFE34AE349204600F044FC84
:10CFF00000BF10BD30B587B01C21684601F08BFD25
:10D0000000200090DD480190012080030290032160
:10D01000684601730021C181017400200590D84841
:10D0200006906846FEF789FB044600BF2546002DA2
:10D0300007D000BFCF4A8B218900284600F01CFC96
:10D0400000BF00BF07B030BD70B5CE4800780028E3
:10D0500015D074DF044600BF2546002D07D000BF61
:10D06000C44AC549E131284600F006FC00BF00BFB4
:10D07000152000F0F5FB0020C249087000BF70BD0C
:10D0800070B50120C0490870C0480088C049884276
:10D0900010D01321BD48008876DF044600BF254626
:10D0A000002D06D000BFB34ABA49284600F0E4FB81
:10D0B00000BF01E0FFF7C8FFFEF76CFB044600BFAE
:10D0C0002546002D07D000BFAA4AB249093128469B
:10D0D00000F0D2FB00BF00BF002070BDF8B50646CF
:10D0E0000D462878030001F041FD0A4D55780622CF
:10D0F0003A818B7C91A5FFF765FB0446042120460D
:10D10000FFF755FD009004213046009AFDF760FCC2
:10D11000044600BF2746002F07D000BF954A964916
:10D120003131384600F0A8FB00BF00BF83E0FFF7B5
:10D13000A7FF044600BF2746002F07D000BF8D4A37
:10D140008D493631384600F097FB00BF00BFFFF72E
:10D1500063FB0446002C01D0FFF77EFB6BE0FFF77A
:10D160008FFF044600BF2746002F07D000BF814A2B
:10D170004B21C900384600F07FFB00BF00BFFFF71E
:10D180006BFB58E001207A49087068680078824992
:10D19000087050E00220764908706868007801281D
:10D1A0001AD1FFF7BBFA044602212046FFF7FFFC25
:10D1B000009002213046009AFDF70AFC044600BFA9
:10D1C0002746002F07D000BF6A4A9B2189003846B6
:10D1D00000F052FB00BF00BF2DE00320644908703F
:10D1E00029E029463046FFF7DDFE24E001206B49A7
:10D1F0000870A8885B490880A8885B4908801AE005
:10D200000020664908705749088014E064480168A6
:10D210003046FDF788FD044600BF2746002F07D0A3
:10D2200000BF544A54497031384600F025FB00BF16
:10D2300000BF00E000BF00BFF8BD70B590B004466D
:10D24000584881796846817157498180382102A800
:10D2500001F061FC02216846017200218172C472F2
:10D260000121018201A90591002102A8FEF7C2F95E
:10D27000054600BF2E46002E07D000BF3D4A3E495E
:10D280009231304600F0F8FA00BF00BF10B070BD18
:10D2900030B58BB03B480078002861D11821434855
:10D2A00001F039FC42480078002836D00020079071
:10D2B000089009900A90102207A93E4801F036FC18
:10D2C00000280DD10520FFF7B8FF0120374908706D
:10D2D0003848C01F486000200872088248821BE05E
:10D2E00034480690C01F059001216846017205A8C8
:10D2F00001906846017406A803900420FFF79DFF83
:10D3000000202A4908700220087201A8C86028205D
:10D3100008820020488200BF0BE00620FFF78DFF47
:10D3200000202249087048600872282008820020E6
:10D3300048821E4873DF044600BF2546002D07D0F3
:10D3400000BF0C4AB9218900284600F095FA00BFB9
:10D3500000BF152000F089FA01200A49087000BFBB
:10D360000BB030BD782C00207A2C00207C2C0020C3
:10D37000712C0020E4EC030015020000CD0C00002D
:10D38000E1CF0300842C0020802C0020822C002080
:10D39000FFFF000049040000722C0020812C0020B7
:10D3A000742C00206C320020301500005432002014
:10D3B000852C0020A3320020F0B5A5B005462888B2
:10D3C000172877D00CDC112824D004DC022872D076
:10D3D000102871D111E0132842D01428F9D1E1E0CE
:10D3E00051286AD004DC182868D01928F1D17DE0D2
:10D3F00052287AD05528ECD161E0162000F035FA99
:10D40000152000F02DFAA888FC4908800020FC496E
:10D410000870F8E0802000903220FA490860162059
:10D4200000F01EFA01236A4601A9F4480088AADF29
:10D43000044600BF2646002E06D000BFF24AF3493C
:10D44000304600F019FA00BF00BFF148007800280C
:10D4500001D1FFF71DFF0020C043E8490880D2E05A
:10D460000722EC4912A801F03DFB1022E949C91D31
:10D470000EA801F037FB1C22E649183114A801F070
:10D4800031FB0EA91F9114A81E901BABE24A852107
:10D49000DA4800887FDF044600BF2646002E07D00A
:10D4A00000BFD94AD9492131304600F0E5F900BF23
:10D4B00000BFA8E0A5E036E0A4E047E090E0A8794E
:10D4C000002811D11321CD48008876DF044600BF23
:10D4D0002646002E07D000BFCB4A6921C90030463E
:10D4E00000F0CAF900BF00BF8DE078E0A8790028FD
:10D4F00018D1C3490870C3480068401EC14908607C
:10D500000846006800280BD11422C4491CA801F069
:10D51000E9FA209800901CA80FC8FEF78CFC01E0E7
:10D52000FFF7B6FE6FE00021B448008867DF0446CD
:10D5300000BF2646002E07D000BFB34AB349413191
:10D54000304600F099F900BF00BF5CE0A8790028E0
:10D5500027D0A87A042805D0A87A062802D0A87A6D
:10D5600005281ED1A879022802D120A9087102E05D
:10D57000012020A90871FF20833020A9088121A95A
:10D580009E480088A8DF044600BF2646002E07D02C
:10D5900000BF9D4A9D495B31304600F06DF900BFE8
:10D5A00000BF30E00027E9899A48408D814201D1CF
:10D5B000984F1837A8880023964AD21D394682DF33
:10D5C000044600BF2646002E07D000BF8E4A8F4972
:10D5D0006F31304600F050F900BF00BF13E000BFCC
:10D5E000FFF7AAFA044600BF2646002E07D000BF68
:10D5F000854AE5218900304600F03EF900BF00BFB2
:10D6000001E000E000BF00BF25B0F0BD10B504464A
:10D610002046FEF766F921468148FDF757FB204674
:10D62000FFF7CAFE10BD10B51520FFF76DFA1620E2
:10D63000FFF76AFA152000F013F9162000F010F930
:10D6400010BD3EB500BF6846007801090901491CBC
:10D65000009168460078F02188431030009000BFA8
:10D66000072270A168467CDF044600BF2546002DD6
:10D6700007D000BF644A6549B131284600F0FCF884
:10D6800000BF00BF0020019002900C2168468180FD
:10D690001821C18000210181FF219131418101A820
:10D6A0007ADF044600BF2546002D07D000BF564A4A
:10D6B0005649BB31284600F0DFF800BF00BF3EBD31
:10D6C00010B5044600BF504A5049C831204600F00A
:10D6D000D3F800BF10BD3EB500200090019002902D
:10D6E00008206946088051480190514802904C48F2
:10D6F000FDF79BFA044600BF2546002D07D000BF6A
:10D70000414A4249DC31284600F0B6F800BF00BF6C
:10D710003EBD41480078400840003F490870084637
:10D720000078022188433C490870084600781C2193
:10D7300088430C3038490870084600782021884317
:10D7400035490870072048701020887070477CB5F4
:10D7500000202F49087037490870FFF764FF3648EA
:10D7600001F016F90446002C01D020467CBD334858
:10D77000FEF7C9FE00F092FF0446002C01D02046BF
:10D78000F4E72448FCF729FD0446002C03D10120CE
:10D790002B49087026E0684671DF044600BF254625
:10D7A000002D06D000BF184A2649284600F064F82C
:10D7B00000BF00BF68464078401CC1B26846417057
:10D7C0006946002070DF044600BF2546002D07D0C3
:10D7D00000BF0D4A1B49891D284600F04DF800BFC7
:10D7E00000BF00BFFFF72DFFFFF775FFFFF702FC3B
:10D7F000FFF78FFFFFF74CFD0020B7E7822C0020DA
:10D80000842C0020882C0020E4EC03001E03000080
:10D81000802C00209C3200206C2C00201CEC03008B
:10D820006C3200204466755461726700DDD00300DD
:10D83000C1D60300712C00200DD60300EBCB0300F2
:10D84000852C00202C040000014608784A7812023A
:10D8500010438A7812041043CA78120610437047A6
:10D8600001218140034A9160704701218140014AB2
:10D87000D16070470005005018B500BF0F235B054D
:10D880000A4CE3600023A36000BF012400946B46B0
:10D890001B78074B1860074B1960074B1A6072B66C
:10D8A00000BF6B461B78002BFBD118BD0005005054
:10D8B000902C0020942C0020982C002030B503469A
:10D8C000481CC004040C10468507AD0F002D01D183
:10D8D000012500E00025002D01D1072030BD804842
:10D8E000026010197F4D286000207F4D28707F4D09
:10D8F00028707F4803807F4801800020EEE7F7B55D
:10D9000084B00C467A480088844272DC7A4D00204C
:10D91000039000F0B1F802900298012814D003A8F7
:10D9200036DF0746022F01D172B60CE000BF019727
:10D93000019F002F06D000BF70A266210198FFF75B
:10D940009BFF00BF00BF00BF00BF68480778664864
:10D95000007800F0BBF8B84201D1012000E00020BF
:10D96000002806D160480578007800F0AFF85E49DD
:10D9700008700298012814D062B66846007B37DF31
:10D980000746022F0CD000BF0197019F002F06D041
:10D9900000BF5AA26E210198FFF76EFF00BF00BFC3
:10D9A00000BF5548854222D0E9004D4A06981268CA
:10D9B00050500498002811D0002C0FDD4C490988E4
:10D9C0006943484A126888182246049901F08AF887
:10D9D000E800434909684018848005E00020E90018
:10D9E0003F4A126889188880002601E001E0042679
:10D9F00000E00926304607B0F0BDF8B505460E46F2
:10DA000017460520009000BF384908783649097844
:10DA1000814201D1012100E0002100291BD13348BE
:10DA20000478007800F052F83049087030480088D7
:10DA300060432C49096840182860E00028490968BB
:10DA4000401880883080E00025490968085838600F
:10DA50000020009000BF0098F8BD0EB504E06846B5
:10DA60008188009A029890476A4601A902A8FFF7A8
:10DA7000C4FF0028F3D00EBD10B52C484068C10586
:10DA8000C90D002920D00A46103A50B200280DDAFC
:10DA9000264B1C330407240F083CA408A4001B5980
:10DAA0008407E40EE3401B069B0F0BE0204B03248E
:10DAB00024021B198408A4001B598407E40EE340C8
:10DAC0001B069B0FD8B210BD0420FCE70146094895
:10DAD0000088814201DA481C00E00020C0B2704793
:10DAE0009C2C0020A02C0020A52C0020A42C002081
:10DAF000A62C0020A82C0020FFFF00005254455CFB
:10DB00006E52465F4C69627261726965735C6E52F7
:10DB10004635313432325F787841435C6170705FF2
:10DB20007363686564756C65722E630000ED00E0D8
:10DB300000E100E010B5002819DAF74A03071B0FCF
:10DB4000083B9B089B00D2588307DC0EFF23A340B1
:10DB50009A438B071B0E8407E40EA3401A43EE4B37
:10DB60000407240F083CA408A4001A5118E0EB4A4B
:10DB700003231B02D21883089B00D2588307DC0EB4
:10DB8000FF23A3409A438B071B0E8407E40EA34098
:10DB90001A43E24B032424021B198408A4001A51DF
:10DBA00010BD10B50446DE48846003211120FFF744
:10DBB000C1FF10BD10B501200004DA494860D94901
:10DBC00040394860112000F03EFC112000F02DFC8F
:10DBD0000120D54908602F20FCF7B8FA0120D3496D
:10DBE000087010BD10B5112001218140CB4A803250
:10DBF000116000BF01200004CA498860C94940394A
:10DC000088600120C84948602F20FCF79FFA012056
:10DC1000C54988600020C64908602F20FCF796FAA5
:10DC20000020C249087010BD10B5C249096800291A
:10DC300002D1C04908602AE0BE4A01681268126831
:10DC400091420DD8BB49096809680268891AB94A26
:10DC500012681160B7490968C161B649086016E0E9
:10DC60000268B44C2368216803E00C68121B0B4661
:10DC7000C969002902D00C689442F6D3002902D069
:10DC80000C68A41A0C600260C161D86100BF10BDAD
:10DC900030B50246A74C2168084604E0904200D106
:10DCA00003E00146C0690028F8D100BF002800D178
:10DCB00030BD814211D19F4C2468E4699D4D2C6098
:10DCC0002C462468002C08D10124974DAC60002418
:10DCD000974D2C600124984D2C700368C469CC6169
:10DCE000C869002802D00468E418046000BFDFE7B8
:10DCF00010B5112000F0A0FB10BD10B5142000F0ED
:10DD00009BFB10BD70B504468C480068002813D0FA
:10DD10008A4AA169606912689047054600BF2E468D
:10DD2000002E07D000BF86A2FF2160313046FFF7EA
:10DD3000A3FD00BF00BF02E06169A069884770BD14
:10DD4000F8B57C480068002839D0002700F0ADFB0A
:10DD5000009077480168009800F0AAFB06467548D5
:10DD6000056811E02868B04200D90FE02868361A2B
:10DD70002868C7192C46ED69207C002804D00020B3
:10DD800020742046FFF7BEFF002DEBD100BF77487F
:10DD9000007877490978884209D175480078401C95
:10DDA000C0B273490870022801D100200870704881
:10DDB000007880006F490F50FFF79FFF00BFF8BD4C
:10DDC00001466A4800786A4A127890421DD0674836
:10DDD0000078401C654A107010460078022801D176
:10DDE00000201070614800788000624A1058086076
:10DDF0004F4A0868126880184D4A10601046006843
:10DE00000002000A1060012070470020086000BF77
:10DE1000FAE7F8B5474800680090574806782EE0C2
:10DE2000F000564909684418257824E01820684312
:10DE300061680F18681CC5B2A078A84200D10025FF
:10DE40003878022802D0032812D103E07868FFF75F
:10DE50001FFF0EE007E03749086800210174354ACA
:10DE6000C169116000BF334800680028F3D100E0A9
:10DE700000BF00BF00BF6078A842D7D100BF3046C6
:10DE8000711ECEB20028CBD12A4801680098814289
:10DE900001D00120F8BD0020FCE7F0B503460024C6
:10DEA00020E0244E306806689E4203D90668F61AC0
:10DEB00006601BE006689B1B066834190026066096
:10DEC0001C4E35681B4FC6693E60C668002E08D0E0
:10DED0000E193602360A4660C66886601668C66144
:10DEE000156000BF134800680028DAD100BFF0BDFC
:10DEF000FEB506460F48006801901F480078009064
:10DF000098E00098C0001D49096845188AE0002E75
:10DF100036D03446E66958E01CED00E000E100E050
:10DF2000001501404013014000100140CC2C00209E
:10DF3000B82C0020B42C0020CD2C0020C82C0020B0
:10DF40005254455C6E52465F4C69627261726965FB
:10DF5000735C6E524635313432325F787841435CBF
:10DF60006170705F74696D65722E6300C42C00204F
:10DF7000C52C0020BC2C0020AC2C0020B02C002094
:10DF80002978182359436A6850182978491C297040
:10DF90002978AA78914201D100212970446801783A
:10DFA000012902D1217C002900D03BE08168616019
:10DFB000C168A1600169E1604169A161F84909781E
:10DFC000002901D00021616000BFF649606809683E
:10DFD000401A0002000AF449884208D2F1496068F8
:10DFE000096800F065FAA168401820600FE0ED486C
:10DFF0006168006800F05CFA0746A068B84203D97F
:10E00000A068C01B206001E00020206000BF00204D
:10E010006060A060012020740020E0612046FFF7CE
:10E0200003FE00BF002E00D071E72878697888428F
:10E03000FAD100BF0098411EC9B20091002800D05B
:10E040005FE7DA4801680198814201D00120FEBDF6
:10E050000020FCE7FEB5D5480068002836D0D3483C
:10E060000068056800F021FA0190CE480468214656
:10E07000019800F01DFAC61CCD480078002801D197
:10E08000FFF798FDAE4201D2284600E03046041961
:10E090002402240A204600F010FA00F006FA00904C
:10E0A0000199009800F004FAC71C2046019900F07D
:10E0B000FFF9874209D900F0F8F9074600F0FDF9A9
:10E0C0002F20FCF743F8FFF713FE01E0FFF78AFD6E
:10E0D000FEBDFEB500200190B2480468B348076851
:10E0E0006846FFF76DFE0546FFF793FE0646002DD6
:10E0F00005D001AA21460098FFF7CFFE012601981E
:10E10000FFF7F6FE002800D00126002E02D0384688
:10E11000FFF7A0FF0020A2490870FEBD41707047C4
:10E1200070B502460B465078401CC1B290788842C8
:10E1300000D100211078884201D1002070BD1970F3
:10E1400050781826704355682C182046F6E7FFB51E
:10E1500081B005460E461746E900964A12688818AF
:10E160006946FFF7DDFF0446002C02D1042005B00C
:10E17000F0BD01202070666000F097F9A060E760B4
:10E18000049820610A986061E9008A4A1268881838
:10E1900069460978FFF7C2FFFFF7AFFD0020E6E709
:10E1A000F8B504460E46E100824A126888186946AE
:10E1B000FFF7B6FF0546002D01D10420F8BD02206F
:10E1C00028706E60E1007B4A1268881869460978F9
:10E1D000FFF7A4FFFFF791FD0020EFE738B50446F5
:10E1E000E100744A126888186946FFF799FF0546EE
:10E1F000002D01D1042038BD032028700020686064
:10E20000E1006C4A1268881869460978FFF786FFB2
:10E21000FFF773FD0020EEE710B5002066490860A7
:10E220000021654841608160C16000206249403939
:10E2300008604860FFF784FD10BD10B5FFF749FF87
:10E2400010BDFFB581B00E4614461F46204681071B
:10E25000890F002901D1012100E00021002902D10C
:10E26000072005B0F0BD002C04D100205149086002
:10E270000720F6E7FFF7B6FC504807600320504937
:10E2800008704C480460183400250CE0E900494A45
:10E29000126888180021017041708670446018214E
:10E2A00071430C196D1C032DF0DB00203F49086001
:10E2B0004449087044490870142000F0C4F8032150
:10E2C0001420FFF737FC142000F0AFF80198FFF797
:10E2D00068FC00F0EAF8334908600020C1E710B597
:10E2E00003460C4633480068002801D1082010BDC1
:10E2F000002A01D10720FAE7002B01D10720F6E719
:10E300001868007C002801D00820F0E71968002078
:10E3100008744C744A6100BFE9E710B500F09BF83F
:10E32000012802D0032804D101E0002403E00124E5
:10E3300001E0022400BF00BF204610BDFEB5044628
:10E340000D46174626461B480068002801D10820C4
:10E35000FEBD002C01D10820FAE7052D01D20720CF
:10E36000F6E77069002801D10820F1E7707C0128E8
:10E3700001D1284600E000200290FFF7CEFF009771
:10E3800001902A463146029BFFF7E1FEE0E770B5B7
:10E390000446254607480068002817D1082070BDAC
:10E3A000CD2C0020B82C0020FFFF7F00B42C0020D3
:10E3B000CC2C0020B02C002040110140C82C0020A3
:10E3C000AC2C0020C42C0020C52C0020002C02D036
:10E3D0006869002801D10820E1E700202874FFF7D0
:10E3E0009CFF06462946FFF7DBFED8E710B5354807
:10E3F0000068002801D1082010BDFFF78EFF0446F9
:10E40000FFF7ECFEF8E710B5044600F04EF8206088
:10E41000002010BD70B505460E461446314628460C
:10E4200000F046F82060002070BDC206D20E012127
:10E430009140254A11607047C206D20E01219140D9
:10E44000224A11607047C206D20E012191401F4A34
:10E4500080321160704710B51D484068C105C90D74
:10E46000002920D00A46103A50B200280DDA184B85
:10E470001C330407240F083CA408A4001B5984077C
:10E48000E40EE3401B069B0F0BE00F4B032424021A
:10E490001B198408A4001B598407E40EE3401B06E3
:10E4A0009B0FD8B210BD0420FCE70A4840687047B3
:10E4B0000246501A0002000A7047064940310860BF
:10E4C00070470000B02C002000E100E000E200E016
:10E4D00000ED00E000150140F8B504460D46264663
:10E4E00000BF082D01D1012000E000200746002FC9
:10E4F00005D100BF0AA21421FFF7BEF900BF00BF7B
:10E50000316870688847F8BD7CB504460D460094B4
:10E510000195104A08216846FFF7F1F97CBD00001B
:10E520005254455C6E52465F4C6962726172696515
:10E53000735C6E524635313432325F787841435CD9
:10E540006170705F74696D65725F61707073682E61
:10E5500063000000D9E4030070B503460C46002AAE
:10E5600001D10D4D00E015882846002110E005126C
:10E5700006023543A8B25D5C684005062D0F684071
:10E5800005034540A8B205062D0D6D006840491CE5
:10E59000A142ECD370BD0000FFFF0000F8B50546B6
:10E5A0000E4600270C2E01D20920F8BD2C46A919D1
:10E5B000287A420028460A301018081A3349087091
:10E5C00008460078022801DA0920EEE7A919208917
:10E5D000420020460A301018814201D20920E4E7A7
:10E5E0002089420020460A3011182848027828481D
:10E5F00000F078FA274800882749884206D020880A
:10E6000024490988884201D00B20CEE72148408860
:10E610002149884206D060881E494988884201D035
:10E620000B20C2E715E0790020460A30405A1A490B
:10E63000491E88420BD038467F1C410020460A30D4
:10E64000405A03210903898989B2884201D10020F7
:10E65000ABE72089B842E6D80B20A6E7F8B5044618
:10E660000D46002229462046FFF776FF064600BFEA
:10E670000748007806494978090208430746BE4220
:10E6800001D00B20F8BD0020FCE70000CE2C0020BC
:10E69000D832002080100010FFFF000000206D49DC
:10E6A00008706D486D490860082048600020886047
:10E6B000C860086148618861704700207047024661
:10E6C000002A01D10E20704762480078002806D148
:10E6D0000120604B187062481060002100E00421A6
:10E6E0000846F0E700205B490870704730B50346E4
:10E6F000002901D10E2030BD002008605748406835
:10E70000002824D0202B20D854484068401E534C69
:10E7100060602046C068401CE060204604680069D4
:10E7200024256843201808604C4880694B4C257CA0
:10E730000124AC402043494CA0612046007C401C91
:10E740004007400F2061002202E00C2200E004227A
:10E750001046D0E730B50346404CA468002C3AD0B0
:10E7600010203E4C247D3D4D2D7A641B6107490FDE
:10E770000A4600BF394C256824244C432C199C427E
:10E7800008D1364CA46901258D406C40334DAC61F5
:10E79000002006E04C1C6107490F304C64698C4234
:10E7A000E8D100BF0BE02D4CA468641E2B4DAC607B
:10E7B0002C466468641C6C604C1C6207520F274C2A
:10E7C000A469012595402C40002C05D1234CA46858
:10E7D000002CE8D100E0042030BD01461F48007C39
:10E7E000401E4207520F1D4803682420504318184A
:10E7F00001620020704730B50246002A01D000298E
:10E8000001D10E2030BD1548C06800281FD0134824
:10E81000C068401E114CE06020468068401CA0602B
:10E8200020460468406924256843201810600B487E
:10E830000468406968432018006A08600748007D42
:10E84000401C4007400F054C6061002300E004239A
:10E850001846D7E7CF2C0020E432002004340020F3
:10E86000D02C002070B506460C4615462946204699
:10E87000FBF7E9FC70BDF8B55B480078002800D1D3
:10E88000F8BD5A480068002801D1012000E00020AE
:10E89000054657480068002801D1012000E000200B
:10E8A000064600BF002D14D1684651DF0446052CF2
:10E8B00001D101250CE0002C06D000BF4DA26D2136
:10E8C0002046FEF7D9FF03E04849009809688847C9
:10E8D00000BF002E1AD15548008800906946544860
:10E8E000006861DF0446052C01D101260DE0002CF3
:10E8F00006D000BF3FA284212046FEF7BDFF04E002
:10E900004B4800683A490968884700BF002D02D08B
:10E91000002E00D000E0C5E700BF00BFB0E73248DE
:10E9200000787047FFB581B00C4616461F46002C94
:10E9300002D1072005B0F0BD20468107890F0029CC
:10E9400001D1012100E00021002901D10720F1E7D8
:10E9500037480460354806803648076036490198D4
:10E9600010DF0546002D01D02846E3E701201E49AF
:10E97000087016202EDFDDE710B511DF0446002CED
:10E9800001D0012000E0002017490870204610BD8A
:10E990000146002901D10E20704715480160002072
:10E9A000FAE70146002901D10E2070470F480160A7
:10E9B0000020FAE770B51F480068002811D01D48F4
:10E9C00000688047044600BF2546002D07D000BFE1
:10E9D00008A2FF2141312846FEF74EFF00BF00BFCD
:10E9E00001E0FFF748FF70BDD82C0020E82C002084
:10E9F000E42C00205254455C6E52465F536F66749F
:10EA00004465766963655C6E524635313432325FF7
:10EA1000787841435C736F66746465766963655F9B
:10EA200068616E646C65722E63000000E02C00204B
:10EA3000DC2C0020D42C002065E8030070B50646CD
:10EA40000C4600BF002C01D1012000E0002005464B
:10EA5000002D05D100BF08A21321FEF70DFF00BF56
:10EA600000BFFFF708FF70BD10B5124A002108462D
:10EA7000FEF745FF10BD00005254455C6E52465FE4
:10EA8000536F66744465766963655C6E52463531D2
:10EA90003432325F787841435C736F6674646576B4
:10EAA0006963655F68616E646C65725F61707073E5
:10EAB000682E63003DEA030030B50B460146002096
:10EAC0002022012409E00D46D5409D4205D31D4674
:10EAD0009540491B2546954040191546521E002D6C
:10EAE000F1DC30BD03460B439B0703D009E008C9A6
:10EAF000121F08C0042AFAD203E00B780370401CEE
:10EB0000491C521EF9D27047D2B201E00270401C7B
:10EB1000491EFBD270470022F6E710B513460A469D
:10EB200004461946FFF7F0FF204610BD30B50446F5
:10EB30000020034600E05B1C934203D2E05CCD5C06
:10EB4000401BF8D030BD0000064C0125064E05E004
:10EB5000E36807CC2B430C3C98471034B442F7D3FE
:10EB6000FBF7B2FA44ED030064ED030030B47446E1
:10EB7000641E2578641CAB4204D3635D5B00E3181C
:10EB800030BC18471D46F8E702E008C8121F08C14C
:10EB9000002AFAD170477047002001E001C1121F1E
:10EBA000002AFBD1704700000200000000000000B6
:10EBB000000000000000000023D1BCEA5F782315AC
:10EBC000DEEF1212000000006830002025BD0300B7
:10EBD0000000000000000000020000000000000033
:10EBE00000000000000000000000000028320020AB
:10EBF0000400000000000000000000000000000011
:10EC000000000000A1C1030000000000000000009F
:10EC100003000000000000000000000005000000EC
:10EC200000000000000000000000000000000000E4
:10EC3000433A5C4B65696C5F76355C41524D5C5084
:10EC400041434B5C4E6F7264696353656D69636FDA
:10EC50006E647563746F725C6E52465F4C6962726B
:10EC600061726965735C332E312E305C626F6F7434
:10EC70006C6F616465725F6466755C626F6F746C03
:10EC80006F616465722E6300433A5C4B65696C5F2B
:10EC900076355C41524D5C5041434B5C4E6F726423
:10ECA000696353656D69636F6E647563746F725CDD
:10ECB0006E52465F4C69627261726965735C332E95
:10ECC000312E305C626F6F746C6F616465725F646B
:10ECD00066755C6466755F6475616C5F62616E6BBE
:10ECE0002E630000433A5C4B65696C5F76355C418E
:10ECF000524D5C5041434B5C4E6F72646963536587
:10ED00006D69636F6E647563746F725C6E52465F9B
:10ED10004C69627261726965735C332E312E305CAE
:10ED2000626F6F746C6F616465725F6466755C645A
:10ED300066755F7472616E73706F72745F626C651A
:10ED40002E63000064ED0300002C0020EC000000A6
:10ED500088EB030050EE0300EC2C0020340F000081
:10ED600098EB03000024F400000000000000000005
:10ED70000000000000000000000000000000000093
:10ED80000000000000000000000000000000000083
:10ED90000000000000000000000000000000000073
:10EDA0000000000000000000000000000000000063
:10EDB0000000000000000000000000000000000053
:10EDC0000000000000000000000000000000000043
:10EDD0000000000000000000000000000000000033
:10EDE000000000000000FFFF0000000032000000F3
:10EDF0000000000000000000000000000000000013
:10EE00000000000000000000000000000000000002
:10EE100000000000000000000000000000000000F2
:10EE200000000000000000000000000000000000E2
:10EE300000000000000000000000000000000000D2
:10EE400000000000000000000000000000000000C2
:020000041000EA
:0410140000A0030035
:040000050003A0C193
:00000001FF
