:020000040001F9
:10800000F83600204981010063810100658101008B
:108010000000000000000000000000000000000060
:108020000000000000000000000000006781010067
:108030000000000000000000698101006B81010068
:108040006D8101006D810100DD8701006D810100FE
:108050006D8101000000000069830100C182010000
:10806000918701006D8101006D8101006D8101002A
:108070006D8101006D8101006D8101006D81010044
:108080006D810100B58401006D8101006D810100E9
:108090000F8701006D810100198701006D810100CA
:1080A0006D8101006D8101000000000000000000F2
:1080B00000000000000000000000000000000000C0
:1080C0000348854600F0BEF8004800479DCC0100FB
:1080D000F8360020401E00BF00BF00BF00BF00BF39
:1080E00000BF00BF00BF00BF00BF00BF00BFF1D195
:1080F00070470000401E00BF00BF00BF00BF00BFB0
:1081000000BF00BF00BF00BF00BF00BF00BFF1D174
:1081100070470000056885F308884068FF2464B252
:10812000EFF30585002D01D1A646004725460646FA
:1081300021273FBAF0B40024002500260027F0B420
:10814000F92040B2004700000321094802680A43B1
:108150000260084802680A430260074880470748EF
:108160000047FEE7FEE7FEE7FEE7FEE7FEE700006A
:1081700024050040540500403D870100C1800100F6
:1081800030B50B46014600202022012409E00D46AF
:10819000D5409D4205D31D469540491B2546954037
:1081A00040191546521E002DF1DC30BD70B500247B
:1081B0002546002801DA01244042002901DA012580
:1081C0004942FFF7DDFFAC4200D04042002C00D016
:1081D000494270BD03460B439B0703D009E008C921
:1081E000121F08C0042AFAD203E00B780370401C67
:1081F000491C521EF9D27047D2B201E00270401CF5
:10820000491EFBD270470022F6E710B513460A4616
:1082100004461946FFF7F0FF204610BD421C0178C6
:10822000401C0029FBD1801A704730B5044600205D
:10823000034600E05B1C934203D2E05CCD5C401B34
:10824000F8D030BD064C0125064E05E0E36807CCAA
:108250002B430C3C98471034B442F7D3FFF734FF5C
:1082600038F1010058F1010070B58C180578401CF8
:108270006B075B0F01D10378401C2A1106D10278ED
:10828000401C03E006780E70401C491C5B1EF9D1AF
:108290002B0705D40023521E0DD40B70491CFAE79E
:1082A0000378401CCB1A921C03E01D780D70491C0A
:1082B0005B1C521EF9D5A142D8D3002070BD00002E
:1082C00010B515480168002924D000210160134829
:1082D0008068134A0121C0B251604B210901484313
:1082E000FF21FFF74DFF4100401880B201F07EF8FA
:1082F00001460C4801F000FB00280BD0082809D0EB
:108300000949884206D00949884203D00022114613
:1083100000F088FE10BD00000071004000750040B4
:108320000070004098250020043000000134000057
:10833000F0B50068002305889446137011E062468A
:108340008488127805884688121963461A700023BB
:10835000801D04E00778F218401C8F545B1CA34278
:10836000F8DB002DEBD1F0BDF8B50024FF25013579
:10837000012627460094284605F078F8002808D002
:1083800034484068304204D0334800212818344330
:1083900001602D1D76007F1CADB2042FEBD3FF20B2
:1083A0007D3005F063F8002807D02C4800210160DB
:1083B000400704432A48006900902A4F200712D042
:1083C0000126002526420AD02748AA00111808696C
:1083D0000969C004C00E8903BA58890F9047760016
:1083E0006D1C042DEED3002C30DA00241D4E00212C
:1083F000301940304156491C25D00778BD06AD0ED6
:10840000284602F0B7FC80003658002E1BD0BF096A
:108410000121A940154AA80080180068009A80032D
:10842000800F114202D0022802D00CE003280AD1AA
:10843000032F05D102280AD00221284605F006F8AC
:1084400039462846B047641C042CCFD3F8BD03211D
:10845000F3E7000000630040006000407C610040E2
:1084600000050050382E0020006500400007005035
:108470008307FF22DB0E9A408907090E99400028E6
:108480000BDA0007000F0838830808489B0018180B
:10849000C36993430B43C3617047830804489B003F
:1084A0001B181868904308431860704700ED00E0FF
:1084B00000E400E010B506490020086048608860CC
:1084C000C860034940390860486006F015FC10BDDB
:1084D0004011014070470000F7B518214843214979
:1084E00016464418E16A8807800F02280BD0A06A5C
:1084F000626A801A401E01D5226A1018864202DD87
:1085000089072DD00646002E2AD00027A06A616A6E
:10851000451A6D1E01D5206A4519616A206A411A03
:10852000A94201DC616A451AB54200DB3546616A41
:10853000E0692A4640180199FFF74CFE01987F191F
:1085400040190190606A761B40196062606A216A76
:10855000884201D100206062002ED7D13846FEBD8E
:108560000020FEBD502000200FB408B504A90091E2
:108570006A46039900F004F801B008BC04B018473B
:10858000F7B598B007A80290402000250495039005
:1085900018980C46059506902178641C002974D023
:1085A000252907D002A800F06FFA05980028F3DA11
:1085B0001BB0F0BD002101230227042208262078E9
:1085C000232817D02B2813D02D280DD030280DD0DC
:1085D000002220780346303B0A2B0ED20A235A434E
:1085E0001218303A641CF4E7194304E0394302E0FE
:1085F000114300E03143641CE1E70023C7B22E2F92
:108600000AD1641C20780746303F0A2F04D20A277B
:108610007B431B18303BF4E76C280DD068280BD047
:10862000702852D00BDC25285AD058282ED0632829
:108630000CD0642858D110E02078641CECE7732833
:1086400032D0752817D078284ED11FE01A981A9A80
:108650000068011D1160017843E01A981A9F0068B4
:10866000061D3E6000680191009201460A2202A8A0
:1086700000F036F938E01A981A9F0068061D3E602F
:108680000068009201910A2209E02FE01A981A9FCF
:108690000068061D3E6000680092019110220146AC
:1086A00002A800F07FF91FE01A981A9A0068011DCD
:1086B000116006683178761C002915D002A800F0F8
:1086C000E3F905980028F5DA0EE01A981A9A00687E
:1086D0000823011D11600168102200960195DFE753
:1086E000252102A800F0D0F9641C5EE70598002857
:1086F00000DC5DE70498002804D0024607A918981A
:10870000FFF7EAFE049905984018059050E710B568
:1087100006F088FA10BD000010B507484068002830
:1087200007D08047002803D00022114600F07AFCD1
:1087300010BD04F01BF910BD0422002010B504F098
:1087400063F9002805D00E490C484860C8130D494C
:1087500088610D48018CC9B201290ED1818C0907AD
:108760000BD1018D0906090F042906D1808D000661
:10877000000F02D105490120886010BDDFFF07C04E
:1087800000050040006C0040C00F00F000060040F3
:10879000F8B500260F4C35463746A800FF3041306B
:1087A00080B22158002910D001210904A9400322D8
:1087B0001202A21852680A4207D02750B200064996
:1087C000054B89581B1F9A5890476D1C042DE4D304
:1087D000F8BD000000800040B4210020F0B53C4D01
:1087E000012185B04902284604F04FFE01270026EA
:1087F000384C002823D0FF212531284604F040FEC4
:1088000000281CD0FF2025302E50812032498000C6
:108810008860607D002800D16F6002216846017089
:108820002E49086808600390E17C68460172E068A0
:108830000190E67406CC6846083C90471DE0042190
:10884000284604F022FE002817D0FF2109312846CF
:1088500004F016FE002810D005F02EFEE07C217DED
:1088600088420AD1607D002800D16F6081201A49BA
:1088700080008860207D05F035FEFF211D312846EF
:1088800004F0FEFD00280DD0A07C218A884202D988
:1088900006F074FA06E0FF211D316E50002801D069
:1088A00006F082FAFF214531284604F0E9FD002850
:1088B0000CD0FF2045302E50607D002800D02F6066
:1088C000E07C002802D0207D05F00CFE05B0F0BD54
:1088D00000200040802E0020002300408024004023
:1088E000FFB583B00E4670420D9F0C9C009000298E
:1088F00000DB0846012502E0FFF742FC6D1C0599EC
:108900008842F9D20698A84200D90546002C04D026
:10891000002E01DB780700D5641EB80702D5069843
:10892000002811D0F8070FD1002C0DD02046641E6E
:10893000A84209D92021039800F0A6F80398C0683E
:108940000028F1DA07B0F0BD002E02DA2D21009EDA
:1089500002E0780707D52B21039800F095F80398DB
:10896000C0680028EEDBB807800F022811D10698F6
:1089700000280ED1002C0CD02046641EA84208D935
:108980003021039800F080F80398C0680028F1DADD
:10899000D8E7019700943146069B059A039800F0AA
:1089A00001F8CFE7FFB581B001271E463D460A9C7E
:1089B000029802E0FFF7E4FB6D1C03998842F9D2AC
:1089C000AE4200D935460B98C0071CD1002C1AD0F6
:1089D0000B98800701D5002E02D0202000900BE0DC
:1089E0003020FBE70099019800F04EF80198C0682C
:1089F000002845DB002C06D02046641EA842F1D892
:108A000001E00398474339460298FFF7B9FB014656
:108A10000398814201D3012000E000203146761EF8
:108A2000012901DD012100E000210843E9D1154EB3
:108A300039460298FFF7A4FB0146029A7943511A7E
:108A40000291315C019800F01FF80198C06800287D
:108A500005DB38460399FFF793FB0700E8D10B9835
:108A6000C0070DD0002C0BD02046641EA84207D9A9
:108A70002021019800F008F80198C0680028F1DA78
:108A800005B0F0BDD8EF010010B5044680686368FA
:108A9000421C934205DB23681954A260E068401C25
:108AA000E060A2686068824209D121682069FFF70E
:108AB00013FDA168884203D00020C043E06010BDD0
:108AC0000020A06010BD00000FB410B504A9074B32
:108AD00002AA039800F028F8044602A9002000F03A
:108AE0008CF8204610BC08BC04B01847FB8B010072
:108AF00030B47446641E2578641CAB4200D21D4617
:108B0000635D5B00E31830BC184702E008C8121F21
:108B100008C1002AFAD170477047002001E001C166
:108B2000121F002AFBD17047FFB581B00546002710
:108B300006E025280AD0049A039990476D1C7F1CF3
:108B400028780028F5D1384605B0F0BD00226978B4
:108B50006D1C10462E2913D1697804226D1C2A2918
:108B600009D102996D1C01C9029109E00A235843F9
:108B7000303808186D1C29780B46303B092BF5D985
:108B80002B78002BDFD0632B07D0732B10D0049AE7
:108B90001846039990477F1C2DE002996C460B788C
:108BA0002370091D0291002161706E46012104E0CD
:108BB000029940C902910021C94352070AD50024F5
:108BC00000E0641C84420DDA8C42FADB325D002A3C
:108BD000F7D107E0002400E0641C8C42FCDB305D30
:108BE0000028F9D13F1904E03078049A761C0399E3
:108BF0009047641EF8D26D1CA2E70A68531C0B60F4
:108C000010707047F7B584B00025168807461580A8
:108C1000406B1446002813D003780598032E51D3D7
:108C20000221017021881122491C89B221804254FD
:108C30002188491C89B2218043542088401C20800F
:108C4000386B00281DD0054620880599024612324F
:108C5000B24237D811220A5420881022401C80B218
:108C600020800A542088401C20800F202A5C238802
:108C7000401ECA54228840B2521C22800028F5DAD5
:108C80000025384620300290807B002806D03346ED
:108C90002246059903F004FF050014D10298407B99
:108CA000002806D032462146059801F043F8050019
:108CB00009D1B878002823D0059886462088001D61
:108CC000B04202D90C2007B0F0BD684679DF002819
:108CD000F9D1218803207246505420881921401C64
:108CE00080B22080115420887146401C80B22080C0
:108CF00041186846008806F067F8218840182080EF
:108D0000F878002817D0218803230A46FB56C91C8F
:108D10000598B142D6D80221815421880122491CEC
:108D200089B2218042542188491C89B22180435450
:108D30002088401C20807868002817D021880023D4
:108D4000C3560A46C91C0598B142BBD802218154BA
:108D500021880A22491C89B2218042542188491C59
:108D600089B2218043542088401C20803889002803
:108D70000AD0009438460196062202210830059B4D
:108D800006F0A1F805009ED1388A00280AD0009488
:108D900038460196072203211030059B06F093F810
:108DA000050090D1388B00280AD0009438460196EF
:108DB000152214211830059B06F085F8050082D194
:108DC000386A002806D033462246059902F094F905
:108DD0000500D8D1786A002806D033462246059986
:108DE00004F07CF90500CED10298007B002807D062
:108DF000334622463846059905F08CFC0500C2D161
:108E00003878002807D0334622463846059904F0C2
:108E100099F90500B7D1284655E7000010B51D4A5D
:108E20009CB007CA18AB07C3382101A8FFF7EBF9BC
:108E3000022168460171012484710621C171032158
:108E4000818218A80B46069013A215A1002005F0F8
:108E500003FB24210FA8FFF7D6F910A804722820DD
:108E600013901E20149010A804751920C0011690AC
:108E700013481790002001460090124B0FAA01A83A
:108E800000F05EFB002803D00022114600F0CAF873
:108E90001CB010BDBCEF01001B5B303B33356D00D7
:108EA00025734164766572746973696E673A20252B
:108EB000642073657276696365732E0A0000000092
:108EC000805101009DD40100044842680121C90578
:108ED0000B46934383600A40C26070470005005010
:108EE00070B50024064D06E06968E000085C0121C9
:108EF00004F0BCF9641C28788442F5D3002070BDCE
:108F0000B8210020F8B515460C460646052A01D2C0
:108F10000720F8BD04F080FA002803D104F052FACB
:108F20000028F6D1104900204E600C70C8608D609A
:108F300008610E4D0DE0E0006968801900918178AC
:108F40006A46517000780A4A694604F0DFF9002841
:108F5000DFD12046641EE4B20028ECD1054A00218E
:108F6000024800F0E1F8F8BDB821002094F00100BB
:108F7000A5C8010029B3010070B50D460849C0001D
:108F800049684418207804F013FA6178012901D067
:108F9000012100E0002141402970002070BD000047
:108FA000B82100203EB504460420019018480290E4
:108FB0006946204602F0EAFC002807D0154988429D
:108FC00003D00022114600F02DF83EBD10480838AD
:108FD000017AC90716D0104A0C214088A7DF002863
:108FE00010D00E4988420DD008280BD0891C884229
:108FF00008D0112806D00A49884203D00022114621
:1090000000F010F8204602F077FC0028D9D13EBDD0
:109010000820002040800000FFFF00000230000018
:1090200001340000BFF34F8F04490348C860BFF309
:109030004F8F00BFFDE700000400FA0500ED00E0DF
:10904000014B1B6818470000302D002038B50C4636
:10905000A2680C235A43064B09789D58054A126AA8
:1090600000920246204608302369A84738BD000018
:10907000202E00208821002010B5064914230A78EC
:109080005A435118091DFFF7E1FF042005F042FC87
:1090900010BD0000542D002070B50F4B05241D7825
:1090A0005E78AE4215D01D781C789E88B44201DAF5
:1090B000641C00E000241C705C88DE686C43A4190A
:1090C00004609B68E800C418A4880C801858002429
:1090D0001060204670BD0000CC2100200EB504E0D9
:1090E00068468188029A0098904702AA01A96846BA
:1090F000FFF7D2FF0028F3D00EBD000030B5CB0043
:1091000008339DB293070024002B01D0072030BD07
:10911000044B9A605219DA605C701C705880998018
:10912000002030BDCC210020094B9B68002B07D0CC
:10913000002A07D0002805D00068037C002B03D04C
:109140000820704707207047417442610020704733
:10915000DC210020FFB59007002581B014460E46A3
:10916000002832D11B4F002C31D005F053F9049860
:1091700078610320387033461821224600204B4383
:10918000BC601834C10089180D704D708E704C6031
:109190001C19401C0328F5DBFD607D7001240E487E
:1091A000BD702405046003211420FFF761F90B480A
:1091B00004600B4C0198A06003211120FFF758F9BF
:1091C00060683861002005B0F0BD0720FBE7BD6096
:1091D000FBE70000DC21002080E200E000E100E08D
:1091E00000150140FEB50D461B4917468968044627
:1091F00000292AD0002C28D0052D01D20720FEBD41
:109200006069002821D0607C012820D0002605F06C
:109210001DFEC0001049019089684018694605F09C
:109220003FFE002815D0012101700C4944604968B7
:109230000830E2C0084901988968411868460078FA
:10924000487005F031FD0020FEBD0820FEBD2E4611
:10925000DDE70420FEBD0000DC21002000150140F8
:10926000F8B5134D0446A96800291CD0002C1AD06B
:109270006069002817D00026267405F0E7FDC700B6
:10928000A8686946381805F00BFE00280DD00221A9
:1092900001704460A868391868460078487005F085
:1092A00003FD3046F8BD0820F8BD0420F8BD0000DD
:1092B000DC210020F0B50546007D002493B00E4669
:1092C00000280DD001200146684610310394017337
:1092D000717B4173817BF92001406846891C817351
:1092E0001C2104A8FEF78FFF6946087C0221084371
:1092F000694608742A7DEF21002A02D0102210430B
:1093000000E008406A461074059407940894287D8C
:10931000002800D003A8099001270A9410469771ED
:10932000304A82800094B27B0270F27B4270807877
:10933000F9221040F722801C1040EF21084041081C
:10934000490068468170317B017214210BA8FEF739
:109350005AFF01A80B9068460C908786C486078741
:1093600002A80F90A888AB1D0BAA04A9A2DF0028B1
:1093700035D1B068002830D0684687711A4981809D
:109380000094317C0170002001466846417080786D
:10939000F9210840F721801C0840EF2108404108CE
:1093A00049006846817011A8B16800F0AAFE06461F
:1093B00014210BA8FEF727FF01A80B9068460C901C
:1093C0008686C486068711A80F902A46E8880E3242
:1093D0000BA9A3DF002802D100E0EC81002013B02C
:1093E000F0BD0000192A0000082900001C4A10B531
:1093F000904201D3642010BD19496439884207D9CD
:10940000101A3A2148436421FEF7D0FE642109E096
:10941000144A904209D9081A18214843A021FEF79E
:10942000C5FE2A21081AC0B210BD0F49884208D9CA
:10943000101A0C214843FF212D31FEF7B7FE1221EF
:10944000F0E70A4A904208D9081A06214843FF214A
:109450005531FEF7ABFE0621E4E7002010BD000009
:10946000B80B0000B40A00008809000034080000AE
:1094700010B500F001F810BD70B513480124446028
:10948000124818214160124E002535600460072003
:1094900032DF002803D000221146FFF7C3FD03216D
:1094A000072033DF002803D000221146FFF7BAFD62
:1094B00007202EDF002803D000221146FFF7B2FD5F
:1094C00035600448046070BD0073004000750040C2
:1094D0000071004000700040F0B50C4693B01F21B1
:1094E0006A461180072600279180002809D0C1789C
:1094F00049070DD502A9FFF785FB002809D102AD68
:1095000001E000251780002C0ED0E078002802D062
:10951000304613B0F0BD01AA0AA92046FFF772FB3E
:109520000028F6D10AAA02E0684600228780684631
:109530008088C3B268460088C1B2284672DFE8E777
:1095400070B50D4604991646040042D0002E40D056
:10955000424800224271C3600161242231464048E2
:10956000FEF738FE00F0D0F83D4934310846103897
:1095700001602031816038215C38FEF744FE3848B4
:10958000217838380170A1788170E178C1706178F4
:1095900041706269216942610161E268A168C2604B
:1095A00081600146E369A269CB618A61616A002931
:1095B00019D00146AC310246B83241628A60636A12
:1095C0001B880B80616A436A898899800021436AFD
:1095D00006E00E2070BD666AB668765C5654491C7B
:1095E0009E888E42F7D8A16A00291CD01C4AAC3252
:1095F00011460C398A608162A36A9B888B80A16ABC
:10960000836A098819800021836A04E0A66AB66823
:10961000765C5654491C9E888E42F7D82C210A5DF0
:109620000F4918390A73216A002909D00B491431EE
:109630000162226A52884A80216A026A098811807E
:109640006168002904D00549891D41606168416055
:10965000034829463838FFF73FFF70BDE820002057
:10966000FC2A002010B502881A4C102A17D00021BD
:10967000112A17D0192A11D1807900280ED16079CA
:1096800001281BD002281FD003281FD0042805D191
:109690002171E2680846002A00D0904710BD8088FA
:1096A000208110BD6170808821898842F9D1012014
:1096B00005E021690029F4D0884710BD022000F0A0
:1096C0002BF80028F5D110BD0320F8E70320207106
:1096D0000420F4E7E820002010B5022801D0032878
:1096E0000ED1084C207800280AD000202070607924
:1096F00000F012F8002803D02169002900D0884723
:1097000010BD0000E820002010B507210148FEF739
:109710007AFD10BD00210020F0B5754C87B0607156
:10972000002606A8069604F045FB0127082806D067
:1097300000286FD10698002802D02770D4E0069642
:10974000FFF7E2FF6B4D6878002802D060790128AE
:1097500005D0A87800280AD06079022807D1E168EE
:10976000002903D0E7700820884700E0E6706079A0
:10977000012808D16878002809D05D48193004F024
:10978000B5FA002803D06079022802D00CE002204C
:109790006071A878002805D05548193004F0A6FA61
:1097A000002801D103206071287B002804D1607952
:1097B000032801D104206071287E002804D160793B
:1097C000042801D166712671E16800290AD0607908
:1097D000032801D0042805D12878002802D0607819
:1097E000002818D0A67018216846FEF70CFD6846C0
:1097F0000670019606720396607901280FD0022840
:1098000016D03C4E243637465C3F03281CD0042833
:109810005ED13BE069E0A77007208847E3E7344862
:10982000183001906846077046820682277152E020
:109830002F48183001906846077029894182A9880D
:1098400001820220207146E0A88A69464882288A5F
:1098500008822848243005F0A5FB002805D0287888
:10986000002802D06078002801D003202FE00220D9
:109870006946087204200396F8701E4800213838A3
:10988000FFF72AFE002830D1052020E0A88B69468A
:109890000882288C48821748243005F083FB002872
:1098A00005D02878002802D06078002801D0042054
:1098B0000DE002206946087204200396F8700D48F6
:1098C00000213838FFF708FE00280ED1062020714D
:1098D0006079002803D0684673DF002805D1E1686D
:1098E000002901D020798847002007B0F0BD000092
:1098F000E8200020FC2A002073B586B004002FD099
:109900006A46217C127F0020914227D00025012643
:10991000684600950680458007A80190E188608A26
:109920006A46A4DF002819D16846007F2074608A47
:109930000D49884216D0207D002813D0029503954A
:1099400004950595E1886846018186724188818188
:10995000049001980590608A02A9A6DF08B070BD46
:109960000E20FBE70820F9E7FFFF000038B50D46A1
:1099700004001AD0002D18D0286820600020C043B1
:10998000608228792075FF2020740121684681704B
:1099900007490180221D69460120A0DF002803D16C
:1099A00029462046FFF786FC38BD0E2038BD000052
:1099B0000F18000038B5002824D0002922D00A88CA
:1099C000102A1AD0112A1AD0502A1BD1027D002A3F
:1099D00018D0CA884389891D9A4213D10A8B022A5A
:1099E00010D10268002A0DD0CB7E8C7E1902214353
:1099F000C907C90F07D0002106E0898801E00021CE
:109A0000C943418238BD01216B46197069469047B0
:109A100038BD000030B50446002085B0C0430D4677
:109A2000A08201C9A061204620221C30FEF7D2FB93
:109A3000104B0FCB03936B4607C321461231684688
:109A400063DF002814D1A17C684681740A49018231
:109A5000224604A90120A0DF002809D1294620467A
:109A600001F0F8F8002803D12946204602F022FD33
:109A700005B030BDC8EF010023150000F8B50C4655
:109A800009881546064611291ED008DC012913D085
:109A900002291DD003292DD0102906D10DE012294D
:109AA0000AD050292BD0512929D0009116A318A2F1
:109AB00019A1002004F0D0FCF8BDA28822A100204A
:109AC00004F0CAFCA08801E00020C043B082F8BDC9
:109AD00021A1002004F0C0FC294828603620A8807D
:109AE000A088294667DF0028F1D000221146FFF741
:109AF00099FAF8BD23A1002004F0AEFCF8BD214680
:109B000004F070F8F8BD00001B5B313B33346D008E
:109B10001B5B303B33336D002573556E68616E649B
:109B20006C656420626C6520627574746F6E73740A
:109B30006174757320626C65206576656E743A2079
:109B4000257325580D0000006F6E5F636F6E6E65A4
:109B500063743A2025580A0073657276696365203C
:109B60002D3E20424C455F4556545F555345525F4C
:109B70004D454D5F524551554553540D0000000071
:109B80001026002073657276696365202D3E2042A1
:109B90004C455F4556545F555345525F4D454D5FAB
:109BA00052454C454153450D0000000030B58BB087
:109BB000044602226846028500200690079008901D
:109BC0000990012368468376638903830AA8099173
:109BD00008900878A58A029508A303AD0DC54978B9
:109BE0000191009008A30AA20BA1002004F034FC0C
:109BF000A08A06A9A6DF0BB030BD00001B5B303B7E
:109C000033393B34396D00001B5B313B33336D001E
:109C10001B5B303B33336D002573427574746F6E7C
:109C2000206368616E67653A2025732558255820A2
:109C3000282558202F2025582D25642925730A0012
:109C400070B5054601461C220E48FEF7C3FA0E4CBD
:109C5000002626702968002906D00822201DFEF75C
:109C6000B9FA201D7ADF02E00748001D7BDF0028DB
:109C700007D1401E60806670044A00210448FFF747
:109C800053FA70BDE82B002008210020E9ED010007
:109C900024F00100F8B5214C028800271E4DE6890A
:109CA000102A15D01E49112A21D0122A2DD0502A4F
:109CB0001CD1C288801DB24218D1028B022A15D154
:109CC000C27E837E10021843C007C00F0CD112E081
:109CD0008188698001461048082216310C30FEF751
:109CE00079FA6F70002E01D101F082FAF8BD0020E0
:109CF000C04368806F700868FFF7B2FA0028F5D09B
:109D0000A1690029F2D08847F8BD811D02480822C8
:109D10000C30FEF75FFAE7E708210020E82B00206F
:109D200024F0010010B502480068FFF799FA10BD51
:109D300024F001007CB5054608880C4609309042A5
:109D400001D90C207CBD684671DF0028FAD121883A
:109D50000820685420881B21401C80B22080295490
:109D6000208800A9401C80B22080401906220131C1
:109D7000FEF730FA20886946801D80B2208009787D
:109D8000002900D0012129542088401C2080002077
:109D90007CBD000030B585B00D46040039D0002DE3
:109DA00037D06868002834D00020C0431A4B208088
:109DB0000FCB049301AB07C318486946088001A87C
:109DC000811E63DF002822D1221D69460120A0DF09
:109DD00000281CD168468078A071204601F002FD61
:109DE000002814D1204601F06BFC00280FD1294631
:109DF000204601F039FD002809D16868A062A868F2
:109E0000002800D0E062064901200870002005B05B
:109E100030BD0E20FBE7000028F0010030150000E7
:109E20001C2100203EB5002828D0002926D0826AB7
:109E3000002A23D00A88102A21D0112A30D0502A93
:109E40001FD0512A1AD10A460446891D08780228D3
:109E500014D14888238A984210D1907A04280DD0D2
:109E600006280BD0052809D02046891C03F046FEA1
:109E7000002803D0E16A002900D088473EBD8988C8
:109E800010E0CB8802899342F8D108226B461A7001
:109E90008A7F1A7220310191826A694690473EBDDD
:109EA0000021C94301803EBD30B585B0002822D0D5
:109EB0000388134CA34220D0124B1B78002B1CD0DC
:109EC000104B10255B1C1D705970002401259A70E1
:109ED000032269460A820094019402940394028A40
:109EE0000A808D708C8004A90291039300886946D2
:109EF000A6DF05B030BD0E20FBE70820F9E7000023
:109F0000FFFF00001C2100207FB5044601216846A8
:109F100081714A4981804A4A01A90120A0DF0028B5
:109F20007ED1228825463C35002A09D044482B465C
:109F3000801C00904348616800F024FF00287BD11A
:109F40002289002A0AD03E482B460A3000903D481C
:109F5000E168401F00F016FF00286DD1228A002A18
:109F60000AD037482B461230009036486169001FEE
:109F700000F008FF00285FD1228B002A0AD0304869
:109F80002B461A3000902F48E169801E00F0FAFE3F
:109F9000002851D1228C002A0AD029482B46223091
:109FA00000902848616AC01E00F0ECFE002843D1F2
:109FB000228D002A0AD022482B462A3000902148C0
:109FC000E16A401E00F0DEFE002835D1216B002939
:109FD0000ED002A804F0ECFD19482B463230009058
:109FE0001848082202A9801F00F0CCFE002823D1C7
:109FF000606B00280BD012492B463A310091027950
:10A0000001681048401C00F0BDFE002814D1A16B6F
:10A01000002910D002A803F0ADFE0948423000E04C
:10A020000AE0009007482B46072202A9273000F0DB
:10A03000A9FE002800D1002004B070BD0A1800005D
:10A0400024210020292A00003EB50446018815A2DB
:10A0500017A06B4607C3A38817A219A1002004F01C
:10A06000FBF9204601F076FD2046FFF713FE21465E
:10A070001D48FFF7D7FE1C4821464838FFF79AFCD9
:10A08000204603F0E5FA2046FFF7ECFA1648174A97
:10A0900021468438FFF7F2FC2088502801D104F0D3
:10A0A00031FA3EBD1B5B303B33393B34396D000028
:10A0B0001B5B313B33346D001B5B303B33346D0035
:10A0C0002573426C7565746F6F74682028636F6EBA
:10A0D0006E3A20255829206576656E743A202573DE
:10A0E000255825730A000000E025002024200020C8
:10A0F00070B504460D460846FEF790F8208065606E
:10A1000070BD0A78027049784170022070470000E3
:10A110001FB5002348221E49082004F02FFC002808
:10A1200003D000221146FEF77DFF00200090019031
:10A13000012069460870684660DF002803D00022CD
:10A140001146FEF76FFF02A871DF041E03D0002244
:10A150001146FEF767FF02A9002070DF200003D040
:10A1600000221146FEF75EFF0A4804F0FDFB0028BE
:10A1700003D000221146FEF755FF074804F016FCF5
:10A18000002803D000221146FEF74CFF1FBD00003F
:10A190000823002049A00100A1EB01001CB50446E2
:10A1A00081786A460C4803F019FE002812D16078C5
:10A1B0001C21484309491C2340181A46694603F0EC
:10A1C0008FFF064806494C30807A80000A582146A5
:10A1D000684690471CBD000080210020E42C002030
:10A1E0004CF00100F8B505460820694608800123B7
:10A1F0006A461D492846AADF1C4800688047B120EE
:10A2000044DF002803D000221146FEF70BFF11DFC8
:10A21000002803D000221146FEF704FF144C6069A9
:10A2200013DF002803D000221146FEF7FBFE28466C
:10A2300001F0EAF901210F4A880510600E48026812
:10A240000D4B002080330D468540154204D0C606D4
:10A25000F60E0D46B5401D60401C2028F3D3606902
:10A2600000F00CF8F8BD0000EC2E0020FC210020CE
:10A270000010001080E200E000E100E010B5FDF702
:10A2800049FF10BDF8B505460024484802E0641CAB
:10A29000042C4ED2A2008258AA42F8D1042C48D2F3
:10A2A000434F444E002932D001290DD0022940D11C
:10A2B0007068414D8100401800906A683FA10020FD
:10A2C0007369FEF751F958E047A10020FEF74CF9F9
:10A2D0006000211838467F5C0818009040780028FC
:10A2E0000FD03548406870617068324A810041186B
:10A2F0002E48521C0C388068FEF774FF002800D1ED
:10A300007570009881782B481830015546E046A1B9
:10A310000020FEF729F925480C388068FEF7A0FFD9
:10A320002448610061181830C919005D8F78B8425F
:10A3300034D0F8BD002168460170E0B26946FEF7EE
:10A340001BFE68460378224647A10020FEF70CF961
:10A35000684600780028ECD00025A54207D0E8B276
:10A360006946FEF709FE684600780028E1D16D1CB9
:10A37000042DF2D3322002F03BFF0F484068716990
:10A380007268411A900010188142D3D33D490020D1
:10A39000FEF7EAF860002018C0194778002FC8D0EF
:10A3A00031690029C5D038468847F8BDF4EF01006F
:10A3B000982A0020C8200020001501406C6F6E67AD
:10A3C0002070757368200A0920525443313A25647D
:10A3D0000A0973746172743A25640A092064696613
:10A3E000663A25640A0000002D2D2D2D2D2D2D2DD2
:10A3F0002D2D2D2D2D2D2D2D2D2D2D2D2D2D2D2D8D
:10A40000627574746F6E20707573682D2D2D2D2DEF
:10A410002D2D2D2D2D2D2D2D2D2D2D2D2D2D2D2D6C
:10A420002D2D2D0A000000002D2D2D2D2D2D2D2D33
:10A430002D2D2D2D2D2D2D2D2D2D2D2D2D2D2D2D4C
:10A44000627574746F6E2072656C656173652D2D15
:10A450002D2D2D2D2D2D2D2D2D2D2D2D2D2D2D2D2C
:10A460002D2D2D2D2D2D0A00627574746F6E2025F3
:10A470007809627574746F6E207374617465202539
:10A48000780A0000F4F0010010B5064A06490320DE
:10A4900000F086FA002803D000221146FEF7C2FD24
:10A4A00010BD0000F5A40100CD0C000070B5002324
:10A4B000042811D2440004190D4D012A02D10129AA
:10A4C0000DD0002246008019094E801900290CD0B9
:10A4D000012906D0022906D00723184670BD0D3089
:10A4E000C2B22A55F9E74270F7E78270F5E700003B
:10A4F000982A0020F0B58BB005460D2814D00E2DFB
:10A5000012D00F2D10D0102D0ED0112D0CD0122DD9
:10A510000AD0132D08D0142D06D09EA0A0A3A2A26D
:10A52000A3A10095019030E1002008A90870A8A01F
:10A53000006800270790112D05D0122D03D0132D90
:10A5400001D0142D18D193A000902B46A1A2A3A155
:10A55000002003F081FF6946487F097F02908DA2A9
:10A560009CA0012704920191009003972B46A1A281
:10A57000A2A1002003F070FFA94E0024E0B208A9B8
:10A58000FEF7FAFC08A8007800283BD06846017F57
:10A590000120A0404140C9B268460177808BB0805D
:10A5A000A048406870616846407F7AA20390059297
:10A5B0000291204687A10D300191009004972B460F
:10A5C0008CA299A1002003F047FF002C06D0012C9B
:10A5D0000BD0022C0CD0032C13D10CE001219B4892
:10A5E0004905C1600021816068E00121890504E01E
:10A5F0000121C90501E0012109069448C16000213B
:10A6000081606DE06A46517F127F62A0059020460E
:10A610000D300391069004976EA10292099001916A
:10A6200000902B4673A28AA1002003F015FF069824
:10A63000854234D17378AB421BD1002F2FD16946AC
:10A64000221D0120097F90404140C8B26946087729
:10A65000497F04914FA2069203905EA10998059745
:10A660000291019063A2009582A1002003F0F4FE04
:10A6700015E0002F13D16946487F097F45A2069255
:10A680000391049053A1099805970291019059A252
:10A69000009583A1002003F0DFFE09987070002C64
:10A6A00006D0012C0CD0022C0DD0032C18D111E0B7
:10A6B00001216648490581600021C16001245DE7F0
:10A6C0000121890501E00121C9056048816000215F
:10A6D000C16005E001205D49000688600020C86077
:10A6E000641C042CEBD3002F0ED0002070706A463F
:10A6F000517FFF2211436A465177918BB1800F221F
:10A7000052495205CA60886008A80078002812D112
:10A71000444840686F4C30616FA10020626803F0CC
:10A720009BFE002273496068FEF75CFD024672A141
:10A73000002003F091FE7088774988421DD007A958
:10A740007648FFF733FA040015D07548844212D0DA
:10A75000082C10D0801C84420DD0112C0BD07148D5
:10A76000844208D070A1002003F076FE002211463A
:10A770002046FEF757FC0BB0F0BD6846417F007FD6
:10A78000019114A31BA2009073A1002003F064FEAA
:10A79000F1E700001B5B303B33393B34396D00007F
:10A7A0001B5B313B33316D001B5B303B33316D0044
:10A7B0002573556E68616E646C6564206273705FAA
:10A7C0006576743A202573255825730A0000000029
:10A7D000FF0000001B5B303B33346D0025734D6F71
:10A7E0006465206368616E67652023255825730AB8
:10A7F000000000001B5B313B33306D0025734D6F53
:10A800006465204368616E6765202325583A2025DA
:10A8100073255825582825582925730A000000005B
:10A8200000200020001501402573427574746F6E7E
:10A8300020646F776E202325583D25583A202573D4
:10A84000255825582825642925730A00000500503D
:10A850002573427574746F6E207570202325583DE2
:10A8600025583A202573255825582825642925730D
:10A870000A0000002573446F75626C6520636C6983
:10A88000636B21202325583D25583D25583A202526
:10A8900073255825582825642925730A00000000CF
:10A8A000257353746F72696E6720646F75626C658F
:10A8B00020636C69636B2023282558292025583D87
:10A8C00025583A20257325582558282564292573AD
:10A8D0000A000000B4EF01006D5F646F75626C6583
:10A8E000636C69636B5F74696D65725F69643A205C
:10A8F00025580A00CD2C00006D5F646F75626C6591
:10A90000636C69636B20617070206572726F723A5C
:10A910002025640A00000000FFFF00005C250020E5
:10A920000230000001340000424C455F4552524F56
:10A93000525F47415454535F5359535F41545452EB
:10A940005F4D495353494E4720286F722073696DFC
:10A95000696C6172290A0000257349676E6F72691C
:10A960006E6720627574746F6E2C206E6F74206336
:10A970006F6E6E65637465643A20257325583A25B9
:10A98000580A000010B5054A0146127A0020D20785
:10A9900002D0084600F062F810BD0000C820002078
:10A9A00070B50E46274905464E608D6000200A614D
:10A9B000A9072CD50024012211462046FFF776FD79
:10A9C00020461130C2B202212046FFF76FFD20461B
:10A9D0000D30C2B200212046FFF768FD641C042C34
:10A9E00002D20028E7D012E0002810D1720804211A
:10A9F0001548FEF787FA002809D1FEF771FA0028FA
:10AA000005D11148114A00211438FEF78DFBE907E2
:10AA100006D00F220E4952058A600023CB608A615E
:10AA200000280DD108480B4A00211C38FEF77CFB9A
:10AA3000002805D10448084A01211838FEF774FBA4
:10AA400070BD0000C820002004F0010005AD010029
:10AA500000050050F5CA0100C98E0100FEB57A4D0F
:10AA60000722EB6892059A4302936B6800939C005F
:10AA700006461B1900200121019349050746734C26
:10AA80003300FEF735F8180D1515374755677C88E4
:10AA90007F8891DE9E9E9E9E9EC8CED1D8DEDE141B
:10AAA0000F21029A49059143A160E7602F70FEBD16
:10AAB000A260E76060680F2252055040800209D50D
:10AAC000A160E760022E02D1E120C0000AE07D20F3
:10AAD000400107E0E160A760022E01D1C82001E03B
:10AAE000FF2091302E706421FDF74AFB009941430D
:10AAF00000223FE0A260E76060680F2252055040EC
:10AB0000800204D5A160E76019204001EAE7E16016
:10AB1000A760E3E7A260E76060680F22520550403B
:10AB2000800202D5A160E760D1E7E160A760D7E7C6
:10AB3000A260E76060680F2252055040800202D593
:10AB4000A160E76001E0E160A7602E70009841001D
:10AB500000220FE0A260E76060680F2252055040BB
:10AB6000800202D5A160E76001E0E160A7602E707D
:10AB70000099002236480068FEF734FBFEBDA26053
:10AB8000E7601BE061680120800502468A43A260FD
:10AB90000140E16010E06068012189050A468243B6
:10ABA000A2600840E060E3E76068012189050A4689
:10ABB0008243A2600840E0600199C9E7E160A760B4
:10ABC0002DE023484068FEF74BFB11218A1B01D082
:10ABD000002807D00F22E96852051140A160E76004
:10ABE000EF60FEBD0121C905E960012A0CD91046BC
:10ABF000C82148436421FDF7C3FA69680022414334
:10AC000013484068FEF7EEFA0F22E968520511403A
:10AC1000E160A760FEBD0F214905A160E7602E70CD
:10AC2000FEBD07229205AAE70D214905A160E76054
:10AC300001218905C2E70321C905A160E7608910E8
:10AC4000BCE70F214905B9E7C820002000050050E6
:10AC5000E8EF0100F0B500240546601C01078FB045
:10AC6000090F08A8103108940170601C0107090F32
:10AC700008A8103141708178F9273940891C81700A
:10AC80001C2101A8FDF7BFFA68460179022631436D
:10AC90001020014368460171029408A804940594A9
:10ACA00007940690A97C817115496846818401202A
:10ACB0000146684610310094017000200146684644
:10ACC00041708078F7213840801C0840EF2108400F
:10ACD000410849006846817014210AA8FDF793FADB
:10ACE00009A80A9068460B900686448686860E94CC
:10ACF0002B4628880A330AAA01A9A2DF0FB0F0BDAB
:10AD00002515000010B500780221FFF7BBFA10BD31
:10AD10000022D243830004490428CA5002D30818F1
:10AD20002030027770470000382E0020F0B5002553
:10AD3000ED43002A02D00023042601E00423082664
:10AD40000B4C04E09F00E7597F1C04D05B1CB3420E
:10AD5000F8D32846F0BD26185DB2203635709E0027
:10AD6000A151002AF5D1E11820310877F1E7000060
:10AD7000382E00200249091820200856704700008C
:10AD8000382E0020FFB58FB01E4615460F0004D1A7
:10AD9000002211461046FEF745F9002D04D100228D
:10ADA00011461046FEF73EF91C216846FDF72BFAC6
:10ADB000684601780220014368460170002401942E
:10ADC000039404940594012108A8069481706846B0
:10ADD0000F99018407943178017771784177807FEA
:10ADE000F9210840F721801C0840EF210840410864
:10ADF000490068468177142109A8FDF704FA08A8DC
:10AE0000099007A80A9068468585C4850586044888
:10AE10000D9709AA69460088189BA2DF13B0F0BD00
:10AE200024210020F8B53E481422017851430C1823
:10AE3000E0680C2148433A492769CC31401805891C
:10AE400041890091241D466803F016F901463846F1
:10AE5000FDF796F9002932D000200099A2884D43D1
:10AE60006188AE198918CD1900222E4900280A617F
:10AE700009D003F001F96188884222D0B54202D19D
:10AE8000A08800281DD0A06803281AD003F0F4F889
:10AE9000A188CA1901461046FDF772F9214C8808AD
:10AEA000E06003F0E9F801462846FDF769F900295A
:10AEB00011D00020B5422FD000280ED02CE0012068
:10AEC000CBE703F0D9F801463846FDF759F91549A3
:10AED0004861032021E00120ECE7ADB2B7B203F0F6
:10AEE000CBF801463846FDF74BF9064603F0C4F8A7
:10AEF00001462846FDF744F9864201D1781B09E056
:10AF000003F0BAF8064603F0B7F801462846FDF705
:10AF100037F9701A80082061022003F0FBFCF8BDAD
:10AF2000542D00208821002010B5074814220178F4
:10AF3000514308180079042802D000F06BF810BDC6
:10AF4000012003F0E7FC10BD542D0020064801222B
:10AF5000826106480021416083059A604268002AA8
:10AF6000FCD0416070470000000500400001004037
:10AF700010B50B481422017851430818094AC188BA
:10AF800011620079012806D0032801D0042801D1DC
:10AF9000FFF748FF10BD012003F0BCFC10BD00000E
:10AFA000542D00208821002014225043054A0021FE
:10AFB00080180171C18002220161C260416101817A
:10AFC00070470000542D0020F8B5104C069E65789F
:10AFD0000A2D19D027787D190A2D00D30A3D142790
:10AFE0007D432D1928716A6103C92961E860EB80EE
:10AFF0002E816078401C607005480078002801D1DF
:10B00000FFF7B6FF0020F8BD0420F8BD542D002046
:10B010008821002010B50D4C1421207848430119D7
:10B020000020091DFEF712F82078FFF7BDFF6078B9
:10B03000401E60702078401CC0B220700A2801D1E8
:10B0400000202070002003F065FC10BD542D00206E
:10B05000F8B52348C16800293ED00E6821494C68E4
:10B060000769C078E11B0D022D0AED1C002814D1E0
:10B0700001201D4A000450601B4A403A50601B49A1
:10B08000400008601A4908601A49012008602F2012
:10B09000FDF730F812490120C870B54200D235469C
:10B0A000E81900020F4B000A403318600D4A51683E
:10B0B000001B091B0902090A0002000AC91C81427F
:10B0C00009D9506818602F20FDF714F801200749AE
:10B0D000400480390860F8BD03F09CF9F8BD000019
:10B0E000DC210020001501404013014080E200E017
:10B0F00000E100E000100140F8B506461088144653
:10B100008446801D0D46984201D90C20F8BD328836
:10B110000720062AFAD31927FF01184BBA4201D992
:10B120009A42F3D171880629F0D3B94201D99942E4
:10B13000ECD19A4203D0994201D08A42E6D8052147
:10B140006046295420881221401C80B22080295456
:10B150002088401C80B220804119308803F034FEE2
:10B160002188401880B220804119708803F02CFE9D
:10B170002188401820800020F8BD0000FFFF00005B
:10B180003EB5002204461146FDF74CFF05A008A17C
:10B190000091029008A30AA201940BA1002003F0E1
:10B1A0005BF93EBD1B5B303B33393B34396D0000EE
:10B1B0001B5B313B33316D001B5B313B33376D0023
:10B1C0001B5B313B34316D0025732573436F6E6E0D
:10B1D000656374696F6E20706172616D7320657252
:10B1E000726F723A202573255825730A00000000FB
:10B1F000F8B5164801F0FAFB144D00260C3D144C2E
:10B20000002807D0616900291CD001206A4610700F
:10B21000684616E02878002805D06169002911D019
:10B22000684606700DE0687800280DD0A1680948CE
:10B2300000220068FDF7D6FF002803D0A16900298D
:10B2400000D088472E70F8BD6168F0E71421002017
:10B25000E82B002024F0010070B5094B04469E7ACB
:10B26000082000250E4207D00648844202D01889E3
:10B27000A04202D10020156070BD052070BD000005
:10B28000242D0020FFFF00000C214843064910B583
:10B29000012240188272911E0181FF21C172072193
:10B2A000FCF7B1FF10BD0000242D002010B5134C99
:10B2B000207900071FD46069401C6061E0680028A5
:10B2C00001D0042004E001F0C3FB002803D00220D9
:10B2D00003F05CFC10BD2069002809D06068C1073C
:10B2E00001D00320F4E70121084360600020EFE76C
:10B2F000FFF71AFE10BD03F03DFC10BD88210020B1
:10B3000010B5084841680A0708D48A0702D5012207
:10B3100011434160022003F039FC10BD03F02AFC08
:10B3200010BD000088210020F8B500260124154D2D
:10B3300023E06968F0004718387821462A6981407F
:10B34000114218D08A432A6102F032F83A78214635
:10B35000EB68914019400346934099420BD17978AC
:10B36000012901D0012100E000217B684140002B30
:10B3700001D010469847761CF6B228788642D8D37A
:10B38000F8BD0000B8210020FEB50E4604468178C5
:10B390006A46234802F022FD002826D160780C215D
:10B3A000204F4843C019807A40061FD4022E1DD07A
:10B3B000012E1DD01C4DA0781C2148431B490023A1
:10B3C00041181C226846A847002813D0022E0CD032
:10B3D00020780C21484313490C314018807A1449D5
:10B3E00080000A58214668469047FEBD114DE2E7AD
:10B3F000114DE0E7022EF8D060780C214843C019C7
:10B40000817ABF221140817260781C21484305492E
:10B41000403941181C231A466846A847D8E700005F
:10B4200080210020242D0020F9EA0100202C00209A
:10B430003CF0010029E3010049E2010070B5054636
:10B44000114A124800241C2363431B189B7EFF2BC8
:10B4500004D0641C072CF6D3104670BD0A78022A6B
:10B4600009D01C2262431018FD2282760722103078
:10B47000FCF7B0FE04E01C2161430818FE21817630
:10B480002C700022E8E7000043800000202C002000
:10B49000F7B505250F4F06460024002E0AD01C20C4
:10B4A0006043C019072231461030FCF7BEFE002869
:10B4B00007D00AE01C206043C019018B029881422A
:10B4C00003D101980025046002E0641C072CE4D33A
:10B4D0002846FEBD202C00207CB5054681B26A4678
:10B4E000074802F07BFC040008D17421684602F092
:10B4F0005DFD040002D1284602F004FC20467CBD1C
:10B500008021002070B505460C46100003D00022B3
:10B510001146FDF787FD2078142803D0152807D0A1
:10B52000212808D1042229460448FCF753FE02E0F2
:10B530002846FDF737FD002070BD00000C200020DC
:10B540001FB51E4800F06EFD002803D000221146F2
:10B55000FDF768FD02F096FD002803D00022114699
:10B56000FDF760FD03A800F06BFD002803D000226A
:10B570001146FDF757FD01A805210130FCF743FEF8
:10B580006946487901221043E1210840DF210C304F
:10B59000084069464871072088711020C871084822
:10B5A000009006480A710C3800F0B2FE002803D063
:10B5B00000221146FDF736FD1FBD00000C200020C3
:10B5C00005B5010001B50549684600F0A3FA002859
:10B5D00003D000221146FDF725FD08BD0022002002
:10B5E00010B5097800290AD003220121FEF75CFC7E
:10B5F000002803D000221146FDF714FD10BD00887D
:10B60000FEF7F0FD10BD000010B58AB000242649F9
:10B61000009400F0E3FC002817D101A9224800F0B3
:10B6200085FC002813D021491F4800F06BFD00283D
:10B6300003D000221146FDF7F5FC1C4800DF00286E
:10B6400003D000221146FDF7EDFC0AB010BD0599AC
:10B65000072216481031FCF7BDFD14481022C01D0A
:10B660000599FCF7B7FD1148112218300199FCF734
:10B67000B1FD0E4801990A222A301231FCF7AAFDC9
:10B680000A4800DF002803D000221146FDF7CAFC5B
:10B6900001200090042008906846099007A90794AB
:10B6A000014800F0CDF9CAE700220020B82E0020A2
:10B6B000704700000149086070470000FC2100202D
:10B6C00030B58FB005461C216846FCF79CFD6946E5
:10B6D00008780821084310221043694608700024A6
:10B6E00001940394049405940694A87908A9887099
:10B6F000144869460884601C00070794000F0C7703
:10B7000010304877887FF9210840F721801C0840D5
:10B7100010430121084369468877142109A8FCF7E2
:10B7200072FD08A8099007A80A9069468C85172021
:10B73000CC8508860D942B46A888103309AAA2DF71
:10B740000FB030BD3115000010B5044602460EA101
:10B75000002002F081FE002C15D01148844212D046
:10B76000082C10D0801C84420DD0112C0BD00D4819
:10B77000844208D00CA1002002F06EFE0022114687
:10B780002046FDF74FFC10BD0A44465520657272F5
:10B790006F72206576656E743A2025580A000000A5
:10B7A00002300000013400005265616C20424C45BB
:10B7B000206572726F72210070B50C4605460A78DA
:10B7C00004A1002002F048FE21462846FFF708FFAA
:10B7D00070BD0000444655206576656E743A20259C
:10B7E000580A000030B58FB005461C216846FCF7AA
:10B7F0000AFD694608780421084369460870002458
:10B8000001940394049405940694A87908A9887077
:10B81000144869460884601C00070794000F0C77E1
:10B82000103048778A7FF9200240F720921C0240AE
:10B83000EF200240012002438A77142109A8FCF777
:10B84000E2FC08A8099007A80A9069468C85142094
:10B85000CC8508860D942B46A888083309AAA2DF58
:10B860000FB030BD32150000F0B58FB00F46054661
:10B870001C216846FCF7C7FC684601780226314364
:10B880000170002401940394049405940694A9790A
:10B8900008A88170174968460184601C0107090FD8
:10B8A00068461031079401770020014668464177C9
:10B8B000817FF9200140F720891C0140EF200140E1
:10B8C0000120014368468177142109A8FCF79BFCFD
:10B8D00008A8099007A80A9068468685C485068648
:10B8E0000D972B46A888203309AA6946A2DF0FB01E
:10B8F000F0BD0000341500003EB504461E48017836
:10B900001E48002930D0002C2FD0217800292BD1BF
:10B910001B4900250968002926D0A178072927D2CC
:10B920001C20184A48438018807EFF2820D01248E7
:10B930006A46103002F052FA002815D16023042222
:10B94000694602A802F0CCFB0299491C0CD0602386
:10B9500004220D49684602F0E7FC002804D1A178D2
:10B96000084A89001C3A55503EBD0448801D3EBD22
:10B97000024808303EBD0000702100200880000011
:10B98000302D0020202C002038F001003EB50C4660
:10B9900027490A782749002A30D08A1D002805D077
:10B9A000002C03D00278002A28D101E010463EBDC9
:10B9B000214A1268002A21D08178072920D21C222E
:10B9C0001E4B4A43D218927EFF2A19D01B4AA36805
:10B9D0001C3A002B17D089005350817814486A46CE
:10B9E000103002F0FBF90028E1D1602304226946FF
:10B9F00002A802F075FB002809D016E008463EBDFB
:10BA00000C4808303EBD89005158A160E5E7029816
:10BA1000401C0AD0642310226946A06802F060FB33
:10BA20000028EFD1029961603EBD024838303EBD2A
:10BA30007021002008800000302D0020202C0020E4
:10BA4000FEB505462D480C4601782D48002925D025
:10BA5000811D002D23D0002C21D0A268002A1ED0E9
:10BA6000297800291AD127490968002916D0A97810
:10BA7000072916D21C22244B4A43D218927EFF2A51
:10BA80000FD06A780C235A431E4B0C3BD218927A83
:10BA9000120703D56068042806D20720FEBD0846B9
:10BAA000FEBD17480830FEBD1448184E6A461030D7
:10BAB00002F094F90028F6D160230422694602A816
:10BAC00002F00EFB002803D10298401C00D0104E5B
:10BAD00060230422211D6846B0470028E3D1642377
:10BAE00010226846A16802F01FFC0028DBD1AA786A
:10BAF000054B92001C3BA1689950FEBD70210020AF
:10BB000008800000302D0020202C002049E2010098
:10BB100029E301000C4A13780C4A002B11D0931D25
:10BB2000002905D0002803D00078002809D101E0C1
:10BB300018467047064B1B68002B02D00870002087
:10BB400070471046704700007021002008800000F8
:10BB5000302D0020F0B5054693B000200290FF2460
:10BB6000ED480E94007800284BD0EC4F3868002840
:10BB700047D001A800F056FA002803D00022114651
:10BB8000FDF750FA281D05902A2069460883FF20FA
:10BB9000002688710E710396E04C28880C3C102812
:10BBA0000ED0A88803AA0221FFF756FB002807D170
:10BBB00003980C2141430919CA7A69468A71487170
:10BBC0002888132217287CD00FDC10281BD01128BE
:10BBD00053D0132876D0142813D103980C2148434E
:10BBE0000019C07AFF2871D08DE0CD4918286BD09C
:10BBF0001C286AD0522804D1B87A8000095801A8BC
:10BC0000884713B0F0BDC74F03AA01213846FFF79C
:10BC100023FB0028F5D103990C2048430222001988
:10BC2000827211236A4613745171A9880181072217
:10BC3000A91DFCF7CFFA287DC10707D04108B648F7
:10BC40000830405CFF2808D00E9006E03A460EA966
:10BC5000A81DFFF71DFC00280ED103990C225143AB
:10BC600009190E98C8728A7A08231A438A7269469B
:10BC7000887101A8FEF792FA39E103980C21484334
:10BC80000119887AFD2210408872010706D5C00983
:10BC90000DD0002101A8FFF777FB08E06846807906
:10BCA000FF2804D002F02EF8FF206946887103981F
:10BCB0000C22504310210019817212206946087429
:10BCC00015E17FE030E001E0D5E00EE1EA890EA960
:10BCD0000020FFF7DDFB00280ED103980C22504313
:10BCE00000190E99C172837A082213438372684641
:10BCF000817101A8FEF752FA03980C2148430019FC
:10BD0000C07AFF2806D003981C21484383494C3948
:10BD10004018029003981C21484383494218A88880
:10BD20000023029982DF6CE768460274039B0C20B3
:10BD300058430119887A042210438872C87AFF2870
:10BD400030D01620694608742420434373481A21D2
:10BD5000303818180830FCF756FA03980C2148437D
:10BD60000019817A40221143817203990C2200202C
:10BD70004A430A901219D27A1C235A436A4B0C90F8
:10BD8000D2180B921C2251431A46C43289180791CB
:10BD9000089009903A1DA88807AB00217FDF002892
:10BDA000C1D1A4E00EA8FFF749FB002801D0064648
:10BDB000DBE769460E98887103990C2251430919F3
:10BDC000C872D2E7787A400840007872039A0C2053
:10BDD0009446424311198B7AFB2003408B72142046
:10BDE0006F463874A879002804D0C87AFFF774FB2E
:10BDF000AE797CE0E879400779D5B879FF2876D02C
:10BE000008273B438B72EB7A9B0708D51C2503461A
:10BE10006B43454D5B199D7E6D086D009D76CB7A19
:10BE2000FF2B64D0A25C022A10D01C2250433E4D4E
:10BE3000072240191030FCF7CDF9684680791C21A3
:10BE400048434019817EFD2211400EE061461C22CC
:10BE50005143324A4C3A89184A8A1C214843324994
:10BE600040180283817E490849008176012101A89A
:10BE7000FFF78AFA3BE0A8790209012A23D10007DB
:10BE8000000F01281FD103980C2242431219927A05
:10BE9000120718D5242148432049303940181A2167
:10BEA0000830FCF7B0F916206946087403980C2195
:10BEB00048430119887A602210438872787A0221F7
:10BEC000084378720FE003980C2250430019827ADD
:10BED00080231A43827215206A461074B87A800053
:10BEE000095801A88847002601E0684602743246D6
:10BEF00004A901A8FDF7A4F86846007C122800D028
:10BF00007FE603980C2141430919897A0129F7D06A
:10BF1000FFF7BAF975E6000070210020302D0020EF
:10BF20005CF00100FFFF0000202C0020F0B5064669
:10BF300026480C460178264889B000293FD0811D4B
:10BF4000002E3ED0002C3CD03178002937D1214939
:10BF500000250968002932D0B078072833D21C2187
:10BF60001D4F4843C019807EFF282CD0E560B07873
:10BF700065614843C01920611648A5600C306060B7
:10BF8000684620601148B17807AA103001F026FFFA
:10BF9000002814D11C231A4607A9684602F0A0F80D
:10BFA00000280CD1E560B1781C225143C9196561A4
:10BFB00021610849A5600C3161606946216009B0C2
:10BFC000F0BD0846FBE702480830F8E77021002082
:10BFD00008800000302D0020202C002030B50446C1
:10BFE000002903D00878002814D101E00B4830BDA7
:10BFF0000B480023006800280CD0094AFF208870F5
:10C000000C3A15890520A542F1D14B70D07A887081
:10C01000002030BD0148801F30BD00000E800000B0
:10C02000302D0020002806D0FF2101704170817062
:10C03000C170002070470148704700000E8000006A
:10C04000F0B585B0040036D029480025056045725A
:10C0500085722846FFF718F9254824213038FCF767
:10C06000D2F80026FF27304601F04CFE21488755C4
:10C07000761C072EF7D37421684681800721C18082
:10C080001D481C4900900831684602F07FF80028DE
:10C090000FD1184E0120083E3070207800280CD0B7
:10C0A00069468888C988484381B23046103001F01B
:10C0B0007DFF05B0F0BD1148FBE7114F00240D488E
:10C0C000A1B202AA083001F089FE002809D11C2083
:10C0D0006043C01900231C2202A902F001F80028C5
:10C0E00001D03570E5E7641C072CE8D3E1E70000D8
:10C0F000302D00207821002085C101000E80000035
:10C10000202C00200B4610B51A491B4A097800293B
:10C1100020D0911D002805D0002B03D001780029E4
:10C1200018D101E0084610BD14490968002911D052
:10C13000114A8178D21EFF290ED01C20414310489D
:10C140000918887E800705D4072218461031FCF7AD
:10C1500041F80022104610BD4078FF28FAD00C218B
:10C16000484306490C394118887A8007F2D50722DE
:10C170001846ECE77021002008800000302D0020D8
:10C18000202C0020FFB55D488FB00068189F1E4628
:10C19000002875D0742F73D86846FFF743FF002836
:10C1A00003D000221146FCF73DFF002468460470CE
:10C1B0000471254605970696A9B20DAA504801F0CC
:10C1C0000DFE002806D108220DA90F98FCF72DF8C6
:10C1D000002817D06D1C072DEED368468578FF2DFB
:10C1E0004ED01098032810D046481C21301AFBF777
:10C1F000C7FF012707281ED204A802901198002823
:10C200000BD011E068468570E7E7742F03D040201B
:10C21000694608716CE02020FAE738463849A840A2
:10C2200010394968084261D0284602F0D3FD202029
:10C23000694608714AE031481C214C38301AFBF736
:10C240009FFF00281DD02D4824213038301AFBF7DD
:10C2500097FF01002C482CD040216A4611712B49D0
:10C260008E4245D0274AA9001C3A5158B1423DD1CF
:10C2700004A90291C07A854228D16846447025E01D
:10C2800034E004A8029020216846017144701B48E4
:10C290000A940C300B9058380790684680781C211F
:10C2A000484318494018089007A8069018200590A0
:10C2B0000CE0302269460A714C70CF70807A80079A
:10C2C00004D4114824212438FBF79DFF10986946B7
:10C2D0000228087910D0022108436946087104A891
:10C2E000029001A96846119AFCF7AAFE13B0F0BDAE
:10C2F000694608790321EFE73843EFE7302D002046
:10C3000080210020202C0020242D002038F0010066
:10C3100070B5064618480D46007800280ED017491B
:10C32000002E0ED0002D0CD02868002809D0144C07
:10C330002168002907D011480A3870BD0F48801FB6
:10C3400070BD084670BD20600522691D201DFBF7E9
:10C3500041FF2879A072207A02214008400008435A
:10C36000FB2210402072E07901231843084310405B
:10C37000E0710020307070BD702100200E80000040
:10C38000302D00207FB51D4948681D4E1D4D326976
:10C390001D4C831A30464078AB4220D249681BA31B
:10C3A000891A03936E4623C61BA31DA21EA100205B
:10C3B00002F052F86068FCF753FF002803D0002217
:10C3C0001146FCF72FFE002229466068FCF70AFFA1
:10C3D000002803D000221146FCF724FE7FBD0BA1EC
:10C3E000019100900CA30EA21AA1002002F034F8D3
:10C3F000002070706068FCF733FFE9E7001501402A
:10C4000000200020CD2C0000B4EF01001B5B303B6E
:10C4100033393B34396D00001B5B313B33326D00E7
:10C420001B5B303B33326D002573446F75626C6566
:10C430002D636C69636B206578706972696E672E15
:10C440002E2E20257325583A202564203C20256473
:10C4500025730A002573446F75626C652D636C69E2
:10C46000636B20657870697265643A20257325587E
:10C4700025730A0010B50E4900234A788C78A24231
:10C4800012D0521CD2B24A70022A00D14B704A78A4
:10C49000074B920018339A5802600869101800027E
:10C4A000000A0861012010BD0360002010BD0000DB
:10C4B000DC21002030B58FB004461C2101A8FBF719
:10C4C000A2FE694608790A210843694608710025D9
:10C4D00002950495059506950795A07C08A9887195
:10C4E0001A4869468884681C0007000F08A91030A4
:10C4F00008950870112048708878F9210840F721C4
:10C50000801C0840EF2108404008400008A98870BE
:10C5100014210AA8FBF777FE09A80A9008A80B9037
:10C520002020694608864D86888623461C33009065
:10C530001A4607A10E93002001F08EFF2088A31C4D
:10C540000AAA01A9A2DF0FB030BD00002615000025
:10C550004174206669726D776172655F6E69636BA5
:10C560006E616D655F636861725F61646420303A1B
:10C570002025732F255820282558290A000000005F
:10C5800070B515460C460A460BA1002001F064FF69
:10C5900020210E48FBF737FE2A4621460B48FBF7C1
:10C5A00019FE20210A4801F001FD002803D00022D5
:10C5B0001146FCF737FD70BD4E6577206E69636BE1
:10C5C0006E616D65203A2025730A0000C0250020A9
:10C5D0002C20002010B5002803D0112802D0FCF731
:10C5E0004BFD10BD0248082241681143416010BD57
:10C5F0008821002010B51C4C217820464068012974
:10C6000006D0022929D0032912D1000717D513E03B
:10C61000000711D415481422017851430818C18825
:10C62000A28B891A0904090CC18002D002F066FAB3
:10C6300010BDFEF7EFFC10BD00F044FD10BD6069B9
:10C64000401C606100F004FA002803D0207802F05A
:10C6500061F910BDFEF768FC10BD607804498000E8
:10C660000858804710BD000088210020542D00206C
:10C6700080F0010010B528DFFFF7ACFF10BD10B54A
:10C6800029DFFFF7A7FF10BD0EB51120694608721C
:10C69000024613A102A87CDF002803D00022114625
:10C6A000FCF7C0FCFF20813078DF002803D0002297
:10C6B0001146FCF7B7FC002000900190502168461D
:10C6C0000180A021418004218180FF219131C1801E
:10C6D0007ADF002803D000221146FCF7A3FC0EBD30
:10C6E0005475726E20546F7563682052656D6F7457
:10C6F0006500000000207047002070470020704750
:10C70000F8B506464078242104464C4324490C22BF
:10C7100050436118224A00254B6824328018AE46E7
:10C720002F469C46002B0CD0827A1346D20908D0A3
:10C730005A0606D40D461A4A614689B21759083579
:10C740008E46174C008924343B4672462946A9DFA1
:10C750000B2819D0002800D01248012F13D170786F
:10C760000C214843001900890F4AA7DF00280AD08E
:10C770000E49884212D0082810D0891C88420DD05A
:10C7800011280BD00020F8BD70780C2148430123FC
:10C790000019008972462946A9DFE0E70148F8BD83
:10C7A000002D002041800000FFFF0000023000004B
:10C7B00070B50C46014660782422084D504340195C
:10C7C000382301F08DFC002807D1617824225143E1
:10C7D00049194A68521C00D14A6070BD002D0020E2
:10C7E000F3B589B00D461A206946888368780C2114
:10C7F00003274843224E3B468019008907AA694611
:10C80000AADF002838D1687824214843741A001917
:10C8100069468A8B0830FBF708FD0028687807D046
:10C82000242148430119496800290DD0154E0CE018
:10C830000C2141438919897A89071DD42421484351
:10C840000019FBF7E0FC17E00F4E27506846828B7B
:10C8500068782421484300194260687848430019E9
:10C8600069460830FBF7B6FC687824214843011973
:10C87000382324220998B04700200BB0F0BD0000F7
:10C88000242D002029E3010049E2010010B5FFF743
:10C8900037FF10BD10B5FFF78BFF10BD10B5FFF7C8
:10C8A0009FFF10BDF8B50746104E0125BD4030680A
:10C8B000FCF7D6FC00280DD10D4C2069284207D189
:10C8C000384600F075FD0028E06804D0284303E0F6
:10C8D000A8432061F8BDA843E060206900222843F6
:10C8E0002061A1683068FCF77DFCF8BD94F0010080
:10C8F000B821002070B51B4C207900072ED41A48AF
:10C900001422017851430D182E6901F0B5FB014640
:10C91000E8882A89761E80188019FBF731FC216986
:10C920000025002909D06169814206D1E56060686F
:10C9300001210843606000200AE000F089F8002827
:10C9400002D00220E56003E02069002803D0032024
:10C9500002F01CF970BDFEF7E7FA70BD02F00AF9AB
:10C9600070BD000088210020542D0020F8B51E4C19
:10C970002078002837D02069002807D00026E068FA
:10C98000002805D00025002E04D013E00126F6E78C
:10C990000125F8E7684651DF052806D0002806D0B3
:10C9A00000221146FCF73EFB04E0012602E021696B
:10C9B00000988847002D12D1608869460880A068D9
:10C9C00061DF052806D0002806D000221146FCF7BA
:10C9D00029FB04E0012502E0E168A0688847002EF9
:10C9E000D8D0002DCFD0F8BD0422002041880548C2
:10C9F0000288914204D34088814201D801207047C7
:10CA0000002070470C2100201048018CC9B2012978
:10CA100017D1818C090714D1018D09060A0F03D1A2
:10CA2000828D1206120F0ED0090F012903D1828DBB
:10CA30001206120F07D0032903D1808D0006000FC4
:10CA400001D000207047012070470000C00F00F0A7
:10CA500070B50E481422017851430C18256901F075
:10CA60000BFB0146E08822896D1E80184019FBF7F8
:10CA700087FB07494A69824206D3824202D108698C
:10CA8000002801D0002070BD012070BD542D002071
:10CA900088210020800701D00020704701207047C6
:10CAA00030B51588EC1C9C4201D90C2030BD022405
:10CAB0004C5513881C255B1C9BB21380CD541388E6
:10CAC0005B1C9BB21380012807D0022807D00328E3
:10CAD00007D0042807D0072030BD002004E0012043
:10CAE00002E0CC5401E00320C8541088401C1080A0
:10CAF000002030BD10B50448017AC90702D0007883
:10CB0000FDF7ACFF10BD0000C8200020F8B52C498F
:10CB1000C8680A690C780F7989688646944600913E
:10CB20003EE00099E20055182A7836E01823534376
:10CB30006968521CC918AB78D2B2934200D1002266
:10CB40000B78022B02D0032B27D123E04E6803463B
:10CB5000014603E0B14204D00B46C96900291CD04C
:10CB6000F8E7002919D08B4208D1C069002805D107
:10CB7000144F0126BE600026B44601270E68C9691D
:10CB8000D961002909D00B689B190B6005E001747D
:10CB9000C06900E000210028F9D169789142C5D12F
:10CBA0002146641EE4B20029BBD1054962460A61F0
:10CBB000C8600F71704501D00120F8BD0020F8BD9C
:10CBC000DC21002000100140F8B504463148002661
:10CBD000C168009107784EE02E48F90080680D1872
:10CBE00043E0002C02D02046E4691FE02878182199
:10CBF00041436A68401CC0B251182870AA7890421C
:10CC000000D12E700A784868012A30D1027C002AAF
:10CC10002DD18A684260CA6882600A69C260496927
:10CC200081611C490979002900D04660194943688F
:10CC30000A699C46991A0902174B090A994202D2BD
:10CC40008268891807E06146511A09028268090A58
:10CC50008A4202D9511A016000E006604660012153
:10CC600086600174C66102F027F8002CB9D12878DB
:10CC700069788842BAD138467F1EFFB20028ABD10E
:10CC80000448C1680098814201D00120F8BD00200D
:10CC9000F8BD0000DC210020FFFF7F0088B0FBF71B
:10CCA00019FC7BA000907DA37EA280A1002001F052
:10CCB000D3FBFEF74BF976A386A288A1002001F0F2
:10CCC000CBFB00238B4A05211846FCF743FA0028CA
:10CCD00003D000221146FCF7A5F9874A01218748B5
:10CCE000FCF722FA002803D000221146FCF79AF93B
:10CCF0008248834A0021001DFCF716FA002803D061
:10CD000000221146FCF78EF961A372A27DA10020DA
:10CD100001F0A2FBFDF7B8FB5DA36EA27FA100208E
:10CD200001F09AFBFDF7F4F959A36AA281A1002052
:10CD300001F092FB864A0A210820FCF7DFF900285F
:10CD400003D000221146FCF76DF951A361A281A125
:10CD5000002001F081FBFEF7F3FB4DA35DA284A14F
:10CD6000002001F079FBFFF78FFC49A359A288A1AD
:10CD7000002001F071FBFCF751F845A355A28BA1EF
:10CD8000002001F069FB01F00DFD41A351A28FA12C
:10CD9000002001F061FB1C216846FBF734FA0521F5
:10CDA000C90301910F210904002002910090032280
:10CDB00069460A73C88108748B4805908B480690B1
:10CDC0006846FCF73DFF002803D000221146FCF71F
:10CDD00029F92FA33FA286A1002001F03DFB8D4938
:10CDE000012208782AA31043E1221040DF220C30F0
:10CDF00010400870072048701020887035A286A166
:10CE0000002001F029FBFCF737FB21A331A28BA105
:10CE1000002001F021FB9349402008609249400620
:10CE200048601BA32BA291A1002001F015FB334801
:10CE3000E1210022C9040068FCF7D4F9002803D0DE
:10CE400000221146FCF7EEF811A322A28CA10020CB
:10CE500001F002FB0320FCF75FFC04460CA31DA2BB
:10CE60008FA1002001F0F8FA200003D00022114623
:10CE7000FCF7D8F80220FDF785FD02E0FCF72EF95B
:10CE800048DF0028FAD000221146FCF7CBF8F5E77E
:10CE90001B5B303B33393B34396D00001B5B313B4E
:10CEA00034356D001B5B313B33336D0025732573C7
:10CEB0005374617274696E67207570205475726E58
:10CEC00020546F7563682052656D6F74652E2E2E29
:10CED00025730A001B5B313B33346D002573496EAB
:10CEE000697469616C697A656420636C6F636B2532
:10CEF000730A00009423002071940100B4EF010034
:10CF000085C301002573496E697469616C697A652E
:10CF1000642074696D65727325730A002573496E08
:10CF2000697469616C697A65642042535025730A9B
:10CF3000000000002573496E697469616C697A6547
:10CF40006420424C4520737461636B25730A0000B2
:10CF5000582200202573496E697469616C697A658D
:10CF600064207363686564756C657225730A0000DC
:10CF70002573496E697469616C697A6564206465BA
:10CF800076696365206D616E6167657225730A005D
:10CF90002573496E697469616C697A6564204741DB
:10CFA0005020506172616D7325730A002573496EBC
:10CFB000697469616C697A6564206164766572740C
:10CFC0006973696E6725730A000000002573496E56
:10CFD000697469616C697A656420736572766963E6
:10CFE000657325730A00000075DA010081B1010044
:10CFF0002573496E697469616C697A656420636F31
:10D000006E6E656374696F6E20706172616D7325F9
:10D01000730A0000182000202573496E6974696145
:10D020006C697A65642073656375726974792070C0
:10D030006172616D7325730A000000002573496EEB
:10D04000697469616C697A6564206261747465727F
:10D0500079206C6576656C207570646174657225E5
:10D06000730A000000E100E0006300402573537480
:10D070006172746564204750494F25730A000000AF
:10D08000257353746172746564206170706C696398
:10D090006174696F6E2074696D65727325730A001F
:10D0A00025735374617274656420424C4520616439
:10D0B000766572746973696E67206661737425732F
:10D0C0000A00000010B504480822416891434160FD
:10D0D000007801F01FFC10BD8821002070B51446B7
:10D0E00082880E4605462088111D4118921C9942DF
:10D0F00001D8FE2A01D90C2070BD521C3254208860
:10D10000FF21401C80B2208031542088401C80B216
:10D1100020808119288801F057FE2188401880B2AC
:10D120002080AA88002A09D0A968002908D080197F
:10D13000FBF750F82088A98840182080002070BD97
:10D14000072070BDF8B50F46017814460546012941
:10D1500002D16878002806D02088821C9A422DD8F7
:10D16000012902D006E00720F8BD69784118891C22
:10D17000994223D8181A801E86B2684606802188F4
:10D18000B81C081869467DDF0028EDD128780228F0
:10D1900005D169460988B14201D809210AE0082170
:10D1A000012805D16878B04202D86A46108001E0B3
:10D1B0006846068068460088FE2801D90C20F8BD24
:10D1C0002288401CB8542088401C80B220803954EA
:10D1D00020886946401C2080098840182080002053
:10D1E000F8BD002070470020704700207047000005
:10D1F00031B5054C04E0401E00902046FAF76AFF66
:10D2000000980028F7D138BDE70300008207D30E4D
:10D21000FF229A408907090E10B5994000280BDAC1
:10D2200003071B0F083B9C080C4BA400E318DC69A8
:10D2300094430C43DC6107E08408094BA400E41824
:10D24000236893430B432360C106C90E0120884025
:10D25000044908600449086010BD000000ED00E0CA
:10D2600000E400E080E200E000E100E0F3B581B01E
:10D270000F46019800F066FD012400281E4E01981B
:10D2800017D0FDF777FD80192030007F8009032833
:10D2900002D0012806D007E01848006901998C40A7
:10D2A000204201D1022100E00321019800F0CEF8D4
:10D2B000FEBD00F053FD0028FAD00198FDF75AFD9D
:10D2C00005468100C81D0E4AF93089180A6980B2E6
:10D2D00022430A610B49401800210160002FE7D06A
:10D2E0000198FDF747FD800030580028E0D006483F
:10D2F000AC404460FEBD0000382E00200005005008
:10D30000006500400060004000630040FEB5044638
:10D3100023480E460019202141560027C8171346FE
:10D32000401C01D0082738E0F27819462046FDF766
:10D33000FDFC0546401C2FD0B078002807D01948C6
:10D34000A1000918086802229043086007E0002144
:10D350007378204600910A46019100F065F8F07854
:10D36000002810D01048AA001018317802690F4B1D
:10D370001A400261E206D20C8907890B0A4301694F
:10D380000A43026109E00648327840192030017FE3
:10D3900092011143017700E004273846FEBD0000EA
:10D3A000382E00200007005000650040FFE0FCFF21
:10D3B00003490969C140C807C00F00D00120704768
:10D3C0000005005070B5124D2879002801D00820C2
:10D3D00070BD0F4900204039421E0B182033401CFD
:10D3E000C0B21A702028F8D300242046FDF790FC24
:10D3F000641CE4B2082CF8D303210620FFF706FFD3
:10D4000001200449C007486001202871002070BD38
:10D41000782E00200063004002480079002800D0E8
:10D4200001207047782E002030B552000A43990041
:10D43000039C0A432102049D0A4329040A4302492A
:10D4400080004018026030BD00070050820006488E
:10D450001018026803231B049A430260026809043F
:10D460000A4302607047000000070050034940185B
:10D470000068012800D000207047000000600040D4
:10D480004058002800D00120704703221202801863
:10D490004068084000D001207047000010B503002C
:10D4A000FBF726FB083C053B122C1F3B593B052094
:10D4B000FDF768FA002803D000221146FBF7B2FD01
:10D4C00027A32AA22BA125E00220FDF75BFA002862
:10D4D00003D000221146FBF7A5FD21A323A22CA116
:10D4E00018E00320FDF74EFA002803D00022114671
:10D4F000FBF798FD1AA31DA22BA10BE00420FDF75A
:10D5000041FA002803D000221146FBF78BFD14A33B
:10D5100016A22DA1002000F09FFF10BD10A313A2A2
:10D520002FA1002000F098FF33A336A237A10020DE
:10D5300000F092FF0020FDF725FA002803D000221A
:10D540001146FBF76FFD3CDF0028E6D000221146B4
:10D55000FBF768FD10BD02A304A231A1DAE70000C9
:10D560001B5B303B33393B34396D00001B5B313B77
:10D5700033366D0025734164766572746973696E24
:10D580006720646972656374656425730A0000002E
:10D5900025734164766572746973696E672066618C
:10D5A000737425730A0000002573416476657274F4
:10D5B0006973696E67206661737420776869746542
:10D5C0006C69737425730A002573416476657274FF
:10D5D0006973696E6720736C6F7725730A000000AA
:10D5E00025734164766572746973696E6720696436
:10D5F0006C6525730A0000001B5B303B33393B34FC
:10D60000396D00001B5B313B33316D002573536C6A
:10D61000656570696E672E2E2E25730A0000000066
:10D6200025734164766572746973696E67207768E3
:10D630006974656C69737420726571756573742C97
:10D640002069676E6F72696E6725730A00000000BB
:10D65000FEB5044600880026744D132859D00EDC10
:10D66000102823D006DC012877D0022876D00328A2
:10D6700011D1BCE011283AD012280CD1B0E05028CA
:10D6800013D004DC142876D0172804D168E0512880
:10D6900070D0522852D066A261886D4607C567A334
:10D6A00068A26AA1002000F0D7FEFEBDA28872A188
:10D6B000002000F0D1FE0720FDF764F9002803D018
:10D6C00000221146FBF7AEFCA0886880FBF708FC3F
:10D6D000002803D000221146FBF7A4FC54A06EA33F
:10D6E0006FA271A10090002000F0B6FEFEBD75A1F2
:10D6F000002000F0B1FE0020C04368804CA177A05C
:10D700000191009075A366A276A1002000F0A4FE0E
:10D71000FEBD7DA1002000F09FFE444B688834339D
:10D720001A461C3A00217FDF002803D00022114650
:10D73000FBF778FC3EA341A27CA144E00323002236
:10D7400011466888A9DF002803D000221146FBF7A4
:10D7500069FC37A339A27DA135E03AE045E00AE053
:10D7600032480622A11D1D30FAF734FD30A333A242
:10D770007FA128E040E020460A2284490E30FAF7D3
:10D7800054FD002823D0002028491D310B7919466B
:10D79000014001D07D4912399A07D20F024001D0D1
:10D7A0007A4A0A325B07DB0F034001D0774B213303
:10D7B000688882DF002803D000221146FBF732FC84
:10D7C0001BA31EA272A1002000F046FEFEBD012098
:10D7D000DAE71CA278A1002000F03EFE6E61FEBDDB
:10D7E000E38818A278A100937DE782A100E08AA1D6
:10D7F000002000F031FEFEBD2022125D0621042033
:10D800006B4607C3237A0FA28CA1002000F024FEF0
:10D81000974802218680017001466888A8DF0028A9
:10D82000E9D000221146FBF7FDFBFEBD00200020E1
:10D830001B5B303B33393B34396D00001B5B313BA4
:10D8400033346D001B5B303B33346D002573426C09
:10D850007565746F6F7468206576656E7420756E7B
:10D8600068616E646C65643A2025732558282564C8
:10D870002925730A000000006D5F636F6E6E5F689C
:10D88000616E646C653A20636F6E6E656374656487
:10D890003A2025580A0000001B5B313B33336D00F2
:10D8A0001B5B34346D00000025732573426C756575
:10D8B000746F6F746820636F6E6E65637465642E39
:10D8C00025730A006D5F636F6E6E5F68616E646CD6
:10D8D000653A20696E76616C69640A001B5B313BB6
:10D8E00033316D0025732573426C7565746F6F74E9
:10D8F00068202573646973636F6E6E656374656415
:10D900002E25730A000000006D5F636F6E6E5F6806
:10D91000616E646C653A2073656320706172616D3D
:10D920007320726571756573740000002573426C15
:10D930007565746F6F746820706172616D732072A9
:10D940006571756573742E25730A00002573426C2A
:10D950007565746F6F746820737973206174747265
:10D96000206D697373696E672E25730A00000000CD
:10D970002573426C7565746F6F7468206175746887
:10D98000207374617475732E25730A00622300205E
:10D990002573426C7565746F6F7468207365637569
:10D9A0007269747920696E666F207265717565732E
:10D9B000742E25730A0000002573545820636F6D80
:10D9C000706C6574650A00002573436F6E6E656345
:10D9D00074696F6E20706172616D7320757064611F
:10D9E00074653A2025646D73202830782558290AFB
:10D9F000000000006D61696E202D3E20424C455FA5
:10DA00004556545F555345525F4D454D5F52455104
:10DA1000554553540A0000006D61696E202D3E206B
:10DA2000424C455F4556545F555345525F4D454DF9
:10DA30005F52454C454153450A0000002573426C36
:10DA40007565746F6F746820525720617574686FC4
:10DA500072697A6520726571756573743A2025580C
:10DA6000203D3D2025582F25782C2025580A0000E0
:10DA7000B02500203EB504460078002814D10B489C
:10DA80003B21408876DF002803D000221146FBF7B7
:10DA9000C9FA07A009A1009102900AA30BA2019460
:10DAA0000CA1002000F0D8FC3EBD000000200020AA
:10DAB0001B5B303B33393B34396D00001B5B313B22
:10DAC00033316D001B5B313B33376D001B5B313BEA
:10DAD00034316D0025732573436F6E6E6563746911
