:020000040001F9
:10800000184300204981010063810100658101005E
:108010000000000000000000000000000000000060
:108020000000000000000000000000006781010067
:108030000000000000000000698101006B81010068
:108040006D8101006D810100B98901006D81010020
:108050006D81010000000000FD8201006D810100C2
:108060006D8101006D8101006D8101006D81010054
:108070006D8101006D8101006D8101006D81010044
:108080006D810100B58501006D8101006D810100E8
:10809000418901006D810100498901006D81010064
:1080A0006D8101006D8101000000000000000000F2
:1080B00000000000000000000000000000000000C0
:1080C0000348854600F0BEF80048004759E3010028
:1080D00018430020401E00BF00BF00BF00BF00BF0C
:1080E00000BF00BF00BF00BF00BF00BF00BFF1D195
:1080F00070470000056885F308884068FF2464B273
:10810000EFF30585002D01D1A6460047254606461A
:1081100021273FBAF0B40024002500260027F0B440
:10812000F92040B200470000401E00BF00BF00BF62
:1081300000BF00BF00BF00BF00BF00BF00BF00BF47
:1081400000BFF1D1704700000321094802680A43CB
:108150000260084802680A430260074880470748EF
:108160000047FEE7FEE7FEE7FEE7FEE7FEE700006A
:10817000240500405405004081890100C1800100B0
:1081800030B50B46014600202022012409E00D46AF
:10819000D5409D4205D31D469540491B2546954037
:1081A00040191546521E002DF1DC30BD70B500247B
:1081B0002546002801DA01244042002901DA012580
:1081C0004942FFF7DDFFAC4200D04042002C00D016
:1081D000494270BD03460B439B0703D009E008C921
:1081E000121F08C0042AFAD203E00B780370401C67
:1081F000491C521EF9D27047D2B201E00270401CF5
:10820000491EFBD270470022F6E710B513460A4616
:1082100004461946FFF7F0FF204610BD421C0178C6
:10822000401C0029FBD1801A704730B5044600205D
:10823000034600E05B1C934203D2E05CCD5C401B34
:10824000F8D030BD064C0125064E05E0E36807CCAA
:108250002B430C3C98471034B442F7D3FFF734FF5C
:10826000CC110200EC11020070B58C180578401C8E
:108270006B075B0F01D10378401C2A1106D10278ED
:10828000401C03E006780E70401C491C5B1EF9D1AF
:108290002B0705D40023521E0DD40B70491CFAE79E
:1082A0000378401CCB1A921C03E01D780D70491C0A
:1082B0005B1C521EF9D5A142D8D3002070BDF7B582
:1082C00081B00C46019B186803880093002313704B
:1082D00010E00388009345888188801D13785B181F
:1082E0001370002304E00678EF18E655401C5B1C71
:1082F0008B42F8DB009B002BEBD1FFBDF0B587B0C4
:10830000002600200690FF20013005900125002462
:1083100016E0059806F0B0FA00280BD000BF5648CA
:1083200040682840002805D0059806F09DFA3046A0
:10833000284306466D000598001D80B20590641C18
:10834000042CE6D3FF207D3006F096FA00280AD0F0
:10835000FF207D3006F088FA0120C007064300BFE9
:108360004648006906903007000F00282AD00125F2
:10837000002425E02846304000281FD000BF404898
:10838000512109014018A10040581F21090208404D
:10839000000A049000BF3A48512109014018A10089
:1083A0004058032109040840000C0390204603F0C4
:1083B00091FA074603990498B84700BF6D00641C02
:1083C000042CD7D3F00FC007002852D000244EE071
:1083D0002C480057401C002848D02A48005D0490D3
:1083E000C021049888430746384603F0B7FA029044
:1083F00003F070FA03900398002836D0C021049847
:108400000840801102900120B840054600BF0520B9
:108410000007072109024018B90040580321090448
:108420000840000C019006982840002802D00198CE
:10843000022806D006982840002815D10198032864
:1084400012D1029803280BD10198022801D10320F0
:1084500000E0022000903846009906F0DBF900BFEA
:108460003846039A0299904700BF00BF641C062C4F
:10847000AED307B0F0BD000000630040000500501F
:1084800000600040EC390020C206D20E012191406C
:10849000014A11607047000080E200E0C206D20E7F
:1084A00001219140014A11607047000000E100E0A5
:1084B000C206D20E01219140014A116070470000AE
:1084C00000E200E010B5002819DA1A4A03071B0F72
:1084D000083B9B089B00D2588307DC0EFF23A34078
:1084E0009A438B071B0E8407E40EA3401A43114BDB
:1084F0000407240F083CA408A4001A5118E00E4AEF
:1085000003231B02D21883089B00D2588307DC0E7A
:10851000FF23A3409A438B071B0E8407E40EA3405E
:108520001A43054B032424021B198408A4001A5182
:1085300010BD00001CED00E000E100E010B50028D7
:1085400019DA1A4A03071B0F083B9B089B00D258F5
:108550008307DC0EFF23A3409A438B071B0E84077F
:10856000E40EA3401A43114B0407240F083CA4084F
:10857000A4001A5118E00E4A03231B02D2188308E4
:108580009B00D2588307DC0EFF23A3409A438B073E
:108590001B0E8407E40EA3401A43054B0324240258
:1085A0001B198408A4001A5110BD00001CED00E046
:1085B00000E100E010B500200749086000210648EE
:1085C00041608160C1600020034940390860486013
:1085D00008F07EFB10BD00004011014010B500F016
:1085E0003FFA10BDF7B582B00446164600F038FADF
:1085F0001820604348494018007D8007800F0228FA
:108600001ED01820604340180769182060434018A6
:10861000C068381A451E002D04DA1820604340183F
:1086200080684519AE420BDD182060433A49401876
:10863000007D8007800F002801D105B0F0BD2E46D7
:10864000002E01D10020F8E70020019000BF182083
:108650006043314940180769182060434018C068DA
:10866000381A451E002D04DA18206043401880682F
:108670004519182060432849401882681820604333
:108680004018C068101AA84201DD284609E01820E9
:108690006043214940188268182060434018C06830
:1086A000101A0546B54201DA284600E03046054674
:1086B00018216143184A89184A6818216143164BEA
:1086C000C918C96850182A460399FFF783FD019815
:1086D00040190190039840190390761B18206043BD
:1086E0000D494018C0684219182060434018C26004
:1086F000182060434018C268182060434018806802
:10870000824204D10022182060434018C260002E2B
:108710009DD1019891E70000602C00200FB438B57E
:10872000044606A800906A462046059900F004F821
:1087300038BC08BC04B01847F7B59AB00D461446CB
:1087400002A8159040201690002017901A981990B2
:108750000020189000BF2E786D1C002E00D1DCE0A8
:10876000252E74D1002700BF2E78232E12D02B2E59
:108770000CD02D2E02D0302E10D103E00120074363
:108780006D1C0CE0022007436D1C08E00420074329
:108790006D1C04E0082007436D1C00E001E000BFF1
:1087A000E2E70020129000BF2E78302E01DB392E38
:1087B00000DD08E06D1C0A2112984843314630392B
:1087C00040181290F0E700BF002013902E782E2E54
:1087D00011D16D1C00BF2E78302E01DB392E00DD4B
:1087E00008E06D1C0A21139848433146303940187F
:1087F0001390F0E700BF2E7800BF6C2E01D0682EDA
:1088000002D12E786D1C00E000E0F6E700BF702E6C
:1088100062D008DC252E70D0582E38D0632E09D0B7
:10882000642E6FD114E0732E40D0752E1FD0782E99
:1088300068D12BE02168081D206008681490149806
:10884000C0B2019015A8019900F022FA5AE05CE04C
:108850002168081D20600868149012980197009004
:108860000A2215A8139B149900F0FBF84AE021682E
:10887000081D2060086814901298019700900A2241
:1088800015A8139B149900F073F93BE000BF216811
:10889000081D20600868149012980197009010221B
:1088A00015A8139B149900F063F92BE02168081DAB
:1088B00020600868019000BF01980678401C019074
:1088C000002E00D106E0314615A800F0E1F9189815
:1088D0000028F1DA00BF15E02168081D2060086853
:1088E0001490002008210B4610220091019015A839
:1088F000149900F03DF905E0FFE7252115A800F0E7
:10890000C7F900BF00BF6D1C03E0314615A800F099
:10891000BFF91898002800DB1DE700BF1898002851
:108920000BDD1798002804D002A9179A1A98FFF7B0
:1089300059FE179918984018189018981DB0F0BD56
:1089400010B508F075F810BD70B50C480068002827
:1089500010D00A4800688047044600BF2546002D15
:1089600006D000BF00221146284600F09DFC00BF43
:1089700000BF01E005F088FA70BD0000282E00203D
:1089800010B505F04BFB002805D0074807494860A3
:10899000C8130749886105F025FB002802D0012093
:1089A0000449886010BD0000DFFF07C000050040DB
:1089B000006C0040000600401CB524488068002878
:1089C00018D02348406804210840002812D0002015
:1089D0001E4988601F488069C0B21F490880042171
:1089E000684601701C480178684601711B49096896
:1089F000884700BF1548C06900280BD0144840685C
:108A000080210840002805D000201049C8610320BB
:108A100006F070FC0D48406A002816D00C484068EB
:108A200001214902084000280FD000200749486270
:108A30000848803804680460022069460870019480
:108A4000684606490968884700BF1CBD00210040F0
:108A50000023004000250040962D00209C2D002082
:108A60007047FFB585B007460E460F9D0E9C002E41
:108A700001DA704200E0304603900120049007E0E4
:108A800007990398FFF77CFB03900498401C04901F
:108A9000079903988842F3D204990898884201D92B
:108AA00008980490002C06D0002E03DB04202840F8
:108AB000042800D1641E02202840002802D0089813
:108AC000002816D0E807C00F002812D1002C10D0C3
:108AD00008E02021384600F0DBF8F868002801DAC9
:108AE00009B0F0BD002C04D02046641E04998842D1
:108AF000EFD8002E08DA76422D21384600F0C8F86B
:108B0000F86800280CDAEBE704202840042807D195
:108B10002B21384600F0BCF8F868002800DADFE7BF
:108B200002202840022818D1E807C00F002814D1DD
:108B30000898002811D1002C0FD007E030213846CA
:108B400000F0A6F8F868002800DAC9E7002C04D085
:108B50002046641E04998842F0D80195009431465D
:108B60003846089B079A00F003F800BFB8E70000FA
:108B7000FFB585B015461E460E9C0127069803904A
:108B80000120029007E029460398FFF7F9FA0390C5
:108B90000298401C02900398A842F4D202988642A0
:108BA00000D902960F98C007C00F00281FD1002CD3
:108BB0001DD002210F980840022804D1002E02D1B6
:108BC0003020019001E02020019009E001990598F2
:108BD00000F05EF80598C068002801DA09B0F0BD21
:108BE000002C04D02046641E02998842EED802E090
:108BF00038466843074639460698FFF7C1FAA84247
:108C000001D3012000E000203146761E012901DD5C
:108C1000012100E0002108430028E9D100BF3946C6
:108C20000698FFF7ADFA0490049878430699081A5D
:108C30000690164A0498115C059800F029F80598EA
:108C4000C068002800DA06E029463846FFF798FA9F
:108C50000746002FE3D100BF0F98C007C00F0028C0
:108C600012D0002C10D008E02021059800F010F858
:108C70000598C068002800DAB0E7002C04D0204630
:108C8000641E02998842EFD800BFA7E78010020057
:108C900070B504460E46A568681C6168814206DB13
:108CA00020684655681CA060E068401CE060616870
:108CB000A06888420DD1A26821682069FFF792FC64
:108CC000A168884203D00020C043E06001E000209A
:108CD000A06070BD0FB410B504A9074B02AA039899
:108CE00000F029F8044602A9002000F08DF8204683
:108CF00010BC08BC04B01847098E010030B474469B
:108D0000641E2578641CAB4204D3635D5B00E318EA
:108D100030BC18471D46F8E702E008C8121F08C11A
:108D2000002AFAD170477047002001E001C1121FEC
:108D3000002AFBD17047FFB581B00546002706E049
:108D400025280AD0049A039990476D1C7F1C287827
:108D50000028F5D1384605B0F0BD002269786D1CB9
:108D600010462E2913D1697804226D1C2A2909D1B5
:108D700002996D1C01C9029109E00A235843303859
:108D800008186D1C29780B46303B092BF5D92B7838
:108D9000002BDFD0632B07D0732B10D0049A18461A
:108DA000039990477F1C2DE002996C460B78237045
:108DB000091D0291002161706E46012104E00299B3
:108DC00040C902910021C94352070AD5002400E09E
:108DD000641C84420DDA8C42FADB325D002AF7D142
:108DE00007E0002400E0641C8C42FCDB305D0028BE
:108DF000F9D13F1904E03078049A761C0399904722
:108E0000641EF8D26D1CA2E70A68531C0B60107038
:108E1000704710B500F01AF810BD00000748007840
:108E2000022802D0012006498860064800780649D9
:108E3000C86102200149087070470000A02D002081
:108E400000200040942D0020002500401CB501208A
:108E50000549C860054908700320694608706846DE
:108E60000349096888471CBD00200040A02D002050
:108E70009C2D002000200549087001200449C8608D
:108E8000486000200349086070470000A02D0020C2
:108E90000020004000250040F8B504460F46154666
:108EA0000026002028702078002809D02A4639465C
:108EB000204605F004FB0646002E01D03046F8BDE2
:108EC000A078002808D02946384600F075FC0646F0
:108ED000002E01D03046F2E7E07800280ED00221C3
:108EE0002A78501C2870B95401212A78501C287007
:108EF000B954E1782A78501C2870B9546068002869
:108F00000BD00020616808562A46394607F068FFF2
:108F10000646002E01D03046D1E7208900280CDD1E
:108F20003B460622022120460830009508F00DF845
:108F30000646002E01D03046C1E7208A00280CDD0D
:108F40003B460722032120461030009507F0FDFF25
:108F50000646002E01D03046B1E7208B00280CDDFC
:108F60003B461522142120461830009507F0EDFFEE
:108F70000646002E01D03046A1E7206A002809D01D
:108F80002A463946206A02F059FF0646002E01D0D3
:108F9000304694E7606A002809D02A463946606A5C
:108FA00005F058FA0646002E01D0304687E72C20FF
:108FB000005D002809DD2A463946204607F0C4F83E
:108FC0000646002E01D0304679E7304677E7014665
:108FD000C87804221040002801D1072070470020E3
:108FE000FCE7000030B599B0214A07CA0AAB07C3B5
:108FF00030210DA8FFF707F9012108A8017500210C
:1090000081750621C175032110A881800AA91291DA
:10901000032318A219A1002007F02CF8242101A88D
:10902000FFF7F1F8012168460174282005901E2001
:109030000690684601771920C001089014480990ED
:109040000020144B01AA014600900DA800F090FDED
:10905000044600BF2546002D06D000BF0022114661
:10906000284600F021F900BF00BF19B030BD000054
:10907000641002001B5B303B33356D002573416487
:10908000766572746973696E673A2025582E0A00F6
:10909000805101009DE8010070B574DF044600BFF7
:1090A0002546002D06D000BF00221146284600F0BC
:1090B000FBF800BF00BF002002F042F8044600BFEA
:1090C0002546002D06D000BF00221146284600F09C
:1090D000EBF800BF00BF70BD014600BF064A5068F4
:1090E0000122D2058243044B9A600122D20502403C
:1090F000DA6000BF704700000005005010B5002482
:1091000007E0E100064A1268505C012105F062FAAE
:10911000641C044800788442F3D3002010BD000092
:10912000D42D0020D82D0020FEB506460C4617464B
:10913000052F01D20720FEBD05F062FB002806D1F5
:1091400005F036FB0546002D01D02846F3E716480A
:10915000066016480470164807600020154908602C
:109160001549086015E0E000801901901348006877
:109170000090019880786946487001990878104AF3
:10918000694605F08BFA0546002D01D02846D2E746
:1091900000BF2046611ECCB20028E4D1094A00215C
:1091A000094800F0D7F9C6E7D42D0020D82D0020BB
:1091B000DC2D0020E42D0020E82D00202C110200E1
:1091C00099DD0100F5C10100E02D0020F8B504464D
:1091D0000D46E000084909684618307805F0D8FACD
:1091E00007467078012800D100E000207840012176
:1091F000484028700020F8BDD42D0020FEB506465A
:1092000004200190224802906946304603F01CFC7D
:109210000446002C31D11E480078C007C00F00283A
:109220001BD01C4A0C211C480088A7DF0446002CD8
:1092300013D01A48844210D0082C0ED0801C8442CF
:109240000BD0112C09D01648844206D000BF002252
:109250001146204600F028F800BF304603F0EEFB30
:10926000044600BF2546002D06D000BF002211464F
:10927000284600F019F800BF09E00A48844206D0E9
:1092800000BF00221146204600F00EF800BFFEBDD0
:10929000442C0020FFFF0000062C002002300000BC
:1092A000013400004080000000BF00BF00BF00BFCD
:1092B00000BFBFF34F8F00BF00BF00BF0648074984
:1092C000C86000BF00BF00BFBFF34F8F00BF00BF2B
:1092D00000BF00E000BFFDE70400FA0500ED00E07C
:1092E000F8B504460D461646034807683246294637
:1092F0002046B847F8BD000068380020F8B505469C
:109300000C4627780C21A068484306490E580648A9
:10931000006800902A463946204608302369B04745
:10932000F8BD0000C03A0020C42D002010B504464E
:109330000648007814225043044A121D8118204622
:10934000FFF7DCFF042007F0A7F810BDF439002078
:10935000F8B505460E4617460520009000BF144993
:10936000087814490978814201D1012100E00021E7
:1093700000291BD10E480478007805F0EBF80C4961
:1093800008700D48008860430C490968401828603F
:10939000E0000B490968401880883080E0000849E7
:1093A0000968085838600020009000BF0098F8BD98
:1093B000F42D0020F52D0020F62D0020F02D0020AA
:1093C000EC2D0020F7B584B00C463D48008884425F
:1093D00072DC3C4D0020039002F052FE0290029895
:1093E000012814D003A836DF0746022F01D172B638
:1093F0000CE000BF0197019F002F06D000BF0022A4
:1094000011460198FFF750FF00BF00BF00BF00BF2B
:109410002D4807782D48007805F09CF8B84201D116
:10942000012000E00020002806D1284805780078B7
:1094300005F090F8254908700298012814D062B60A
:109440006846007B37DF0746022F0CD000BF01972C
:10945000019F002F06D000BF002211460198FFF7A0
:1094600023FF00BF00BF00BF1648854222D0E9009D
:10947000174A0698126850500498002811D0002C02
:109480000FDD0F4909886943124A1268881822467D
:109490000499FEF79FFEE8000D4909684018848092
:1094A00005E00020E9000A4A126889188880002631
:1094B00001E001E0042600E00926304607B0F0BDD7
:1094C000F62D0020FFFF0000F42D0020F52D0020D8
:1094D000EC2D0020F02D00200EB504E068468188B8
:1094E000009A029890476A4601A902A8FFF730FF48
:1094F0000028F3D00EBD000030B50346481CC00460
:10950000040C10468507AD0F002D01D1012500E0A8
:109510000025002D01D1072030BD08480260101938
:10952000074D28600020074D2870074D2870074818
:109530000380074801800020EEE70000EC2D0020AA
:10954000F02D0020F52D0020F42D0020F62D002018
:10955000F82D002070B503460C4619480068002815
:1095600001D1082070BD002A01D10720FAE7002BA5
:1095700001D10720F6E700211CE024204843104DCC
:109580002D68285C002814D10125242048430C4E66
:109590003668355424204843094D2D6840194470DD
:1095A00024204843064D2D6840198261196000202F
:1095B000D8E7491C034800788142DEDB0420D1E76C
:1095C000002E0020FC2D0020F8B504460D4626464E
:1095D00000BF082D01D1012000E000200746002F28
:1095E00006D100BF002211461046FFF75DFE00BF06
:1095F00000BF316870688847F8BD00007CB504463C
:109600000D4600940195034A08216846FFF7DAFEEB
:109610007CBD0000C9950100FFB581B00E4617461C
:109620001C4620468107890F002901D1012100E055
:109630000021002902D1072005B0F0BD002C01D186
:109640000720F9E706F0EAFC26490A980860264850
:1096500006702648046000250CE0002124206843A1
:10966000224A1268115424206843204A1268801844
:1096700001756D1CB542F0DB2420704304190320F2
:109680001B4908701B480460183400250CE0E900F1
:10969000184A126888180021017041708770446070
:1096A000182179430C196D1C032DF0DB0020C043F9
:1096B00011490860002011490870114908701420F0
:1096C000FEF7E2FE03211420FEF738FF1420FEF718
:1096D000E5FE019806F078FC06F070FC0949086088
:1096E0000020A9E7202E0020FC2D0020002E0020C5
:1096F000042E0020082E00200C2E00201C2E0020FE
:109700001D2E0020102E0020FEB504460D461646E4
:1097100016480068002801D10820FEBD14480078D2
:10972000844201D2052D01D20720F6E724206043B0
:109730000E490968085C012801D00820EDE72420C3
:1097400060430A49096840184078012801D1284639
:1097500000E00020074607F0CFFB3B462A462146A3
:109760000096019007F06AFAD7E70000002E00206B
:10977000FC2D002070B504460D480068002801D17A
:10978000082070BD0B480078844201D30720F8E719
:109790002420604306490968085C012801D008209C
:1097A000EFE707F0A9FB0546214607F071FAE8E765
:1097B000002E0020FC2D0020F8B505460C46207830
:1097C000001D1F2801DD0C20F8BD684679DF064624
:1097D000002E01D03046F7E703212278501C20707C
:1097E000A95419212278501C2070A95420784119BD
:1097F0006846008807F01BFB217840182070002085
:10980000E2E7000070B50022E121C90408480068C1
:10981000FFF77AFF044600BF2546002D06D000BFA3
:10982000002211462846FFF73FFD00BF00BF70BD74
:109830000C2C0020F0B591B004460D46207D002888
:1098400019D00020099000BF08A80079010909017A
:10985000491C08A801710079F0218843103008A93B
:10986000087100BF697B08A841718079062188438F
:10987000801C08A988711C210AA8FEF7C4FC08A84E
:10988000007A02218843811C08A80172007A102105
:109890008843217D002901D0012100E00021090138
:1098A00010221140084308A9087200200B900D9067
:1098B0000E90207D002801D009A800E000200F9024
:1098C0000020109000BF01216846817349498181C1
:1098D00000BF00200290A97B68460172E97B4172BB
:1098E000807A06218843811C68468172807A08212B
:1098F0008843014668468172807A10218843014678
:1099000068468172807A4108490068468172297BE5
:109910000191142104A8FEF776FC03A8049002A884
:109920000590012168460183002141830121818343
:1099300001A80890A088A31D04AA0AA9A2DF0646D0
:10994000002E02D0304611B0F0BDA86800284DD0DE
:1099500000BF0121684681732749818100BF002033
:109960000290287C6946087200BF6846407A010967
:10997000090168464172407AF0218843694648727D
:1099800000BF6846807A06218843811C6846817240
:10999000807A08218843014668468172807A1021C6
:1099A0008843014668468172807A410849006846CA
:1099B0008172A96800F0C5FF0746142104A8FEF7CC
:1099C00022FC03A8049002A80590684607830021A2
:1099D0004183018B81830890E08822460E3204A9DE
:1099E000A3DF0646002E03D03046ACE70020E0811E
:1099F0000020A8E7192A00000829000070B51820E7
:109A00001649486000201649086001201349086083
:109A100000201349086001201249086000BF104867
:109A200000680028FBD04B242401FF250B498968DE
:109A30004A008918614308462946FEF7A1FB86B211
:109A400000200749086001200649486064217143ED
:109A500008460549FEF7AAFBC0B270BD007500407C
:109A60000071004000700040E40C000010B5044696
:109A700000F002F810BD000038B5FFF7BFFF054643
:109A80000EA310A211A10020009506F0F3FA2946BA
:109A9000154800F039FB0446002C0ED0082C0CD0E1
:109AA0001248844209D01248844206D000BF0022E6
:109AB00011462046FFF7F8FB00BF38BD1B5B313B6A
:109AC00033356D001B5B303B33356D0025734261D0
:109AD0007474657279206C6576656C3A20257325FF
:109AE0006425250A000000007C2E002004300000C0
:109AF00001340000F3B593B00D460021129111918D
:109B00001398002814D01398FFF761FA0446002C2C
:109B100002D0204615B0F0BD12AA09A91398FFF78C
:109B2000BBF90446002C01D02046F3E709AE00E063
:109B30000026002D13D0284606F00EFD0446002C0A
:109B400001D02046E6E711AA01A92846FFF7A4F9AB
:109B50000446002C01D02046DCE701AF00E00027DE
:109B600010A803793A46017A304672DFD2E7000046
:109B7000F8B504460F4615461E46002C01D0002DB0
:109B800001D10E20F8BD0020484908704848066001
:109B9000484906980860242229464748FEF71AFBE0
:109BA00000F04CF945484649086046488860302135
:109BB0004548FEF728FB207843490870A078887054
:109BC000E078C87060784870626920694A6108610D
:109BD0000846E268A168C2608160E269A169C26169
:109BE0008161606A00281BD038483749486238498B
:109BF0008160606A00883449496A0880606A8088A8
:109C00003149496A8880002005E0616A8968095CF9
:109C10002F4A1154401C2C49496A89888142F4D842
:109C2000A06A002824D02B492B48816026498862ED
:109C300028492548806A8160A06A80882249896A0B
:109C40008880A06A00882049896A0880002005E091
:109C5000A16A8968095C1F4A1154401C1A49896A23
:109C600089888142F4D82C20015D17482030017387
:109C7000206A00280BD0194813490862206A4088DE
:109C8000096A4880206A00880F49096A088060686C
:109C9000002804D012480C49486060684860394682
:109CA0000948FFF727FF009000986BE76C2D002014
:109CB000642D0020682D0020BC380020F0380020E2
:109CC000E0380020103900208C3800203039002086
:109CD0003C390020683900205C390020702D0020BC
:109CE000742D002070B504462088102804D0112857
:109CF00006D0192869D11AE0A0883549088065E0A6
:109D0000002034490870A0883149098888420DD163
:109D1000012000F09BF80546002D07D02E48006872
:109D2000002803D028462C49096888474EE0A079CE
:109D3000002849D129480078012806D0022813D0EC
:109D4000032820D004283DD12FE0022000F07EF827
:109D50000546002D07D020480068002803D028467B
:109D60001D49096888472EE0032000F06FF805467A
:109D7000002D07D018480068002803D0284616494F
:109D8000096888471FE0032015490870042000F087
:109D90005DF80546002D07D00F480068002803D065
:109DA00028460D49096888470DE000200C490870D5
:109DB0000C480068002804D0084600780949096862
:109DC000884700E000BF00BF00E000BF00BF70BDDB
:109DD000762D00206D2D0020682D00206C2D002098
:109DE000602D0020642D002070B504460025022C53
:109DF00002D0032C18D100E000BF0D4800780028E5
:109E000011D000200A4908700A48007800F01EF8B6
:109E10000546002D07D008480068002803D02846D2
:109E200005490968884700E000BF00BF70BD000019
:109E3000582D00206C2D0020682D002010B5072122
:109E40000148FEF7E0F910BD592D002030B587B06C
:109E50000546A248057000200090684605F02CFCDD
:109E60000446082C02D10020009004E0002C02D00F
:109E7000204607B030BD0098002804D00120984942
:109E800008700020F5E7FFF7D9FF964840780028D2
:109E900003D092480078012807D0924880780028A3
:109EA00012D08E48007802280ED18F480068002812
:109EB00007D001208D49087008208B490968884720
:109EC00002E00020894908708448007801280BD1FD
:109ED00084484078002804D0854805F025FB0028F8
:109EE00002D102207D4908707C48007802280BD1FD
:109EF0007C488078002804D07D4805F015FB0028B8
:109F000002D10320754908707648007B002806D1ED
:109F100072480078032802D1042070490870714803
:109F2000007E002808D16D480078042804D1002064
:109F30006A4908706F4908706B480068002817D09C
:109F400066480078032803D06448007804280FD1BD
:109F50006448007800280BD067480078002807D1B3
:109F600001206649087007205F490968884702E0B8
:109F7000002062490870182101A8FEF744F9002169
:109F80006846017100200290684601730020049029
:109F900052480078012806D0022811D0032823D087
:109FA000042879D150E05248401E029001216846B1
:109FB00001710021C182818201204E49087075E043
:109FC0004B48401E029001216846017145480089B6
:109FD00081B26846C1824348808881B268468182E6
:109FE00002204449087061E03E48808A81B2684698
:109FF000C1823C48008A81B268468182404807F0AD
:10A0000026F800281CD037480078002818D03A4895
:10A010000078002814D1022069460873384804905B
:10A0200004203849C87000213648FFF763FD044614
:10A03000002C01D020461CE705202E49087002E0C4
:10A0400003202C49087031E02648808B81B2684695
:10A0500081822448008C81B26846C182284806F07B
:10A06000F6FF00281DD01F480078002819D022488C
:10A070000078002815D10220694608732048049012
:10A0800004202049C87000211E48FFF733FD044614
:10A09000002C02D02046ECE607E0062015490870A7
:10A0A00002E004201349087000E000BF00BF0B4825
:10A0B0000078002806D001A873DF0446002C01D0E8
:10A0C0002046D6E608480068002804D009480078F1
:10A0D0000549096888470020CBE600006C2D002068
:10A0E000582D0020BC380020642D00206F2D00204A
:10A0F0005A2D0020602D00206D2D00206E2D002097
:10A10000E03800208C38002033B587B004460025A5
:10A11000207C08A90978884232D00020059006905A
:10A120000121684681820021C18208A8069000783A
:10A130002074E188608A05AAA4DF0546002D02D0BC
:10A14000284609B030BD608A0E49884217D0207D6C
:10A15000002814D000200190029003900490E18820
:10A160006846818001218171C18A018105A803901F
:10A1700006980490608A01A9A6DF054600E008253C
:10A180002846DEE7FFFF0000F8B504460D462868C4
:10A1900020600020C043608228792075FF20207451
:10A1A00000BF0121684681700849018000BF221D5F
:10A1B00069460120A0DF0646002E01D03046F8BDDA
:10A1C00029462046FFF736FBF9E700000F1800008C
:10A1D00070B505460C462088102804D0112807D0F9
:10A1E00050280FD109E02146284604F019FF0AE063
:10A1F0002146284605F016F805E02146284605F0D8
:10A2000027F900E000BF00BF70BD000070B586B048
:10A2100004460E460020C043A0823068A061202280
:10A22000311D20461C30FDF7D5FF184B0FCB01AD7B
:10A230000FC52146123101A863DF0546002D02D06B
:10A24000284606B070BDA17C6846817510498182A0
:10A25000224605A90120A0DF0546002D01D0284691
:10A26000EFE73146204601F071FA0546002D01D096
:10A270002846E6E73146204603F0BEFA0546002DA3
:10A2800001D02846DDE70020DBE700007010020067
:10A2900023150000F7B582B00C461546208811281A
:10A2A00015D008DC01281ED002281DD0032834D088
:10A2B00010283DD106E0122814D050280CD0512887
:10A2C00036D12FE02146029804F096FE39E021466F
:10A2D000029804F0A3FF34E02A462146029805F0D4
:10A2E0002FF82EE000BF2CE017A1002005F0C2FEE1
:10A2F0001F4828603620A880A088294667DF0646C8
:10A3000000BF3746002F06D000BF00221146384656
:10A31000FEF7CAFF00BF00BF13E016A1002005F042
:10A32000A9FE0EE02A462146029805F009F808E049
:10A3300020881AA31BA21DA10090002005F09AFE00
:10A3400000BF00BF05B0F0BD73657276696365201C
:10A350002D3E20424C455F4556545F555345525F54
:10A360004D454D5F524551554553540D0000000079
:10A370001033002073657276696365202D3E20429C
:10A380004C455F4556545F555345525F4D454D5FB3
:10A3900052454C454153450D000000001B5B313BCD
:10A3A00033346D001B5B303B33336D002573556ECA
:10A3B00068616E646C656420626C6520627574749B
:10A3C0006F6E73746174757320626C652065766559
:10A3D0006E743A20257325580D00000030B58BB0FF
:10A3E00004460D460221069100200790089009902E
:10A3F0000A90012168468177618981830A9506A8C0
:10A4000009900CA26846038B0A980078A18A0493ED
:10A410000592029103906878297809A30AA2009115
:10A4200001900BA1002005F025FEA08A07A9A6DF58
:10A430000BB030BD1B5B303B33393B34396D000012
:10A440001B5B313B33336D001B5B303B33336D00A3
:10A450002573427574746F6E206368616E67653A28
:10A460002025732558255820282558202F20255889
:10A470002D25642925730A0070B505461C2229463E
:10A480001448FDF7A7FE002013490870286800282B
:10A490000BD0082211482968FDF79CFE0F487ADF8F
:10A4A0000446002C08D0204670BD0C487BDF0446D3
:10A4B000002C01D02046F7E70020C043084908805F
:10A4C000002008490870084A00210848FFF742F8B0
:10A4D000EAE7000088390020902D0020782D002028
:10A4E000822D0020802D00205D0E02008C2D00208A
:10A4F00010B504462088102806D0112808D012284C
:10A500000ED0502810D107E0204604F08FFD0CE05B
:10A51000204604F08FFE08E0204604F0D7FF04E058
:10A52000204604F05DFD00E000BF00BF10BD00004C
:10A5300010B502480068FFF71DF910BD8C2D0020F2
:10A5400070B586B004460E46002C04D0002E02D012
:10A550007068002802D10E2006B070BD0020C043F4
:10A560002080204B0FCB01AD0FC51F486946888264
:10A57000163101A863DF0546002D01D02846EBE720
:10A58000221D05A90120A0DF0546002D01D0284687
:10A59000E2E76846807DA071204602F079F9054621
:10A5A000002D01D02846D7E7204602F0B1F8054635
:10A5B000002D01D02846CFE73146204602F0D2F9DF
:10A5C0000546002D01D02846C6E77068A062B06835
:10A5D000002801D0B068E062012004490870002022
:10A5E000BAE70000C010020030150000F02C002077
:10A5F00070B505460C46002D01D0002C00D170BD71
:10A60000A86A00281FD02088102806D011280ED054
:10A61000502807D0512814D10EE02146284604F0D6
:10A6200002FD0FE02146284604F03AFF0AE02146E9
:10A63000284604F0FBFD05E02146284604F01CFEF8
:10A6400000E000BF00BF00BFD9E7000070B586B0D2
:10A6500004460D461646002C02D10E2006B070BDF1
:10A6600020881A49884203D019480078002801D16F
:10A670000820F3E700210191102168468288501CD0
:10A6800083B214480193815468468188481C82B281
:10A6900010480192455468468188481C82B20D4892
:10A6A0000192465400200290039004900590218A64
:10A6B00068460181012181720021818101A80490F5
:10A6C00004480590208802A9A6DFC7E7FFFF000025
:10A6D000F02C0020F12C00207FB5044600BF0121A2
:10A6E000684681735D49818100BF5D4A03A90120ED
:10A6F000A0DF0546002D02D0284604B070BD20889A
:10A7000000280DDD57480090228823463C335648E8
:10A71000616801F029F90546002D01D02846ECE7D3
:10A72000208900280EDD51480090228923463C33C1
:10A730004D48401FE16801F017F90546002D01D092
:10A740002846DAE7208A00280EDD49480090228A50
:10A7500023463C334448001F616901F005F9054672
:10A76000002D01D02846C8E7208B00280EDD414887
:10A770000090228B23463C333B48801EE16901F068
:10A78000F3F80546002D01D02846B6E7208C0028B6
:10A790000EDD39480090228C23463C333248C01EDF
:10A7A000616A01F0E1F80546002D01D02846A4E7D2
:10A7B000208D00280EDD31480090228D23463C3349
:10A7C0002948401EE16A01F0CFF80546002D01D06E
:10A7D000284692E7206B002813D001A8216B06F0D1
:10A7E00072F8274823463C33082201A900901E48EE
:10A7F000801F01F0B9F80546002D01D028467CE7FE
:10A8000000BF606B00280FD01E480090606B02797B
:10A8100023463C3301681448401C01F0A5F8054666
:10A82000002D01D0284668E7A06B002813D001A8AE
:10A83000A16B04F0E1FE144823463C33072201A932
:10A8400000900948273001F08FF80546002D01D00F
:10A85000284652E700BF00204FE700000A1800001A
:10A86000F82C0020FA2C0020292A0000022D0020BC
:10A870000A2D0020122D00201A2D0020222D00204C
:10A880002A2D0020322D00203A2D00203EB504460E
:10A8900012A1208814A2009202910190A38814A210
:10A8A00015A1002005F0E6FB204602F005F9204640
:10A8B000FFF71EFE21461A48FFF79AFE2146194867
:10A8C000FFF786FC204604F0C7F82046FFF70AFA97
:10A8D000154A21461548FFF7DDFC3EBD1B5B303BAA
:10A8E00033393B34396D00001B5B313B33346D0031
:10A8F0001B5B303B33346D002573426C7565746FA0
:10A900006F74682028636F6E6E3A20255829206581
:10A9100076656E743A202573255825730A00000069
:10A92000C42E00207C2E0020142C0020402E00205D
:10A9300070B504460D462846FDF770FC2080656022
:10A9400070BDF8B505460E46002432782146641CD9
:10A950006A5472782146641C6A5400BF022C01D1EB
:10A96000012000E000200746002F06D100BF002292
:10A9700011461046FEF798FC00BF00BF2046F8BD08
:10A980007FB500BF0023482232490D2005F0A4FD09
:10A99000054600BF2E46002E06D000BF00221146FD
:10A9A0003046FEF781FC00BF00BF00BF00200290D0
:10A9B000039001206946087202A860DF044600BFC8
:10A9C0002546002D06D000BF002211462846FEF77E
:10A9D0006BFC00BF00BF684671DF044600BF254620
:10A9E000002D06D000BF002211462846FEF75CFC71
:10A9F00000BF00BF6946002070DF00BF2546002D64
:10AA000006D000BF002211462846FEF74DFC00BFCD
:10AA100000BF114805F054FD044600BF2546002D37
:10AA200006D000BF002211462846FEF73DFC00BFBD
:10AA300000BF0A4805F084FD044600BF2546002DEE
:10AA400006D000BF002211462846FEF72DFC00BFAD
:10AA500000BF7FBDA42F00208DA80100B508020013
:10AA60007CB50446A1786A460D4804F03DFE0546D3
:10AA7000002D13D161781C2251430A4A88181C23E7
:10AA80001A46694605F048F80748807A8000074969
:10AA90000A58214668469047054600BF7CBD000025
:10AAA000442D00202838002068380020E0100200E3
:10AAB000F8B506460820009001236A462149304631
:10AAC000AADF0446204800688047B12044DF0446DE
:10AAD00000BF2546002D06D000BF002211462846A3
:10AAE000FEF7E2FB00BF00BF11DF044600BF2546B2
:10AAF000002D06D000BF002211462846FEF7D4FBE9
:10AB000000BF00BF1149486913DF044600BF254656
:10AB1000002D06D000BF002211462846FEF7C4FBD8
:10AB200000BF00BF304601F063FD162001218140C7
:10AB3000074A116000BF03F005FA0449486900F0B4
:10AB400009F8F8BD0C3B0020CC2D002000100010AF
:10AB500080E200E010B504462046FDF7CBFA10BDB8
:10AB6000F3B581B007460025002400E0641C042CE6
:10AB700004D2A0004F490858B842F7D1042C72D231
:10AB80000298002832D0012802D002282DD14AE0B4
:10AB900049A10020FDF7C2FD6000201856490D5C58
:10ABA0006000201840184078002817D053484068AB
:10ABB00053490860534800680A2250430146524AEC
:10ABC00052480068FEF7A0FD0646002E01D14E480F
:10ABD000077032464EA1002005F04CFA60002018A4
:10ABE0004549401880784E49085556E04DA100204F
:10ABF000FDF794FD45480068FEF7BCFD0646324669
:10AC000058A1002005F036FA4548005D6100611842
:10AC1000394A89188978884204D160002018114681
:10AC20004018857839E0374800680A214843009089
:10AC30003248426832484FA103680020FDF76EFD9C
:10AC400016E000210091E0B26946FEF7BFFA6846BF
:10AC50000378224652A10020FDF760FD6846007887
:10AC6000002801D1FEBD19E0322003F089FC00BFAD
:10AC70002248406822490968411A224800680A228D
:10AC800050438142DDD34D490020FDF747FD600070
:10AC9000201819494018457800BF00BF002D07D083
:10ACA00047480068002803D0284645490968884776
:10ACB00000BFD7E7901002002D2D2D2D2D2D2D2D0D
:10ACC0002D2D2D2D2D2D2D2D2D2D2D2D2D2D2D2DB4
:10ACD000627574746F6E20707573682D2D2D2D2D17
:10ACE0002D2D2D2D2D2D2D2D2D2D2D2D2D2D2D2D94
:10ACF0002D2D2D0A000000005637002000150140C0
:10AD0000E02C0020C82C0020E42C0020DC2C0020AB
:10AD100074696D65722073746172742025780A00FD
:10AD2000E52C00202D2D2D2D2D2D2D2D2D2D2D2DD6
:10AD30002D2D2D2D2D2D2D2D2D2D2D2D6275747438
:10AD40006F6E2072656C656173652D2D2D2D2D2D17
:10AD50002D2D2D2D2D2D2D2D2D2D2D2D2D2D2D2D23
:10AD60002D2D0A0074696D65722073746F70202533
:10AD7000780A00006C6F6E672070757368200A098E
:10AD8000525443313A25640A092054737461727431
:10AD90003A25640A09646966663A25640A00000077
:10ADA000627574746F6E20257809627574746F6EA5
:10ADB0002073746174652025780A000088110200F0
:10ADC000D82C002070B5094A0949032000F0CAF9BF
:10ADD000044600BF2546002D06D000BF00221146C4
:10ADE0002846FEF761FA00BF00BF70BD51AE0100FA
:10ADF000CD0C000030B503460020042B24D2012ADC
:10AE000007D1012903D11C460D34E4B200E000242F
:10AE1000224600290FD0012902D0022911D104E0D5
:10AE20005C001C19094D2A550DE05C001C19074DEA
:10AE30006419627007E05C001C19044D6419A2706B
:10AE400001E0072000BF00E0072030BD563700209A
:10AE50007FB504460D2C0DD00E2C0BD00F2C09D035
:10AE6000102C07D0112C05D0122C03D0132C01D09C
:10AE7000142C7CD181A000680290112C06D0122CD9
:10AE800005D0132C04D0142C05D102E000BF00BF64
:10AE900000BF012600E000BF00BF0D2C01D0002E36
:10AEA00023D003A90020FEF791F96846007B002813
:10AEB0000DD06946087A012148406946087200BFF2
:10AEC000012040056E49C860002088600DE0694699
:10AED000087A012108436946087200BF0120400535
:10AEE000674988600020C86000BF0E2C01D0002E8A
:10AEF00023D003A90120FEF769F96846007B0028EA
:10AF00000DD06946087A022148406946087200BFA0
:10AF1000012080055A49C860002088600DE069461C
:10AF2000087A022108436946087200BF01208005A3
:10AF3000534988600020C86000BF0F2C01D0002E4C
:10AF400024D003A90220FEF741F96846007B0028BF
:10AF50000ED06946087A042148406946087200BF4D
:10AF60000120C0054649C860002088600EE07BE0F3
:10AF70006946087A042108436946087200BF012027
:10AF8000C0053F4988600020C86000BF102C01D078
:10AF9000002E23D003A90320FEF718F96846007B92
:10AFA00000280DD06946087A082148406946087291
:10AFB00000BF012000063249C860002088600DE013
:10AFC0006946087A082108436946087200BF0120D3
:10AFD00000062B4988600020C86000BF112C05D0F6
:10AFE000122C03D0132C01D0142C0DD16946487AB1
:10AFF000FF2108436946487200BF0F2040052049E1
:10B00000C8600020886000BF1E4800881E49884232
:10B010001ED002A91D48FFF7E1F90546002D22D0F8
:10B020001B4885421FD0082D1DD0801C85421AD098
:10B03000112D18D01748854215D017A1002005F012
:10B0400019F800BF002211462846FEF72DF90AE044
:10B0500010200C4909881CA31DA2009101901EA17B
:10B06000002005F007F808E026A029A32AA22CA1B9
:10B0700000940190002004F0FDFF7FBD0F00000050
:10B0800000050050062C0020FFFF0000402E00208D
:10B090000230000001340000424C455F4552524FDF
:10B0A000525F47415454535F5359535F4154545274
:10B0B0005F4D495353494E4720286F722073696D85
:10B0C000696C6172290A00001B5B303B33346D00F0
:10B0D0001B5B313B33306D00257349676E6F7269BE
:10B0E0006E6720627574746F6E2C206E6F742063AF
:10B0F0006F6E6E65637465643A20257325582F253D
:10B10000580A00001B5B303B33393B34396D00007B
:10B110001B5B313B33316D001B5B303B33316D00CA
:10B120002573556E68616E646C6564206273705F30
:10B130006576743A202573255825730A00000000AF
:10B1400070B50446002506480078C007C00F0028E7
:10B1500003D0204600F084F80546284670BD000064
:10B16000CC2C0020F7B582B006460F4600243148AB
:10B170000760314806603149049808600220304079
:10B18000002834D0002518E0012211462846FFF798
:10B1900031FE044628461130C2B202212846FFF78C
:10B1A00029FE04460D20019001984019C2B20021E9
:10B1B0002846FFF71FFE04466D1C042D01D2002C0B
:10B1C000E2D0002C05D17A0804211D48FDF7ACFF20
:10B1D0000446002C02D1FDF791FF0446002C05D156
:10B1E000184A00211848FEF7B5F9044600BFF007D9
:10B1F000C00F00280AD000BF0F2040051349886007
:10B200000020C86000BF0F2040058861002C05D1D8
:10B210000F4A00210F48FEF79DF90446002C05D186
:10B220000D4A01210D48FEF795F90446204605B068
:10B23000F0BD0000C82C0020CC2C0020D82C002011
:10B24000A010020081B80100DC2C00200005005095
:10B2500045E10100D02C0020D9900100D42C002021
:10B26000F8B50446002500262300FDF747FD180D1C
:10B2700018195C9FF7F5F4F3F2F1F0EFEEEDECEB5B
:10B28000EAE9E8E7E6E5E4E300BF0B204005FB4917
:10B2900088600020C86000BFF94804704FE200BF1A
:10B2A00000BF05208005F54988600020C86000BF08
:10B2B000084640680F2149054840012149050840DA
:10B2C00000280FD000BF0846EC4988600020C86005
:10B2D00000BF022C02D1E120C00001E07D2040012E
:10B2E00006460EE000BF01204005E449C86000208A
:10B2F000886000BF022C01D1C82001E0FF209130FE
:10B300000646DF48047064213046FCF739FFDD490A
:10B3100009684843074600223946DB480068FEF7C3
:10B32000F3F905460BE200BF05208005D34988608C
:10B330000020C86000BF084640680F21490548400A
:10B3400001214905084000280FD000BF0846CB491D
:10B3500088600020C86000BF032C02D11920400182
:10B3600001E07D20400106460EE000BF01204005BF
:10B37000C249C8600020886000BF032C01D1C820EA
:10B3800001E0FF2091300646BD480470642130463C
:10B39000FCF7F6FEBB4909684843074600223946D8
:10B3A000B9480068FEF7B0F90546C8E100BF0520BE
:10B3B0008005B24988600020C86000BF0846406828
:10B3C0000F214905484001214905084000280FD0B8
:10B3D00000BF0846A94988600020C86000BF042C4F
:10B3E00002D17D20400101E07D20400106460FE0B2
:10B3F00000BF01204005A149C8600020886000BF4F
:10B40000042C02D1FF20913001E0FF20913006464C
:10B410009B48047064213046FCF7B2FE99490968E4
:10B42000484307460022394697480068FEF76CF902
:10B43000054684E182E176E174E161E14EE13BE1C0
:10B440002FE1F4E0F2E0F0E0EEE0ECE0E2E0C9E071
:10B45000B2E099E082E06FE042E0FFE700BF052044
:10B460008005864988600020C86000BF08464068A3
:10B470000F214905484001214905084000280ED008
:10B4800000BF08467D4988600020C86000BF052CC9
:10B4900001D1C82001E07D20400106460EE000BF3A
:10B4A000012040057549C8600020886000BF052C58
:10B4B00001D1C82001E0FF20913006467048047099
:10B4C00064213046FCF75CFE6E4909684843074634
:10B4D000002239466C480068FEF716F905462EE151
:10B4E00000BF05208005654988600020C86000BF56
:10B4F000084640680F214905484001214905084098
:10B50000002806D000BF08465C4988600020C8605B
:10B5100007E000BF012040055849C860002088604E
:10B5200000BF574804705748002201685648006819
:10B53000FEF7EAF8054602E100BF052080054F4905
:10B5400088600020C86000BF00BF01204005C860BF
:10B550000020886000BF4A480470F0E000BF4749FF
:10B560004868012189058143444A91600121890588
:10B570000140D16000BF4348002201684248006892
:10B58000FEF7C2F80546DAE000BF3C4948680121F1
:10B5900089058143394A9160012189050140D160C3
:10B5A00000BF3848006882008118002236480068D1
:10B5B000FEF7AAF80546C2E000BF304948680121FD
:10B5C000890581432D4A9160012189050140D1609F
:10B5D00000BF2C48002201682B480068FEF794F851
:10B5E0000546ACE000BF2549486801218905814333
:10B5F000224A9160012189050140D16000BF2148A4
:10B6000000688200811800221F480068FEF77CF85D
:10B61000054694E000BF0F2040051849C86000208F
:10B62000886000BF8BE000BF00BF00BF00BF1748AD
:10B630000068FEF79FF805461120061B002E27D054
:10B64000002D25D1012E10D9C8217143084664214F
:10B65000FCF796FD0B490968484307460022394626
:10B660000A480068FEF750F8054600BF0120C005F3
:10B670000249C8600020886012E000000005005008
:10B68000C42C0020C82C0020D02C0020D42C00205A
:10B6900000BF0120C0052B4988600020C86000BFA2
:10B6A0004DE000BF0F204005264988600020C8609B
:10B6B00000BF2548047042E000BF072080052149F3
:10B6C00088600020C86000BF00BF01204005C8603E
:10B6D0000020886000BF1C48047030E000BF0D20CF
:10B6E0004005184988600020C86000BF00BF0120E5
:10B6F0008005C8600020886000BF134804701EE009
:10B7000000BF0320C0050F4988600020C86000BF4B
:10B7100000BF03204005C8600020886000BF0A48C1
:10B7200004700CE000BF00BF0F2040050549C86051
:10B730000020886000BF0448047000E000BF00BF24
:10B740002846F8BD00050050C42C002030B58FB04D
:10B7500004460D460020079000BF6846007F01099F
:10B760000901491C68460177007FF02188431030A9
:10B770006946087700BF00BF6846407F010909019C
:10B78000491C68464177407FF02188431030694664
:10B79000487700BF6846807F06218843811C684641
:10B7A00081771C2108A8FCF72EFD08A8007802214B
:10B7B0008843811C08A80170007810218843411833
:10B7C00008A80170002009900B900C9007A80D901C
:10B7D00000200E90A17C684681712849818000205C
:10B7E000009000BF6846007801090901491C6846BD
:10B7F00001700078F021884310306946087000BF5E
:10B8000000BF6846407801090901684641704078E8
:10B81000F02188436946487000BF68468078062159
:10B820008843811C684681708078082188430146DE
:10B83000684681708078102188430146684681708F
:10B8400080784108490068468170142102A8FCF7FD
:10B85000DAFC01A8029068460390022101820021CF
:10B8600041820221818200200690208823460A33EB
:10B8700002AA08A9A2DF0FB030BD00002515000004
:10B8800010B504460548426805A1002004F0F2FB0B
:10B8900020780221FFF764F910BD00000015014077
:10B8A00074696D65722068616E646C657220202514
:10B8B00078200A000021C9438200054B99500428D2
:10B8C00004DB0B46011F024A483253547047000004
:10B8D000A439002001468800014A10587047000032
:10B8E000A4390020F7B585B00B460020C043049072
:10B8F000002A01D0002000E004200390002A01D09B
:10B90000042000E00A20029003991EE08800124CF7
:10B910002058401C002817D10846059C009301922E
:10B9200046B20D4D28352E5585000B4E009B7351A8
:10B93000019A002A04D166B2051F074F48377E5589
:10B9400000BF48B2049003E0491C02988142DDD355
:10B9500000BF049808B0F0BDA4390020014601489A
:10B9600040567047CC390020F0B58FB007460D46E1
:10B9700014461E4600BF002D01D0012000E000202B
:10B9800000900098002806D100BF00221146104602
:10B99000FDF78AFC00BF00BF00BF002C01DD0120C5
:10B9A00000E0002000900098002806D100BF00228F
:10B9B00011461046FDF778FC00BF00BF1C2107A808
:10B9C000FCF721FC6946087F02218843801C6946F8
:10B9D0000877002008900A900B900C900D9000BF03
:10B9E000012108A881766846078700BF00200190E2
:10B9F00031786846017171784171807906218843F8
:10BA0000811C684681718079082188430146684617
:10BA1000817180791021884301466846817180795F
:10BA20004108490068468171142102A8FCF7EBFB2C
:10BA30000EA8029001A8039068460482002141826A
:10BA40008482069502AA07A902480088149BA2DFF7
:10BA50000FB0F0BDF82C0020F0B587B03E4800785C
:10BA6000142148433C49091D4418E7680C21A0688B
:10BA700048433A494018008906900C21A068484381
:10BA800036494018408905900C21A0684843334945
:10BA900040184068049003F0F5FF014602903846D4
:10BAA000FCF76EFB002901D1012000E0002003908B
:10BAB000059906984843049946186088C019A188DA
:10BAC00045180020264908600398002804D003F098
:10BAD000D9FF618888420AD00398002804D0B54273
:10BAE00002D1A088002802D0A06803280CD103F05E
:10BAF000C9FF014602903846FCF742FB194908602D
:10BB0000032004F0C9FC24E003F0BCFF0190A188ED
:10BB1000C8190199FCF734FB88081349086003F041
:10BB2000B1FF014601902846FCF72AFB002901D10C
:10BB3000012000E000200290B54206D002980028C3
:10BB400003D1B1B2A8B204F021FF022004F0A4FC9A
:10BB500000BF07B0F0BD0000F4390020C03A00205B
:10BB6000B42D0020B82D0020B02D002010B50848BD
:10BB70000078142148430649091D441820780428F8
:10BB800002D000F0BBF801E004F022FE10BD00007E
:10BB9000F4390020012008498861002007494860E5
:10BBA00001208107886000BF044840680028FBD05E
:10BBB0000020024948607047000500400001004035
:10BBC00010B50F480078142148430D49091D441849
:10BBD00060880C4908602078012804D0032805D02B
:10BBE000042809D105E004F0F3FD06E0FFF734FF77
:10BBF00003E005F025F900E000BF00BF10BD000024
:10BC0000F4390020C42D002010B5034840780028E6
:10BC100001D0FFF7D5FF10BDF43900200023142117
:10BC200041430C4A53541421414389184B80022349
:10BC30001421414389188B60002314214143891842
:10BC4000CB601421414389180B61142141438918A9
:10BC50008B807047F8390020FFB581B00646174643
:10BC60001C4840780A2830D01A4800781949497889
:10BC700044180A2C00D30A3C142060431549091DBE
:10BC80000E5414206043401807611420604341188B
:10BC9000029805C8CA608860142161430D4A121DCC
:10BCA0008918049848801421614389180A9888806B
:10BCB000101F4078401C111F48700748007800286A
:10BCC00001D1FFF77DFF002500E00425284605B0DF
:10BCD000F0BD0000F4390020AC2D002010B500208C
:10BCE000054908704870002403E02046FFF796FFDE
:10BCF000641C0A2CF9D310BDF439002010B5084893
:10BD0000007814225043064A121D81180020FDF7C6
:10BD1000F5FA00F007F8002004F0BEFB10BD0000AB
:10BD2000F439002010B509490878FFF777FF074874
:10BD30004078401E0549487008460078401CC0B253
:10BD400008700A2801D10020087010BDF4390020C5
:10BD5000FEB51E480068401C002834D01B4800680F
:10BD6000242148431A4909684018456804F026F917
:10BD70000190184804682146019804F033FEC61C5F
:10BD800015480078002801D104F02AF9AE4201D20A
:10BD9000284600E0304604192402240A20460F49B0
:10BDA000086000BF04F00AF900900199009804F0BF
:10BDB00019FEC71C2046019904F014FE874201D9E0
:10BDC00004F0D4FF01E004F029F9FEBD0C2E0020A0
:10BDD000002E0020102E0020242E002040150140AF
:10BDE00001460888062808DB08881922D2019042FB
:10BDF00005DD0888104A904201D007207047488826
:10BE0000062808DB48881922D201904205DD4888BF
:10BE1000094A904201D00720F0E70888064A90427C
:10BE200008D04888904205D008884A88904201DDB1
:10BE30000720E3E70020E1E7FFFF0000F8B5064632
:10BE40000D4614462078801D1F2801D90C20F8BD0E
:10BE50003046FFF7C5FF0746002F01D03846F6E70A
:10BE600005212278501C2070A95412212278501CE0
:10BE70002070A95422785119308804F0D8FF217815
:10BE80004018207022785119708804F0D0FF217872
:10BE9000401820700020DAE73EB5044600BF0022BB
:10BEA00011462046FDF700FA00BF06A008A10AA32C
:10BEB0000BA20194009102900BA1002004F0DAF88B
:10BEC0003EBD00001B5B303B33393B34396D000015
:10BED0001B5B313B33316D001B5B313B33376D00F6
:10BEE0001B5B313B34316D0025732573436F6E6EE0
:10BEF000656374696F6E20706172616D7320657225
:10BF0000726F723A202573255825730A00000000CD
:10BF100030B587B01C216846FCF775F90020009009
:10BF20000520C00301900F20000402900321684601
:10BF300001730021C18101740A4805900A480690E6
:10BF40006846FEF799FA044600BF2546002D06D044
:10BF500000BF002211462846FDF7A6F900BF00BF2A
:10BF600007B030BD4DEF010099BE010038B51F4844
:10BF700002F026F8002829D11D48007800280AD0B0
:10BF80001C484069002820D00020009019484169D1
:10BF90006846884719E018480078002802D11548FB
:10BFA000456801E013488568002229461348006867
:10BFB000FDF7AAFB0446002C07D00E488069002834
:10BFC00003D00C488169204688470AE00948406947
:10BFD000002806D00120009006484169684688473D
:10BFE00000BF00200249087038BD0000842D0020E9
:10BFF000902D002088390020802D00208C2D0020DD
:10C0000070B503460C460820002115E00C254D4371
:10C010000B4EAD19AD7A2540002D0CD0094DAB4229
:10C0200005D00C254D43AD192D899D4202D11160DB
:10C03000002003E00520491C0029E7D000BF70BDA7
:10C040005C380020FFFF000010B5044601210C20E1
:10C0500060430A4A80188172891E0C206043801850
:10C060000181FF210C2060438018C1720C216143C3
:10C0700088180721FCF7C7F810BD00005C380020C5
:10C0800010B514484068C105C90D002920D00A46E2
:10C09000103A50B200280DDA0E4B1C330407240F5F
:10C0A000083CA408A4001B598407E40EE3401B06C7
:10C0B0009B0F0BE0084B032424021B198408A400E7
:10C0C0001B598407E40EE3401B069B0FD8B210BD3A
:10C0D0000420FCE700ED00E000E100E010B51448AA
:10C0E0004068C105C90D002920D00A46103A50B257
:10C0F00000280DDA0E4B1C330407240F083CA4085B
:10C10000A4001B598407E40EE3401B069B0F0BE0C1
:10C11000084B032424021B198408A4001B5984071C
:10C12000E40EE3401B069B0FD8B210BD0420FCE7D1
:10C1300000ED00E000E100E010B51C4800680821B7
:10C14000084000282FD11A480068401C1849086090
:10C1500018480068002803D0042004F0A1FB24E064
:10C1600001F092FF002803D0022004F099FB1CE0AC
:10C1700011480068002813D00C480078C007C00F91
:10C18000002809D1094800680121084307490860CF
:10C19000002004F085FB08E0032004F081FB04E0AC
:10C1A00004F052FB01E004F05FFB10BDC82D00203D
:10C1B000B82D0020B02D0020B42D002010B50C4863
:10C1C00000680821084000280FD1094800680221B2
:10C1D0000840002805D006480068012108430449AA
:10C1E0000860022004F05CFB01E004F03DFB10BDA0
:10C1F000C82D0020F8B5002535E0E8001C49096885
:10C20000441821780120884006461A4800683040CA
:10C21000002826D017480068B043164908602078E7
:10C2200002F0B6FA074621780120884012490968D1
:10C230000840227839469140884211D1607801281F
:10C2400000D100E000207840012148400090606863
:10C25000002804D0009BD9B220786268904700BFC4
:10C2600000BF681CC5B2054800788542C5DBF8BD33
:10C27000D42D0020E82D0020E42D0020D82D002012
:10C28000FEB504460E46A1786A46284803F02CFA0B
:10C290000546002D49D160780C21484324494018B7
:10C2A000807A40210840402801D0022E01D1214F40
:10C2B00004E0012E01D1204F00E0204FA0781C2285
:10C2C00050431F4A811800231C226846B847054680
:10C2D000002D1AD1022E18D060780C214843144941
:10C2E0004018807A4021884361780C225143104ADB
:10C2F0008918887260781C225043124A81181C23C6
:10C300001A466846B847054600BF022E0DD0207871
:10C310000C2148430C494018807A80000B490A5888
:10C32000214668469047054600BFFEBD442D0020CB
:10C330005C38002059FE01002DFD01006507020058
:10C34000643700202838002068380020D010020010
:10C35000F8B505460E461B4F00242EE01C20604316
:10C3600019494018807EFF2826D13078022814D041
:10C370001C2060434018807E022188431C216143B9
:10C38000114A891888761C216143891808461030A3
:10C3900007223146FBF71EFF0BE01C2060430A49D1
:10C3A0004018807E410849001C206043064A8018DE
:10C3B00081762C70002702E0641C072CCED300BFCE
:10C3C0003846F8BD4380000064370020F8B50546C4
:10C3D0000E4617460520009000241BE0002D06D1D4
:10C3E0001C2060430E494018008BB8420DD0002D30
:10C3F0000FD01C2161430A4A8918084610300722D1
:10C400002946FBF712FF002803D13460002000907A
:10C4100002E0641C072CE1D300BF0098F8BD0000C7
:10C42000643700207CB50546A9B26A46084803F087
:10C430005BF90446002C09D15421684603F082FAC6
:10C440000446002C02D1284603F07CF820467CBD2F
:10C45000442D0020F8B505460E46144600BF274679
:10C46000002F06D000BF002211463846FCF71CFF03
:10C4700000BF00BF3078142804D0152808D0212828
:10C480000AD100BF042229460548FBF7A3FE03E0BA
:10C490002846FCF7B3FE00BF00BF0020F8BD000037
:10C4A000102C00207FB5344800F0CCFE044600BFBD
:10C4B0002546002D06D000BF002211462846FCF775
:10C4C000F3FE00BF00BF03F0E3FA044600BF2546B9
:10C4D000002D06D000BF002211462846FCF7E4FEDE
:10C4E00000BF00BF03A800F0BBFE044600BF254606
:10C4F000002D06D000BF002211462846FCF7D4FECE
:10C5000000BF00BF052101A80130FBF77CFE684693
:10C51000407941084900491C68464171407902212F
:10C52000884301466846417140791C218843014691
:10C530000C316846417140792021884301466846A4
:10C540004171072181711021C1710C4800900121B6
:10C550006846017169460A4801F066F8044600BF62
:10C560002546002D06D000BF002211462846FCF7C4
:10C570009BFE00BF00BF7FBD102C002055C40100F2
:10C58000082C002031B50949684600F069FA0446D4
:10C5900000BF2546002D06D000BF002211462846C8
:10C5A000FCF782FE00BF00BF38BD0000D02D002088
:10C5B000F8B504460D462878002803D12088FEF7F8
:10C5C00077FA12E0032201212046FEF73FF80646E3
:10C5D00000BF3746002F06D000BF00221146384664
:10C5E000FCF762FE00BF00BF00BF00BFF8BD000047
:10C5F00070B58AB00646002003903F49304600F0EF
:10C60000EBFD0446002C75D104A93B4800F070FDF9
:10C610000446002C4ED100BF2546002D06D000BF99
:10C62000002211462846FCF73FFE00BF00BF0898D5
:10C630000146103107223148FBF7CCFD10222F486C
:10C64000C01D0899FBF7C6FD11222C48183004992B
:10C65000FBF7C0FD0498014612310A2227482A3010
:10C66000FBF7B8FD254800DF044600BF2546002D36
:10C6700006D000BF002211462846FCF715FE00BF79
:10C6800000BF012003900420019003A80290002025
:10C6900000906946184800F0DDF9044600BF2546C1
:10C6A000002D06D000BF002211462846FCF7FCFDF5
:10C6B00000BF1FE01149104800F056FE044600BFBD
:10C6C0002546002D06D000BF002211462846FCF763
:10C6D000EBFD00BF00BF094800DF044600BF254650
:10C6E000002D06D000BF002211462846FCF7DCFDD5
:10C6F00000BF00BF0AB070BDD02D0020D83A002086
:10C70000704700000149086070470000CC2D0020F0
:10C7100010B58EB004461C2107A8FBF774FD6846CF
:10C72000007F08218843411868460177007F102167
:10C730008843411868460177002008900A900B90C2
:10C740000C900D90A1796846817128498180002064
:10C75000009000BF68460078010909016846017031
:10C760000078F02188436946087000BF00BF684622
:10C77000407801090901491C684641704078F02160
:10C78000884310306946487000BF684680780621AB
:10C790008843811C6846817080780821884301465F
:10C7A00068468170807810218843411868468170FE
:10C7B000807841084900491C68468170142102A80C
:10C7C000FBF721FD01A80290684603900021018239
:10C7D00041821721818200200690A08823461033D1
:10C7E00002AA07A9A2DF0EB010BD0000311500009B
:10C7F00010B5044622460FA1002003F03BFC002C9C
:10C8000017D01248844214D0082C12D0801C8442C5
:10C810000FD0112C0DD00E4884420AD00DA100205B
:10C8200003F028FC00BF002211462046FCF73CFD27
:10C8300000BF10BD0A444655206572726F722065B4
:10C8400076656E743A2025580A0000000230000018
:10C85000013400005265616C20424C4520657272C3
:10C860006F72210070B505460C46227804A10020A5
:10C8700003F000FC21462846FFF79AFE70BD000039
:10C88000444655206576656E743A2025580A0000A6
:10C8900010B58EB004461C2107A8FBF7B4FC68460F
:10C8A000007F04218843011D68460177002008901D
:10C8B0000A900B900C900D90A179684681712849DF
:10C8C00081800020009000BF6846007801090901BE
:10C8D000684601700078F02188436946087000BFFF
:10C8E00000BF6846407801090901491C684641704B
:10C8F0004078F021884310306946487000BF684690
:10C90000807806218843811C6846817080780821E0
:10C91000884301466846817080781021884301462B
:10C9200068468170807841084900491C68468170DA
:10C93000142102A8FBF767FC01A802906846039047
:10C940000021018241821421818200200690A0886A
:10C950002346083302AA07A9A2DF0EB010BD0000CB
:10C960003215000030B58FB004460D461C2108A8D2
:10C97000FBF749FC08A8007802218843811C08A81D
:10C980000170002009900B900C900D900E90A179F1
:10C9900068468172284901810020019000BF6846E5
:10C9A000007901090901491C684601710079F021EB
:10C9B000884310306946087100BF00BF684640795F
:10C9C00001090901684641714079F02188436946AF
:10C9D000487100BF6846807906218843811C6846FB
:10C9E0008171807908218843014668468171807988
:10C9F00010218843014668468171807941084900C9
:10CA0000491C68468171142103A8FBF7FCFB02A8AE
:10CA1000039001A804900221684681820021C1820E
:10CA2000022101830795A0882346203303AA08A981
:10CA3000A2DF0FB030BD00003415000001460148F0
:10CA400070470000918000000246014870470000D6
:10CA5000918000000246014870470000918000006C
:10CA6000024600BF11480078002801D110487047E5
:10CA700000BF002902D10E48801DF8E7002A02D12C
:10CA80000B48801DF3E700BF1078012806DA107804
:10CA90000C235843074B1858002801D10448E6E7F7
:10CAA00000BF107808700020E1E70000502D002042
:10CAB0000880000068380020F0B58FB00446FF20E1
:10CAC0000D9000260020079000BFFE480078002847
:10CAD00001D10FB0F0BD00BF00BFFB4800680028C7
:10CAE00000D1F6E700BF0CA800F0ACFB054600BF84
:10CAF0002F46002F06D000BF002211463846FCF713
:10CB0000D3FB00BF00BF002008900025201D0A9025
:10CB10002A2168468185FF2108A8817400210174BB
:10CB200000200E902088102813D0A0880EAA022181
:10CB3000FFF766FA0546002D0BD10C210E984843ED
:10CB4000E2494018C17A08A881740E98C1B208A8B9
:10CB50004174208817287BD008DC10280DD01128BC
:10CB60007CD0132876D0142875D1B5E0182873D05E
:10CB70001C2872D05228F7D180E20EAF3A4601212C
:10CB8000D348FFF73DFA00900098002807D1022112
:10CB90000C2238685043CD4A8018817201E004208D
:10CBA000009000980546002D51D10126112108A8BA
:10CBB00001710E98C1B208A84174A1880C220E9888
:10CBC0005043C24A8018018102210C220E98504322
:10CBD000BE4A801881720C220E995143BB4A8818B4
:10CBE0000722A11DFBF7F6FA207D304000280AD06D
:10CBF000207D4008B749085CFF280AD0207D400806
:10CC0000085C0D9005E0B24A0DA9A01DFFF7DEFB00
:10CC10000546002D1BD10D98C1B20C220E98504331
:10CC2000AA4A8018C1720C210E9848431146401838
:10CC3000807A082108430C220E995143A34A89188F
:10CC4000887208A90D9888740CA8FDF709FF24E2E2
:10CC5000FAE003E085E01FE2ADE118E20C210E9856
:10CC600048439A494018807A022188430C220E9941
:10CC70005143964A891888720C210E9848431146F0
:10CC80004018807A0821084008280ED10C210E98FF
:10CC9000484311464018807A8021084080280FD1EF
:10CCA00000210CA8FFF7ECFA0AE008A8807CFF2816
:10CCB00006D008A9887C02F045FCFF2008A98874EA
:10CCC00010210C220E985043804A80188172012650
:10CCD000122008A90871E0E10C210E9848437B4915
:10CCE0004018C07AFF2823D1E2890DA90020FFF760
:10CCF0006DFB0546002D1BD10D98C1B20C220E987C
:10CD00005043724A8018C1720C210E984843114654
:10CD10004018807A082108430C220E9951436B4A2F
:10CD20008918887208A90D9888740CA8FDF798FED8
:10CD30000C210E98484365494018C07AFF2805D059
:10CD40001C210E9848436449401807901C230E99F3
:10CD50005943624BCA18A0880023079982DF054611
:10CD60009BE1132008A908710C210E9848435749EC
:10CD70004018807A042108430C220E995143534AEB
:10CD80008918887201260C210E98484311464018D4
:10CD9000C07AFF2819D10C220E9850430A468118F8
:10CDA0000DA8FFF7D5FA0546002D0BD108A90D985F
:10CDB00088740D98C1B20C220E985043434A8018D3
:10CDC000C1721DE0089501261AE0162008A9087115
:10CDD00018220E995143424A8918084608300E21FC
:10CDE000FBF711FA0C210E98484338494018807A15
:10CDF000402108430C220E995143344A8918887205
:10CE0000002004900C210E98484330494018C07A05
:10CE10001C214843314941180591002106911C21EC
:10CE20000E9848432C49401801900020029003902E
:10CE3000A08801AB244A121D00217FDF0546002D8A
:10CE400001D00895002628E11F48407A400840009C
:10CE50001D4948720C210E9848431C494018807A9D
:10CE6000042188430C220E995143184A891888726C
:10CE7000142008A908710126A07900280AD00C22E4
:10CE80000E995143114A8918C87AFFF7CBFAA07955
:10CE900008908FE0E0794007C00F00287ED008A8F6
:10CEA000807CFF287AD00C210E984843074940180F
:10CEB000807A082108430C220E995143034A8918AD
:10CEC00088720FE0502D0020683800205C38002068
:10CED000FFFF0000512D002028380020643700207B
:10CEE00044380020E07A8007C00F00280FD008A83F
:10CEF000807C1C21484377494018807E41084900C6
:10CF000008A8807C1C225043724A801881760C212C
:10CF10000E98484370494018C07AFF284AD00C2127
:10CF20000E9848436C49085C022820D00C230E9AC6
:10CF30005A430B46D11808AA927C1C235A43654BCE
:10CF4000D218104610300722FBF744F908A8807C5D
:10CF50001C2148435F494018807E0221884308A96C
:10CF6000897C1C2251435B4A891888761EE01C216B
:10CF70000E98484359494018418A08A8807C1C22D1
:10CF80005043544A8018018308A8807C1C214843E0
:10CF900011464018807E4108490000E00AE008A8D8
:10CFA000807C1C2250434B4A8018817601210CA8BA
:10CFB000FFF766F971E0A079000901283DD1A07959
:10CFC0000007000F012838D10C210E984843424930
:10CFD0004018807A0821084008282ED118220E997E
:10CFE00051433F4A891808180E21FBF70CF9162007
:10CFF00008A908710C210E98484337494018807AD7
:10D00000202108430C220E995143334A8918887213
:10D010000C210E98484311464018807A402108435D
:10D020000C220E9951432C4A891888722D48407A57
:10D03000022108432B4948721CE00C210E984843FA
:10D0400025494018807A802108430C220E995143CB
:10D05000214A89188872152008A908712148807A08
:10D060008000214A11580CA888470546002D01D0A0
:10D070001E4808900020089001260EE01948807A8A
:10D080008000194A11580CA88847089005E0132021
:10D0900008A90871012600E000BF00BF002E16D0CD
:10D0A00009A90CA8089AFCF71BF908A8007912280E
:10D0B0000DD100BF0C210E98484307494018807AD3
:10D0C000012802D00E98FEF7BFFF00BF00BF00BFCF
:10D0D000FFE40000643700205C380020283800207E
:10D0E0004438002068380020F01002004180000021
:10D0F00070B58AB005460C4600BF3148007800285C
:10D1000002D130480AB070BD00BF002D02D12D48B9
:10D11000801DF7E7002C02D12A48801DF2E700BFEE
:10D120002878012806DA28780C214843264908582F
:10D13000002801D12348E5E700BF00BFA8780728F1
:10D1400007DAA8781C21484320494018807EFF2830
:10D1500002D11C480830D5E700BF00BF0020E060C6
:10D16000A8781C21484319494118216100216161B7
:10D17000174860600020A06003A82060A97801AA79
:10D18000144802F0B1FA0646002E17D11C231A46A5
:10D1900001A903A802F0C0FC0646002E0ED1E060F3
:10D1A000A8781C2148430949411821610021616187
:10D1B000074860600020A06003A820603046A1E717
:10D1C000502D0020088000006838002064370020BF
:10D1D00074380020442D002030B50446002901D1C8
:10D1E000154830BD00BF0878012806DA08780C25FC
:10D1F0006843124D2858002802D10F48801FF0E7DD
:10D2000000BFFF208870052300220FE00C20504350
:10D210000B4D40190089A04207D14A700C205043A1
:10D220004019C07A8870002302E0521C002AEDD019
:10D2300000BF1846D5E700000E80000068380020C7
:10D240005C3800200146002901D104487047FF20C6
:10D25000087048708870C8700020F7E70E800000E2
:10D260007FB50646002E02D1374804B070BD0024B9
:10D270000FE000BF00210C206043344A11500C2005
:10D280006043801841720C2060438018817200BF97
:10D29000641C002CEDD0002403E02046FEF7D4FEF1
:10D2A000641C002CF9D018212948FAF7ACFF00249F
:10D2B00006E0204602F046F9FF2026490855641C86
:10D2C000072CF6D35421684681810721C181224869
:10D2D0000290224902A802F09DFC0546002D30D1A3
:10D2E00001201F4908703078002821D100241CE05B
:10D2F000A1B26A46194802F0F7F90546002D0FD190
:10D300001C216143174A881800231C22694602F039
:10D3100003FC0546002D07D000201149087006E0E7
:10D3200000200F49087002E0641C072CE0D308E0DD
:10D330006A469089D289504381B2084802F002FBC4
:10D340000546284691E700000E800000683800205E
:10D3500044380020512D00202DD40100442D002000
:10D36000502D00206437002070B504460E4600BFE3
:10D3700029480078002801D1284870BD00BF002C42
:10D3800002D12648801DF8E7002E02D12348801DD7
:10D39000F3E700BF2078012806DA20780C21484303
:10D3A0001F490858002801D11C48E6E700BF1B4D63
:10D3B000ED1EA078FF2817D16078FF282AD060786A
:10D3C0000C21484317494018807A0221084002285E
:10D3D00020D160780C225043124A8118072230462F
:10D3E000FAF7F8FE002515E0A0781C2148430E4905
:10D3F0004018807E0221084000280BD1A0781C2212
:10D400005043094A80180146103107223046FAF786
:10D41000E1FE00252846B0E7502D002008800000DE
:10D42000683800205C38002064370020FFB591B0D8
:10D430000F461D4600BF74480068002801D115B092
:10D44000F0BD00BF1A98542800D9F8E701200790D2
:10D450000DA8FFF7F7FE064600BF0696069E002EB3
:10D4600006D000BF002211460698FBF71DFF00BF43
:10D4700000BF002108A8017501760C951A980B9041
:10D480000020069016E0069881B208AA5F4802F0D4
:10D490002BF90646002E0AD1082208A91198FAF79E
:10D4A000C4FE002803D108A90698887505E00698EF
:10D4B000401C069006980728E5D300BF08A8807D89
:10D4C000FF2876D0032F0AD11A98542803D12020A0
:10D4D00008A9087673E0402008A908766FE04C4957
:10D4E000681A1C21FAF74CFE0446072C1DD20AA824
:10D4F0000F901398002810D108A9887D0121814040
:10D50000444A12681140002901D0012100E00021A5
:10D51000002902D10020079051E008A9887D03F07E
:10D5200093FC202008A9087649E03B49681A1C2191
:10D53000FAF726FE0446002C1AD10AA80F902021E3
:10D5400008A80176447500200490344905911C20F8
:10D55000604331494018019008A8807D1C21484350
:10D560002B494018029001A80C9018200B9026E03F
:10D570002B49681A1821FAF703FE0446002C19D12A
:10D58000302108A8017644750121C1750C20604343
:10D5900024494018807A0221084002280FD008A9A7
:10D5A000497D182251431E4A88181821FAF72BFE8C
:10D5B00005E026E000200790402008A9087607989B
:10D5C00001281ED1032F06D108A9087E0321084394
:10D5D00008A908760EE0022F06D108A9087E0121CD
:10D5E000084308A9087605E008A9087E0221084337
:10D5F00008A908760AA80F900EA90DA8139AFBF7A0
:10D600006FFE00BF1BE7000068380020442D00209B
:10D61000643700204C2D002028380020743800206A
:10D62000443800205C38002070B505460C4600BF29
:10D6300029480078002801D1284870BD00BF002D7E
:10D6400002D12648801DF8E7002C02D12348801D16
:10D65000F3E72068002802D12048801DEDE720482C
:10D660000068002834D11E49206808600522611D29
:10D670001B48001DFAF7AEFD20791949887208464B
:10D68000007A4008400008720846007A0221884368
:10D69000801C134908720846007A04218843104907
:10D6A00008720846C07940084000401CC87108460E
:10D6B000C07902218843801C0949C8710846C07995
:10D6C000042188430649C87100202870002601E023
:10D6D000024E361F3046B0E7502D00200880000073
:10D6E00068380020014614480078144A12789042A5
:10D6F0001DD011480078401C0F4A10701046007869
:10D70000022801D1002010700B48007880000C4ADC
:10D71000105808600B4A086812688018094A10609F
:10D72000104600680002000A1060012070470020C7
:10D73000086000BFFAE700001C2E00201D2E00200C
:10D74000142E0020102E002010B50D48006808216E
:10D750000840002810D10B480068401C09490860A7
:10D7600000F092FC002802D1FEF700FA06E006481D
:10D77000007802F091FE01E000F05CFE10BD0000B8
:10D78000C82D0020B82D0020AC2D0020F0B5034698
:10D79000002426E0164E366824277E43154F3F6846
:10D7A000F01946689E4203D94668F61A46601DE0A5
:10D7B00046689B1B466834190026466006750C4E69
:10D7C00035680B4F066A3E600669002E08D00E19B8
:10D7D0003602360A86600669C660166806621560FB
:10D7E00000BF03480068401C0028D3D100BFF0BD33
:10D7F0000C2E0020002E002030B58FB004460D46C0
:10D800001C2108A8FAF7FFFC08A800780221884329
:10D81000811C08A80170007808218843411808A8D5
:10D820000170002009900B900C900D900E90A17C3F
:10D83000684681722D4901810020019000BF684631
:10D84000007901090901491C684601710079F0213C
:10D85000884310306946087100BF00BF68464079B0
:10D8600001090901491C684641714079F02188434A
:10D8700010306946487100BF6846807906218843A8
:10D88000811C684681718079082188430146684679
:10D8900081718079102188430146684681718079C1
:10D8A0004108490068468171142103A8FAF7ABFCCE
:10D8B00002A8039001A804902021684681820021DB
:10D8C000C1822021018320461C3007902020009037
:10D8D00023461C3306A10020079A02F0CBFB2088C8
:10D8E000A31C03AA08A9A2DF0FB030BD26150000B3
:10D8F0004174206669726D776172655F6E69636BF2
:10D900006E616D655F636861725F61646420303A67
:10D910002025732F255820282558290A00000000AB
:10D92000F8B50C46174622460FA1002002F0A2FBD4
:10D9300020211248FAF767FC3A4621460F48FAF7C9
:10D9400049FC20210E4801F0FDFF054600BF2E4690
:10D95000002E06D000BF002211463046FBF7A4FC83
:10D9600000BF00BFF8BD00004E6577206E69636B95
:10D970006E616D65203A2025730A0000A42E0020F8
:10D980001C2C002010B50446002C02D0112C08D10C
:10D9900000E00AE0064800680821084304490860DE
:10D9A00003E02046FBF7C2FC00BF00BF10BD000033
:10D9B000C82D002010B50C480068401C0A490860BA
:10D9C00003280DD009480078022804D007480078C1
:10D9D00002F062FD07E00648007802F061FF02E015
:10D9E0000D20FBF7A3FC10BDBC2D0020AC2D0020AA
:10D9F000AD2D002010B50A480078012804D0022877
:10DA000008D0032809D102E002F0E8FE06E0FFF7A3
:10DA10009BFE03E002F038FF00E000BF00BF10BD36
:10DA2000AC2D002070B50446204628DF0546FFF7E0
:10DA3000A9FF70BDF8B504460D4616463246294684
:10DA4000204629DF0746FFF79DFFF8BD3EB500BF22
:10DA50006846007801090901491C00916846007870
:10DA6000F02188431030009000BF11221EA16846AB
:10DA70007CDF044600BF2546002D06D000BF0022F3
:10DA800011462846FBF710FC00BF00BFFF20813085
:10DA900078DF044600BF2546002D06D000BF0022D7
:10DAA00011462846FBF700FC00BF00BF0020019094
:10DAB0000290502168468180A021C180042101810B
:10DAC000FF219131418101A87ADF044600BF25463C
:10DAD000002D06D000BF002211462846FBF7E4FBCC
